{
  "contractName": "GladiusSvgHelper",
  "abi": [
    {
      "inputs": [
        {
          "internalType": "string",
          "name": "_swordMaterial",
          "type": "string"
        }
      ],
      "name": "makeGladius",
      "outputs": [
        {
          "internalType": "string",
          "name": "",
          "type": "string"
        }
      ],
      "stateMutability": "pure",
      "type": "function",
      "constant": true
    }
  ],
  "bytecode": "0x611c7b61003a600b82828239805160001a60731461002d57634e487b7160e01b600052600060045260246000fd5b30600052607381538281f3fe73000000000000000000000000000000000000000030146080604052600436106100355760003560e01c80631bb26c4d1461003a575b600080fd5b61004d6100483660046100a2565b610063565b60405161005a9190610183565b60405180910390f35b60608160405160200161007691906101d2565b6040516020818303038152906040529050919050565b634e487b7160e01b600052604160045260246000fd5b6000602082840312156100b457600080fd5b813567ffffffffffffffff808211156100cc57600080fd5b818401915084601f8301126100e057600080fd5b8135818111156100f2576100f261008c565b604051601f8201601f19908116603f0116810190838211818310171561011a5761011a61008c565b8160405282815287602084870101111561013357600080fd5b826020860160208301376000928101602001929092525095945050505050565b60005b8381101561016e578181015183820152602001610156565b8381111561017d576000848401525b50505050565b60208152600082518060208401526101a2816040850160208701610153565b601f01601f19169190910160400192915050565b600081516101c8818560208601610153565b9290920192915050565b7f3c7376672076696577426f783d273020302035322e3931363636362035322e39815266189b1b1b1c139f60c91b60208201527f3c67207374796c653d27646973706c61793a696e6c696e65273e000000000000602782015264078e0c2e8d60db1b60418201527f7374796c653d27646973706c61793a696e6c696e653b66696c6c3a233030303060468201527f30313b7374726f6b652d77696474683a302e323634353833270000000000000060668201527f643d276d2034362e3330323038362c362e36313435383231206820312e333232607f8201527f393137207620312e333232393136362068202d312e333232393137207a206d20609f8201527f2d312e3332323931382c30206820312e333232393137207620312e333232393160bf8201527f36362068202d312e333232393137207a206d20312e3332323931382c322e363460df8201527f3538333339206820312e333232393137207620312e3332323931372068202d3160ff8201527f2e333232393137207a206d20302c2d312e333232393137206820312e3332323961011f8201527f3137207620312e333232393136372068202d312e333232393137207a206d203061013f8201527f2c322e363435383334206820312e333232393137207620312e3332323931372061015f8201527f68202d312e333232393137207a206d20302c312e333232393136206820312e3361017f82015260007f3232393137207620312e3332323931372068202d312e333232393137207a206d8061019f8401527f20302c312e333232393137206820312e333232393137207620312e33323239316101bf8401527f3720482034362e333032303836205a204d2034332e36353632352c362e3631346101df8401527f35383231206820312e333232393137205620372e3933373439383720482034336101ff8401527f2e3635363235205a206d20302c30206820312e333232393137205620372e393361021f8401527f373439383720482034332e3635363235205a206d202d312e3332323931342c3061023f8401527f206820312e333232393137207620312e333232393136362068202d312e33323261025f8401527f393137207a206d202d312e3332323931382c30206820312e333232393137207661027f8401527f20312e333232393136362068202d312e333232393137207a206d202d312e333261029f8401527f323931382c30206820312e333232393137205620372e393337343938372048206102bf8401527f33392e36383735205a206d202d312e3332323931342c30206820312e333232396102df8401527f3137207620312e333232393136362068202d312e333232393137207a206d202d6102ff8401527f312e3332323931382c30206820312e333232393137207620312e33323239313661031f8401527f362068202d312e333232393137207a206d202d312e3332323931382c3020682061033f8401527f312e333232393137205620372e3933373439383720482033352e37313837352061035f8401527f5a204d2033342e3339353833362c372e393337343939206820312e333232393161037f8401527f37207620312e333232393136372068202d312e333232393137207a206d202d3161039f8401527f2e3332323931382c312e333232393137206820312e333232393137207620312e6103bf8401527f33323239313720482033332e303732393138205a204d2033312e37352c31302e6103df8401527f353833333333206820312e33323239313720562031312e3930363235204820336103ff8401527f312e3735205a206d202d312e3332323931362c312e333232393136206820312e61041f8401527f333232393137207620312e3332323931372068202d312e333232393137207a2061043f8401527f6d202d312e3332323931362c312e333232393137206820312e3332323931372061045f8401527f7620312e3332323931372068202d312e333232393137207a206d202d312e333261047f8401527f323931382c312e333232393137206820312e33323239313720562031352e383761049f8401527f3520482032372e3738313235205a206d202d322e3634353833322c322e3634356104bf8401527f383333206820312e333232393137207620312e3332323931372068202d312e336104df8401527f3232393137207a206d20312e3332323931342c2d312e333232393137206820316104ff8401527f2e333232393137207620312e3332323931372068202d312e333232393137207a8061051f8501527f206d2031392e3834333735342c2d312e333232393136206820312e333232393161053f8501527f3720562031352e3837352068202d312e333232393137207a206d202d312e333261055f8501527f323931382c312e333232393136206820312e333232393137207620312e33323261057f8501527f3931372068202d312e333232393137207a206d202d312e3332323931382c312e61059f8501527f333232393137206820312e333232393137207620312e333232393137204820346105bf8501527f332e3635363235205a206d202d312e3332323931342c312e33323239313620686105df8501527f20312e333232393137207620312e3332323931372068202d312e333232393137806105ff8601527f207a206d202d312e3332323931382c312e333232393136206820312e333232398061061f8701527f3137207620312e33323239313720482034312e303130343138205a204d20333961063f8701527f2e363837352c32312e313636363636206820312e333232393137207620312e3361065f8701527f323239313720482033392e36383735205a206d202d312e3332323931342c312e61067f8701527f333232393136206820312e333232393137207620312e3332323931372048203361069f8701527f382e333634353836205a204d2033372e3034313636382c32332e3831323520686106bf870152816106df870152806106ff87015250507f3137207620312e33323239313720482033352e3731383735205a206d202d312e61071f8501527f3332323931342c312e333232393136206820312e333232393137207620312e3361073f8501527f32323931372068202d312e333232393137207a206d202d312e3332323931382c61075f8501527f312e333232393138206820312e333232393137207620312e333232393137204861077f8501527f2033332e303732393138205a204d2033312e37352c32392e313034313636206861079f8501527f20312e333232393137207620312e33323239313720482033312e3735205a206d6107bf8501527f202d312e3332323931362c312e333232393136206820312e33323239313720766107df8501527f20312e33323239313720482033302e343237303834205a204d2032392e3130346107ff8501527f3136382c33312e3735206820312e333232393137207620312e3332323931372061081f8501527f68202d312e333232393137207a206d202d312e3332323931382c312e3332323961083f8501527f3134206820312e333232393137207620312e33323239313720482032372e373861085f8501527f313235205a206d202d312e3332323931382c312e333232393138206820312e3361087f8501528161089f8501527f202d312e3332323931342c312e333232393138206820312e33323239313720766108bf8501527f20312e33323239313720482032352e313335343138205a204d2032332e3831326108df8501527f352c33372e303431363638206820312e333232393137207620312e33323239316108ff8501527f3720482032332e38313235205a206d202d312e3332323931382c312e3332323961091f8501527f3134206820312e333232393137207620312e33323239313720482032322e343861093f8501527f39353832205a204d2032312e3136363636382c33392e36383735206820312e3361095f8501528161097f8501527f202d312e3332323931382c312e333232393138206820312e333232393137207661099f8501527f20312e33323239313720482031392e3834333735205a206d202d312e333232396109bf8501527f31362c312e333232393134206820312e333232393137207620312e33323239316109df8501527f372068202d312e333232393137207a206d202d312e3332323931382c312e33326109ff8501527f32393138206820312e333232393137207620312e33323239313720482031372e610a1f8501527f313937393136205a204d2032332e383132352c31382e35323038333220682031610a3f8501527f2e333232393137207620312e33323239313720482032332e38313235205a206d610a5f8501527f202d312e3332323931382c312e333232393136206820312e3332323931372076610a7f8501527f20312e3332323931372068202d312e333232393137207a206d202d312e333232610a9f8501527f3931342c312e333232393138206820312e333232393137207620312e33323239610abf8501527f31372068202d312e333232393137207a206d202d312e3332323931382c312e33610adf8501527f3232393136206820312e333232393137207620312e3332323931372048203139610aff8501527f2e3834333735205a204d2031382e3532303833342c32332e3831323520682031610b1f85015280610b3f85015250507f206d202d312e3332323931382c312e333232393136206820312e333232393137610b5f8301527f207620312e33323239313720482031372e313937393136205a204d2031352e38610b7f8301527f37352c32362e343538333332206820312e333232393137207620312e33323239610b9f8301527f313720482031352e383735205a204d2031342e3535323038332c32372e373831610bbf8301527f323520482031352e383735207620312e3332323931372068202d312e33323239610bdf8301527f3137207a206d202d312e3332323931362c312e333232393136206820312e3332610bff8301527f32393137207620312e3332323931372068202d312e333232393137207a206d20610c1f8301527f2d312e3332323931372c312e333232393136206820312e333232393137207620610c3f8301527f312e33323239313720482031312e3930363235205a204d2031302e3538333333610c5f8301527f332c33312e3735206820312e333232393137207620312e333232393137206820610c7f8301527f2d312e333232393137207a206d202d312e3332323931372c312e333232393134610c9f8301527f206820312e333232393137207620312e333232393137204820392e3236303431610cbf8301527f36205a204d20372e393337352c33342e333935383332206820312e3332323931610cdf8301527f3636207620312e333232393137204820372e39333735205a27202f3e00000000610cff830152611c3e611c2c611c1c611bf36111c261119961119361117b610d1b8a0164078e0c2e8d60db1b815260050190565b6b39ba3cb6329e93b334b6361d60a11b8152600c0190565b896101b6565b7f3b7374726f6b652d77696474683a302e33393232373827000000000000000000815260170190565b7f643d276d2036302e3031383439312c3136372e33303634352076202d322e333581527f3336372068202d322e333533363636202d322e3335333636372076202d322e3560208201527f343938202d322e35343938312068202d322e353439383035202d322e3534393860408201527f30352076202d322e35343938202d322e35343938312068202d322e353439383060608201527f35202d322e3534393830352076202d322e35343938202d322e3534393831206860808201527f202d322e353439383035202d322e3534393830362076202d322e33353336372060a08201527f2d322e33353336362068202d322e333533363636202d322e333533363636207660c08201527f202d322e3534393831202d322e3534393820482033322e37353531392033302e60e08201527f3230353338342076202d322e3335333637202d322e3335333637206820322e356101008201527f343938303620322e3534393830352076202d322e35343938202d322e353439386101208201527f31206820322e33353336363620322e3335333636362076202d322e33353336366101408201527f202d322e3335333637206820322e35343938303620322e3534393830352076206101608201527f2d322e35343938202d322e3534393831206820322e35343938303520322e35346101808201527f393830352076202d322e35343938202d322e3534393831206820322e353439386101a08201527f303520322e3534393830352076202d322e35343938202d322e353439383120686101c08201527f20322e33353336363720322e3335333636362076202d322e3335333637202d326101e08201527f2e3335333636206820322e35343938303520322e3534393830352076202d322e6102008201527f3534393831202d322e35343938206820322e35343938303620322e35343938306102208201527f352076202d322e353439383038202d322e353439383035206820322e353439386102408201527f303520322e3534393830352076202d322e353439383035202d322e35343938306102608201527f35206820322e33353336363620322e33353336363720562038372e36373430376102808201527f2038352e333230343034206820322e35343938303520322e35343938303520766102a08201527f202d322e353439383035202d322e353439383035206820322e353439383035206102c08201527f322e3534393830352076202d322e353439383036202d322e35343938303520686102e08201527f20322e35343938303620322e3534393830352076202d322e353439383035202d6103008201527f322e353439383035206820322e33353336363620322e333533363638205620366103208201527f372e3636373930372036352e3331343234206820322e3534393820322e3534396103408201527f383120562036322e3736343433352036302e3231343633206820322e353439386103608201527f20322e353439383120562035372e3636343832352035352e31313530322068206103808201527f322e3534393820322e35343938312076202d322e353439383036202d322e35346103a08201527f39383035206820322e333533363720322e33353336362076202d322e333533366103c08201527f3636202d322e333533363636206820322e353439383120322e353439382076206103e08201527f2d322e353439383036202d322e353439383035206820322e353439383120322e6104008201527f353439382076202d322e353439383035202d322e353439383035206820322e356104208201527f3439383120322e353439382076202d322e353439383035202d322e35343938306104408201527f3520682031392e38313030332031392e383130303220762031342e39303635356104608201527f332031342e3930363535332068202d322e35343938202d322e353439383120766104808201527f20322e35343938303520322e3534393830362068202d322e35343938202d322e6104a08201527f3534393831207620322e33333439343820322e333334393439206c202d322e346104c08201527f353137332c302e313136373835202d322e34353137342c302e313136373839206104e08201527f2d302e31313637392c322e343531373336202d302e31313637382c322e3435316105008201527f3733352068202d322e3333343935202d322e3333343935207620322e353439386105208201527f303620322e3534393830352068202d322e3534393831202d322e3534393820766105408201527f20322e35343938303520322e3534393830352068202d322e3534393831202d326105608201527f2e35343938207620322e33333439343720322e333334393531206c202d322e346105808201527f353137342c302e313136373835202d322e34353137332c302e313136373839206105a08201527f2d302e31313637392c322e343531373335202d302e31313637392c322e3435316105c08201527f3733362068202d322e3333343935202d322e3333343934207620322e353439386105e08201527f303520322e3534393830362068202d322e3534393831202d322e3534393820766106008201527f20322e3534393820322e35343938312068202d322e3534393831202d322e35346106208201527f393831207620322e333533363720322e33353336362068202d322e35343938206106408201527f2d322e3534393831207620322e353439383120322e353439382068202d322e336106608201527f35333636202d322e3335333637207620322e353439383120322e3534393820686106808201527f202d322e35343938202d322e3534393831207620322e353439383120322e35346106a08201527f39382068202d322e35343938202d322e3534393831207620322e3335333637206106c08201527f322e33353336372068202d322e35343938202d322e353439383039207620322e6106e08201527f3534393820322e35343938312068202d322e333533363637202d322e333533366107008201527f3636207620322e3534393820322e35343938312068202d322e353439383035206107208201527f2d322e353439383035207620322e3534393820322e35343938312068202d322e6107408201527f353439383035202d322e353439383036207620322e333334393420322e3333346107608201527f3935206c202d322e3435313733352c302e3131363739202d322e3435313733366107808201527f2c302e3131363739202d302e3131363738392c322e3435313733202d302e31316107a08201527f363738352c322e34353137342068202d322e333334393531202d322e333334396107c08201527f3437207620322e353439383120322e353439382068202d322e353439383035206107e08201527f2d322e353439383035207620322e353439383120322e353439382068202d322e6108008201527f353439383035202d322e353439383035207620322e333533363720322e3335336108208201527f36362068202d322e333533363637202d322e333533363636207a27000000000061084082015261085b0190565b7f7472616e73666f726d3d277363616c6528302e32363435383333332927202f3e815260200190565b631e17b39f60e11b815260040190565b651e17b9bb339f60d11b815260060190565b939250505056fea2646970667358221220935d297dc3cede4287f6a1b8297eebeff12d367fc3e31ac88e89205b0549d6ad64736f6c634300080a0033",
  "immutableReferences": {},
  "source": "// SPDX-License-Identifier: MIT\npragma solidity ^0.8.0;\n\n// prettier-ignore\nlibrary GladiusSvgHelper {\n  function makeGladius(string memory _swordMaterial) public pure returns (string memory) {\n    return \n      string(\n        abi.encodePacked(\n          \"<svg viewBox='0 0 52.916666 52.916668'>\",\n          \"<g style='display:inline'>\",\n          \"<path\",\n          \"style='display:inline;fill:#000001;stroke-width:0.264583'\",\n          \"d='m 46.302086,6.6145821 h 1.322917 v 1.3229166 h -1.322917 z m -1.322918,0 h 1.322917 v 1.3229166 h -1.322917 z m 1.322918,2.6458339 h 1.322917 v 1.322917 h -1.322917 z m 0,-1.322917 h 1.322917 v 1.3229167 h -1.322917 z m 0,2.645834 h 1.322917 v 1.322917 h -1.322917 z m 0,1.322916 h 1.322917 v 1.322917 h -1.322917 z m 0,1.322917 h 1.322917 v 1.322917 H 46.302086 Z M 43.65625,6.6145821 h 1.322917 V 7.9374987 H 43.65625 Z m 0,0 h 1.322917 V 7.9374987 H 43.65625 Z m -1.322914,0 h 1.322917 v 1.3229166 h -1.322917 z m -1.322918,0 h 1.322917 v 1.3229166 h -1.322917 z m -1.322918,0 h 1.322917 V 7.9374987 H 39.6875 Z m -1.322914,0 h 1.322917 v 1.3229166 h -1.322917 z m -1.322918,0 h 1.322917 v 1.3229166 h -1.322917 z m -1.322918,0 h 1.322917 V 7.9374987 H 35.71875 Z M 34.395836,7.937499 h 1.322917 v 1.3229167 h -1.322917 z m -1.322918,1.322917 h 1.322917 v 1.322917 H 33.072918 Z M 31.75,10.583333 h 1.322917 V 11.90625 H 31.75 Z m -1.322916,1.322916 h 1.322917 v 1.322917 h -1.322917 z m -1.322916,1.322917 h 1.322917 v 1.322917 h -1.322917 z m -1.322918,1.322917 h 1.322917 V 15.875 H 27.78125 Z m -2.645832,2.645833 h 1.322917 v 1.322917 h -1.322917 z m 1.322914,-1.322917 h 1.322917 v 1.322917 h -1.322917 z m 19.843754,-1.322916 h 1.322917 V 15.875 h -1.322917 z m -1.322918,1.322916 h 1.322917 v 1.322917 h -1.322917 z m -1.322918,1.322917 h 1.322917 v 1.322917 H 43.65625 Z m -1.322914,1.322916 h 1.322917 v 1.322917 h -1.322917 z m -1.322918,1.322916 h 1.322917 v 1.322917 H 41.010418 Z M 39.6875,21.166666 h 1.322917 v 1.322917 H 39.6875 Z m -1.322914,1.322916 h 1.322917 v 1.322917 H 38.364586 Z M 37.041668,23.8125 h 1.322917 v 1.322917 h -1.322917 z m -1.322918,1.322916 h 1.322917 v 1.322917 H 35.71875 Z m -1.322914,1.322916 h 1.322917 v 1.322917 h -1.322917 z m -1.322918,1.322918 h 1.322917 v 1.322917 H 33.072918 Z M 31.75,29.104166 h 1.322917 v 1.322917 H 31.75 Z m -1.322916,1.322916 h 1.322917 v 1.322917 H 30.427084 Z M 29.104168,31.75 h 1.322917 v 1.322917 h -1.322917 z m -1.322918,1.322914 h 1.322917 v 1.322917 H 27.78125 Z m -1.322918,1.322918 h 1.322917 v 1.322917 h -1.322917 z m -1.322914,1.322918 h 1.322917 v 1.322917 H 25.135418 Z M 23.8125,37.041668 h 1.322917 v 1.322917 H 23.8125 Z m -1.322918,1.322914 h 1.322917 v 1.322917 H 22.489582 Z M 21.166668,39.6875 h 1.322917 v 1.322917 h -1.322917 z m -1.322918,1.322918 h 1.322917 v 1.322917 H 19.84375 Z m -1.322916,1.322914 h 1.322917 v 1.322917 h -1.322917 z m -1.322918,1.322918 h 1.322917 v 1.322917 H 17.197916 Z M 23.8125,18.520832 h 1.322917 v 1.322917 H 23.8125 Z m -1.322918,1.322916 h 1.322917 v 1.322917 h -1.322917 z m -1.322914,1.322918 h 1.322917 v 1.322917 h -1.322917 z m -1.322918,1.322916 h 1.322917 v 1.322917 H 19.84375 Z M 18.520834,23.8125 h 1.322917 v 1.322917 h -1.322917 z m -1.322918,1.322916 h 1.322917 v 1.322917 H 17.197916 Z M 15.875,26.458332 h 1.322917 v 1.322917 H 15.875 Z M 14.552083,27.78125 H 15.875 v 1.322917 h -1.322917 z m -1.322916,1.322916 h 1.322917 v 1.322917 h -1.322917 z m -1.322917,1.322916 h 1.322917 v 1.322917 H 11.90625 Z M 10.583333,31.75 h 1.322917 v 1.322917 h -1.322917 z m -1.322917,1.322914 h 1.322917 v 1.322917 H 9.260416 Z M 7.9375,34.395832 h 1.3229166 v 1.322917 H 7.9375 Z' />\",\n          \"<path\",\n          \"style='fill:\",\n          _swordMaterial,\n          \";stroke-width:0.392278'\",\n          \"d='m 60.018491,167.30645 v -2.35367 h -2.353666 -2.353667 v -2.5498 -2.54981 h -2.549805 -2.549805 v -2.5498 -2.54981 h -2.549805 -2.549805 v -2.5498 -2.54981 h -2.549805 -2.549806 v -2.35367 -2.35366 h -2.353666 -2.353666 v -2.54981 -2.5498 H 32.75519 30.205384 v -2.35367 -2.35367 h 2.549806 2.549805 v -2.5498 -2.54981 h 2.353666 2.353666 v -2.35366 -2.35367 h 2.549806 2.549805 v -2.5498 -2.54981 h 2.549805 2.549805 v -2.5498 -2.54981 h 2.549805 2.549805 v -2.5498 -2.54981 h 2.353667 2.353666 v -2.35367 -2.35366 h 2.549805 2.549805 v -2.54981 -2.5498 h 2.549806 2.549805 v -2.549808 -2.549805 h 2.549805 2.549805 v -2.549805 -2.549805 h 2.353666 2.353667 V 87.67407 85.320404 h 2.549805 2.549805 v -2.549805 -2.549805 h 2.549805 2.549805 v -2.549806 -2.549805 h 2.549806 2.549805 v -2.549805 -2.549805 h 2.353666 2.353668 V 67.667907 65.31424 h 2.5498 2.54981 V 62.764435 60.21463 h 2.5498 2.54981 V 57.664825 55.11502 h 2.5498 2.54981 v -2.549806 -2.549805 h 2.35367 2.35366 v -2.353666 -2.353666 h 2.54981 2.5498 v -2.549806 -2.549805 h 2.54981 2.5498 v -2.549805 -2.549805 h 2.54981 2.5498 v -2.549805 -2.549805 h 19.81003 19.81002 v 14.906553 14.906553 h -2.5498 -2.54981 v 2.549805 2.549806 h -2.5498 -2.54981 v 2.334948 2.334949 l -2.45173,0.116785 -2.45174,0.116789 -0.11679,2.451736 -0.11678,2.451735 h -2.33495 -2.33495 v 2.549806 2.549805 h -2.54981 -2.5498 v 2.549805 2.549805 h -2.54981 -2.5498 v 2.334947 2.334951 l -2.45174,0.116785 -2.45173,0.116789 -0.11679,2.451735 -0.11679,2.451736 h -2.33495 -2.33494 v 2.549805 2.549806 h -2.54981 -2.5498 v 2.5498 2.54981 h -2.54981 -2.54981 v 2.35367 2.35366 h -2.5498 -2.54981 v 2.54981 2.5498 h -2.35366 -2.35367 v 2.54981 2.5498 h -2.5498 -2.54981 v 2.54981 2.5498 h -2.5498 -2.54981 v 2.35367 2.35367 h -2.5498 -2.549809 v 2.5498 2.54981 h -2.353667 -2.353666 v 2.5498 2.54981 h -2.549805 -2.549805 v 2.5498 2.54981 h -2.549805 -2.549806 v 2.33494 2.33495 l -2.451735,0.11679 -2.451736,0.11679 -0.116789,2.45173 -0.116785,2.45174 h -2.334951 -2.334947 v 2.54981 2.5498 h -2.549805 -2.549805 v 2.54981 2.5498 h -2.549805 -2.549805 v 2.35367 2.35366 h -2.353667 -2.353666 z'\",\n          \"transform='scale(0.26458333)' />\",\n          \"</g>\",\n          \"</svg>\"\n        )\n      );\n  }\n}",
  "sourcePath": "/home/gorkem/Web3/ETH/merge-swords/contracts/libraries/GladiusSvgHelper.sol",
  "compiler": {
    "name": "solc",
    "version": "0.8.10+commit.fc410830.Emscripten.clang"
  },
  "schemaVersion": "3.4.3",
  "updatedAt": "2021-12-20T14:05:33.388Z",
  "networkType": "ethereum",
  "devdoc": {
    "kind": "dev",
    "methods": {},
    "version": 1
  },
  "userdoc": {
    "kind": "user",
    "methods": {},
    "version": 1
  }
}