{
  "contractName": "KatanaSvgHelper",
  "abi": [
    {
      "inputs": [
        {
          "internalType": "string",
          "name": "_swordMaterial",
          "type": "string"
        }
      ],
      "name": "makeKatana",
      "outputs": [
        {
          "internalType": "string",
          "name": "",
          "type": "string"
        }
      ],
      "stateMutability": "pure",
      "type": "function"
    }
  ],
  "bytecode": "0x61209461003a600b82828239805160001a60731461002d57634e487b7160e01b600052600060045260246000fd5b30600052607381538281f3fe73000000000000000000000000000000000000000030146080604052600436106100355760003560e01c8063b06ef1c41461003a575b600080fd5b61004d6100483660046100a2565b610063565b60405161005a9190610183565b60405180910390f35b60608160405160200161007691906101d2565b6040516020818303038152906040529050919050565b634e487b7160e01b600052604160045260246000fd5b6000602082840312156100b457600080fd5b813567ffffffffffffffff808211156100cc57600080fd5b818401915084601f8301126100e057600080fd5b8135818111156100f2576100f261008c565b604051601f8201601f19908116603f0116810190838211818310171561011a5761011a61008c565b8160405282815287602084870101111561013357600080fd5b826020860160208301376000928101602001929092525095945050505050565b60005b8381101561016e578181015183820152602001610156565b8381111561017d576000848401525b50505050565b60208152600082518060208401526101a2816040850160208701610153565b601f01601f19169190910160400192915050565b600081516101c8818560208601610153565b9290920192915050565b7f3c7376672076696577426f783d273020302035322e3931363636362035322e39815266189b1b1b1c139f60c91b6020820152621e339f60e91b602782015264078e0c2e8d60db1b602a8201527f7374796c653d2766696c6c2d72756c653a6576656e6f64643b7374726f6b652d602f8201526e77696474683a302e3236343538332760881b604f8201527f643d276d2031392e3834333735322c33302e343237303834206820312e333232605e8201527f393137207620312e3332323931372068202d312e333232393137207a206d2033607e8201527f2e39363837352c2d332e393638373532206820312e333232393137207620312e609e8201527f3332323931372068202d312e333232393137207a206d20332e3936383735322c60be8201527f2d332e3936383735206820312e333232393136207620312e333232393137206860de8201527f202d312e333232393136207a206d20332e39363837352c2d332e39363837352060fe8201527f6820312e333232393136207620312e3332323931372068202d312e333232393161011e8201527f36207a206d20332e39363837352c2d332e39363837343920482033372e30343161013e8201527f363720562031352e3837352068202d312e333232393136207a206d20332e393661015e8201527f3837352c2d332e3936383735206820312e333232393136207620312e3332323961017e8201527f31372068202d312e333232393136207a206d20352e3239313636382c2d312e3361019e8201527f3232393137206820312e333232393136207620312e3332323931372068202d316101be8201527f2e333232393136207a206d202d312e3332323931382c312e33323239313720686101de8201527f20312e333232393136207620312e3332323931372068202d312e3332323931366101fe8201527f207a206d202d312e3332323931382c312e333232393136206820312e3332323961021e8201527f3137207620312e3332323931372068202d312e333232393137207a206d202d3161023e8201527f2e3332323931342c312e333232393137206820312e333232393136207620312e61025e8201527f3332323931372068202d312e333232393136207a206d202d312e33323239313861027e8201527f2c312e33323239313720482034312e303130343220562031352e38373520682061029e8201527f2d312e333232393136207a206d202d312e3332323931382c312e3332323931366102be82015260007f206820312e333232393137207620312e3332323931372068202d312e33323239806102de8401527f3137207a206d202d312e3332323931382c312e333232393137206820312e33326102fe8401527f32393137207620312e3332323931372068202d312e333232393137207a206d208061031e8501527f2d312e3332323931342c312e333232393136206820312e33323239313620762061033e8501527f312e3332323931372068202d312e333232393136207a206d202d312e3332323961035e8501527f31382c312e333232393138206820312e333232393137207620312e33323239318061037e8601527f372068202d312e333232393137207a206d202d312e3332323931382c312e333261039e8601527f32393136206820312e333232393137207620312e3332323931372068202d312e6103be8601527f333232393137207a206d202d312e3332323931342c312e3332323931362068206103de8601527f312e333232393136207620312e33323239313720482033312e373530303034206103fe8601527f5a204d2033302e3432373038362c32332e38313235206820312e33323239313761041e8601527f207620312e3332323931372068202d312e333232393137207a206d202d312e338061043e8701527f32323931382c312e333232393136206820312e333232393137207620312e333261045e8701527f323931372068202d312e333232393137207a206d202d312e3332323931342c3161047e8701527f2e333232393136206820312e333232393136207620312e33323239313720682061049e8701527f2d312e333232393136207a206d202d312e3332323931382c312e3332323931386104be870152836104de8701527f3137207a206d202d312e3332323931382c312e333232393136206820312e33326104fe8701528261051e8701527f2d312e3332323931362c312e333232393138206820312e3332323931372076208061053e8801527f312e33323239313720482032332e383132353032205a204d2032322e343839358061055e8901527f38362c33312e3735206820312e333232393137207620312e333232393137206861057e8901527f202d312e333232393137207a206d202d312e3332323931362c312e333232393161059e8901527f38206820312e333232393136207620312e33323239313720482032312e3136366105be8901527f3637205a206d202d312e3332323931382c312e333232393134206820312e33326105de890152846105fe8901528161061e8901527f312e3332323931372068202d312e333232393137207a206d202d312e3332323961063e8901528361065e8901527f372068202d312e333232393137207a206d202d312e3332323931362c312e333261067e8901527f32393134206820312e333232393137207620312e33323239313720482031352e61069e8901527f383735303032205a204d2031342e3535323038362c33392e36383735206820316106be8901527f2e333232393137207620312e3332323931372068202d312e333232393137207a9350836106de8901527f206d202d312e3332323931372c312e333232393138206820312e3332323931376106fe8901527f207620312e33323239313720482031332e323239313639205a204d2034362e3361071e8901527f30323038362c352e323931363636206820312e333232393137207620312e333261073e8901527f32393136372068202d312e333232393137207a206d202d322e3634353833322c61075e8901527f332e3936383735206820312e333232393136207620312e33323239313720682061077e8901527f2d312e333232393136207a206d20312e3332323931342c2d312e33323239313661079e8901527f35206820312e333232393137207620312e333232393136372068202d312e33326107be8901527f32393137207a206d20302c2d312e333232393137206820312e333232393137206107de8901527f7620312e333232393136372068202d312e333232393137207a206d20302c2d316107fe8901527f2e33323239313635206820312e333232393137207620312e333232393136372061081e8901527f68202d312e333232393137207a206d20312e3332323931382c2d312e3332323961083e8901527f313637206820312e333232393137207620312e333232393136362068202d312e61085e8901527f333232393137207a206d20302c2d312e33323239313638206820312e3332323961087e8901527f3137207620312e333232393136372068202d312e333232393137207a206d203061089e8901527f2c2d312e33323239313637206820312e333232393137207620312e33323239316108be8901527f36362068202d312e333232393137207a206d202d312e3332323931382c3020686108de8901527f20312e333232393137207620312e333232393136362068202d312e33323239316108fe8901527f37207a206d202d312e3332323931342c312e33323239313637206820312e333261091e8901527f32393136207620312e333232393136372068202d312e333232393136207a206d61093e8901527f202d312e3332323931382c312e33323239313638206820312e3332323931372061095e8901527f5620352e3239313636353920482034322e333333333336205a204d2034312e3061097e8901527f31303431382c352e323931363636206820312e333232393137205620362e363161099e8901527f343538323720482034312e303130343138205a204d2033392e3638373530342c6109be8901527f362e3631343538323520482034312e3031303432205620372e393337343939326109de8901527f20482033392e363837353034205a204d2033382e3336343538362c372e3933376109fe8901527f343939206820312e333232393137207620312e333232393136372068202d312e610a1e8901527f333232393137207a206d202d312e3332323931382c312e333232393137206820610a3e8901527f312e333232393137207620312e3332323931372068202d312e33323239313720610a5e8901527f7a206d202d312e3332323931382c312e333232393137206820312e3332323931610a7e8901527f3720562031312e393036323520482033352e3731383735205a206d202d312e33610a9e8901527f32323931342c312e333232393136206820312e333232393137207620312e3332610abe8901527f323931372068202d312e333232393137207a206d202d312e3332323931382c31610ade8901527f2e333232393137206820312e333232393137207620312e333232393137206820610afe8901527f2d312e333232393137207a206d202d312e3332323931362c312e333232393137610b1e8901527f206820312e33323239313720562031352e38373520482033312e373530303032610b3e8901527f205a204d2033302e3432373038342c31352e383735206820312e333232393137610b5e89015282610b7e8901527f32323931362c312e333232393136206820312e333232393137207620312e3332915081610b9e8901527f323931372068202d312e333232393137207a206d202d312e3332323931362c31610bbe8901527f2e333232393136206820312e333232393137207620312e333232393137206820610bde8901527f2d312e333232393137207a206d202d312e3332323931382c312e333232393138610bfe89015285610c1e8901527f3137207a206d202d312e3332323931362c312e333232393136206820312e3332610c3e89015284610c5e8901527f2d312e3332323931362c312e333232393136206820312e333232393137207620610c7e89015280610c9e890152507f38342c32332e38313235206820312e333232393137207620312e333232393137610cbe8801527f2068202d312e333232393137207a206d202d312e3332323931362c312e333232610cde8801527f393136206820312e333232393137207620312e3332323931372068202d312e33610cfe8801527f3232393137207a206d202d312e3332323931362c312e33323239313620682031610d1e88015282610d3e8801527f206d202d312e3332323931382c312e333232393138206820312e333232393137610d5e88015281610d7e88015280610d9e88015250505050507f3239313720482031372e313937393138205a204d2031352e3837352c33302e34610dbe8301527f3237303834206820312e333232393137207620312e3332323931372048203135610dde8301527f2e383735205a204d2031342e3535323038342c33312e3735206820312e333232610dfe8301527f393137207620312e3332323931372068202d312e333232393137207a206d202d610e1e8301527f312e3332323931372c312e333232393138206820312e33323239313720762031610e3e8301527f2e3332323931372068202d312e333232393137207a206d202d312e3332323931610e5e8301527f372c312e333232393134206820312e333232393137207620312e333232393137610e7e8301527f20482031312e3930363235205a206d202d312e3332323931362c312e33323239610e9e8301527f3138206820312e333232393137207620312e3332323931372068202d312e3332610ebe8301527f32393137207a206d202d312e3332323931372c312e333232393138206820312e610ede8301527f333232393137207620312e333232393137204820392e323630343137205a2720610efe83015261179f60f11b610f1e83015261205761204561203561200c61135f61133d61133761131f610f208a0164078e0c2e8d60db1b815260050190565b6b39ba3cb6329e93b334b6361d60a11b8152600c0190565b896101b6565b753b7374726f6b652d77696474683a302e32363134362760501b815260160190565b7f643d276d2035302e3230303233382c3135322e34333039332076202d322e343881527f3338362068202d322e343833383636202d322e3438333836362076202d322e3460208201527f38333837202d322e34383338372068202d322e363134353935202d322e36313460408201527f3539362076202d322e3438333836202d322e3438333837206820322e3631343560608201527f393620322e3631343539352076202d322e3438333836202d322e34383338372060808201527f6820322e34383338363620322e3438333836362056203133322e35362031333060a08201527f2e3037363134206820322e34383338363620322e3438333836362076202d322e60c08201527f3438333837202d322e3438333836206820322e34383338363620322e3438333860e082018190527f36362076202d322e3438333837202d322e3438333837206820322e34383338366101008301527f3620322e3438333836362076202d322e3438333836202d322e343833383720686101208301527f20322e34383338363620322e3438333836362076202d322e3438333836202d326101408301527f2e3438333837206820322e34383338363620322e3438333836362076202d322e6101608301526101808201527f36362076202d322e36313436202d322e3631343539206820322e3631343539366101a08201527f20322e3631343539352076202d322e343833383638202d322e343833383636206101c08201527f6820322e34383338363620322e34383338363620562039322e353536363920396101e08201527f302e303732383234206820322e34383338363620322e3438333836362076202d6102008201527f322e343833383636202d322e343833383636206820322e34383338363620322e6102208201527f34383338363920562038322e3632313232362038302e3133373336206820322e6102408201527f343833383620322e34383338372076202d322e343833383636202d322e3438336102608201527f383636206820322e343833383720322e34383338362076202d322e34383338366102808201527f36202d322e343833383636206820322e343833383720322e34383338362056206102a08201527f36372e37313830332036352e323334313634206820322e343833383720322e346102c08201527f383338362076202d322e363134353936202d322e363134353936206820322e366102e08201527f31343620322e363134362076202d322e343833383635202d322e3438333836366103008201527f206820322e343833383620322e34383338372076202d322e343833383636202d6103208201527f322e343833383636206820322e343833383620322e34383338372076202d322e61034082018190527f343833383636202d322e343833383636206820322e343833383720322e3438336103608301527f38362076202d322e343833383636202d322e343833383636206820322e3438336103808301527f383720322e34383338362076202d322e343833383636202d322e3438333836366103a08301527f206820322e343833383720322e34383338372076202d322e343833383636202d6103c08301526103e08201527f343833383636202d322e343833383636206820322e343833383620322e3438336104008201527f38372076202d322e363134353936202d322e363134353936206820322e3631346104208201527f3620322e36313435392076202d322e343833383635202d322e343833383636206104408201527f6820322e343833383720322e343833383620562031322e35353030362031302e6104608201527f303636313934206820322e333533313420322e3335333134207620342e3832376104808201527f313920342e383237313931206c202d322e34313835312c302e3037353138202d6104a08201527f322e343138352c302e3037353138202d302e303639342c372e353136393632206104c08201527f2d302e303639342c372e3531363936332068202d322e3437393835202d322e346104e08201527f37393836207620342e39363737333220342e3936373733322068202d322e36316105008201527f343539202d322e36313436207620322e34383338363620322e343833383636206105208201527f68202d322e3438333837202d322e3438333836207620322e34383338363620326105408201527f2e3438333836362068202d322e3438333837202d322e3438333836207620322e61056082018190527f34383338363620322e3438333836362068202d322e3438333837202d322e343861058083018190527f333837207620322e36313435393620322e3631343539352068202d322e3438336105a08401527f3836202d322e3438333837207620322e34383338363620322e343833383636206105c08401527f68202d322e3438333836202d322e3438333837207620322e34383338363620326105e08401526106008301919091526106208201527f333836207620322e34383338363620322e3438333836362068202d322e3631346106408201527f36202d322e3631343539207620322e34383338363620322e34383338363620686106608201527f202d322e3438333837202d322e3438333837207620322e34383338363620322e6106808201527f3438333836362068202d322e3438333836202d322e3438333837207620322e346106a08201527f383338363620322e3438333836362068202d322e3438333836202d322e3438336106c08201527f3837207620322e36313435393520322e363134362068202d322e3438333837206106e08201527f2d322e343833383632207620322e343833383720322e34383338362068202d326107008201527f2e343833383636202d322e343833383636207620322e343833383720322e34386107208201527f33383620482039322e34323539362038392e393432303934207620322e3438336107408201527f383720322e34383338372068202d322e343833383636202d322e3438333836366107608201527f207620322e343833383620322e343833383720482038322e33353937363620376107808201527f392e3734353137207620322e343833383620322e34383338372068202d322e346107a08201527f3833383636202d322e343833383636207620322e343833383620322e343833386107c08201527f372068202d322e343833383635202d322e343833383636207620322e343833386107e08201527f3720322e34383338362068202d322e343833383636202d322e343833383636206108008201527f7620322e3631343620322e36313435392068202d322e343833383636202d322e6108208201527f343833383636207620322e343833383720322e34383338372068202d322e34386108408201527f33383636202d322e343833383636207620322e343833383620322e34383338376108608201527f20482035322e3535333337352035302e323030323338205a204d2038302e30306108808201527f3636332c3131372e35323630382076202d322e363134362068202d322e3631346108a08201527f353936202d322e363134353936207620322e3631343620322e363134353920686108c08201527f20322e36313435393620322e363134353936207a204d2039352e3137313238356108e08201527f2c3130322e343932313520562039392e37343638323820482039322e353536366109008201527f392038392e393432303934207620322e37343533323220322e373435333320686109208201527f20322e36313435393620322e363134353935207a204d203131302e30373434386109408201527f2c38372e3435383232382076202d322e3631343539362068202d322e363134356109608201527f39202d322e36313436207620322e36313435393620322e3631343539362068206109808201527f322e3631343620322e3631343539207a206d2031352e31363436362c2d31342e6109a08201527f3930333139362076202d322e3631343539362068202d322e3734353333202d326109c08201527f2e3734353332207620322e36313435393620322e363134353936206820322e376109e08201527f3435333220322e3734353333207a206d2031342e39303331392c2d31352e3136610a008201527f343635352076202d322e3631343539362068202d322e3631343539202d322e36610a208201527f313436207620322e36313435393620322e363134353935206820322e36313436610a408201527f20322e3631343539207a206d2031342e393033322c2d31342e39303331393620610a608201527f76202d322e3631343539362068202d322e36313436202d322e36313435392076610a808201527f20322e36313435393620322e363134353936206820322e363134353920322e36610aa082015265313436207a2760d01b610ac0820152610ac60190565b7f7472616e73666f726d3d277363616c6528302e32363435383333332927202f3e815260200190565b631e17b39f60e11b815260040190565b651e17b9bb339f60d11b815260060190565b939250505056fea264697066735822122072fbc96864897d4990f968b00cc74208178dd69174fd0bc621d7768442f1292864736f6c634300080a0033",
  "immutableReferences": {},
  "source": "// SPDX-License-Identifier: MIT\npragma solidity ^0.8.0;\n\n// prettier-ignore\nlibrary KatanaSvgHelper {\n  function makeKatana(string memory _swordMaterial) public pure returns (string memory) {\n    return \n      string(\n        abi.encodePacked(\n          \"<svg viewBox='0 0 52.916666 52.916668'>\",\n          \"<g>\",\n          \"<path\",\n          \"style='fill-rule:evenodd;stroke-width:0.264583'\",\n          \"d='m 19.843752,30.427084 h 1.322917 v 1.322917 h -1.322917 z m 3.96875,-3.968752 h 1.322917 v 1.322917 h -1.322917 z m 3.968752,-3.96875 h 1.322916 v 1.322917 h -1.322916 z m 3.96875,-3.96875 h 1.322916 v 1.322917 h -1.322916 z m 3.96875,-3.968749 H 37.04167 V 15.875 h -1.322916 z m 3.96875,-3.96875 h 1.322916 v 1.322917 h -1.322916 z m 5.291668,-1.322917 h 1.322916 v 1.322917 h -1.322916 z m -1.322918,1.322917 h 1.322916 v 1.322917 h -1.322916 z m -1.322918,1.322916 h 1.322917 v 1.322917 h -1.322917 z m -1.322914,1.322917 h 1.322916 v 1.322917 h -1.322916 z m -1.322918,1.322917 H 41.01042 V 15.875 h -1.322916 z m -1.322918,1.322916 h 1.322917 v 1.322917 h -1.322917 z m -1.322918,1.322917 h 1.322917 v 1.322917 h -1.322917 z m -1.322914,1.322916 h 1.322916 v 1.322917 h -1.322916 z m -1.322918,1.322918 h 1.322917 v 1.322917 h -1.322917 z m -1.322918,1.322916 h 1.322917 v 1.322917 h -1.322917 z m -1.322914,1.322916 h 1.322916 v 1.322917 H 31.750004 Z M 30.427086,23.8125 h 1.322917 v 1.322917 h -1.322917 z m -1.322918,1.322916 h 1.322917 v 1.322917 h -1.322917 z m -1.322914,1.322916 h 1.322916 v 1.322917 h -1.322916 z m -1.322918,1.322918 h 1.322917 v 1.322917 h -1.322917 z m -1.322918,1.322916 h 1.322917 v 1.322917 h -1.322917 z m -1.322916,1.322918 h 1.322917 v 1.322917 H 23.812502 Z M 22.489586,31.75 h 1.322917 v 1.322917 h -1.322917 z m -1.322916,1.322918 h 1.322916 v 1.322917 H 21.16667 Z m -1.322918,1.322914 h 1.322917 v 1.322917 h -1.322917 z m -1.322916,1.322918 h 1.322917 v 1.322917 h -1.322917 z m -1.322918,1.322918 h 1.322917 v 1.322917 h -1.322917 z m -1.322916,1.322914 h 1.322917 v 1.322917 H 15.875002 Z M 14.552086,39.6875 h 1.322917 v 1.322917 h -1.322917 z m -1.322917,1.322918 h 1.322917 v 1.322917 H 13.229169 Z M 46.302086,5.291666 h 1.322917 v 1.3229167 h -1.322917 z m -2.645832,3.96875 h 1.322916 v 1.322917 h -1.322916 z m 1.322914,-1.3229165 h 1.322917 v 1.3229167 h -1.322917 z m 0,-1.322917 h 1.322917 v 1.3229167 h -1.322917 z m 0,-1.3229165 h 1.322917 v 1.3229167 h -1.322917 z m 1.322918,-1.3229167 h 1.322917 v 1.3229166 h -1.322917 z m 0,-1.3229168 h 1.322917 v 1.3229167 h -1.322917 z m 0,-1.3229167 h 1.322917 v 1.3229166 h -1.322917 z m -1.322918,0 h 1.322917 v 1.3229166 h -1.322917 z m -1.322914,1.3229167 h 1.322916 v 1.3229167 h -1.322916 z m -1.322918,1.3229168 h 1.322917 V 5.2916659 H 42.333336 Z M 41.010418,5.291666 h 1.322917 V 6.6145827 H 41.010418 Z M 39.687504,6.6145825 H 41.01042 V 7.9374992 H 39.687504 Z M 38.364586,7.937499 h 1.322917 v 1.3229167 h -1.322917 z m -1.322918,1.322917 h 1.322917 v 1.322917 h -1.322917 z m -1.322918,1.322917 h 1.322917 V 11.90625 H 35.71875 Z m -1.322914,1.322916 h 1.322917 v 1.322917 h -1.322917 z m -1.322918,1.322917 h 1.322917 v 1.322917 h -1.322917 z m -1.322916,1.322917 h 1.322917 V 15.875 H 31.750002 Z M 30.427084,15.875 h 1.322917 v 1.322917 h -1.322917 z m -1.322916,1.322916 h 1.322917 v 1.322917 h -1.322917 z m -1.322916,1.322916 h 1.322917 v 1.322917 h -1.322917 z m -1.322918,1.322918 h 1.322917 v 1.322917 h -1.322917 z m -1.322916,1.322916 h 1.322917 v 1.322917 h -1.322917 z m -1.322916,1.322916 h 1.322917 v 1.322917 H 23.812502 Z M 22.489584,23.8125 h 1.322917 v 1.322917 h -1.322917 z m -1.322916,1.322916 h 1.322917 v 1.322917 h -1.322917 z m -1.322916,1.322916 h 1.322917 v 1.322917 h -1.322917 z m -1.322918,1.322918 h 1.322917 v 1.322917 h -1.322917 z m -1.322916,1.322916 h 1.322917 v 1.322917 H 17.197918 Z M 15.875,30.427084 h 1.322917 v 1.322917 H 15.875 Z M 14.552084,31.75 h 1.322917 v 1.322917 h -1.322917 z m -1.322917,1.322918 h 1.322917 v 1.322917 h -1.322917 z m -1.322917,1.322914 h 1.322917 v 1.322917 H 11.90625 Z m -1.322916,1.322918 h 1.322917 v 1.322917 h -1.322917 z m -1.322917,1.322918 h 1.322917 v 1.322917 H 9.260417 Z' />\",\n          \"<path\",\n          \"style='fill:\",\n          _swordMaterial,\n          \";stroke-width:0.26146'\",\n          \"d='m 50.200238,152.43093 v -2.48386 h -2.483866 -2.483866 v -2.48387 -2.48387 h -2.614595 -2.614596 v -2.48386 -2.48387 h 2.614596 2.614595 v -2.48386 -2.48387 h 2.483866 2.483866 V 132.56 130.07614 h 2.483866 2.483866 v -2.48387 -2.48386 h 2.483866 2.483866 v -2.48387 -2.48387 h 2.483866 2.483866 v -2.48386 -2.48387 h 2.483866 2.483866 v -2.48386 -2.48387 h 2.483866 2.483866 v -2.48387 -2.48386 h 2.483866 2.483866 v -2.6146 -2.61459 h 2.614596 2.614595 v -2.483868 -2.483866 h 2.483866 2.483866 V 92.55669 90.072824 h 2.483866 2.483866 v -2.483866 -2.483866 h 2.483866 2.483869 V 82.621226 80.13736 h 2.48386 2.48387 v -2.483866 -2.483866 h 2.48387 2.48386 v -2.483866 -2.483866 h 2.48387 2.48386 V 67.71803 65.234164 h 2.48387 2.48386 v -2.614596 -2.614596 h 2.6146 2.6146 v -2.483865 -2.483866 h 2.48386 2.48387 v -2.483866 -2.483866 h 2.48386 2.48387 v -2.483866 -2.483866 h 2.48387 2.48386 v -2.483866 -2.483866 h 2.48387 2.48386 v -2.483866 -2.483866 h 2.48387 2.48387 v -2.483866 -2.483866 h 2.48386 2.48387 v -2.483866 -2.483866 h 2.48386 2.48387 v -2.614596 -2.614596 h 2.6146 2.61459 v -2.483865 -2.483866 h 2.48387 2.48386 V 12.55006 10.066194 h 2.35314 2.35314 v 4.82719 4.827191 l -2.41851,0.07518 -2.4185,0.07518 -0.0694,7.516962 -0.0694,7.516963 h -2.47985 -2.47986 v 4.967732 4.967732 h -2.61459 -2.6146 v 2.483866 2.483866 h -2.48387 -2.48386 v 2.483866 2.483866 h -2.48387 -2.48386 v 2.483866 2.483866 h -2.48387 -2.48387 v 2.614596 2.614595 h -2.48386 -2.48387 v 2.483866 2.483866 h -2.48386 -2.48387 v 2.483866 2.483866 h -2.48387 -2.48386 v 2.483866 2.483866 h -2.48387 -2.48386 v 2.483866 2.483866 h -2.6146 -2.61459 v 2.483866 2.483866 h -2.48387 -2.48387 v 2.483866 2.483866 h -2.48386 -2.48387 v 2.483866 2.483866 h -2.48386 -2.48387 v 2.614595 2.6146 h -2.48387 -2.483862 v 2.48387 2.48386 h -2.483866 -2.483866 v 2.48387 2.48386 H 92.42596 89.942094 v 2.48387 2.48387 h -2.483866 -2.483866 v 2.48386 2.48387 H 82.359766 79.74517 v 2.48386 2.48387 h -2.483866 -2.483866 v 2.48386 2.48387 h -2.483865 -2.483866 v 2.48387 2.48386 h -2.483866 -2.483866 v 2.6146 2.61459 h -2.483866 -2.483866 v 2.48387 2.48387 h -2.483866 -2.483866 v 2.48386 2.48387 H 52.553375 50.200238 Z M 80.00663,117.52608 v -2.6146 h -2.614596 -2.614596 v 2.6146 2.61459 h 2.614596 2.614596 z M 95.171285,102.49215 V 99.746828 H 92.55669 89.942094 v 2.745322 2.74533 h 2.614596 2.614595 z M 110.07448,87.458228 v -2.614596 h -2.61459 -2.6146 v 2.614596 2.614596 h 2.6146 2.61459 z m 15.16466,-14.903196 v -2.614596 h -2.74533 -2.74532 v 2.614596 2.614596 h 2.74532 2.74533 z m 14.90319,-15.164655 v -2.614596 h -2.61459 -2.6146 v 2.614596 2.614595 h 2.6146 2.61459 z m 14.9032,-14.903196 v -2.614596 h -2.6146 -2.61459 v 2.614596 2.614596 h 2.61459 2.6146 z'\",\n          \"transform='scale(0.26458333)' />\",\n          \"</g>\",\n          \"</svg>\"\n        )\n      );\n  }\n}",
  "sourcePath": "/home/gorkem/Web3/ETH/merge-swords/contracts/libraries/KatanaSvgHelper.sol",
  "compiler": {
    "name": "solc",
    "version": "0.8.10+commit.fc410830.Emscripten.clang"
  },
  "schemaVersion": "3.4.3",
  "updatedAt": "2021-12-20T09:54:22.628Z",
  "devdoc": {
    "kind": "dev",
    "methods": {},
    "version": 1
  },
  "userdoc": {
    "kind": "user",
    "methods": {},
    "version": 1
  }
}