{
  "contractName": "KondaSvgHelper",
  "abi": [
    {
      "inputs": [
        {
          "internalType": "string",
          "name": "_swordMaterial",
          "type": "string"
        }
      ],
      "name": "makeKonda",
      "outputs": [
        {
          "internalType": "string",
          "name": "",
          "type": "string"
        }
      ],
      "stateMutability": "pure",
      "type": "function"
    }
  ],
  "bytecode": "0x611d1361003a600b82828239805160001a60731461002d57634e487b7160e01b600052600060045260246000fd5b30600052607381538281f3fe73000000000000000000000000000000000000000030146080604052600436106100355760003560e01c8063d1feeb5e1461003a575b600080fd5b61004d6100483660046100a2565b610063565b60405161005a9190610183565b60405180910390f35b60608160405160200161007691906101d2565b6040516020818303038152906040529050919050565b634e487b7160e01b600052604160045260246000fd5b6000602082840312156100b457600080fd5b813567ffffffffffffffff808211156100cc57600080fd5b818401915084601f8301126100e057600080fd5b8135818111156100f2576100f261008c565b604051601f8201601f19908116603f0116810190838211818310171561011a5761011a61008c565b8160405282815287602084870101111561013357600080fd5b826020860160208301376000928101602001929092525095945050505050565b60005b8381101561016e578181015183820152602001610156565b8381111561017d576000848401525b50505050565b60208152600082518060208401526101a2816040850160208701610153565b601f01601f19169190910160400192915050565b600081516101c8818560208601610153565b9290920192915050565b7f3c7376672076696577426f783d273020302035322e3931363636362035322e39815267189b1b1b1c13901f60c11b6020820152621e339f60e91b602882015264078e0c2e8d60db1b602b8201527f7374796c653d277374726f6b652d77696474683a302e3236343538332700000060308201527f643d276d2034372e3632352c31382e353230383332206820312e333232393137604d8201527f207620312e33323239313720482034372e363235205a206d202d312e33323239606d8201527f31342c30206820312e333232393137207620312e3332323931372068202d312e608d8201527f333232393137207a206d202d312e3332323931382c30206820312e333232393160ad8201527f37207620312e3332323931372068202d312e333232393137207a206d202d312e60cd8201527f3332323931382c30206820312e333232393137207620312e333232393137204860ed8201527f2034332e3635363235205a206d202d312e3332323931342c30206820312e333261010d82015260007f32393137207620312e3332323931372068202d312e333232393137207a206d208061012d8401527f2d312e3332323931382c30206820312e333232393137207620312e333232393161014d8401527f372068202d312e333232393137207a206d202d312e3332323931382c3020682061016d8401527f312e333232393137207620312e33323239313720482033392e36383735205a2061018d8401527f6d20372e393337352c2d312e333232393136206820312e3332323931372076206101ad8401527f312e33323239313720482034372e363235205a206d20302c2d322e36343538336101cd8401527f33206820312e33323239313720562031352e38373520482034372e363235205a6101ed8401527f206d20302c2d312e333232393137206820312e333232393137207620312e333261020d8401527f3239313720482034372e363235205a206d20302c322e3634353833342068203161022d8401527f2e333232393137207620312e33323239313720482034372e363235205a206d2061024d8401527f302c2d332e393638373531206820312e333232393137207620312e333232393161026d8401527f3720482034372e363235205a206d20302c2d312e333232393136206820312e3361028d8401527f323239313720562031312e393036323520482034372e363235205a206d202d316102ad8401527f342e3535323038322c312e333232393136206820312e333232393137207620316102cd8401527f2e3332323931372068202d312e333232393137207a206d20302c2d312e3332326102ed8401527f393136206820312e333232393137207620312e3332323931372068202d312e3361030d8401527f3232393137207a206d20302c2d312e333232393137206820312e33323239313761032d8401527f207620312e3332323931372068202d312e333232393137207a206d20302c2d3161034d8401527f2e333232393137206820312e333232393137207620312e33323239313637206861036d8401527f202d312e333232393137207a206d20302c2d312e333232393136206820312e3361038d8401527f3232393137207620312e333232393136362068202d312e333232393137207a206103ad8401527f6d20302c2d312e333232393137206820312e333232393137207620312e3332326103cd8401527f393136372068202d312e333232393137207a206d20302c2d312e3332323931376103ed8401527f206820312e333232393137207620312e333232393136372068202d312e33323261040d8401527f393137207a206d20312e3332323931382c30206820312e33323239313720762061042d8401527f312e333232393136372068202d312e333232393137207a206d20322e3634353861044d8401527f33322c30206820312e333232393137207620312e333232393136372068202d3161046d8401527f2e333232393137207a206d202d312e3332323931382c30206820312e3332323961048d8401527f3137205620352e3239313636353720482033352e3731383735205a206d20322e6104ad8401527f3634353833362c30206820312e333232393137207620312e33323239313637206104cd8401527f68202d312e333232393137207a206d20312e3332323931342c30206820312e336104ed8401527f3232393137205620352e3239313636353720482033392e36383735205a206d2061050d8401527f312e3332323931382c30206820312e333232393137205620352e32393136363561052d8401527f3720482034312e303130343138205a204d2034372e3632352c372e393337343961054d8401527f39206820312e333232393137205620392e3236303431353720482034372e363261056d8401527f35205a206d20302c2d332e3936383735206820312e333232393137205620352e61058d8401527f3239313636353720482034372e363235205a206d20302c312e333232393137206105ad8401527f6820312e333232393137205620362e3631343538323720482034372e363235206105cd8401527f5a204d2034362e3330323038362c332e393638373439206820312e33323239316105ed8401527f37207620312e333232393136372068202d312e333232393137207a206d202d3161060d8401527f2e3332323931382c30206820312e333232393137207620312e3332323931363761062d8401527f2068202d312e333232393137207a206d202d312e3332323931382c302068203161064d8401527f2e333232393137205620352e3239313636353720482034332e3635363235205a61066d8401527f204d2034372e3632352c362e363134353833206820312e33323239313720562061068d8401527f372e3933373439393620482034372e363235205a206d20302c322e36343538336106ad8401527f33206820312e333232393137207620312e33323239313720482034372e3632356106cd8401527f205a206d202d392e3236303431342c392e323630343136206820312e333232396106ed8401527f3137207620312e3332323931372068202d312e333232393137207a206d202d3161070d8401527f2e3332323931382c312e333232393138206820312e333232393137207620312e61072d8401527f3332323931372068202d312e333232393137207a206d202d312e33323239313861074d8401527f2c312e333232393136206820312e333232393137207620312e3332323931372061076d8401527f482033352e3731383735205a206d202d312e3332323931342c312e333232393161078d8401527f36206820312e333232393137207620312e33323239313720482033342e3339356107ad8401527f383336205a204d2033332e3037323931382c32332e38313235206820312e33326107cd8401527f32393137207620312e33323239313720482033332e303732393138205a204d206107ed8401527f33312e37352c32352e313335343136206820312e333232393137207620312e3361080d8401527f323239313720482033312e3735205a206d202d312e3332323931362c312e333261082d8401527f32393138206820312e333232393137207620312e3332323931372068202d312e8061084d8501527f333232393137207a206d202d312e3332323931362c312e33323239313620682061086d8501527f312e333232393137207620312e3332323931372068202d312e3332323931372061088d8501527f7a206d202d312e3332323931382c312e333232393136206820312e33323239316108ad8501527f37207620312e33323239313720482032372e3738313235205a206d202d312e336108cd8501527f32323931382c312e333232393138206820312e333232393137207620312e33326108ed8501527f3239313720482032362e343538333332205a204d2032352e3133353431382c3361090d8501527f312e3735206820312e333232393137207620312e33323239313720482032352e61092d8501527f313335343138205a204d2032332e383132352c33332e3037323931382068203161094d8501527f2e333232393137207620312e33323239313720482032332e38313235205a206d61096d8501527f202d312e3332323931382c312e333232393134206820312e333232393137207661098d8501527f20312e3332323931372068202d312e333232393137207a206d202d322e3634356109ad8501527f3833322c322e363435383336206820312e333232393137207620312e333232396109cd8501527f313720482031392e3834333735205a206d20312e3332323931382c2d312e33326109ed85015280610a0d8501527f333232393137207a206d202d322e3634353833342c322e363435383332206820610a2d8501527f312e333232393137207620312e33323239313720482031382e35323038333420610a4d8501527f5a204d2031372e3139373931362c33392e36383735206820312e333232393137610a6d8501527f207620312e33323239313720482031372e313937393136205a204d2034322e33610a8d8501527f33333333362c332e393638373439206820312e333232393137207620312e3332610aad8501527f32393136372068202d312e333232393137207a206d202d392e3236303431382c610acd8501527f392e323630343137206820312e333232393137207620312e3332323931372048610aed8501527f2033332e303732393138205a204d2033312e37352c31342e3535323038332068610b0d8501527f20312e33323239313720562031352e38373520482033312e3735205a204d2033610b2d8501527f302e3432373038342c31352e383735206820312e333232393137207620312e33610b4d8501527f32323931372068202d312e333232393137207a206d202d312e3332323931362c610b6d8501527f312e333232393136206820312e333232393137207620312e3332323931372068610b8d8501527f202d312e333232393137207a206d202d312e3332323931382c312e3332323931610bad8501527f36206820312e333232393137207620312e33323239313720482032372e373831610bcd8501527f3235205a206d202d312e3332323931382c312e333232393138206820312e3332610bed85015281610c0d8501527f2d312e3332323931342c312e333232393136206820312e333232393137207620610c2d8501527f312e33323239313720482032352e313335343138205a204d2032332e38313235610c4d8501527f2c32322e343839353832206820312e333232393137207620312e333232393137610c6d8501527f20482032332e38313235205a204d2032322e3438393538322c32332e38313235610c8d8501527f206820312e333232393137207620312e3332323931372068202d312e33323239610cad8501527f3137207a206d202d312e3332323931342c312e333232393136206820312e3332610ccd85015281610ced8501527f2d312e3332323931382c312e333232393138206820312e333232393137207620610d0d8501527f312e33323239313720482031392e3834333735205a206d202d312e3332323931610d2d8501527f362c312e333232393136206820312e333232393137207620312e333232393137610d4d8501527f2068202d312e333232393137207a206d202d312e3332323931382c312e333232610d6d8501527f393136206820312e333232393137207620312e33323239313720482031372e31610d8d8501527f3937393136205a204d2031352e3837352c33302e343237303834206820312e33610dad8501527f3232393137207620312e33323239313720482031352e383735205a204d203134610dcd8501527f2e3535323038332c33312e373520482031352e383735207620312e3332323931610ded8501527f372068202d312e333232393137207a206d202d312e3332323931362c312e3332610e0d85015280610e2d85015250507f333232393137207a206d202d312e3332323931372c312e333232393134206820610e4d8301527f312e333232393137207620312e33323239313720482031312e3930363235205a610e6d8301527f206d20332e39363837352c362e363134353836206820312e3332323931372076610e8d8301527f20312e33323239313720482031352e383735205a204d2031302e353833333333610ead8301527f2c33352e3731383735206820312e333232393137207620312e33323239313720610ecd8301527f68202d312e333232393137207a206d20332e39363837352c362e363134353832610eed8301527f20482031352e383735207620312e33323239313720482031342e353532303833610f0d8301527f205a204d20392e3236303431372c33372e303431363638206820312e33323239610f2d8301527f3137207620312e333232393137204820392e323630343137205a27202f3e0000610f4d830152611cd6611cc4611cb4611c8b6114aa61148161147b611463610f6b8a0164078e0c2e8d60db1b815260050190565b6b39ba3cb6329e93b334b6361d60a11b8152600c0190565b896101b6565b7f3b7374726f6b652d77696474683a302e33303232373927000000000000000000815260170190565b7f643d276d2035302e3137383339332c3135372e33333634372076202d322e343181527f3832342068202d322e353639333735202d322e3536393337362076202d322e3560208201527f36393337202d322e35363933382068202d322e343138323336202d322e34313860408201527f3233352076202d342e3833363437202d342e3833363437206820322e3431383260608201527f333520322e3431383233362076202d322e3431383234202d322e34313832332060808201527f6820322e35363933373620322e3536393337352076202d322e3536393338202d60a08201527f322e3536393337206820322e34313832333620322e3431383233362076202d3260c08201527f2e3431383234202d322e3431383234206820322e35363933373520322e35363960e08201527f3337362076202d322e3536393337202d322e3536393338206820322e353639336101008201527f373620322e3536393337352076202d322e3536393337202d322e3536393338206101208201527f6820322e34313832333620322e3431383233362076202d322e3431383233202d6101408201527f322e3431383234206820322e35363933373520322e3536393337362076202d326101608201527f2e3536393338202d322e3536393337206820322e34313832333620322e3431386101808201527f3233362076202d322e3431383234202d322e3431383233206820322e353639336101a08201527f373520322e3536393337362076202d322e353639333739202d322e35363933376101c08201527f35206820322e34313832333520322e34313832333620562039322e36343836366101e08201527f2039302e323330343234206820322e35363933373620322e35363933373520766102008201527f202d322e353639333736202d322e353639333735206820322e343138323336206102208201527f322e3431383233392076202d322e343138323336202d322e34313832333620686102408201527f20322e353639333720322e353639333820562037372e3638353832362037352e6102608201527f3131363435206820322e343138323320322e34313832342076202d322e3431386102808201527f323336202d322e343138323335206820322e353639333820322e3536393337206102a08201527f76202d322e353639333736202d322e353639333736206820322e3431383234206102c08201527f322e34313832332076202d322e353639333735202d322e3536393337362068206102e08201527f322e353639333820322e353639333720562035372e35383432342035352e31366103008201527f36303035206820322e353639333820322e35363933372076202d31372e3533326103208201527f3231202d31372e353332323120682032342e37383639322032342e37383639326103408201527f20762032342e3933383035372032342e3933383035372068202d31372e3533326103608201527f3231202d31372e3533323231207620322e34313832333620322e3431383233366103808201527f2068202d322e3431383234202d322e3431383233207620322e353639333735206103a08201527f322e3536393337362068202d322e3536393338202d322e3536393337207620326103c08201527f2e34313832333620322e3431383233352068202d322e3431383234202d322e346103e08201527f31383233207620322e35363933373620322e3536393337362068202d322e35366104008201527f393338202d322e3536393338207620322e34303630313120322e3430363031326104208201527f206c202d322e343933382c302e3038373739202d322e34393338312c302e30386104408201527f373739202d302e303837382c322e343933383036202d302e303837382c322e346104608201527f39333830352068202d322e3430363031202d322e3430363031207620322e34316104808201527f3832333120322e34313832342068202d322e3536393337202d322e35363933386104a08201527f207620322e353639333720322e35363933382068202d322e3431383234202d326104c08201527f2e3431383233207620322e343138323420322e34313832332068202d322e35366104e08201527f393338202d322e353639333732207620322e353639333820322e3536393337206105008201527f68202d322e343138323336202d322e343138323336207620322e3536393338206105208201527f322e353639333720482039322e33343633382038392e373737303035207620326105408201527f2e343138323420322e34313832342068202d322e343138323336202d322e34316105608201527f38323336207620322e353639333720322e35363933382068202d322e353639336105808201527f3735202d322e353639333736207620322e343138323320322e343138323420486105a08201527f2037372e3338333534362037342e3936353331207620322e353639333720322e6105c08201527f35363933382068202d322e353639333735202d322e353639333736207620322e6105e08201527f343138323420322e34313832332068202d322e343138323336202d322e3431386106008201527f323335207620322e353639333820322e35363933372068202d322e35363933376106208201527f36202d322e353639333735207620322e343138323420322e3431383233206820610640820152752d342e383336343732202d342e383336343732207a2760501b6106608201526106760190565b7f7472616e73666f726d3d277363616c6528302e32363435383333332927202f3e815260200190565b631e17b39f60e11b815260040190565b651e17b9bb339f60d11b815260060190565b939250505056fea2646970667358221220a58ca5d98a985cdf27475a3ca01ac006d31c16908fd7358e0d406f0ddecd95da64736f6c634300080a0033",
  "immutableReferences": {},
  "source": "// SPDX-License-Identifier: MIT\npragma solidity ^0.8.0;\n\n// prettier-ignore\nlibrary KondaSvgHelper {\n  function makeKonda(string memory _swordMaterial) public pure returns (string memory) {\n    return \n      string(\n        abi.encodePacked(\n          \"<svg viewBox='0 0 52.916666 52.916668' >\",\n          \"<g>\",\n          \"<path\",\n          \"style='stroke-width:0.264583'\",\n          \"d='m 47.625,18.520832 h 1.322917 v 1.322917 H 47.625 Z m -1.322914,0 h 1.322917 v 1.322917 h -1.322917 z m -1.322918,0 h 1.322917 v 1.322917 h -1.322917 z m -1.322918,0 h 1.322917 v 1.322917 H 43.65625 Z m -1.322914,0 h 1.322917 v 1.322917 h -1.322917 z m -1.322918,0 h 1.322917 v 1.322917 h -1.322917 z m -1.322918,0 h 1.322917 v 1.322917 H 39.6875 Z m 7.9375,-1.322916 h 1.322917 v 1.322917 H 47.625 Z m 0,-2.645833 h 1.322917 V 15.875 H 47.625 Z m 0,-1.322917 h 1.322917 v 1.322917 H 47.625 Z m 0,2.645834 h 1.322917 v 1.322917 H 47.625 Z m 0,-3.968751 h 1.322917 v 1.322917 H 47.625 Z m 0,-1.322916 h 1.322917 V 11.90625 H 47.625 Z m -14.552082,1.322916 h 1.322917 v 1.322917 h -1.322917 z m 0,-1.322916 h 1.322917 v 1.322917 h -1.322917 z m 0,-1.322917 h 1.322917 v 1.322917 h -1.322917 z m 0,-1.322917 h 1.322917 v 1.3229167 h -1.322917 z m 0,-1.322916 h 1.322917 v 1.3229166 h -1.322917 z m 0,-1.322917 h 1.322917 v 1.3229167 h -1.322917 z m 0,-1.322917 h 1.322917 v 1.3229167 h -1.322917 z m 1.322918,0 h 1.322917 v 1.3229167 h -1.322917 z m 2.645832,0 h 1.322917 v 1.3229167 h -1.322917 z m -1.322918,0 h 1.322917 V 5.2916657 H 35.71875 Z m 2.645836,0 h 1.322917 v 1.3229167 h -1.322917 z m 1.322914,0 h 1.322917 V 5.2916657 H 39.6875 Z m 1.322918,0 h 1.322917 V 5.2916657 H 41.010418 Z M 47.625,7.937499 h 1.322917 V 9.2604157 H 47.625 Z m 0,-3.96875 h 1.322917 V 5.2916657 H 47.625 Z m 0,1.322917 h 1.322917 V 6.6145827 H 47.625 Z M 46.302086,3.968749 h 1.322917 v 1.3229167 h -1.322917 z m -1.322918,0 h 1.322917 v 1.3229167 h -1.322917 z m -1.322918,0 h 1.322917 V 5.2916657 H 43.65625 Z M 47.625,6.614583 h 1.322917 V 7.9374996 H 47.625 Z m 0,2.645833 h 1.322917 v 1.322917 H 47.625 Z m -9.260414,9.260416 h 1.322917 v 1.322917 h -1.322917 z m -1.322918,1.322918 h 1.322917 v 1.322917 h -1.322917 z m -1.322918,1.322916 h 1.322917 v 1.322917 H 35.71875 Z m -1.322914,1.322916 h 1.322917 v 1.322917 H 34.395836 Z M 33.072918,23.8125 h 1.322917 v 1.322917 H 33.072918 Z M 31.75,25.135416 h 1.322917 v 1.322917 H 31.75 Z m -1.322916,1.322918 h 1.322917 v 1.322917 h -1.322917 z m -1.322916,1.322916 h 1.322917 v 1.322917 h -1.322917 z m -1.322918,1.322916 h 1.322917 v 1.322917 H 27.78125 Z m -1.322918,1.322918 h 1.322917 v 1.322917 H 26.458332 Z M 25.135418,31.75 h 1.322917 v 1.322917 H 25.135418 Z M 23.8125,33.072918 h 1.322917 v 1.322917 H 23.8125 Z m -1.322918,1.322914 h 1.322917 v 1.322917 h -1.322917 z m -2.645832,2.645836 h 1.322917 v 1.322917 H 19.84375 Z m 1.322918,-1.322918 h 1.322917 v 1.322917 h -1.322917 z m -2.645834,2.645832 h 1.322917 v 1.322917 H 18.520834 Z M 17.197916,39.6875 h 1.322917 v 1.322917 H 17.197916 Z M 42.333336,3.968749 h 1.322917 v 1.3229167 h -1.322917 z m -9.260418,9.260417 h 1.322917 v 1.322917 H 33.072918 Z M 31.75,14.552083 h 1.322917 V 15.875 H 31.75 Z M 30.427084,15.875 h 1.322917 v 1.322917 h -1.322917 z m -1.322916,1.322916 h 1.322917 v 1.322917 h -1.322917 z m -1.322918,1.322916 h 1.322917 v 1.322917 H 27.78125 Z m -1.322918,1.322918 h 1.322917 v 1.322917 h -1.322917 z m -1.322914,1.322916 h 1.322917 v 1.322917 H 25.135418 Z M 23.8125,22.489582 h 1.322917 v 1.322917 H 23.8125 Z M 22.489582,23.8125 h 1.322917 v 1.322917 h -1.322917 z m -1.322914,1.322916 h 1.322917 v 1.322917 h -1.322917 z m -1.322918,1.322918 h 1.322917 v 1.322917 H 19.84375 Z m -1.322916,1.322916 h 1.322917 v 1.322917 h -1.322917 z m -1.322918,1.322916 h 1.322917 v 1.322917 H 17.197916 Z M 15.875,30.427084 h 1.322917 v 1.322917 H 15.875 Z M 14.552083,31.75 H 15.875 v 1.322917 h -1.322917 z m -1.322916,1.322918 h 1.322917 v 1.322917 h -1.322917 z m -1.322917,1.322914 h 1.322917 v 1.322917 H 11.90625 Z m 3.96875,6.614586 h 1.322917 v 1.322917 H 15.875 Z M 10.583333,35.71875 h 1.322917 v 1.322917 h -1.322917 z m 3.96875,6.614582 H 15.875 v 1.322917 H 14.552083 Z M 9.260417,37.041668 h 1.322917 v 1.322917 H 9.260417 Z' />\",\n          \"<path\",\n          \"style='fill:\",\n          _swordMaterial,\n          \";stroke-width:0.302279'\",\n          \"d='m 50.178393,157.33647 v -2.41824 h -2.569375 -2.569376 v -2.56937 -2.56938 h -2.418236 -2.418235 v -4.83647 -4.83647 h 2.418235 2.418236 v -2.41824 -2.41823 h 2.569376 2.569375 v -2.56938 -2.56937 h 2.418236 2.418236 v -2.41824 -2.41824 h 2.569375 2.569376 v -2.56937 -2.56938 h 2.569376 2.569375 v -2.56937 -2.56938 h 2.418236 2.418236 v -2.41823 -2.41824 h 2.569375 2.569376 v -2.56938 -2.56937 h 2.418236 2.418236 v -2.41824 -2.41823 h 2.569375 2.569376 v -2.569379 -2.569375 h 2.418235 2.418236 V 92.64866 90.230424 h 2.569376 2.569375 v -2.569376 -2.569375 h 2.418236 2.418239 v -2.418236 -2.418236 h 2.56937 2.56938 V 77.685826 75.11645 h 2.41823 2.41824 v -2.418236 -2.418235 h 2.56938 2.56937 v -2.569376 -2.569376 h 2.41824 2.41823 v -2.569375 -2.569376 h 2.56938 2.56937 V 57.58424 55.166005 h 2.56938 2.56937 v -17.53221 -17.53221 h 24.78692 24.78692 v 24.938057 24.938057 h -17.53221 -17.53221 v 2.418236 2.418236 h -2.41824 -2.41823 v 2.569375 2.569376 h -2.56938 -2.56937 v 2.418236 2.418235 h -2.41824 -2.41823 v 2.569376 2.569376 h -2.56938 -2.56938 v 2.406011 2.406012 l -2.4938,0.08779 -2.49381,0.08779 -0.0878,2.493806 -0.0878,2.493805 h -2.40601 -2.40601 v 2.418231 2.41824 h -2.56937 -2.56938 v 2.56937 2.56938 h -2.41824 -2.41823 v 2.41824 2.41823 h -2.56938 -2.569372 v 2.56938 2.56937 h -2.418236 -2.418236 v 2.56938 2.56937 H 92.34638 89.777005 v 2.41824 2.41824 h -2.418236 -2.418236 v 2.56937 2.56938 h -2.569375 -2.569376 v 2.41823 2.41824 H 77.383546 74.96531 v 2.56937 2.56938 h -2.569375 -2.569376 v 2.41824 2.41823 h -2.418236 -2.418235 v 2.56938 2.56937 h -2.569376 -2.569375 v 2.41824 2.41823 h -4.836472 -4.836472 z'\",\n          \"transform='scale(0.26458333)' />\",\n          \"</g>\",\n          \"</svg>\"\n        )\n     );\n  }\n}",
  "sourcePath": "/home/gorkem/Web3/ETH/merge-swords/contracts/libraries/KondaSvgHelper.sol",
  "compiler": {
    "name": "solc",
    "version": "0.8.10+commit.fc410830.Emscripten.clang"
  },
  "schemaVersion": "3.4.3",
  "updatedAt": "2021-12-22T12:36:49.754Z",
  "devdoc": {
    "kind": "dev",
    "methods": {},
    "version": 1
  },
  "userdoc": {
    "kind": "user",
    "methods": {},
    "version": 1
  }
}