{
  "contractName": "MergeSwordsToken",
  "abi": [
    {
      "inputs": [],
      "stateMutability": "nonpayable",
      "type": "constructor"
    },
    {
      "anonymous": false,
      "inputs": [
        {
          "indexed": true,
          "internalType": "address",
          "name": "owner",
          "type": "address"
        },
        {
          "indexed": true,
          "internalType": "address",
          "name": "approved",
          "type": "address"
        },
        {
          "indexed": true,
          "internalType": "uint256",
          "name": "tokenId",
          "type": "uint256"
        }
      ],
      "name": "Approval",
      "type": "event"
    },
    {
      "anonymous": false,
      "inputs": [
        {
          "indexed": true,
          "internalType": "address",
          "name": "owner",
          "type": "address"
        },
        {
          "indexed": true,
          "internalType": "address",
          "name": "operator",
          "type": "address"
        },
        {
          "indexed": false,
          "internalType": "bool",
          "name": "approved",
          "type": "bool"
        }
      ],
      "name": "ApprovalForAll",
      "type": "event"
    },
    {
      "anonymous": false,
      "inputs": [
        {
          "indexed": true,
          "internalType": "address",
          "name": "owner",
          "type": "address"
        },
        {
          "indexed": false,
          "internalType": "uint256",
          "name": "id",
          "type": "uint256"
        }
      ],
      "name": "BurnSword",
      "type": "event"
    },
    {
      "anonymous": false,
      "inputs": [
        {
          "indexed": true,
          "internalType": "address",
          "name": "owner",
          "type": "address"
        },
        {
          "components": [
            {
              "internalType": "bool",
              "name": "userStart",
              "type": "bool"
            },
            {
              "internalType": "uint256",
              "name": "userAttackPower",
              "type": "uint256"
            },
            {
              "internalType": "uint256",
              "name": "monsterAttackPower",
              "type": "uint256"
            },
            {
              "internalType": "uint256",
              "name": "userNormalizedAP",
              "type": "uint256"
            },
            {
              "internalType": "uint256",
              "name": "monsterNormalizedAP",
              "type": "uint256"
            },
            {
              "internalType": "bool",
              "name": "didUserWin",
              "type": "bool"
            }
          ],
          "indexed": false,
          "internalType": "struct SwordAttack.AttackLog",
          "name": "attackLog",
          "type": "tuple"
        }
      ],
      "name": "LostBattle",
      "type": "event"
    },
    {
      "anonymous": false,
      "inputs": [
        {
          "indexed": true,
          "internalType": "uint256",
          "name": "itemId",
          "type": "uint256"
        },
        {
          "indexed": true,
          "internalType": "address",
          "name": "nftContract",
          "type": "address"
        },
        {
          "indexed": true,
          "internalType": "uint256",
          "name": "tokenId",
          "type": "uint256"
        },
        {
          "indexed": false,
          "internalType": "address",
          "name": "seller",
          "type": "address"
        },
        {
          "indexed": false,
          "internalType": "address",
          "name": "owner",
          "type": "address"
        },
        {
          "indexed": false,
          "internalType": "uint256",
          "name": "price",
          "type": "uint256"
        },
        {
          "indexed": false,
          "internalType": "bool",
          "name": "sold",
          "type": "bool"
        }
      ],
      "name": "MarketItemCreated",
      "type": "event"
    },
    {
      "anonymous": false,
      "inputs": [
        {
          "indexed": true,
          "internalType": "address",
          "name": "owner",
          "type": "address"
        },
        {
          "indexed": false,
          "internalType": "uint256",
          "name": "id",
          "type": "uint256"
        }
      ],
      "name": "NewSword",
      "type": "event"
    },
    {
      "anonymous": false,
      "inputs": [
        {
          "indexed": true,
          "internalType": "address",
          "name": "previousOwner",
          "type": "address"
        },
        {
          "indexed": true,
          "internalType": "address",
          "name": "newOwner",
          "type": "address"
        }
      ],
      "name": "OwnershipTransferred",
      "type": "event"
    },
    {
      "anonymous": false,
      "inputs": [
        {
          "indexed": true,
          "internalType": "address",
          "name": "from",
          "type": "address"
        },
        {
          "indexed": true,
          "internalType": "address",
          "name": "to",
          "type": "address"
        },
        {
          "indexed": true,
          "internalType": "uint256",
          "name": "tokenId",
          "type": "uint256"
        }
      ],
      "name": "Transfer",
      "type": "event"
    },
    {
      "anonymous": false,
      "inputs": [
        {
          "indexed": true,
          "internalType": "address",
          "name": "owner",
          "type": "address"
        },
        {
          "components": [
            {
              "internalType": "bool",
              "name": "userStart",
              "type": "bool"
            },
            {
              "internalType": "uint256",
              "name": "userAttackPower",
              "type": "uint256"
            },
            {
              "internalType": "uint256",
              "name": "monsterAttackPower",
              "type": "uint256"
            },
            {
              "internalType": "uint256",
              "name": "userNormalizedAP",
              "type": "uint256"
            },
            {
              "internalType": "uint256",
              "name": "monsterNormalizedAP",
              "type": "uint256"
            },
            {
              "internalType": "bool",
              "name": "didUserWin",
              "type": "bool"
            }
          ],
          "indexed": false,
          "internalType": "struct SwordAttack.AttackLog",
          "name": "attackLog",
          "type": "tuple"
        }
      ],
      "name": "WonBattle",
      "type": "event"
    },
    {
      "inputs": [
        {
          "internalType": "address",
          "name": "to",
          "type": "address"
        },
        {
          "internalType": "uint256",
          "name": "tokenId",
          "type": "uint256"
        }
      ],
      "name": "approve",
      "outputs": [],
      "stateMutability": "nonpayable",
      "type": "function"
    },
    {
      "inputs": [
        {
          "internalType": "address",
          "name": "owner",
          "type": "address"
        }
      ],
      "name": "balanceOf",
      "outputs": [
        {
          "internalType": "uint256",
          "name": "",
          "type": "uint256"
        }
      ],
      "stateMutability": "view",
      "type": "function",
      "constant": true
    },
    {
      "inputs": [
        {
          "internalType": "address",
          "name": "nftContract",
          "type": "address"
        },
        {
          "internalType": "uint256",
          "name": "tokenId",
          "type": "uint256"
        },
        {
          "internalType": "uint256",
          "name": "price",
          "type": "uint256"
        },
        {
          "internalType": "address",
          "name": "sender",
          "type": "address"
        }
      ],
      "name": "createMarketItem",
      "outputs": [],
      "stateMutability": "payable",
      "type": "function",
      "payable": true
    },
    {
      "inputs": [
        {
          "internalType": "address",
          "name": "nftContract",
          "type": "address"
        },
        {
          "internalType": "uint256",
          "name": "itemId",
          "type": "uint256"
        },
        {
          "internalType": "uint256",
          "name": "value",
          "type": "uint256"
        },
        {
          "internalType": "address",
          "name": "sender",
          "type": "address"
        }
      ],
      "name": "createMarketSale",
      "outputs": [],
      "stateMutability": "payable",
      "type": "function",
      "payable": true
    },
    {
      "inputs": [],
      "name": "fetchItemsCreated",
      "outputs": [
        {
          "components": [
            {
              "internalType": "uint256",
              "name": "itemId",
              "type": "uint256"
            },
            {
              "internalType": "address",
              "name": "nftContract",
              "type": "address"
            },
            {
              "internalType": "uint256",
              "name": "tokenId",
              "type": "uint256"
            },
            {
              "internalType": "address payable",
              "name": "seller",
              "type": "address"
            },
            {
              "internalType": "address payable",
              "name": "owner",
              "type": "address"
            },
            {
              "internalType": "uint256",
              "name": "price",
              "type": "uint256"
            },
            {
              "internalType": "bool",
              "name": "sold",
              "type": "bool"
            }
          ],
          "internalType": "struct NFTMarketplace.MarketItem[]",
          "name": "",
          "type": "tuple[]"
        }
      ],
      "stateMutability": "view",
      "type": "function",
      "constant": true
    },
    {
      "inputs": [],
      "name": "fetchMarketItems",
      "outputs": [
        {
          "components": [
            {
              "internalType": "uint256",
              "name": "itemId",
              "type": "uint256"
            },
            {
              "internalType": "address",
              "name": "nftContract",
              "type": "address"
            },
            {
              "internalType": "uint256",
              "name": "tokenId",
              "type": "uint256"
            },
            {
              "internalType": "address payable",
              "name": "seller",
              "type": "address"
            },
            {
              "internalType": "address payable",
              "name": "owner",
              "type": "address"
            },
            {
              "internalType": "uint256",
              "name": "price",
              "type": "uint256"
            },
            {
              "internalType": "bool",
              "name": "sold",
              "type": "bool"
            }
          ],
          "internalType": "struct NFTMarketplace.MarketItem[]",
          "name": "",
          "type": "tuple[]"
        }
      ],
      "stateMutability": "view",
      "type": "function",
      "constant": true
    },
    {
      "inputs": [],
      "name": "fetchMyNFTs",
      "outputs": [
        {
          "components": [
            {
              "internalType": "uint256",
              "name": "itemId",
              "type": "uint256"
            },
            {
              "internalType": "address",
              "name": "nftContract",
              "type": "address"
            },
            {
              "internalType": "uint256",
              "name": "tokenId",
              "type": "uint256"
            },
            {
              "internalType": "address payable",
              "name": "seller",
              "type": "address"
            },
            {
              "internalType": "address payable",
              "name": "owner",
              "type": "address"
            },
            {
              "internalType": "uint256",
              "name": "price",
              "type": "uint256"
            },
            {
              "internalType": "bool",
              "name": "sold",
              "type": "bool"
            }
          ],
          "internalType": "struct NFTMarketplace.MarketItem[]",
          "name": "",
          "type": "tuple[]"
        }
      ],
      "stateMutability": "view",
      "type": "function",
      "constant": true
    },
    {
      "inputs": [
        {
          "internalType": "uint256",
          "name": "tokenId",
          "type": "uint256"
        }
      ],
      "name": "getApproved",
      "outputs": [
        {
          "internalType": "address",
          "name": "",
          "type": "address"
        }
      ],
      "stateMutability": "view",
      "type": "function",
      "constant": true
    },
    {
      "inputs": [
        {
          "internalType": "uint256",
          "name": "",
          "type": "uint256"
        }
      ],
      "name": "idToSword",
      "outputs": [
        {
          "internalType": "uint256",
          "name": "id",
          "type": "uint256"
        },
        {
          "internalType": "uint256",
          "name": "dna",
          "type": "uint256"
        },
        {
          "internalType": "uint256",
          "name": "attackPower",
          "type": "uint256"
        },
        {
          "internalType": "uint32",
          "name": "generation",
          "type": "uint32"
        },
        {
          "internalType": "uint16",
          "name": "winCount",
          "type": "uint16"
        },
        {
          "internalType": "uint16",
          "name": "lossCount",
          "type": "uint16"
        }
      ],
      "stateMutability": "view",
      "type": "function",
      "constant": true
    },
    {
      "inputs": [
        {
          "internalType": "address",
          "name": "owner",
          "type": "address"
        },
        {
          "internalType": "address",
          "name": "operator",
          "type": "address"
        }
      ],
      "name": "isApprovedForAll",
      "outputs": [
        {
          "internalType": "bool",
          "name": "",
          "type": "bool"
        }
      ],
      "stateMutability": "view",
      "type": "function",
      "constant": true
    },
    {
      "inputs": [],
      "name": "name",
      "outputs": [
        {
          "internalType": "string",
          "name": "",
          "type": "string"
        }
      ],
      "stateMutability": "view",
      "type": "function",
      "constant": true
    },
    {
      "inputs": [],
      "name": "owner",
      "outputs": [
        {
          "internalType": "address",
          "name": "",
          "type": "address"
        }
      ],
      "stateMutability": "view",
      "type": "function",
      "constant": true
    },
    {
      "inputs": [
        {
          "internalType": "uint256",
          "name": "tokenId",
          "type": "uint256"
        }
      ],
      "name": "ownerOf",
      "outputs": [
        {
          "internalType": "address",
          "name": "",
          "type": "address"
        }
      ],
      "stateMutability": "view",
      "type": "function",
      "constant": true
    },
    {
      "inputs": [
        {
          "internalType": "address",
          "name": "",
          "type": "address"
        }
      ],
      "name": "ownerSwordCount",
      "outputs": [
        {
          "internalType": "uint256",
          "name": "",
          "type": "uint256"
        }
      ],
      "stateMutability": "view",
      "type": "function",
      "constant": true
    },
    {
      "inputs": [],
      "name": "renounceOwnership",
      "outputs": [],
      "stateMutability": "nonpayable",
      "type": "function"
    },
    {
      "inputs": [
        {
          "internalType": "address",
          "name": "from",
          "type": "address"
        },
        {
          "internalType": "address",
          "name": "to",
          "type": "address"
        },
        {
          "internalType": "uint256",
          "name": "tokenId",
          "type": "uint256"
        }
      ],
      "name": "safeTransferFrom",
      "outputs": [],
      "stateMutability": "nonpayable",
      "type": "function"
    },
    {
      "inputs": [
        {
          "internalType": "address",
          "name": "from",
          "type": "address"
        },
        {
          "internalType": "address",
          "name": "to",
          "type": "address"
        },
        {
          "internalType": "uint256",
          "name": "tokenId",
          "type": "uint256"
        },
        {
          "internalType": "bytes",
          "name": "_data",
          "type": "bytes"
        }
      ],
      "name": "safeTransferFrom",
      "outputs": [],
      "stateMutability": "nonpayable",
      "type": "function"
    },
    {
      "inputs": [
        {
          "internalType": "address",
          "name": "operator",
          "type": "address"
        },
        {
          "internalType": "bool",
          "name": "approved",
          "type": "bool"
        }
      ],
      "name": "setApprovalForAll",
      "outputs": [],
      "stateMutability": "nonpayable",
      "type": "function"
    },
    {
      "inputs": [
        {
          "internalType": "bytes4",
          "name": "interfaceId",
          "type": "bytes4"
        }
      ],
      "name": "supportsInterface",
      "outputs": [
        {
          "internalType": "bool",
          "name": "",
          "type": "bool"
        }
      ],
      "stateMutability": "view",
      "type": "function",
      "constant": true
    },
    {
      "inputs": [
        {
          "internalType": "uint256",
          "name": "",
          "type": "uint256"
        }
      ],
      "name": "swordToOwner",
      "outputs": [
        {
          "internalType": "address",
          "name": "",
          "type": "address"
        }
      ],
      "stateMutability": "view",
      "type": "function",
      "constant": true
    },
    {
      "inputs": [
        {
          "internalType": "uint256",
          "name": "",
          "type": "uint256"
        }
      ],
      "name": "swords",
      "outputs": [
        {
          "internalType": "uint256",
          "name": "id",
          "type": "uint256"
        },
        {
          "internalType": "uint256",
          "name": "dna",
          "type": "uint256"
        },
        {
          "internalType": "uint256",
          "name": "attackPower",
          "type": "uint256"
        },
        {
          "internalType": "uint32",
          "name": "generation",
          "type": "uint32"
        },
        {
          "internalType": "uint16",
          "name": "winCount",
          "type": "uint16"
        },
        {
          "internalType": "uint16",
          "name": "lossCount",
          "type": "uint16"
        }
      ],
      "stateMutability": "view",
      "type": "function",
      "constant": true
    },
    {
      "inputs": [],
      "name": "symbol",
      "outputs": [
        {
          "internalType": "string",
          "name": "",
          "type": "string"
        }
      ],
      "stateMutability": "view",
      "type": "function",
      "constant": true
    },
    {
      "inputs": [
        {
          "internalType": "uint256",
          "name": "tokenId",
          "type": "uint256"
        }
      ],
      "name": "tokenURI",
      "outputs": [
        {
          "internalType": "string",
          "name": "",
          "type": "string"
        }
      ],
      "stateMutability": "view",
      "type": "function",
      "constant": true
    },
    {
      "inputs": [
        {
          "internalType": "address",
          "name": "from",
          "type": "address"
        },
        {
          "internalType": "address",
          "name": "to",
          "type": "address"
        },
        {
          "internalType": "uint256",
          "name": "tokenId",
          "type": "uint256"
        }
      ],
      "name": "transferFrom",
      "outputs": [],
      "stateMutability": "nonpayable",
      "type": "function"
    },
    {
      "inputs": [
        {
          "internalType": "address",
          "name": "newOwner",
          "type": "address"
        }
      ],
      "name": "transferOwnership",
      "outputs": [],
      "stateMutability": "nonpayable",
      "type": "function"
    },
    {
      "inputs": [
        {
          "internalType": "address",
          "name": "nftContract",
          "type": "address"
        },
        {
          "internalType": "uint256",
          "name": "itemId",
          "type": "uint256"
        },
        {
          "internalType": "address",
          "name": "sender",
          "type": "address"
        }
      ],
      "name": "withdrawMarketItem",
      "outputs": [],
      "stateMutability": "nonpayable",
      "type": "function"
    },
    {
      "inputs": [
        {
          "internalType": "uint256",
          "name": "_fee",
          "type": "uint256"
        }
      ],
      "name": "updateBasicSwordFee",
      "outputs": [],
      "stateMutability": "nonpayable",
      "type": "function"
    },
    {
      "inputs": [
        {
          "internalType": "uint256",
          "name": "_fee",
          "type": "uint256"
        }
      ],
      "name": "updateMergeFee",
      "outputs": [],
      "stateMutability": "nonpayable",
      "type": "function"
    },
    {
      "inputs": [
        {
          "internalType": "uint256",
          "name": "_fee",
          "type": "uint256"
        }
      ],
      "name": "updateAttackFee",
      "outputs": [],
      "stateMutability": "nonpayable",
      "type": "function"
    },
    {
      "inputs": [],
      "name": "getBasicSword",
      "outputs": [],
      "stateMutability": "payable",
      "type": "function",
      "payable": true
    },
    {
      "inputs": [
        {
          "internalType": "uint256",
          "name": "swordOneId",
          "type": "uint256"
        },
        {
          "internalType": "uint256",
          "name": "swordTwoId",
          "type": "uint256"
        }
      ],
      "name": "mergeSwords",
      "outputs": [],
      "stateMutability": "payable",
      "type": "function",
      "payable": true
    },
    {
      "inputs": [
        {
          "internalType": "uint256",
          "name": "_swordId",
          "type": "uint256"
        }
      ],
      "name": "battleMonster",
      "outputs": [],
      "stateMutability": "payable",
      "type": "function",
      "payable": true
    },
    {
      "inputs": [
        {
          "internalType": "uint256",
          "name": "_swordId",
          "type": "uint256"
        }
      ],
      "name": "sendSwordToTrash",
      "outputs": [],
      "stateMutability": "nonpayable",
      "type": "function"
    },
    {
      "inputs": [
        {
          "internalType": "uint256",
          "name": "_swordId",
          "type": "uint256"
        },
        {
          "internalType": "address",
          "name": "_to",
          "type": "address"
        }
      ],
      "name": "transferToAdress",
      "outputs": [],
      "stateMutability": "nonpayable",
      "type": "function"
    },
    {
      "inputs": [
        {
          "internalType": "uint256",
          "name": "_swordId",
          "type": "uint256"
        }
      ],
      "name": "claimPrize",
      "outputs": [],
      "stateMutability": "nonpayable",
      "type": "function"
    },
    {
      "inputs": [
        {
          "internalType": "uint256",
          "name": "_swordId",
          "type": "uint256"
        },
        {
          "internalType": "uint256",
          "name": "_price",
          "type": "uint256"
        }
      ],
      "name": "addToMarketPlace",
      "outputs": [],
      "stateMutability": "nonpayable",
      "type": "function"
    },
    {
      "inputs": [
        {
          "internalType": "uint256",
          "name": "_swordId",
          "type": "uint256"
        }
      ],
      "name": "withdrawFromMarketPlace",
      "outputs": [],
      "stateMutability": "nonpayable",
      "type": "function"
    },
    {
      "inputs": [
        {
          "internalType": "uint256",
          "name": "_swordId",
          "type": "uint256"
        }
      ],
      "name": "buyFromMarketPlace",
      "outputs": [],
      "stateMutability": "payable",
      "type": "function",
      "payable": true
    },
    {
      "inputs": [
        {
          "internalType": "address",
          "name": "_user",
          "type": "address"
        }
      ],
      "name": "getUserSwordCount",
      "outputs": [
        {
          "internalType": "uint256",
          "name": "",
          "type": "uint256"
        }
      ],
      "stateMutability": "view",
      "type": "function",
      "constant": true
    },
    {
      "inputs": [
        {
          "internalType": "address",
          "name": "_user",
          "type": "address"
        }
      ],
      "name": "getUserSwords",
      "outputs": [
        {
          "components": [
            {
              "internalType": "uint256",
              "name": "id",
              "type": "uint256"
            },
            {
              "internalType": "uint256",
              "name": "dna",
              "type": "uint256"
            },
            {
              "internalType": "uint256",
              "name": "attackPower",
              "type": "uint256"
            },
            {
              "internalType": "uint32",
              "name": "generation",
              "type": "uint32"
            },
            {
              "internalType": "uint16",
              "name": "winCount",
              "type": "uint16"
            },
            {
              "internalType": "uint16",
              "name": "lossCount",
              "type": "uint16"
            }
          ],
          "internalType": "struct SwordFactory.Sword[]",
          "name": "",
          "type": "tuple[]"
        }
      ],
      "stateMutability": "view",
      "type": "function",
      "constant": true
    },
    {
      "inputs": [
        {
          "internalType": "uint256",
          "name": "_id",
          "type": "uint256"
        }
      ],
      "name": "getSwordFromId",
      "outputs": [
        {
          "components": [
            {
              "internalType": "uint256",
              "name": "id",
              "type": "uint256"
            },
            {
              "internalType": "uint256",
              "name": "dna",
              "type": "uint256"
            },
            {
              "internalType": "uint256",
              "name": "attackPower",
              "type": "uint256"
            },
            {
              "internalType": "uint32",
              "name": "generation",
              "type": "uint32"
            },
            {
              "internalType": "uint16",
              "name": "winCount",
              "type": "uint16"
            },
            {
              "internalType": "uint16",
              "name": "lossCount",
              "type": "uint16"
            }
          ],
          "internalType": "struct SwordFactory.Sword",
          "name": "",
          "type": "tuple"
        }
      ],
      "stateMutability": "view",
      "type": "function",
      "constant": true
    }
  ],
  "bytecode": "0x600561028081815264576869746560d81b6102a052608090815260066102c08181526559656c6c6f7760d01b6102e05260a052610300818152654f72616e676560d01b6103205260c05260036103409081526214995960ea1b6103605260e05261038090815265507572706c6560d01b6103a0526101005260096103c0818152684461726b20626c756560b81b6103e05261012052600461040081815263426c756560e01b6104205261014052600a610440818152694c6967687420626c756560b01b61046052610160526104808581526423b932b2b760d91b6104a052610180526104c0818152692230b9359023b932b2b760b11b6104e0526101a05261050085815264213937bbb760d91b610520526101c052600b6105409081526a2634b3b43a10213937bbb760a91b610560526101e052610580908152694c69676874204772657960b01b6105a052610200526105c0908152634772657960e01b6105e05261022052610600908152684461726b204772657960b81b610620526102405261068060405261064091825264426c61636b60d81b6106605261026091909152620001b090600c906010620007b7565b506040805160c08101825260076080820190815266476c616469757360c81b60a083015281528151808301835260058082526429b0b132b960d91b602083810191909152808401929092528351808501855260068152654b6174616e6160d01b818401528385015283518085019094528352644b6f6e646160d81b9083015260608101919091526200024790600d9060046200081b565b506040805161014081018252600461010082018181526315dbdbd960e21b61012084015282528251808401845260058082526453746f6e6560d81b6020838101919091528085019290925284518086018652600681526542726f6e7a6560d01b8184015284860152845180860186529081526414dd19595b60da1b818301526060840152835180850185529182526311dbdb1960e21b82820152608083019190915282518084018452600780825266115b595c985b1960ca1b8284015260a08401919091528351808501855290815266111a585b5bdb9960ca1b8183015260c08301528251808401909352600c83526b436172626f6e2d666962726560a01b9083015260e08101919091526200036290600e9060086200086d565b506040805161024081018252600761020082018181526611b3333333333360c91b6102208401528252825180840184528181526611b3333333181960c91b6020828101919091528084019190915283518085018552828152660236666363630360cc1b818301528385015283518085018552828152660236666303030360cc1b818301526060840152835180850185528281526611b3331818333360c91b81830152608084015283518085018552828152660233030303038360cc1b8183015260a084015283518085018552828152661198181818333360c91b8183015260c084015283518085018552828152661198183333333360c91b8183015260e084015283518085018552828152660233030666630360cc1b8183015261010084015283518085018552828152660233030383030360cc1b8183015261012084015283518085018552828152660233830333330360cc1b8183015261014084015283518085018552828152660236434353530360cc1b818301526101608401528351808501855282815266119c989b331b3360c91b8183015261018084015283518085018552828152662336633533353360c81b818301526101a084015283518085018552828152662334383337333760c81b818301526101c08401528351808501909452908352662332343163316360c81b908301526101e08101919091526200056f90600f906010620007b7565b50604080516101408101825260076101008201818152660233830333330360cc1b610120840152825282518084018452818152662361633933393360c81b6020828101919091528084019190915283518085018552828152660236666363630360cc1b818301528385015283518085018552828152662336633533353360c81b81830152606084015283518085018552828152660236666636330360cc1b81830152608084015283518085018552828152660233030383030360cc1b8183015260a084015283518085018552828152661198183333333360c91b8183015260c08401528351808501909452908352662332343163316360c81b9083015260e0810191909152620006849060109060086200086d565b506000601155600c60128190556200069e90600a62000b0b565b6013556014805462ffffff191662321e461790556000601555662386f26fc100006016556611c37937e0800060175566038d7ea4c68000601855348015620006e557600080fd5b50604080518082018252600b81526a4d4552474553574f52445360a81b60208083019182528351808501909452600584526414d5d3d49160da1b9084015281519192916200073691600091620008bf565b5080516200074c906001906020840190620008bf565b50506001600755506200075f3362000765565b62000b63565b600b80546001600160a01b038381166001600160a01b0319831681179093556040519116919082907f8be0079c531659141344cd1fd0a4f28419497f9722a3daafe3b4186f6b6457e090600090a35050565b82805482825590600052602060002090810192821562000809579160200282015b82811115620008095782518051620007f8918491602090910190620008bf565b5091602001919060010190620007d8565b50620008179291506200094a565b5090565b82805482825590600052602060002090810192821562000809579160200282015b828111156200080957825180516200085c918491602090910190620008bf565b50916020019190600101906200083c565b82805482825590600052602060002090810192821562000809579160200282015b82811115620008095782518051620008ae918491602090910190620008bf565b50916020019190600101906200088e565b828054620008cd9062000b32565b90600052602060002090601f016020900481019282620008f157600085556200093c565b82601f106200090c57805160ff19168380011785556200093c565b828001600101855582156200093c579182015b828111156200093c5782518255916020019190600101906200091f565b50620008179291506200096b565b808211156200081757600062000961828262000982565b506001016200094a565b5b808211156200081757600081556001016200096c565b508054620009909062000b32565b6000825580601f10620009a1575050565b601f016020900490600052602060002090810190620009c191906200096b565b50565b634e487b7160e01b600052601160045260246000fd5b80825b600185111562000a2057808604811115620009fc57620009fc620009c4565b600185161562000a0b57908102905b800262000a188560011c90565b9450620009dd565b94509492505050565b60008262000a3a5750600162000b04565b8162000a495750600062000b04565b816001811462000a62576002811462000a6d5762000aa1565b600191505062000b04565b60ff84111562000a815762000a81620009c4565b8360020a91508482111562000a9a5762000a9a620009c4565b5062000b04565b5060208310610133831016604e8410600b841016171562000ad9575081810a8381111562000ad35762000ad3620009c4565b62000b04565b62000ae88484846001620009da565b9250905081840481111562000b015762000b01620009c4565b81025b9392505050565b600062000b04600019848462000a29565b634e487b7160e01b600052602260045260246000fd5b60028104600182168062000b4757607f821691505b6020821081141562000b5d5762000b5d62000b1c565b50919050565b615ce98062000b736000396000f3fe6080604052600436106102c65760003560e01c8063715018a611610179578063b37654a7116100d6578063cf373d881161008a578063e985e9c511610064578063e985e9c5146107ed578063f064c32e14610836578063f2fde38b1461084b57600080fd5b8063cf373d881461079a578063d130f37a146107ba578063d7098154146107cd57600080fd5b8063bfefc294116100bb578063bfefc29414610747578063c87b56dd1461075a578063ca60f14e1461077a57600080fd5b8063b37654a714610714578063b88d4fde1461072757600080fd5b806382d2e8571161012d57806395d89b411161011257806395d89b41146106bf578063a22cb465146106d4578063a2a5f24f146106f457600080fd5b806382d2e8571461063e5780638da5cb5b146106a157600080fd5b80637a86196f1161015e5780637a86196f146105c85780637a91fb58146105e85780637eb4ca231461061e57600080fd5b8063715018a6146105ab578063780efa84146105c057600080fd5b80634e319a1c116102275780636653d0f5116101db578063685432e4116101c0578063685432e4146105315780636c73f1781461055e57806370a082311461058b57600080fd5b80636653d0f5146104ec57806367d5d9751461051e57600080fd5b806350238bed1161020c57806350238bed1461045c5780636352211e1461048957806363ed87f2146104a957600080fd5b80634e319a1c146104295780634ed013c81461043c57600080fd5b80630de872511161027e578063202e374011610263578063202e3740146103d457806323b872dd146103e957806342842e0e1461040957600080fd5b80630de87251146103925780630f08efe0146103b257600080fd5b806306fdde03116102af57806306fdde0314610323578063081812fc14610345578063095ea7b31461037257600080fd5b806301dc5bb5146102cb57806301ffc9a7146102ed575b600080fd5b3480156102d757600080fd5b506102eb6102e63660046140c1565b61086b565b005b3480156102f957600080fd5b5061030d610308366004614115565b6108c2565b60405161031a9190614140565b60405180910390f35b34801561032f57600080fd5b506103386109a7565b60405161031a91906141ac565b34801561035157600080fd5b506103656103603660046140c1565b610a39565b60405161031a91906141d7565b34801561037e57600080fd5b506102eb61038d3660046141f9565b610a92565b34801561039e57600080fd5b506102eb6103ad366004614236565b610b36565b3480156103be57600080fd5b506103c7610c71565b60405161031a9190614368565b3480156103e057600080fd5b506103c7610e2c565b3480156103f557600080fd5b506102eb610404366004614379565b611025565b34801561041557600080fd5b506102eb610424366004614379565b611056565b6102eb6104373660046140c1565b611071565b34801561044857600080fd5b506102eb6104573660046140c1565b611264565b34801561046857600080fd5b5061047c6104773660046143bf565b611293565b60405161031a91906144af565b34801561049557600080fd5b506103656104a43660046140c1565b611422565b3480156104b557600080fd5b506104df6104c43660046143bf565b6001600160a01b03166000908152601c602052604090205490565b60405161031a91906144c0565b3480156104f857600080fd5b5061050c6105073660046140c1565b611457565b60405161031a969594939291906144ce565b6102eb61052c3660046140c1565b6114b2565b34801561053d57600080fd5b5061055161054c3660046140c1565b6114be565b60405161031a919061451d565b34801561056a57600080fd5b506104df6105793660046143bf565b601c6020526000908152604090205481565b34801561059757600080fd5b506104df6105a63660046143bf565b611580565b3480156105b757600080fd5b506102eb6115c4565b6102eb6115fa565b3480156105d457600080fd5b506102eb6105e336600461452b565b61166a565b3480156105f457600080fd5b506103656106033660046140c1565b601b602052600090815260409020546001600160a01b031681565b34801561062a57600080fd5b506102eb61063936600461454d565b6116c0565b34801561064a57600080fd5b5061050c6106593660046140c1565b601d6020526000908152604090208054600182015460028301546003909301549192909163ffffffff81169061ffff6401000000008204811691660100000000000090041686565b3480156106ad57600080fd5b50600b546001600160a01b0316610365565b3480156106cb57600080fd5b5061033861178d565b3480156106e057600080fd5b506102eb6106ef366004614593565b61179c565b34801561070057600080fd5b506102eb61070f3660046140c1565b6117ab565b6102eb6107223660046145c6565b6117da565b34801561073357600080fd5b506102eb610742366004614725565b6119cc565b6102eb61075536600461452b565b6119fe565b34801561076657600080fd5b506103386107753660046140c1565b611bc1565b34801561078657600080fd5b506102eb6107953660046140c1565b611cfe565b3480156107a657600080fd5b506102eb6107b53660046140c1565b611d2d565b6102eb6107c83660046145c6565b611d69565b3480156107d957600080fd5b506102eb6107e83660046140c1565b611edf565b3480156107f957600080fd5b5061030d610808366004614798565b6001600160a01b03918216600090815260056020908152604080832093909416825291909152205460ff1690565b34801561084257600080fd5b506103c7611fcb565b34801561085757600080fd5b506102eb6108663660046143bf565b6121c4565b610876308233610b36565b6000818152601b6020908152604080832080546001600160a01b031916339081179091558352601c9091529020546108af9060016147d0565b336000908152601c602052604090205550565b60007fffffffff0000000000000000000000000000000000000000000000000000000082167f80ac58cd00000000000000000000000000000000000000000000000000000000148061095557507fffffffff0000000000000000000000000000000000000000000000000000000082167f5b5e139f00000000000000000000000000000000000000000000000000000000145b806109a157507f01ffc9a7000000000000000000000000000000000000000000000000000000007fffffffff000000000000000000000000000000000000000000000000000000008316145b92915050565b6060600080546109b6906147fe565b80601f01602080910402602001604051908101604052809291908181526020018280546109e2906147fe565b8015610a2f5780601f10610a0457610100808354040283529160200191610a2f565b820191906000526020600020905b815481529060010190602001808311610a1257829003601f168201915b5050505050905090565b6000818152600260205260408120546001600160a01b0316610a765760405162461bcd60e51b8152600401610a6d90614885565b60405180910390fd5b506000908152600460205260409020546001600160a01b031690565b6000610a9d82611422565b9050806001600160a01b0316836001600160a01b03161415610ad15760405162461bcd60e51b8152600401610a6d906148ed565b336001600160a01b0382161480610b0b57506001600160a01b038116600090815260056020908152604080832033845290915290205460ff165b610b275760405162461bcd60e51b8152600401610a6d90614955565b610b31838361221d565b505050565b60026007541415610b595760405162461bcd60e51b8152600401610a6d90614997565b60026007556001600160a01b0383163014610b865760405162461bcd60e51b8152600401610a6d906149d9565b6000828152600a60205260409020600301546001600160a01b03828116911614610bc25760405162461bcd60e51b8152600401610a6d90614a1b565b6000828152600a60205260409081902060068101805460ff191660011790556003810180546001600160a01b03191690556002015490516323b872dd60e01b81526001600160a01b038516906323b872dd90610c2690309086908690600401614a2b565b600060405180830381600087803b158015610c4057600080fd5b505af1158015610c54573d6000803e3d6000fd5b50505050610c66600980546001019055565b505060016007555050565b60606000610c7e60085490565b90506000610c8b60095490565b600854610c989190614a53565b90506000808267ffffffffffffffff811115610cb657610cb661462a565b604051908082528060200260200182016040528015610d1d57816020015b6040805160e08101825260008082526020808301829052928201819052606082018190526080820181905260a0820181905260c08201528252600019909201910181610cd45790505b50905060005b84811015610e23576000600a81610d3b8460016147d0565b81526020810191909152604001600020600401546001600160a01b03161415610e11576000610d6b8260016147d0565b6000818152600a6020908152604091829020825160e0810184528154815260018201546001600160a01b039081169382019390935260028201549381019390935260038101548216606084015260048101549091166080830152600581015460a0830152600681015460ff16151560c0830152855192935091859087908110610df657610df6614a6a565b6020908102919091010152610e0c6001866147d0565b945050505b80610e1b81614a80565b915050610d23565b50949350505050565b60606000610e3960085490565b905060008060005b83811015610e9c5733600a6000610e598460016147d0565b81526020810191909152604001600020600401546001600160a01b03161415610e8a57610e876001846147d0565b92505b80610e9481614a80565b915050610e41565b5060008267ffffffffffffffff811115610eb857610eb861462a565b604051908082528060200260200182016040528015610f1f57816020015b6040805160e08101825260008082526020808301829052928201819052606082018190526080820181905260a0820181905260c08201528252600019909201910181610ed65790505b50905060005b84811015610e235733600a6000610f3d8460016147d0565b81526020810191909152604001600020600401546001600160a01b03161415611013576000610f6d8260016147d0565b6000818152600a6020908152604091829020825160e0810184528154815260018201546001600160a01b039081169382019390935260028201549381019390935260038101548216606084015260048101549091166080830152600581015460a0830152600681015460ff16151560c0830152855192935091859087908110610ff857610ff8614a6a565b602090810291909101015261100e6001866147d0565b945050505b8061101d81614a80565b915050610f25565b61102f338261228b565b61104b5760405162461bcd60e51b8152600401610a6d90614af3565b610b31838383612339565b610b31838383604051806020016040528060008152506119cc565b80338061107d83611422565b6001600160a01b0316146110a35760405162461bcd60e51b8152600401610a6d90614b35565b60185434146110c45760405162461bcd60e51b8152600401610a6d90614b77565b600061113e611139856000908152601d6020908152604091829020825160c0810184528154815260018201549281019290925260028101549282018390526003015463ffffffff8116606083015261ffff64010000000082048116608084015266010000000000009091041660a09091015290565b61245b565b90508060a001511561121c57336001600160a01b03167fd84b9d4fcb92b3f863d788f33e175ec7d22eabc14cd2458f1f47523838f0dac4826040516111839190614bf2565b60405180910390a2600061120a61119960195490565b6000878152601d6020908152604091829020825160c0810184528154815260018201549281018390526002820154938101939093526003015463ffffffff8116606084015261ffff64010000000082048116608085015266010000000000009091041660a0909201919091526125f0565b90506112168133612645565b5061125e565b336001600160a01b03167fbf21d7bf10b21a389ac9d3cbc9de0db3a1f55cb3a0c7a831b13c4061d49530d7826040516112559190614bf2565b60405180910390a25b50505050565b600b546001600160a01b0316331461128e5760405162461bcd60e51b8152600401610a6d90614c30565b601755565b6001600160a01b0381166000908152601c60205260408120546060919067ffffffffffffffff8111156112c8576112c861462a565b60405190808252806020026020018201604052801561132857816020015b6040805160c08101825260008082526020808301829052928201819052606082018190526080820181905260a082015282526000199092019101816112e65790505b5090506000805b601a54811015611419576000818152601b60205260409020546001600160a01b038681169116141561140757601a818154811061136e5761136e614a6a565b60009182526020918290206040805160c08101825260049093029091018054835260018101549383019390935260028301549082015260039091015463ffffffff8116606083015261ffff64010000000082048116608084015266010000000000009091041660a082015283518490849081106113ed576113ed614a6a565b6020026020010181905250818061140390614a80565b9250505b8061141181614a80565b91505061132f565b50909392505050565b6000818152600260205260408120546001600160a01b0316806109a15760405162461bcd60e51b8152600401610a6d90614c98565b601a818154811061146757600080fd5b60009182526020909120600490910201805460018201546002830154600390930154919350919063ffffffff81169061ffff6401000000008204811691660100000000000090041686565b61087630823433611d69565b6040805160c081018252600080825260208201819052918101829052606081018290526080810182905260a081019190915260195482106115115760405162461bcd60e51b8152600401610a6d90614cda565b506000908152601d6020908152604091829020825160c0810184528154815260018201549281019290925260028101549282019290925260039091015463ffffffff8116606083015261ffff64010000000082048116608084015266010000000000009091041660a082015290565b60006001600160a01b0382166115a85760405162461bcd60e51b8152600401610a6d90614d42565b506001600160a01b031660009081526003602052604090205490565b600b546001600160a01b031633146115ee5760405162461bcd60e51b8152600401610a6d90614c30565b6115f860006128b4565b565b336000908152601c6020526040902054156116275760405162461bcd60e51b8152600401610a6d90614d84565b60165434146116485760405162461bcd60e51b8152600401610a6d90614b77565b600061165b61165660195490565b612906565b90506116678133612645565b50565b611676308383336117da565b6000828152601b6020908152604080832080546001600160a01b0319169055338352601c9091529020546116ac90600190614a53565b336000908152601c60205260409020555050565b8133806116cc83611422565b6001600160a01b0316146116f25760405162461bcd60e51b8152600401610a6d90614b35565b6116fd338486611025565b6000848152601b6020908152604080832080546001600160a01b0319166001600160a01b038816179055338352601c90915290205461173e90600190614a53565b336000908152601c6020526040808220929092556001600160a01b0385168152205461176b9060016147d0565b6001600160a01b039093166000908152601c6020526040902092909255505050565b6060600180546109b6906147fe565b6117a7338383612946565b5050565b600b546001600160a01b031633146117d55760405162461bcd60e51b8152600401610a6d90614c30565b601855565b600260075414156117fd5760405162461bcd60e51b8152600401610a6d90614997565b60026007558161181f5760405162461bcd60e51b8152600401610a6d90614dc6565b6001600160a01b03841630146118475760405162461bcd60e51b8152600401610a6d906149d9565b611855600880546001019055565b600061186060085490565b6040805160e0810182528281526001600160a01b0388811660208084018281528486018b81528985166060870190815260006080880181815260a089018e815260c08a018381528c8452600a909752918a90209851895593516001890180546001600160a01b0319908116928a16929092179055925160028901559051600388018054841691881691909117905591516004808801805490931691909616179055516005850155516006909301805460ff19169315159390931790925591516323b872dd60e01b8152929350916323b872dd9161194391869130918a9101614a2b565b600060405180830381600087803b15801561195d57600080fd5b505af1158015611971573d6000803e3d6000fd5b5050505083856001600160a01b0316827f045dfa01dcba2b36aba1d3dc4a874f4b0c5d2fbeb8d2c4b34a7d88c8d8f929d18560008860006040516119b89493929190614dd6565b60405180910390a450506001600755505050565b6119d6338361228b565b6119f25760405162461bcd60e51b8152600401610a6d90614af3565b61125e848484846129e9565b813380611a0a83611422565b6001600160a01b031614611a305760405162461bcd60e51b8152600401610a6d90614b35565b823380611a3c83611422565b6001600160a01b031614611a625760405162461bcd60e51b8152600401610a6d90614b35565b6017543414611a835760405162461bcd60e51b8152600401610a6d90614b77565b84861415611aa35760405162461bcd60e51b8152600401610a6d90614e3d565b6000611b98611ab160195490565b6000898152601d6020908152604091829020825160c0810184528154815260018201549281018390526002820154938101939093526003015463ffffffff8116606084015261ffff64010000000082048116608085015266010000000000009091041660a0909201919091526000898152601d6020908152604091829020825160c0810184528154815260018201549281018390526002820154938101939093526003015463ffffffff8116606084015261ffff64010000000082048116608085015266010000000000009091041660a090920191909152611b938b8b612a1c565b612bad565b9050611ba48133612645565b611bae8733612c03565b611bb88633612c03565b50505050505050565b6000818152600260205260409020546060906001600160a01b0316611bf85760405162461bcd60e51b8152600401610a6d90614ea5565b60008281526006602052604081208054611c11906147fe565b80601f0160208091040260200160405190810160405280929190818152602001828054611c3d906147fe565b8015611c8a5780601f10611c5f57610100808354040283529160200191611c8a565b820191906000526020600020905b815481529060010190602001808311611c6d57829003601f168201915b505050505090506000611ca860408051602081019091526000815290565b9050805160001415611cbb575092915050565b815115611ced578082604051602001611cd5929190614ed7565b60405160208183030381529060405292505050919050565b611cf684612ca9565b949350505050565b600b546001600160a01b03163314611d285760405162461bcd60e51b8152600401610a6d90614c30565b601655565b803380611d3983611422565b6001600160a01b031614611d5f5760405162461bcd60e51b8152600401610a6d90614b35565b610b318333612c03565b60026007541415611d8c5760405162461bcd60e51b8152600401610a6d90614997565b600260078190556000848152600a602052604090206005810154910154838214611dc85760405162461bcd60e51b8152600401610a6d90614f1f565b6001600160a01b0386163014611df05760405162461bcd60e51b8152600401610a6d906149d9565b6000858152600a60205260408082206004810180546001600160a01b0319166001600160a01b038881169190911790915560068201805460ff1916600117905560039091015491519116916108fc871502918791818181858888f19350505050158015611e61573d6000803e3d6000fd5b506040516323b872dd60e01b81526001600160a01b038716906323b872dd90611e9290309087908690600401614a2b565b600060405180830381600087803b158015611eac57600080fd5b505af1158015611ec0573d6000803e3d6000fd5b50505050611ed2600980546001019055565b5050600160075550505050565b803380611eeb83611422565b6001600160a01b031614611f115760405162461bcd60e51b8152600401610a6d90614b35565b6000611f83846000908152601d6020908152604091829020825160c0810184528154815260018201549281019290925260028101549282018390526003015463ffffffff8116606083015261ffff64010000000082048116608084015266010000000000009091041660a09091015290565b905080605c141561125e57611f988433612c03565b60405133904780156108fc02916000818181858888f19350505050158015611fc4573d6000803e3d6000fd5b5050505050565b60606000611fd860085490565b905060008060005b8381101561203b5733600a6000611ff88460016147d0565b81526020810191909152604001600020600301546001600160a01b03161415612029576120266001846147d0565b92505b8061203381614a80565b915050611fe0565b5060008267ffffffffffffffff8111156120575761205761462a565b6040519080825280602002602001820160405280156120be57816020015b6040805160e08101825260008082526020808301829052928201819052606082018190526080820181905260a0820181905260c082015282526000199092019101816120755790505b50905060005b84811015610e235733600a60006120dc8460016147d0565b81526020810191909152604001600020600301546001600160a01b031614156121b257600061210c8260016147d0565b6000818152600a6020908152604091829020825160e0810184528154815260018201546001600160a01b039081169382019390935260028201549381019390935260038101548216606084015260048101549091166080830152600581015460a0830152600681015460ff16151560c083015285519293509185908790811061219757612197614a6a565b60209081029190910101526121ad6001866147d0565b945050505b806121bc81614a80565b9150506120c4565b600b546001600160a01b031633146121ee5760405162461bcd60e51b8152600401610a6d90614c30565b6001600160a01b0381166122145760405162461bcd60e51b8152600401610a6d90614f87565b611667816128b4565b600081815260046020526040902080546001600160a01b0319166001600160a01b038416908117909155819061225282611422565b6001600160a01b03167f8c5be1e5ebec7d5bd14f71427d1e84f3dd0314c0f7b2291e5b200ac8c7c3b92560405160405180910390a45050565b6000818152600260205260408120546001600160a01b03166122bf5760405162461bcd60e51b8152600401610a6d90614fef565b60006122ca83611422565b9050806001600160a01b0316846001600160a01b031614806123055750836001600160a01b03166122fa84610a39565b6001600160a01b0316145b80611cf657506001600160a01b0380821660009081526005602090815260408083209388168352929052205460ff16611cf6565b826001600160a01b031661234c82611422565b6001600160a01b0316146123725760405162461bcd60e51b8152600401610a6d90615057565b6001600160a01b0382166123985760405162461bcd60e51b8152600401610a6d906150bf565b6123a360008261221d565b6001600160a01b03831660009081526003602052604081208054600192906123cc908490614a53565b90915550506001600160a01b03821660009081526003602052604081208054600192906123fa9084906147d0565b909155505060008181526002602052604080822080546001600160a01b0319166001600160a01b0386811691821790925591518493918716917fddf252ad1be2c89b69c2b068fc378daa952ba7f163c4a11628f55a4df523b3ef91a4505050565b6124986040518060c00160405280600015158152602001600081526020016000815260200160008152602001600081526020016000151581525090565b60006124a383612d49565b90506000806124b28584612db9565b9150915060006124c0612e35565b905060006124cf8460646150e5565b905060006124de8460646150e5565b9050821561256b576124f1600183614a53565b91508082116125345750506040805160c0810182526001808252602082019890985290810194909452506060830191909152608082015260a08101929092525090565b50506040805160c081018252600181526020810197909752860193909352606085019190915260808401525050600060a082015290565b612576600182614a53565b90508181116125b95750506040805160c0810182526000808252602082019890985290810194909452506060830191909152608082015260a08101929092525090565b50506040805160c081018252600081526020810197909752860193909352606085019190915260808401525050600160a082015290565b6040805160c081018252600080825260208201819052918101829052606081018290526080810182905260a081018290529061262c8380612e8e565b9050600061263c85836000612f29565b95945050505050565b601a805460018101825560009190915282517f057c384a7d1c54f3a1b2e5e67b2617b8224fdfd1ea7234eea573a6ff665ff63e60049092029182015560208301517f057c384a7d1c54f3a1b2e5e67b2617b8224fdfd1ea7234eea573a6ff665ff63f82015560408301517f057c384a7d1c54f3a1b2e5e67b2617b8224fdfd1ea7234eea573a6ff665ff64082015560608301517f057c384a7d1c54f3a1b2e5e67b2617b8224fdfd1ea7234eea573a6ff665ff6419091018054608085015160a086015163ffffffff90941665ffffffffffff199092169190911764010000000061ffff928316021767ffff000000000000191666010000000000009190931602919091179055601954612759908290612fa4565b61277c61276560195490565b61277761277160195490565b85612fbe565b613025565b80601b600061278a60195490565b81526020808201929092526040908101600090812080546001600160a01b0319166001600160a01b039586161790559284168352601c9091529020546127d19060016147d0565b6001600160a01b0382166000818152601c6020908152604080832094909455601980548352601d82529184902086518155908601516001820155858401516002820155606086015160039091018054608088015160a089015163ffffffff90941665ffffffffffff199092169190911764010000000061ffff928316021767ffff00000000000019166601000000000000919093160291909117905554915190917fb9e9899b84f4affb2c40b3c644e3ac91ded134d040120e7fc42b68ca0c25c1e79161289e91906144c0565b60405180910390a26117a7601980546001019055565b600b80546001600160a01b038381166001600160a01b0319831681179093556040519116919082907f8be0079c531659141344cd1fd0a4f28419497f9722a3daafe3b4186f6b6457e090600090a35050565b6040805160c081018252600080825260208201819052918101829052606081018290526080810182905260a08101829052906000611cf684836000612f29565b816001600160a01b0316836001600160a01b031614156129785760405162461bcd60e51b8152600401610a6d9061512b565b6001600160a01b0383811660008181526005602090815260408083209487168084529490915290819020805460ff1916851515179055517f17307eab39ab6107e8899845ad3d59bd9653f200f220920489ca2b5937696c31906129dc908590614140565b60405180910390a3505050565b6129f4848484612339565b612a0084848484613078565b61125e5760405162461bcd60e51b8152600401610a6d90615193565b600080601d60008581526020019081526020016000206040518060c00160405290816000820154815260200160018201548152602001600282015481526020016003820160009054906101000a900463ffffffff1663ffffffff1663ffffffff1681526020016003820160049054906101000a900461ffff1661ffff1661ffff1681526020016003820160069054906101000a900461ffff1661ffff1661ffff168152505090506000601d60008581526020019081526020016000206040518060c00160405290816000820154815260200160018201548152602001600282015481526020016003820160009054906101000a900463ffffffff1663ffffffff1663ffffffff1681526020016003820160049054906101000a900461ffff1661ffff1661ffff1681526020016003820160069054906101000a900461ffff1661ffff1661ffff16815250509050806060015163ffffffff16826060015163ffffffff1610612b9d576060820151612b949060016151a3565b925050506109a1565b6060810151612b949060016151a3565b6040805160c081018252600080825260208201819052918101829052606081018290526080810182905260a0810182905290612be98585612e8e565b90506000612bf8878386612f29565b979650505050505050565b6000828152601b6020908152604080832080546001600160a01b03191690556001600160a01b0384168352601c909152902054612c4290600190614a53565b6001600160a01b0382166000908152601c6020526040902055612c64826131bd565b806001600160a01b03167fc7b64cadc933e9668a02ac176a26f449d9d98b90181758d8bc600850d447d41383604051612c9d91906144c0565b60405180910390a25050565b6000818152600260205260409020546060906001600160a01b0316612ce05760405162461bcd60e51b8152600401610a6d90615225565b6000612cf760408051602081019091526000815290565b90506000815111612d175760405180602001604052806000815250612d42565b80612d21846131fd565b604051602001612d32929190614ed7565b6040516020818303038152906040525b9392505050565b600080612d54612e35565b90506000612d62600561332f565b9050612d6f816003615235565b90508115612d8e57612d8460ff8216856150e5565b611cf690856147d0565b6000612d9d60ff8316866150e5565b9050848114612db05761263c8186614a53565b50929392505050565b60008082841115612df9576000612dd2856127106150e5565b9050612dde8185615256565b9050612dec6103e8826150e5565b600a93509150612e2e9050565b6000612e07846127106150e5565b9050612e138186615256565b9050612e216103e8826150e5565b9250600a9150612e2e9050565b9250929050565b60006015546001612e4691906147d0565b6015819055604051600091600291612e65914291449190602001615275565b6040516020818303038152906040528051906020012060001c612e8891906152a3565b11905090565b6000806000806000612e9f876133a1565b9350935093509350600080600080612eb68a6133a1565b93509350935093506000612ece89866004600261341c565b90506000612ee089866002600161341c565b90506000612ef289866003600161341c565b90506000612f0489866004600261341c565b90506000612f14858585856134f0565b9d505050505050505050505050505092915050565b6040805160c081018252600080825260208201819052918101829052606081018290526080810182905260a081019190915260006040518060c00160405280868152602001858152602001612f7d86613548565b815263ffffffff851660208201526000604082018190526060909101529150509392505050565b6117a78282604051806020016040528060008152506135d1565b60606000806000612fd28560200151613604565b92509250925061301b6040518060c0016040528088815260200187604001518152602001876060015163ffffffff1681526020018581526020018481526020018381525061369c565b9695505050505050565b6000828152600260205260409020546001600160a01b03166130595760405162461bcd60e51b8152600401610a6d9061530f565b60008281526006602090815260409091208251610b3192840190613fda565b60006001600160a01b0384163b156131b5576040517f150b7a020000000000000000000000000000000000000000000000000000000081526001600160a01b0385169063150b7a02906130d590339089908890889060040161531f565b6020604051808303816000875af1925050508015613110575060408051601f3d908101601f1916820190925261310d91810190615364565b60015b61316a573d80801561313e576040519150601f19603f3d011682016040523d82523d6000602084013e613143565b606091505b5080516131625760405162461bcd60e51b8152600401610a6d90615193565b805181602001fd5b7fffffffff00000000000000000000000000000000000000000000000000000000167f150b7a0200000000000000000000000000000000000000000000000000000000149050611cf6565b506001611cf6565b6131c6816136af565b600081815260066020526040902080546131df906147fe565b1590506116675760008181526006602052604081206116679161405e565b60608161323d57505060408051808201909152600181527f3000000000000000000000000000000000000000000000000000000000000000602082015290565b8160005b8115613267578061325181614a80565b91506132609050600a836150e5565b9150613241565b60008167ffffffffffffffff8111156132825761328261462a565b6040519080825280601f01601f1916602001820160405280156132ac576020820181803683370190505b5090505b8415611cf6576132c1600183614a53565b91506132ce600a866152a3565b6132d99060306147d0565b60f81b8183815181106132ee576132ee614a6a565b60200101907effffffffffffffffffffffffffffffffffffffffffffffffffffffffffffff1916908160001a905350613328600a866150e5565b94506132b0565b6000808260ff16116133535760405162461bcd60e51b8152600401610a6d906153b7565b6015546133619060016147d0565b601581905560405160ff84169161337e9142914491602001615275565b6040516020818303038152906040528051906020012060001c6109a191906152a3565b600080808084816133b4612710836152a3565b90506133c2612710836150e5565b915060006133d16064846152a3565b90506133de6064846150e5565b925060006133ed6064856152a3565b90506133fa6064856150e5565b9350600061340a612710866152a3565b9a919950919750919550909350505050565b600080600161342c8560026154d5565b6134369190614a53565b9050600061344584600a6154d5565b9050600061345382896152a3565b90506000613461838a6150e5565b9050600061346f848a6152a3565b9050600061347d858b6150e5565b9050600061348c84868961374a565b9050600061349b83858a61374a565b905060006134a761377b565b156134c857816134b78985615256565b6134c191906147d0565b90506134df565b6134d28883615256565b6134dc90846147d0565b90505b9d9c50505050505050505050505050565b6000806134fd83826147d0565b905061350b84612710615256565b61351590826147d0565b905061352485620f4240615256565b61352e90826147d0565b905061353e866305f5e100615256565b61301b90826147d0565b6000806064613559612710856152a3565b61356391906150e5565b90506000620186a0613578620f4240866152a3565b61358291906150e5565b90506000629896806135986305f5e100876152a3565b6135a291906150e5565b90506000826135b28560016147d0565b6135bc91906147d0565b6135c78360016147d0565b61301b9190615256565b6135db83836137ab565b6135e86000848484613078565b610b315760405162461bcd60e51b8152600401610a6d90615193565b6000808083613615612710826150e5565b905060006136246064836152a3565b90506000613633600a836150e5565b90506136406064846150e5565b9250600061364f6064856152a3565b9050600061365e600a836150e5565b905061366b6064866150e5565b9450600061367b612710876152a3565b9050600061368a6064836150e5565b9b929a50939850909650505050505050565b60606109a16136aa8361388d565b6138fc565b60006136ba82611422565b90506136c760008361221d565b6001600160a01b03811660009081526003602052604081208054600192906136f0908490614a53565b909155505060008281526002602052604080822080546001600160a01b0319169055518391906001600160a01b038416907fddf252ad1be2c89b69c2b068fc378daa952ba7f163c4a11628f55a4df523b3ef908390a45050565b600080613755613cdd565b15613761575083613764565b50825b61376c613d3c565b15611cf65761263c8184613d77565b6000601154600161378c91906147d0565b6011819055604051600091600291612e65914291449190602001615275565b6001600160a01b0382166137d15760405162461bcd60e51b8152600401610a6d90615514565b6000818152600260205260409020546001600160a01b0316156138065760405162461bcd60e51b8152600401610a6d90615556565b6001600160a01b038216600090815260036020526040812080546001929061382f9084906147d0565b909155505060008181526002602052604080822080546001600160a01b0319166001600160a01b03861690811790915590518392907fddf252ad1be2c89b69c2b068fc378daa952ba7f163c4a11628f55a4df523b3ef908290a45050565b606061389c82600001516131fd565b6138b3836060015184608001518560a00151613d9b565b6138d48460200151856040015186608001518760a001518860600151613e1d565b6040516020016138e6939291906155e2565b6040516020818303038152906040529050919050565b6060600082905060006003825161391391906152a3565b9050600060036139238382614a53565b61392d91906152a3565b60038451600261393d91906147d0565b61394791906150e5565b613952906004615256565b61395c9190614a53565b905060008167ffffffffffffffff8111156139795761397961462a565b6040519080825280601f01601f1916602001820160405280156139a3576020820181803683370190505b5090506000805b85516139b78360036147d0565b11613b6157613a268683815181106139d1576139d1614a6a565b016020015160f81c876139e58560016147d0565b815181106139f5576139f5614a6a565b016020015160f81c88613a098660026147d0565b81518110613a1957613a19614a6a565b016020015160f81c613ebf565b868581518110613a3857613a38614a6a565b0160200187613a488760016147d0565b81518110613a5857613a58614a6a565b0160200188613a688860026147d0565b81518110613a7857613a78614a6a565b0160200189613a888960036147d0565b81518110613a9857613a98614a6a565b7fff00000000000000000000000000000000000000000000000000000000000000861660001a9101602001537fff00000000000000000000000000000000000000000000000000000000000000851660001a90537fff00000000000000000000000000000000000000000000000000000000000000851660001a90537fff00000000000000000000000000000000000000000000000000000000000000851660001a905350505050600481613b4d91906147d0565b9050613b5a6003836147d0565b91506139aa565b8415613cd157600086868851613b779190614a53565b81518110613b8757613b87614a6a565b016020015160f81c905060006002871415613bc6578760018951613bab9190614a53565b81518110613bbb57613bbb614a6a565b016020015160f81c90505b600080600080613bde8660ff168660ff166000613ebf565b935093509350935083898881518110613bf957613bf9614a6a565b60200101907effffffffffffffffffffffffffffffffffffffffffffffffffffffffffffff1916908160001a9053508289613c358960016147d0565b81518110613c4557613c45614a6a565b60200101907effffffffffffffffffffffffffffffffffffffffffffffffffffffffffffff1916908160001a9053508a60021415613cca578189613c8a8960026147d0565b81518110613c9a57613c9a614a6a565b60200101907effffffffffffffffffffffffffffffffffffffffffffffffffffffffffffff1916908160001a9053505b5050505050505b50909695505050505050565b60006011546001613cee91906147d0565b601181905560145460405160ff90911691606491613d13914291449190602001615275565b6040516020818303038152906040528051906020012060001c613d3691906152a3565b10905090565b60006011546001613d4d91906147d0565b60118190556014546040516201000090910460ff1691606491613d13914291449190602001615275565b600081831415613d89575060006109a1565b613d948360016147d0565b90506109a1565b6060611cf6600f8581548110613db357613db3614a6a565b9060005260206000200160108481548110613dd057613dd0614a6a565b90600052602060002001600d8681548110613ded57613ded614a6a565b90600052602060002001604051602001613e0993929190615777565b6040516020818303038152906040526138fc565b60606000613e2a876131fd565b613e398763ffffffff166131fd565b600d8781548110613e4c57613e4c614a6a565b90600052602060002001600e8781548110613e6957613e69614a6a565b90600052602060002001600c8781548110613e8657613e86614a6a565b90600052602060002001604051602001613ea4959493929190615b8f565b60408051808303601f19018152919052979650505050505050565b60408051606081018252818152600091829182918291601089901b600889901b17871791603f601284901c811692600c85901c821692600686901c83169286169190615c7460208301398481518110613f1a57613f1a614a6a565b602001015160f81c60f81b9850604051806060016040528060408152602001615c74604091398381518110613f5157613f51614a6a565b602001015160f81c60f81b9750604051806060016040528060408152602001615c74604091398281518110613f8857613f88614a6a565b602001015160f81c60f81b9650604051806060016040528060408152602001615c74604091398181518110613fbf57613fbf614a6a565b602001015160f81c60f81b9550505050505093509350935093565b828054613fe6906147fe565b90600052602060002090601f016020900481019282614008576000855561404e565b82601f1061402157805160ff191683800117855561404e565b8280016001018555821561404e579182015b8281111561404e578251825591602001919060010190614033565b5061405a929150614094565b5090565b50805461406a906147fe565b6000825580601f1061407a575050565b601f01602090049060005260206000209081019061166791905b5b8082111561405a5760008155600101614095565b805b811461166757600080fd5b80356109a1816140a9565b6000602082840312156140d6576140d6600080fd5b6000611cf684846140b6565b7fffffffff0000000000000000000000000000000000000000000000000000000081166140ab565b80356109a1816140e2565b60006020828403121561412a5761412a600080fd5b6000611cf6848461410a565b8015155b82525050565b602081016109a18284614136565b60005b83811015614169578181015183820152602001614151565b8381111561125e5750506000910152565b6000614184825190565b80845260208401935061419b81856020860161414e565b601f01601f19169290920192915050565b60208082528101612d42818461417a565b60006001600160a01b0382166109a1565b61413a816141bd565b602081016109a182846141ce565b6140ab816141bd565b80356109a1816141e5565b6000806040838503121561420f5761420f600080fd5b600061421b85856141ee565b925050602061422c858286016140b6565b9150509250929050565b60008060006060848603121561424e5761424e600080fd5b600061425a86866141ee565b935050602061426b868287016140b6565b925050604061427c868287016141ee565b9150509250925092565b8061413a565b80516142988382614286565b5060208101516142ab60208401826141ce565b5060408101516142be6040840182614286565b5060608101516142d160608401826141ce565b5060808101516142e460808401826141ce565b5060a08101516142f760a0840182614286565b5060c0810151610b3160c0840182614136565b614314828261428c565b5060e00190565b60200190565b600061432b825190565b808452602093840193830160005b8281101561435e57815161434d878261430a565b965050602082019150600101614339565b5093949350505050565b60208082528101612d428184614321565b60008060006060848603121561439157614391600080fd5b600061439d86866141ee565b93505060206143ae868287016141ee565b925050604061427c868287016140b6565b6000602082840312156143d4576143d4600080fd5b6000611cf684846141ee565b63ffffffff811661413a565b61ffff811661413a565b80516144028382614286565b5060208101516144156020840182614286565b5060408101516144286040840182614286565b50606081015161443b60608401826143e0565b50608081015161444e60808401826143ec565b5060a0810151610b3160a08401826143ec565b61446b82826143f6565b5060c00190565b600061447c825190565b808452602093840193830160005b8281101561435e57815161449e8782614461565b96505060208201915060010161448a565b60208082528101612d428184614472565b602081016109a18284614286565b60c081016144dc8289614286565b6144e96020830188614286565b6144f66040830187614286565b61450360608301866143e0565b61451060808301856143ec565b612bf860a08301846143ec565b60c081016109a182846143f6565b6000806040838503121561454157614541600080fd5b600061421b85856140b6565b6000806040838503121561456357614563600080fd5b600061456f85856140b6565b925050602061422c858286016141ee565b8015156140ab565b80356109a181614580565b600080604083850312156145a9576145a9600080fd5b60006145b585856141ee565b925050602061422c85828601614588565b600080600080608085870312156145df576145df600080fd5b60006145eb87876141ee565b94505060206145fc878288016140b6565b935050604061460d878288016140b6565b925050606061461e878288016141ee565b91505092959194509250565b634e487b7160e01b600052604160045260246000fd5b601f19601f830116810181811067ffffffffffffffff821117156146665761466661462a565b6040525050565b600061467860405190565b90506146848282614640565b919050565b600067ffffffffffffffff8211156146a3576146a361462a565b601f19601f83011660200192915050565b82818337506000910152565b60006146d36146ce84614689565b61466d565b9050828152602081018484840111156146ee576146ee600080fd5b6146f98482856146b4565b509392505050565b600082601f83011261471557614715600080fd5b8135611cf68482602086016146c0565b6000806000806080858703121561473e5761473e600080fd5b600061474a87876141ee565b945050602061475b878288016141ee565b935050604061476c878288016140b6565b925050606085013567ffffffffffffffff81111561478c5761478c600080fd5b61461e87828801614701565b600080604083850312156147ae576147ae600080fd5b600061456f85856141ee565b634e487b7160e01b600052601160045260246000fd5b600082198211156147e3576147e36147ba565b500190565b634e487b7160e01b600052602260045260246000fd5b60028104600182168061481257607f821691505b60208210811415614825576148256147e8565b50919050565b602c8152602081017f4552433732313a20617070726f76656420717565727920666f72206e6f6e657881527f697374656e7420746f6b656e0000000000000000000000000000000000000000602082015290505b60400190565b602080825281016109a18161482b565b60218152602081017f4552433732313a20617070726f76616c20746f2063757272656e74206f776e6581527f72000000000000000000000000000000000000000000000000000000000000006020820152905061487f565b602080825281016109a181614895565b60388152602081017f4552433732313a20617070726f76652063616c6c6572206973206e6f74206f7781527f6e6572206e6f7220617070726f76656420666f7220616c6c00000000000000006020820152905061487f565b602080825281016109a1816148fd565b601f8152602081017f5265656e7472616e637947756172643a207265656e7472616e742063616c6c008152905061431b565b602080825281016109a181614965565b600f8152602081017f4f6e6c792067616d65206974656d7300000000000000000000000000000000008152905061431b565b602080825281016109a1816149a7565b600a8152602081017f4f6e6c79206f776e6572000000000000000000000000000000000000000000008152905061431b565b602080825281016109a1816149e9565b60608101614a3982866141ce565b614a4660208301856141ce565b611cf66040830184614286565b600082821015614a6557614a656147ba565b500390565b634e487b7160e01b600052603260045260246000fd5b6000600019821415614a9457614a946147ba565b5060010190565b60318152602081017f4552433732313a207472616e736665722063616c6c6572206973206e6f74206f81527f776e6572206e6f7220617070726f7665640000000000000000000000000000006020820152905061487f565b602080825281016109a181614a9b565b60198152602081017f4f6e6c792073776f7264206f776e65722063616e2063616c6c000000000000008152905061431b565b602080825281016109a181614b03565b600e8152602081017f4e6f7420656e6f756768206665650000000000000000000000000000000000008152905061431b565b602080825281016109a181614b45565b8051614b938382614136565b506020810151614ba66020840182614286565b506040810151614bb96040840182614286565b506060810151614bcc6060840182614286565b506080810151614bdf6080840182614286565b5060a0810151610b3160a0840182614136565b60c081016109a18284614b87565b60208082527f4f776e61626c653a2063616c6c6572206973206e6f7420746865206f776e6572910190815261431b565b602080825281016109a181614c00565b60298152602081017f4552433732313a206f776e657220717565727920666f72206e6f6e657869737481527f656e7420746f6b656e00000000000000000000000000000000000000000000006020820152905061487f565b602080825281016109a181614c40565b60148152602081017f53776f726420646f6573206e6f742065786973740000000000000000000000008152905061431b565b602080825281016109a181614ca8565b602a8152602081017f4552433732313a2062616c616e636520717565727920666f7220746865207a6581527f726f2061646472657373000000000000000000000000000000000000000000006020820152905061487f565b602080825281016109a181614cea565b60188152602081017f53686f756c64206e6f74206f776e20616e792073776f726400000000000000008152905061431b565b602080825281016109a181614d52565b601c8152602081017f5072696365206d757374206265206174206c65617374203120776569000000008152905061431b565b602080825281016109a181614d94565b60808101614de482876141ce565b614df160208301866141ce565b614dfe6040830185614286565b61263c6060830184614136565b60188152602081017f53776f726473206d75737420626520646966666572656e7400000000000000008152905061431b565b602080825281016109a181614e0b565b60318152602081017f45524337323155524953746f726167653a2055524920717565727920666f722081527f6e6f6e6578697374656e7420746f6b656e0000000000000000000000000000006020820152905061487f565b602080825281016109a181614e4d565b6000614ebf825190565b614ecd81856020860161414e565b9290920192915050565b614ee18184614eb5565b9050612d428183614eb5565b60198152602081017f41736b696e67207072696365206973206e6f7420657175616c000000000000008152905061431b565b602080825281016109a181614eed565b60268152602081017f4f776e61626c653a206e6577206f776e657220697320746865207a65726f206181527f64647265737300000000000000000000000000000000000000000000000000006020820152905061487f565b602080825281016109a181614f2f565b602c8152602081017f4552433732313a206f70657261746f7220717565727920666f72206e6f6e657881527f697374656e7420746f6b656e00000000000000000000000000000000000000006020820152905061487f565b602080825281016109a181614f97565b60298152602081017f4552433732313a207472616e73666572206f6620746f6b656e2074686174206981527f73206e6f74206f776e00000000000000000000000000000000000000000000006020820152905061487f565b602080825281016109a181614fff565b60248152602081017f4552433732313a207472616e7366657220746f20746865207a65726f2061646481527f72657373000000000000000000000000000000000000000000000000000000006020820152905061487f565b602080825281016109a181615067565b634e487b7160e01b600052601260045260246000fd5b6000826150f4576150f46150cf565b500490565b60198152602081017f4552433732313a20617070726f766520746f2063616c6c6572000000000000008152905061431b565b602080825281016109a1816150f9565b60328152602081017f4552433732313a207472616e7366657220746f206e6f6e20455243373231526581527f63656976657220696d706c656d656e74657200000000000000000000000000006020820152905061487f565b602080825281016109a18161513b565b63ffffffff8116905063ffffffff8216915060008263ffffffff038211156147e3576147e36147ba565b602f8152602081017f4552433732314d657461646174613a2055524920717565727920666f72206e6f81527f6e6578697374656e7420746f6b656e00000000000000000000000000000000006020820152905061487f565b602080825281016109a1816151cd565b60ff8116905060ff8216915060008260ff038211156147e3576147e36147ba565b6000816000190483118215151615615270576152706147ba565b500290565b61527f8185614286565b60200161528c8184614286565b6020016152998183614286565b6020019392505050565b6000826152b2576152b26150cf565b500690565b602e8152602081017f45524337323155524953746f726167653a2055524920736574206f66206e6f6e81527f6578697374656e7420746f6b656e0000000000000000000000000000000000006020820152905061487f565b602080825281016109a1816152b7565b6080810161532d82876141ce565b61533a60208301866141ce565b6153476040830185614286565b818103606083015261301b818461417a565b80516109a1816140e2565b60006020828403121561537957615379600080fd5b6000611cf68484615359565b60168152602081017f5570706572206c696d69742073686f756c64203e2030000000000000000000008152905061431b565b602080825281016109a181615385565b80825b6001851115615406578086048111156153e5576153e56147ba565b60018516156153f357908102905b80026153ff8560011c90565b94506153ca565b94509492505050565b60008261541e57506001612d42565b8161542b57506000612d42565b8160018114615441576002811461544b57615478565b6001915050612d42565b60ff84111561545c5761545c6147ba565b8360020a915084821115615472576154726147ba565b50612d42565b5060208310610133831016604e8410600b84101617156154ab575081810a838111156154a6576154a66147ba565b612d42565b6154b884848460016153c7565b925090508184048111156154ce576154ce6147ba565b0292915050565b6000612d42600019848461540f565b60208082527f4552433732313a206d696e7420746f20746865207a65726f2061646472657373910190815261431b565b602080825281016109a1816154e4565b601c8152602081017f4552433732313a20746f6b656e20616c7265616479206d696e746564000000008152905061431b565b602080825281016109a181615524565b7f272c00000000000000000000000000000000000000000000000000000000000081525b60020190565b7f270000000000000000000000000000000000000000000000000000000000000081525b60010190565b7f7d0000000000000000000000000000000000000000000000000000000000000081526155b4565b7f7b276e616d65273a202753776f7264202300000000000000000000000000000081526011016156128185614eb5565b905061561d81615566565b7f276465736372697074696f6e273a20275468697320697320616e204e4654207481527f686174206c6574732070656f706c6520706c617920696e207468652067616d6560208201527f204d657267652053776f72647321272c0000000000000000000000000000000060408201527f27696d616765273a2027646174613a696d6167652f7376672b786d6c3b62617360508201527f6536342c00000000000000000000000000000000000000000000000000000000607082015260740190506156e78184614eb5565b90506156f281615590565b90506156fe8183614eb5565b9050611cf6816155ba565b60008154615716816147fe565b60018216801561572d576001811461573e5761576e565b60ff1983168652818601935061576e565b60008581526020902060005b838110156157665781548882015260019091019060200161574a565b505081860193505b50505092915050565b7f3c73766720786d6c6e733d27687474703a2f2f7777772e77332e6f72672f323081527f30302f73766727207072657365727665417370656374526174696f3d27784d6960208201527f6e594d696e206d656574272076696577426f783d27302030203335302033353060408201527f273e3c7374796c653e2e626173657b66696c6c3a00000000000000000000000060608201526074016158198185615709565b7f3b666f6e742d66616d696c793a73657269663b666f6e742d73697a653a32347081527f783b7061696e742d6f726465723a7374726f6b653b7374726f6b653a2366666660208201527f6666663b7374726f6b652d77696474683a312e3570783b7d3c2f7374796c653e60408201527f3c726563742077696474683d273130302527206865696768743d27313030252760608201527f2066696c6c3d2700000000000000000000000000000000000000000000000000608082015260870190506158e38184615709565b7f27202f3e3c7465787420783d273530252720793d273530252720636c6173733d81527f27626173652720646f6d696e616e742d626173656c696e653d276d6964646c6560208201527f2720746578742d616e63686f723d276d6964646c65273e000000000000000000604082015260570190506159618183615709565b7f3c2f746578743e3c2f7376673e0000000000000000000000000000000000000081529050600d8101611cf6565b7f5b0000000000000000000000000000000000000000000000000000000000000081526155b4565b7f7b202774726169745f74797065273a202741747461636b20506f776572272c2081527f20202776616c7565273a2027000000000000000000000000000000000000000060208201525b602c0190565b7f277d000000000000000000000000000000000000000000000000000000000000815261558a565b7f7b202774726169745f74797065273a202747656e65726174696f6e272c20202081527f20202776616c756527203a2700000000000000000000000000000000000000006020820152615a01565b7f7b202774726169745f74797065273a202753776f72642054797065272c20202081527f20202776616c756527203a2700000000000000000000000000000000000000006020820152615a01565b7f7b202774726169745f74797065273a202753776f7264204d6174657269616c2781527f2c202776616c756527203a2700000000000000000000000000000000000000006020820152615a01565b7f7b202774726169745f74797065273a202748696c7420436f6c6f72272c20202081527f20202776616c756527203a2700000000000000000000000000000000000000006020820152615a01565b7f5d0000000000000000000000000000000000000000000000000000000000000081526155b4565b7f2761747472696275746573273a200000000000000000000000000000000000008152600e01615bbe8161598f565b9050615bc9816159b7565b9050615bd58187614eb5565b9050615be081615a07565b9050615beb81615a2f565b9050615bf78186614eb5565b9050615c0281615a07565b9050615c0d81615a7d565b9050615c198185615709565b9050615c2481615a07565b9050615c2f81615acb565b9050615c3b8184615709565b9050615c4681615a07565b9050615c5181615b19565b9050615c5d8183615709565b9050615c6881615a07565b905061301b81615b6756fe4142434445464748494a4b4c4d4e4f505152535455565758595a6162636465666768696a6b6c6d6e6f707172737475767778797a303132333435363738392d5fa2646970667358221220b3a1deeb8cdd629856688fb6aecad95a1c106416a3728d48ddeb4a02e7768a3964736f6c634300080a0033",
  "immutableReferences": {},
  "source": "// SPDX-License-Identifier: MIT\npragma solidity >=0.4.22 <0.9.0;\n\nimport \"@openzeppelin/contracts/utils/Counters.sol\";\nimport \"@openzeppelin/contracts/token/ERC721/extensions/ERC721URIStorage.sol\";\nimport \"@openzeppelin/contracts/access/Ownable.sol\";\n\nimport \"./SwordAttack.sol\";\nimport \"./NFTMarketplace.sol\";\n\ncontract MergeSwordsToken is ERC721URIStorage, NFTMarketplace, Ownable, SwordAttack {\n  constructor() ERC721(\"MERGESWORDS\", \"SWORD\") {}\n\n  using Counters for Counters.Counter;\n\n  uint256 private basicSwordFee = 0.01 ether;\n  uint256 private mergeFee = 0.005 ether;\n  uint256 private attackFee = 0.001 ether;\n\n  event NewSword(address indexed owner, uint256 id);\n  event BurnSword(address indexed owner, uint256 id);\n  event WonBattle(address indexed owner, AttackLog attackLog);\n  event LostBattle(address indexed owner, AttackLog attackLog);\n\n  Counters.Counter private _tokenIds;\n\n  // stored swords on blockhain\n  Sword[] public swords;\n\n  mapping(uint256 => address) public swordToOwner;\n  mapping(address => uint256) public ownerSwordCount;\n  mapping(uint256 => Sword) public idToSword;\n\n  modifier doesNotOwnSword() {\n    require(ownerSwordCount[msg.sender] == 0, \"Should not own any sword\");\n    _;\n  }\n\n  modifier onlySwordOwner(uint256 _swordId, address _callerAddress) {\n    require(ownerOf(_swordId) == _callerAddress, \"Only sword owner can call\");\n    _;\n  }\n\n  function updateBasicSwordFee(uint256 _fee) external onlyOwner {\n    basicSwordFee = _fee;\n  }\n\n  function updateMergeFee(uint256 _fee) external onlyOwner {\n    mergeFee = _fee;\n  }\n\n  function updateAttackFee(uint256 _fee) external onlyOwner {\n    attackFee = _fee;\n  }\n\n  function getBasicSword() public payable doesNotOwnSword {\n    require(msg.value == basicSwordFee, \"Not enough fee\");\n\n    Sword memory newSword = _createBasicSwordObject(_tokenIds.current());\n\n    _mintSwordFromObject(newSword, msg.sender);\n  }\n\n  function _mintSwordFromObject(Sword memory _newSword, address _senderAddr) internal {\n    swords.push(_newSword);\n\n    _safeMint(_senderAddr, _tokenIds.current());\n\n    // set token uri\n    _setTokenURI(_tokenIds.current(), _generateSwordUri(_tokenIds.current(), _newSword));\n\n    swordToOwner[_tokenIds.current()] = _senderAddr;\n    ownerSwordCount[_senderAddr] = ownerSwordCount[_senderAddr] + 1;\n    idToSword[_tokenIds.current()] = _newSword;\n\n    emit NewSword(_senderAddr, _tokenIds.current());\n\n    _tokenIds.increment();\n  }\n\n  function mergeSwords(uint256 swordOneId, uint256 swordTwoId)\n    public\n    payable\n    onlySwordOwner(swordOneId, msg.sender)\n    onlySwordOwner(swordTwoId, msg.sender)\n  {\n    require(msg.value == mergeFee, \"Not enough fee\");\n    require(swordOneId != swordTwoId, \"Swords must be different\");\n\n    // create a new sword\n    Sword memory newSword = _createFromTwoSwords(\n      _tokenIds.current(),\n      _getSwordDnaFromId(swordOneId),\n      _getSwordDnaFromId(swordTwoId),\n      _calcChildGeneration(swordOneId, swordTwoId)\n    );\n    _mintSwordFromObject(newSword, msg.sender);\n\n    // burn the given sword NFTs\n    _burnSwordNft(swordOneId, msg.sender);\n    _burnSwordNft(swordTwoId, msg.sender);\n  }\n\n  function _burnSwordNft(uint256 _swordId, address _senderAddr) internal {\n    swordToOwner[_swordId] = address(0);\n    ownerSwordCount[_senderAddr] = ownerSwordCount[_senderAddr] - 1;\n\n    _burn(_swordId);\n\n    emit BurnSword(_senderAddr, _swordId);\n  }\n\n  function _getSwordDnaFromId(uint256 _swordId) internal view returns (uint256) {\n    Sword memory sword = idToSword[_swordId];\n    return sword.dna;\n  }\n\n  function _calcChildGeneration(uint256 _parentOneId, uint256 _parentTwoId) internal view returns (uint32) {\n    Sword memory parentOne = idToSword[_parentOneId];\n    Sword memory parentTwo = idToSword[_parentTwoId];\n\n    // select the oldest parent\n    if (parentOne.generation >= parentTwo.generation) {\n      return (parentOne.generation + 1);\n    } else {\n      return (parentTwo.generation + 1);\n    }\n  }\n\n  function battleMonster(uint256 _swordId) public payable onlySwordOwner(_swordId, msg.sender) {\n    require(msg.value == attackFee, \"Not enough fee\");\n    AttackLog memory attackLog = attackMonster(_getAttackPowerFromSwordId(_swordId));\n\n    if (attackLog.didUserWin) {\n      emit WonBattle(msg.sender, attackLog);\n\n      // give a new sword as a reward to user\n      Sword memory sword = _createSimilarSword(_tokenIds.current(), _getSwordDnaFromId(_swordId));\n      _mintSwordFromObject(sword, msg.sender);\n    } else {\n      emit LostBattle(msg.sender, attackLog);\n    }\n  }\n\n  // for deleting unneccessary items\n  function sendSwordToTrash(uint256 _swordId) public onlySwordOwner(_swordId, msg.sender) {\n    _burnSwordNft(_swordId, msg.sender);\n  }\n\n  // direct item transfer between parts\n  function transferToAdress(uint256 _swordId, address _to) public onlySwordOwner(_swordId, msg.sender) {\n    transferFrom(msg.sender, _to, _swordId);\n    swordToOwner[_swordId] = _to;\n    ownerSwordCount[msg.sender] = ownerSwordCount[msg.sender] - 1;\n    ownerSwordCount[_to] = ownerSwordCount[_to] + 1;\n  }\n\n  // the one finishes the game can claim prize\n  function claimPrize(uint256 _swordId) public onlySwordOwner(_swordId, msg.sender) {\n    uint256 attackPower = _getAttackPowerFromSwordId(_swordId);\n    // check if reached max level\n    if (attackPower == 92) {\n      _burnSwordNft(_swordId, msg.sender);\n      payable(msg.sender).transfer(address(this).balance);\n    }\n  }\n\n  function addToMarketPlace(uint256 _swordId, uint256 _price) public {\n    createMarketItem(address(this), _swordId, _price, msg.sender);\n    swordToOwner[_swordId] = payable(address(0)); // remove from owner\n    ownerSwordCount[msg.sender] = ownerSwordCount[msg.sender] - 1; // decrease sword count\n  }\n\n  function withdrawFromMarketPlace(uint256 _swordId) public {\n    withdrawMarketItem(address(this), _swordId, msg.sender);\n    swordToOwner[_swordId] = payable(msg.sender); // add back to owner\n    ownerSwordCount[msg.sender] = ownerSwordCount[msg.sender] + 1; // increase sword count\n  }\n\n  function buyFromMarketPlace(uint256 _swordId) public payable {\n    createMarketSale(address(this), _swordId, msg.value, msg.sender);\n    swordToOwner[_swordId] = payable(msg.sender); // add to new owner\n    ownerSwordCount[msg.sender] = ownerSwordCount[msg.sender] + 1; // increase sword count\n  }\n\n  function _getAttackPowerFromSwordId(uint256 _swordId) internal view returns (uint256) {\n    Sword memory sword = idToSword[_swordId];\n    return sword.attackPower;\n  }\n\n  // getters\n  function getUserSwordCount(address _user) public view returns (uint256) {\n    return ownerSwordCount[_user];\n  }\n\n  function getUserSwords(address _user) public view returns (Sword[] memory) {\n    Sword[] memory userSwords = new Sword[](ownerSwordCount[_user]);\n    uint256 counter;\n    for (uint256 i = 0; i < swords.length; i++) {\n      if (swordToOwner[i] == _user) {\n        userSwords[counter] = swords[i];\n        counter++;\n      }\n    }\n    return userSwords;\n  }\n\n  function getSwordFromId(uint256 _id) public view returns (Sword memory) {\n    require(_id < _tokenIds.current(), \"Sword does not exist\");\n    return idToSword[_id];\n  }\n}\n",
  "sourcePath": "/home/gorkem/Web3/ETH/merge-swords/contracts/MergeSwordsToken.sol",
  "compiler": {
    "name": "solc",
    "version": "0.8.10+commit.fc410830.Emscripten.clang"
  },
  "schemaVersion": "3.4.3",
  "updatedAt": "2022-01-25T14:52:21.962Z",
  "networkType": "ethereum",
  "devdoc": {
    "kind": "dev",
    "methods": {
      "approve(address,uint256)": {
        "details": "See {IERC721-approve}."
      },
      "balanceOf(address)": {
        "details": "See {IERC721-balanceOf}."
      },
      "getApproved(uint256)": {
        "details": "See {IERC721-getApproved}."
      },
      "isApprovedForAll(address,address)": {
        "details": "See {IERC721-isApprovedForAll}."
      },
      "name()": {
        "details": "See {IERC721Metadata-name}."
      },
      "owner()": {
        "details": "Returns the address of the current owner."
      },
      "ownerOf(uint256)": {
        "details": "See {IERC721-ownerOf}."
      },
      "renounceOwnership()": {
        "details": "Leaves the contract without owner. It will not be possible to call `onlyOwner` functions anymore. Can only be called by the current owner. NOTE: Renouncing ownership will leave the contract without an owner, thereby removing any functionality that is only available to the owner."
      },
      "safeTransferFrom(address,address,uint256)": {
        "details": "See {IERC721-safeTransferFrom}."
      },
      "safeTransferFrom(address,address,uint256,bytes)": {
        "details": "See {IERC721-safeTransferFrom}."
      },
      "setApprovalForAll(address,bool)": {
        "details": "See {IERC721-setApprovalForAll}."
      },
      "supportsInterface(bytes4)": {
        "details": "See {IERC165-supportsInterface}."
      },
      "symbol()": {
        "details": "See {IERC721Metadata-symbol}."
      },
      "tokenURI(uint256)": {
        "details": "See {IERC721Metadata-tokenURI}."
      },
      "transferFrom(address,address,uint256)": {
        "details": "See {IERC721-transferFrom}."
      },
      "transferOwnership(address)": {
        "details": "Transfers ownership of the contract to a new account (`newOwner`). Can only be called by the current owner."
      }
    },
    "version": 1
  },
  "userdoc": {
    "kind": "user",
    "methods": {},
    "version": 1
  }
}