{
  "contractName": "MergeSwordsToken",
  "abi": [
    {
      "inputs": [],
      "stateMutability": "nonpayable",
      "type": "constructor"
    },
    {
      "anonymous": false,
      "inputs": [
        {
          "indexed": true,
          "internalType": "address",
          "name": "owner",
          "type": "address"
        },
        {
          "indexed": true,
          "internalType": "address",
          "name": "approved",
          "type": "address"
        },
        {
          "indexed": true,
          "internalType": "uint256",
          "name": "tokenId",
          "type": "uint256"
        }
      ],
      "name": "Approval",
      "type": "event"
    },
    {
      "anonymous": false,
      "inputs": [
        {
          "indexed": true,
          "internalType": "address",
          "name": "owner",
          "type": "address"
        },
        {
          "indexed": true,
          "internalType": "address",
          "name": "operator",
          "type": "address"
        },
        {
          "indexed": false,
          "internalType": "bool",
          "name": "approved",
          "type": "bool"
        }
      ],
      "name": "ApprovalForAll",
      "type": "event"
    },
    {
      "anonymous": false,
      "inputs": [
        {
          "indexed": true,
          "internalType": "address",
          "name": "owner",
          "type": "address"
        },
        {
          "indexed": false,
          "internalType": "uint256",
          "name": "id",
          "type": "uint256"
        }
      ],
      "name": "BurnSword",
      "type": "event"
    },
    {
      "anonymous": false,
      "inputs": [
        {
          "indexed": true,
          "internalType": "address",
          "name": "owner",
          "type": "address"
        },
        {
          "components": [
            {
              "internalType": "bool",
              "name": "userStart",
              "type": "bool"
            },
            {
              "internalType": "uint8",
              "name": "userAttackPower",
              "type": "uint8"
            },
            {
              "internalType": "uint8",
              "name": "monsterAttackPower",
              "type": "uint8"
            },
            {
              "internalType": "uint8",
              "name": "userNormalizedAP",
              "type": "uint8"
            },
            {
              "internalType": "uint8",
              "name": "monsterNormalizedAP",
              "type": "uint8"
            },
            {
              "internalType": "bool",
              "name": "didUserWin",
              "type": "bool"
            }
          ],
          "indexed": false,
          "internalType": "struct SwordAttack.AttackLog",
          "name": "attackLog",
          "type": "tuple"
        }
      ],
      "name": "LostBattle",
      "type": "event"
    },
    {
      "anonymous": false,
      "inputs": [
        {
          "indexed": true,
          "internalType": "address",
          "name": "owner",
          "type": "address"
        },
        {
          "indexed": false,
          "internalType": "uint256",
          "name": "id",
          "type": "uint256"
        }
      ],
      "name": "NewSword",
      "type": "event"
    },
    {
      "anonymous": false,
      "inputs": [
        {
          "indexed": true,
          "internalType": "address",
          "name": "previousOwner",
          "type": "address"
        },
        {
          "indexed": true,
          "internalType": "address",
          "name": "newOwner",
          "type": "address"
        }
      ],
      "name": "OwnershipTransferred",
      "type": "event"
    },
    {
      "anonymous": false,
      "inputs": [
        {
          "indexed": true,
          "internalType": "address",
          "name": "from",
          "type": "address"
        },
        {
          "indexed": true,
          "internalType": "address",
          "name": "to",
          "type": "address"
        },
        {
          "indexed": true,
          "internalType": "uint256",
          "name": "tokenId",
          "type": "uint256"
        }
      ],
      "name": "Transfer",
      "type": "event"
    },
    {
      "anonymous": false,
      "inputs": [
        {
          "indexed": true,
          "internalType": "address",
          "name": "owner",
          "type": "address"
        },
        {
          "components": [
            {
              "internalType": "bool",
              "name": "userStart",
              "type": "bool"
            },
            {
              "internalType": "uint8",
              "name": "userAttackPower",
              "type": "uint8"
            },
            {
              "internalType": "uint8",
              "name": "monsterAttackPower",
              "type": "uint8"
            },
            {
              "internalType": "uint8",
              "name": "userNormalizedAP",
              "type": "uint8"
            },
            {
              "internalType": "uint8",
              "name": "monsterNormalizedAP",
              "type": "uint8"
            },
            {
              "internalType": "bool",
              "name": "didUserWin",
              "type": "bool"
            }
          ],
          "indexed": false,
          "internalType": "struct SwordAttack.AttackLog",
          "name": "attackLog",
          "type": "tuple"
        }
      ],
      "name": "WonBattle",
      "type": "event"
    },
    {
      "inputs": [
        {
          "internalType": "address",
          "name": "to",
          "type": "address"
        },
        {
          "internalType": "uint256",
          "name": "tokenId",
          "type": "uint256"
        }
      ],
      "name": "approve",
      "outputs": [],
      "stateMutability": "nonpayable",
      "type": "function"
    },
    {
      "inputs": [
        {
          "internalType": "address",
          "name": "owner",
          "type": "address"
        }
      ],
      "name": "balanceOf",
      "outputs": [
        {
          "internalType": "uint256",
          "name": "",
          "type": "uint256"
        }
      ],
      "stateMutability": "view",
      "type": "function"
    },
    {
      "inputs": [
        {
          "internalType": "uint256",
          "name": "tokenId",
          "type": "uint256"
        }
      ],
      "name": "getApproved",
      "outputs": [
        {
          "internalType": "address",
          "name": "",
          "type": "address"
        }
      ],
      "stateMutability": "view",
      "type": "function"
    },
    {
      "inputs": [
        {
          "internalType": "uint256",
          "name": "",
          "type": "uint256"
        }
      ],
      "name": "idToSword",
      "outputs": [
        {
          "internalType": "uint256",
          "name": "dna",
          "type": "uint256"
        },
        {
          "internalType": "uint8",
          "name": "attackPower",
          "type": "uint8"
        },
        {
          "internalType": "uint32",
          "name": "generation",
          "type": "uint32"
        },
        {
          "internalType": "uint16",
          "name": "winCount",
          "type": "uint16"
        },
        {
          "internalType": "uint16",
          "name": "lossCount",
          "type": "uint16"
        }
      ],
      "stateMutability": "view",
      "type": "function"
    },
    {
      "inputs": [
        {
          "internalType": "address",
          "name": "owner",
          "type": "address"
        },
        {
          "internalType": "address",
          "name": "operator",
          "type": "address"
        }
      ],
      "name": "isApprovedForAll",
      "outputs": [
        {
          "internalType": "bool",
          "name": "",
          "type": "bool"
        }
      ],
      "stateMutability": "view",
      "type": "function"
    },
    {
      "inputs": [],
      "name": "name",
      "outputs": [
        {
          "internalType": "string",
          "name": "",
          "type": "string"
        }
      ],
      "stateMutability": "view",
      "type": "function"
    },
    {
      "inputs": [],
      "name": "owner",
      "outputs": [
        {
          "internalType": "address",
          "name": "",
          "type": "address"
        }
      ],
      "stateMutability": "view",
      "type": "function"
    },
    {
      "inputs": [
        {
          "internalType": "uint256",
          "name": "tokenId",
          "type": "uint256"
        }
      ],
      "name": "ownerOf",
      "outputs": [
        {
          "internalType": "address",
          "name": "",
          "type": "address"
        }
      ],
      "stateMutability": "view",
      "type": "function"
    },
    {
      "inputs": [
        {
          "internalType": "address",
          "name": "",
          "type": "address"
        }
      ],
      "name": "ownerSwordCount",
      "outputs": [
        {
          "internalType": "uint256",
          "name": "",
          "type": "uint256"
        }
      ],
      "stateMutability": "view",
      "type": "function"
    },
    {
      "inputs": [],
      "name": "renounceOwnership",
      "outputs": [],
      "stateMutability": "nonpayable",
      "type": "function"
    },
    {
      "inputs": [
        {
          "internalType": "address",
          "name": "from",
          "type": "address"
        },
        {
          "internalType": "address",
          "name": "to",
          "type": "address"
        },
        {
          "internalType": "uint256",
          "name": "tokenId",
          "type": "uint256"
        }
      ],
      "name": "safeTransferFrom",
      "outputs": [],
      "stateMutability": "nonpayable",
      "type": "function"
    },
    {
      "inputs": [
        {
          "internalType": "address",
          "name": "from",
          "type": "address"
        },
        {
          "internalType": "address",
          "name": "to",
          "type": "address"
        },
        {
          "internalType": "uint256",
          "name": "tokenId",
          "type": "uint256"
        },
        {
          "internalType": "bytes",
          "name": "_data",
          "type": "bytes"
        }
      ],
      "name": "safeTransferFrom",
      "outputs": [],
      "stateMutability": "nonpayable",
      "type": "function"
    },
    {
      "inputs": [
        {
          "internalType": "address",
          "name": "operator",
          "type": "address"
        },
        {
          "internalType": "bool",
          "name": "approved",
          "type": "bool"
        }
      ],
      "name": "setApprovalForAll",
      "outputs": [],
      "stateMutability": "nonpayable",
      "type": "function"
    },
    {
      "inputs": [
        {
          "internalType": "bytes4",
          "name": "interfaceId",
          "type": "bytes4"
        }
      ],
      "name": "supportsInterface",
      "outputs": [
        {
          "internalType": "bool",
          "name": "",
          "type": "bool"
        }
      ],
      "stateMutability": "view",
      "type": "function"
    },
    {
      "inputs": [
        {
          "internalType": "uint256",
          "name": "",
          "type": "uint256"
        }
      ],
      "name": "swordToOwner",
      "outputs": [
        {
          "internalType": "address",
          "name": "",
          "type": "address"
        }
      ],
      "stateMutability": "view",
      "type": "function"
    },
    {
      "inputs": [
        {
          "internalType": "uint256",
          "name": "",
          "type": "uint256"
        }
      ],
      "name": "swords",
      "outputs": [
        {
          "internalType": "uint256",
          "name": "dna",
          "type": "uint256"
        },
        {
          "internalType": "uint8",
          "name": "attackPower",
          "type": "uint8"
        },
        {
          "internalType": "uint32",
          "name": "generation",
          "type": "uint32"
        },
        {
          "internalType": "uint16",
          "name": "winCount",
          "type": "uint16"
        },
        {
          "internalType": "uint16",
          "name": "lossCount",
          "type": "uint16"
        }
      ],
      "stateMutability": "view",
      "type": "function"
    },
    {
      "inputs": [],
      "name": "symbol",
      "outputs": [
        {
          "internalType": "string",
          "name": "",
          "type": "string"
        }
      ],
      "stateMutability": "view",
      "type": "function"
    },
    {
      "inputs": [
        {
          "internalType": "uint256",
          "name": "tokenId",
          "type": "uint256"
        }
      ],
      "name": "tokenURI",
      "outputs": [
        {
          "internalType": "string",
          "name": "",
          "type": "string"
        }
      ],
      "stateMutability": "view",
      "type": "function"
    },
    {
      "inputs": [
        {
          "internalType": "address",
          "name": "from",
          "type": "address"
        },
        {
          "internalType": "address",
          "name": "to",
          "type": "address"
        },
        {
          "internalType": "uint256",
          "name": "tokenId",
          "type": "uint256"
        }
      ],
      "name": "transferFrom",
      "outputs": [],
      "stateMutability": "nonpayable",
      "type": "function"
    },
    {
      "inputs": [
        {
          "internalType": "address",
          "name": "newOwner",
          "type": "address"
        }
      ],
      "name": "transferOwnership",
      "outputs": [],
      "stateMutability": "nonpayable",
      "type": "function"
    },
    {
      "inputs": [
        {
          "internalType": "uint256",
          "name": "_fee",
          "type": "uint256"
        }
      ],
      "name": "updateBasicSwordFee",
      "outputs": [],
      "stateMutability": "nonpayable",
      "type": "function"
    },
    {
      "inputs": [
        {
          "internalType": "uint256",
          "name": "_fee",
          "type": "uint256"
        }
      ],
      "name": "updateMergeFee",
      "outputs": [],
      "stateMutability": "nonpayable",
      "type": "function"
    },
    {
      "inputs": [
        {
          "internalType": "uint256",
          "name": "_fee",
          "type": "uint256"
        }
      ],
      "name": "updateAttackFee",
      "outputs": [],
      "stateMutability": "nonpayable",
      "type": "function"
    },
    {
      "inputs": [],
      "name": "getBasicSword",
      "outputs": [],
      "stateMutability": "payable",
      "type": "function"
    },
    {
      "inputs": [
        {
          "internalType": "uint256",
          "name": "swordOneId",
          "type": "uint256"
        },
        {
          "internalType": "uint256",
          "name": "swordTwoId",
          "type": "uint256"
        }
      ],
      "name": "mergeSwords",
      "outputs": [],
      "stateMutability": "payable",
      "type": "function"
    },
    {
      "inputs": [
        {
          "internalType": "uint256",
          "name": "_swordId",
          "type": "uint256"
        }
      ],
      "name": "battleMonster",
      "outputs": [],
      "stateMutability": "payable",
      "type": "function"
    },
    {
      "inputs": [
        {
          "internalType": "address",
          "name": "_user",
          "type": "address"
        }
      ],
      "name": "getUserSwordCount",
      "outputs": [
        {
          "internalType": "uint256",
          "name": "",
          "type": "uint256"
        }
      ],
      "stateMutability": "view",
      "type": "function"
    },
    {
      "inputs": [
        {
          "internalType": "address",
          "name": "_user",
          "type": "address"
        }
      ],
      "name": "getUserSwords",
      "outputs": [
        {
          "components": [
            {
              "internalType": "uint256",
              "name": "dna",
              "type": "uint256"
            },
            {
              "internalType": "uint8",
              "name": "attackPower",
              "type": "uint8"
            },
            {
              "internalType": "uint32",
              "name": "generation",
              "type": "uint32"
            },
            {
              "internalType": "uint16",
              "name": "winCount",
              "type": "uint16"
            },
            {
              "internalType": "uint16",
              "name": "lossCount",
              "type": "uint16"
            }
          ],
          "internalType": "struct SwordFactory.Sword[]",
          "name": "",
          "type": "tuple[]"
        }
      ],
      "stateMutability": "view",
      "type": "function"
    }
  ],
  "bytecode": "0x600561028081815264776869746560d81b6102a052608090815260066102c08181526579656c6c6f7760d01b6102e05260a052610300818152656f72616e676560d01b6103205260c0526003610340908152621c995960ea1b6103605260e05261038090815265707572706c6560d01b6103a0526101005260096103c0818152686461726b20626c756560b81b6103e05261012052600461040081815263626c756560e01b6104205261014052600a610440818152696c6967687420626c756560b01b61046052610160526104808581526433b932b2b760d91b6104a052610180526104c0818152693230b9359033b932b2b760b11b6104e0526101a05261050085815264313937bbb760d91b610520526101c052600b6105409081526a3634b3b43a10313937bbb760a91b610560526101e052610580908152696c69676874206772657960b01b6105a052610200526105c0908152636772657960e01b6105e05261022052610600908152686461726b206772657960b81b610620526102405261068060405261064091825264626c61636b60d81b6106605261026091909152620001b0906008906010620007cd565b506040805160c08101825260076080820190815266676c616469757360c81b60a083015281528151808301835260058082526439b0b132b960d91b602083810191909152808401929092528351808501855260068152656b6174616e6160d01b818401528385015283518085019094528352646b6f6e646160d81b9083015260608101919091526200024790600990600462000831565b50604080516101408101825260046101008201818152631ddbdbd960e21b61012084015282528251808401845260058082526473746f6e6560d81b6020838101919091528085019290925284518086018652600681526562726f6e7a6560d01b818401528486015284518086018652908152641cdd19595b60da1b818301526060840152835180850185529182526319dbdb1960e21b82820152608083019190915282518084018452600780825266195b595c985b1960ca1b8284015260a08401919091528351808501855290815266191a585b5bdb9960ca1b8183015260c08301528251808401909352600c83526b636172626f6e2d666962726560a01b9083015260e08101919091526200036290600a90600862000883565b506040805161024081018252600761020082018181526611b3333333333360c91b6102208401528252825180840184528181526611b3333333181960c91b6020828101919091528084019190915283518085018552828152660236666363630360cc1b818301528385015283518085018552828152660236666303030360cc1b818301526060840152835180850185528281526611b3331818333360c91b81830152608084015283518085018552828152660233030303038360cc1b8183015260a084015283518085018552828152661198181818333360c91b8183015260c084015283518085018552828152661198183333333360c91b8183015260e084015283518085018552828152660233030666630360cc1b8183015261010084015283518085018552828152660233030383030360cc1b8183015261012084015283518085018552828152660233830333330360cc1b8183015261014084015283518085018552828152660236434353530360cc1b818301526101608401528351808501855282815266119c989b331b3360c91b8183015261018084015283518085018552828152662336633533353360c81b818301526101a084015283518085018552828152662334383337333760c81b818301526101c08401528351808501909452908352662332343163316360c81b908301526101e08101919091526200056f90600b906010620007cd565b50604080516101408101825260076101008201818152660233830333330360cc1b610120840152825282518084018452818152662361633933393360c81b6020828101919091528084019190915283518085018552828152660236666363630360cc1b818301528385015283518085018552828152662336633533353360c81b81830152606084015283518085018552828152660236666636330360cc1b81830152608084015283518085018552828152660233030383030360cc1b8183015260a084015283518085018552828152661198183333333360c91b8183015260c08401528351808501909452908352662332343163316360c81b9083015260e08101919091526200068490600c90600862000883565b506000600d55600c600e8190556200069e90600a62000aef565b600f556010805462ffffff1916620a1e4617905562015180601155600060125567016345785d8a000060145566b1a2bc2ec50000601555662386f26fc10000601655348015620006ed57600080fd5b50604080518082018252600b81526a4d4552474553574f52445360a81b60208083019182528351808501909452600584526414d5d3d49160da1b9084015281519192916200073e91600091620008d5565b50805162000754906001906020840190620008d5565b505050620007716200076b6200077760201b60201c565b6200077b565b62000b41565b3390565b600780546001600160a01b038381166001600160a01b0319831681179093556040519116919082907f8be0079c531659141344cd1fd0a4f28419497f9722a3daafe3b4186f6b6457e090600090a35050565b8280548282559060005260206000209081019282156200081f579160200282015b828111156200081f57825180516200080e918491602090910190620008d5565b5091602001919060010190620007ee565b506200082d92915062000960565b5090565b8280548282559060005260206000209081019282156200081f579160200282015b828111156200081f578251805162000872918491602090910190620008d5565b509160200191906001019062000852565b8280548282559060005260206000209081019282156200081f579160200282015b828111156200081f5782518051620008c4918491602090910190620008d5565b5091602001919060010190620008a4565b828054620008e39062000b04565b90600052602060002090601f01602090048101928262000907576000855562000952565b82601f106200092257805160ff191683800117855562000952565b8280016001018555821562000952579182015b828111156200095257825182559160200191906001019062000935565b506200082d92915062000981565b808211156200082d57600062000977828262000998565b5060010162000960565b5b808211156200082d576000815560010162000982565b508054620009a69062000b04565b6000825580601f10620009b7575050565b601f016020900490600052602060002090810190620009d7919062000981565b50565b634e487b7160e01b600052601160045260246000fd5b600181815b8085111562000a3157816000190482111562000a155762000a15620009da565b8085161562000a2357918102915b93841c9390800290620009f5565b509250929050565b60008262000a4a5750600162000ae9565b8162000a595750600062000ae9565b816001811462000a72576002811462000a7d5762000a9d565b600191505062000ae9565b60ff84111562000a915762000a91620009da565b50506001821b62000ae9565b5060208310610133831016604e8410600b841016171562000ac2575081810a62000ae9565b62000ace8383620009f0565b806000190482111562000ae55762000ae5620009da565b0290505b92915050565b600062000afd838362000a39565b9392505050565b600181811c9082168062000b1957607f821691505b6020821081141562000b3b57634e487b7160e01b600052602260045260246000fd5b50919050565b613caf8062000b516000396000f3fe6080604052600436106101b75760003560e01c8063715018a6116100ec578063a2a5f24f1161008a578063c87b56dd11610064578063c87b56dd1461056a578063ca60f14e1461058a578063e985e9c5146105aa578063f2fde38b146105ca57600080fd5b8063a2a5f24f14610517578063b88d4fde14610537578063bfefc2941461055757600080fd5b806382d2e857116100c657806382d2e8571461046a5780638da5cb5b146104c457806395d89b41146104e2578063a22cb465146104f757600080fd5b8063715018a614610417578063780efa841461042c5780637a91fb581461043457600080fd5b80634ed013c81161015957806363ed87f21161013357806363ed87f21461032d5780636653d0f5146103715780636c73f178146103ca57806370a08231146103f757600080fd5b80634ed013c8146102c057806350238bed146102e05780636352211e1461030d57600080fd5b8063095ea7b311610195578063095ea7b31461024b57806323b872dd1461026d57806342842e0e1461028d5780634e319a1c146102ad57600080fd5b806301ffc9a7146101bc57806306fdde03146101f1578063081812fc14610213575b600080fd5b3480156101c857600080fd5b506101dc6101d7366004612ea1565b6105ea565b60405190151581526020015b60405180910390f35b3480156101fd57600080fd5b5061020661063c565b6040516101e89190612f16565b34801561021f57600080fd5b5061023361022e366004612f29565b6106ce565b6040516001600160a01b0390911681526020016101e8565b34801561025757600080fd5b5061026b610266366004612f5e565b61075b565b005b34801561027957600080fd5b5061026b610288366004612f88565b610871565b34801561029957600080fd5b5061026b6102a8366004612f88565b6108a2565b61026b6102bb366004612f29565b6108bd565b3480156102cc57600080fd5b5061026b6102db366004612f29565b610a34565b3480156102ec57600080fd5b506103006102fb366004612fc4565b610a63565b6040516101e89190612fdf565b34801561031957600080fd5b50610233610328366004612f29565b610bc0565b34801561033957600080fd5b50610363610348366004612fc4565b6001600160a01b03166000908152601a602052604090205490565b6040519081526020016101e8565b34801561037d57600080fd5b5061039161038c366004612f29565b610c37565b6040805195865260ff909416602086015263ffffffff9092169284019290925261ffff918216606084015216608082015260a0016101e8565b3480156103d657600080fd5b506103636103e5366004612fc4565b601a6020526000908152604090205481565b34801561040357600080fd5b50610363610412366004612fc4565b610c8b565b34801561042357600080fd5b5061026b610d12565b61026b610d48565b34801561044057600080fd5b5061023361044f366004612f29565b6019602052600090815260409020546001600160a01b031681565b34801561047657600080fd5b50610391610485366004612f29565b601b602052600090815260409020805460019091015460ff81169063ffffffff6101008204169061ffff600160281b8204811691600160381b90041685565b3480156104d057600080fd5b506007546001600160a01b0316610233565b3480156104ee57600080fd5b50610206610ddf565b34801561050357600080fd5b5061026b610512366004613060565b610dee565b34801561052357600080fd5b5061026b610532366004612f29565b610dfd565b34801561054357600080fd5b5061026b61055236600461310b565b610e2c565b61026b6105653660046131b6565b610e5e565b34801561057657600080fd5b50610206610585366004612f29565b610f32565b34801561059657600080fd5b5061026b6105a5366004612f29565b6110a9565b3480156105b657600080fd5b506101dc6105c53660046131d8565b6110d8565b3480156105d657600080fd5b5061026b6105e5366004612fc4565b611106565b60006001600160e01b031982166380ac58cd60e01b148061061b57506001600160e01b03198216635b5e139f60e01b145b8061063657506301ffc9a760e01b6001600160e01b03198316145b92915050565b60606000805461064b9061320b565b80601f01602080910402602001604051908101604052809291908181526020018280546106779061320b565b80156106c45780601f10610699576101008083540402835291602001916106c4565b820191906000526020600020905b8154815290600101906020018083116106a757829003601f168201915b5050505050905090565b60006106d98261119e565b61073f5760405162461bcd60e51b815260206004820152602c60248201527f4552433732313a20617070726f76656420717565727920666f72206e6f6e657860448201526b34b9ba32b73a103a37b5b2b760a11b60648201526084015b60405180910390fd5b506000908152600460205260409020546001600160a01b031690565b600061076682610bc0565b9050806001600160a01b0316836001600160a01b031614156107d45760405162461bcd60e51b815260206004820152602160248201527f4552433732313a20617070726f76616c20746f2063757272656e74206f776e656044820152603960f91b6064820152608401610736565b336001600160a01b03821614806107f057506107f081336110d8565b6108625760405162461bcd60e51b815260206004820152603860248201527f4552433732313a20617070726f76652063616c6c6572206973206e6f74206f7760448201527f6e6572206e6f7220617070726f76656420666f7220616c6c00000000000000006064820152608401610736565b61086c83836111bb565b505050565b61087b3382611229565b6108975760405162461bcd60e51b815260040161073690613246565b61086c8383836112eb565b61086c83838360405180602001604052806000815250610e2c565b8033806108c983610bc0565b6001600160a01b0316146108ef5760405162461bcd60e51b815260040161073690613297565b60165434146109105760405162461bcd60e51b8152600401610736906132ce565b6000838152601b60209081526040808320815160a0810183528154815260019091015460ff811693820184905263ffffffff6101008204169282019290925261ffff600160281b830481166060830152600160381b90920490911660809091015261097a9061148b565b90508060a00151156109ec57336001600160a01b03167f625c0aafd1c7577d0e575494e91082ba6fdee732f6e691b6bdf4e4c1f9a9f373826040516109bf91906132f6565b60405180910390a260006109da6109d586611640565b6116aa565b90506109e681336116cd565b50610a2e565b336001600160a01b03167f4af32dd5994ecab6a88352426104210c5547a9620f823ab93c6b964ad371633882604051610a2591906132f6565b60405180910390a25b50505050565b6007546001600160a01b03163314610a5e5760405162461bcd60e51b81526004016107369061334a565b601555565b6001600160a01b0381166000908152601a60205260408120546060919067ffffffffffffffff811115610a9857610a9861309c565b604051908082528060200260200182016040528015610ad157816020015b610abe612d8e565b815260200190600190039081610ab65790505b5090506000805b601854811015610bb7576000818152601960205260409020546001600160a01b0386811691161415610ba55760188181548110610b1757610b1761337f565b60009182526020918290206040805160a0810182526002909302909101805483526001015460ff81169383019390935263ffffffff6101008404169082015261ffff600160281b830481166060830152600160381b90920490911660808201528351849084908110610b8b57610b8b61337f565b60200260200101819052508180610ba1906133ab565b9250505b80610baf816133ab565b915050610ad8565b50909392505050565b6000818152600260205260408120546001600160a01b0316806106365760405162461bcd60e51b815260206004820152602960248201527f4552433732313a206f776e657220717565727920666f72206e6f6e657869737460448201526832b73a103a37b5b2b760b91b6064820152608401610736565b60188181548110610c4757600080fd5b60009182526020909120600290910201805460019091015490915060ff81169063ffffffff6101008204169061ffff600160281b8204811691600160381b90041685565b60006001600160a01b038216610cf65760405162461bcd60e51b815260206004820152602a60248201527f4552433732313a2062616c616e636520717565727920666f7220746865207a65604482015269726f206164647265737360b01b6064820152608401610736565b506001600160a01b031660009081526003602052604090205490565b6007546001600160a01b03163314610d3c5760405162461bcd60e51b81526004016107369061334a565b610d466000611904565b565b336000908152601a602052604090205415610da55760405162461bcd60e51b815260206004820152601860248201527f53686f756c64206e6f74206f776e20616e792073776f726400000000000000006044820152606401610736565b6014543414610dc65760405162461bcd60e51b8152600401610736906132ce565b6000610dd0611956565b9050610ddc81336116cd565b50565b60606001805461064b9061320b565b610df9338383611973565b5050565b6007546001600160a01b03163314610e275760405162461bcd60e51b81526004016107369061334a565b601655565b610e363383611229565b610e525760405162461bcd60e51b815260040161073690613246565b610a2e84848484611a42565b813380610e6a83610bc0565b6001600160a01b031614610e905760405162461bcd60e51b815260040161073690613297565b823380610e9c83610bc0565b6001600160a01b031614610ec25760405162461bcd60e51b815260040161073690613297565b6015543414610ee35760405162461bcd60e51b8152600401610736906132ce565b6000610f09610ef188611640565b610efa88611640565b610f048a8a611a75565b611c34565b9050610f1581336116cd565b610f1f8733611c60565b610f298633611c60565b50505050505050565b6060610f3d8261119e565b610fa35760405162461bcd60e51b815260206004820152603160248201527f45524337323155524953746f726167653a2055524920717565727920666f72206044820152703737b732bc34b9ba32b73a103a37b5b2b760791b6064820152608401610736565b60008281526006602052604081208054610fbc9061320b565b80601f0160208091040260200160405190810160405280929190818152602001828054610fe89061320b565b80156110355780601f1061100a57610100808354040283529160200191611035565b820191906000526020600020905b81548152906001019060200180831161101857829003601f168201915b50505050509050600061105360408051602081019091526000815290565b9050805160001415611066575092915050565b8151156110985780826040516020016110809291906133e2565b60405160208183030381529060405292505050919050565b6110a184611d07565b949350505050565b6007546001600160a01b031633146110d35760405162461bcd60e51b81526004016107369061334a565b601455565b6001600160a01b03918216600090815260056020908152604080832093909416825291909152205460ff1690565b6007546001600160a01b031633146111305760405162461bcd60e51b81526004016107369061334a565b6001600160a01b0381166111955760405162461bcd60e51b815260206004820152602660248201527f4f776e61626c653a206e6577206f776e657220697320746865207a65726f206160448201526564647265737360d01b6064820152608401610736565b610ddc81611904565b6000908152600260205260409020546001600160a01b0316151590565b600081815260046020526040902080546001600160a01b0319166001600160a01b03841690811790915581906111f082610bc0565b6001600160a01b03167f8c5be1e5ebec7d5bd14f71427d1e84f3dd0314c0f7b2291e5b200ac8c7c3b92560405160405180910390a45050565b60006112348261119e565b6112955760405162461bcd60e51b815260206004820152602c60248201527f4552433732313a206f70657261746f7220717565727920666f72206e6f6e657860448201526b34b9ba32b73a103a37b5b2b760a11b6064820152608401610736565b60006112a083610bc0565b9050806001600160a01b0316846001600160a01b031614806112db5750836001600160a01b03166112d0846106ce565b6001600160a01b0316145b806110a157506110a181856110d8565b826001600160a01b03166112fe82610bc0565b6001600160a01b0316146113665760405162461bcd60e51b815260206004820152602960248201527f4552433732313a207472616e73666572206f6620746f6b656e2074686174206960448201526839903737ba1037bbb760b91b6064820152608401610736565b6001600160a01b0382166113c85760405162461bcd60e51b8152602060048201526024808201527f4552433732313a207472616e7366657220746f20746865207a65726f206164646044820152637265737360e01b6064820152608401610736565b6113d36000826111bb565b6001600160a01b03831660009081526003602052604081208054600192906113fc908490613411565b90915550506001600160a01b038216600090815260036020526040812080546001929061142a908490613428565b909155505060008181526002602052604080822080546001600160a01b0319166001600160a01b0386811691821790925591518493918716917fddf252ad1be2c89b69c2b068fc378daa952ba7f163c4a11628f55a4df523b3ef91a4505050565b6040805160c081018252600080825260208201819052918101829052606081018290526080810182905260a08101829052906114c683611dde565b905060006114d48483611e4a565b905060006114e28386611e4a565b905060006114ee611e66565b905060006114fd606485611ecd565b9050600061150c606485611ecd565b905082156115aa5761151f826001611eda565b91508060ff168260ff161161156d5750506040805160c081018252600180825260ff988916602083015295881691810191909152928616606084015250909316608084015260a08301525090565b50506040805160c0810182526001815260ff978816602082015294871690850152509084166060830152909216608083015250600060a082015290565b6115b5816001611eda565b90508160ff168160ff16116116035750506040805160c081018252600080825260ff988916602083015295881691810191909152928616606084015250909316608084015260a08301525090565b50506040805160c0810182526000815260ff978816602082015294871690850152509084166060830152909216608083015250600160a082015290565b6000908152601b6020908152604091829020825160a081018452815480825260019092015460ff81169382019390935263ffffffff6101008404169381019390935261ffff600160281b830481166060850152600160381b90920490911660809092019190915290565b6116b2612d8e565b60006116be8384611efc565b905060006110a1826000611f97565b6018805460018101825560009190915282517fb13d2d76d1f4b7be834882e410b3e3a8afaf69f83600ae24db354391d2378d2e60029092029182015560208301517fb13d2d76d1f4b7be834882e410b3e3a8afaf69f83600ae24db354391d2378d2f909101805460408501516060860151608087015160ff90951664ffffffffff199093169290921761010063ffffffff909216919091021768ffffffff00000000001916600160281b61ffff9283160261ffff60381b191617600160381b91909316029190911790556017546117a5908290611fe4565b60006117b96117b360175490565b84611ffe565b90506117cd6117c760175490565b8261203b565b81601960006117db60175490565b81526020808201929092526040908101600090812080546001600160a01b0319166001600160a01b039586161790559285168352601a9091529020546118229060016120c6565b6001600160a01b0383166000818152601a6020908152604080832094909455601780548352601b8252918490208751815587820151600190910180548987015160608b015160808c015160ff90951664ffffffffff199093169290921761010063ffffffff909216919091021768ffffffff00000000001916600160281b61ffff9283160261ffff60381b191617600160381b919093160291909117905590548351908152925191927fb9e9899b84f4affb2c40b3c644e3ac91ded134d040120e7fc42b68ca0c25c1e7929081900390910190a261086c601780546001019055565b600780546001600160a01b038381166001600160a01b0319831681179093556040519116919082907f8be0079c531659141344cd1fd0a4f28419497f9722a3daafe3b4186f6b6457e090600090a35050565b61195e612d8e565b60008061196c826000611f97565b9392505050565b816001600160a01b0316836001600160a01b031614156119d55760405162461bcd60e51b815260206004820152601960248201527f4552433732313a20617070726f766520746f2063616c6c6572000000000000006044820152606401610736565b6001600160a01b03838116600081815260056020908152604080832094871680845294825291829020805460ff191686151590811790915591519182527f17307eab39ab6107e8899845ad3d59bd9653f200f220920489ca2b5937696c31910160405180910390a3505050565b611a4d8484846112eb565b611a59848484846120d2565b610a2e5760405162461bcd60e51b815260040161073690613440565b600080601b60008581526020019081526020016000206040518060a0016040529081600082015481526020016001820160009054906101000a900460ff1660ff1660ff1681526020016001820160019054906101000a900463ffffffff1663ffffffff1663ffffffff1681526020016001820160059054906101000a900461ffff1661ffff1661ffff1681526020016001820160079054906101000a900461ffff1661ffff1661ffff168152505090506000601b60008581526020019081526020016000206040518060a0016040529081600082015481526020016001820160009054906101000a900460ff1660ff1660ff1681526020016001820160019054906101000a900463ffffffff1663ffffffff1663ffffffff1681526020016001820160059054906101000a900461ffff1661ffff1661ffff1681526020016001820160079054906101000a900461ffff1661ffff1661ffff16815250509050806040015163ffffffff16826040015163ffffffff1610611c1657611c0d6001836040015163ffffffff166121d090919063ffffffff16565b92505050610636565b611c0d6001826040015163ffffffff166121d090919063ffffffff16565b611c3c612d8e565b6000611c488585611efc565b90506000611c568285611f97565b9695505050505050565b600082815260196020908152604080832080546001600160a01b03191690556001600160a01b0384168352601a909152902054611c9e9060016121fb565b6001600160a01b0382166000908152601a6020526040902055611cc082612207565b806001600160a01b03167fc7b64cadc933e9668a02ac176a26f449d9d98b90181758d8bc600850d447d41383604051611cfb91815260200190565b60405180910390a25050565b6060611d128261119e565b611d765760405162461bcd60e51b815260206004820152602f60248201527f4552433732314d657461646174613a2055524920717565727920666f72206e6f60448201526e3732bc34b9ba32b73a103a37b5b2b760891b6064820152608401610736565b6000611d8d60408051602081019091526000815290565b90506000815111611dad576040518060200160405280600081525061196c565b80611db784612247565b604051602001611dc89291906133e2565b6040516020818303038152906040529392505050565b600080611de9611e66565b90506000611df76006612345565b90508115611e1357611e0981856134a8565b6110a190856134ca565b6000611e1f82866134a8565b90508460ff168160ff1614611e4157611e3881866134ef565b95945050505050565b50929392505050565b600061196c611e5d8460ff16600a6123e9565b8360ff166123f5565b601254600090611e779060016120c6565b50600060024244601254604051602001611ea4939291909283526020830191909152604082015260600190565b6040516020818303038152906040528051906020012060001c611ec79190613512565b11905090565b6000806110a18385613526565b60008260ff168260ff161115611ef257611ef2613548565b61196c82846134ef565b6000806000806000611f0d87612401565b9350935093509350600080600080611f248a612401565b93509350935093506000611f3c89866004600261247c565b90506000611f4e89866002600161247c565b90506000611f6089866003600161247c565b90506000611f7289866004600261247c565b90506000611f828585858561255e565b9d505050505050505050505050505092915050565b611f9f612d8e565b60006040518060a00160405280858152602001611fbb866125e0565b60ff16815263ffffffff8516602082015260006040820181905260609091015291505092915050565b610df9828260405180602001604052806000815250612669565b60606000806000612012856000015161269c565b92509250925060006120308787602001518860400151878787612734565b979650505050505050565b6120448261119e565b6120a75760405162461bcd60e51b815260206004820152602e60248201527f45524337323155524953746f726167653a2055524920736574206f66206e6f6e60448201526d32bc34b9ba32b73a103a37b5b2b760911b6064820152608401610736565b6000828152600660209081526040909120825161086c92840190612dbc565b600061196c8284613428565b60006001600160a01b0384163b156121c557604051630a85bd0160e11b81526001600160a01b0385169063150b7a029061211690339089908890889060040161355e565b6020604051808303816000875af1925050508015612151575060408051601f3d908101601f1916820190925261214e91810190613591565b60015b6121ab573d80801561217f576040519150601f19603f3d011682016040523d82523d6000602084013e612184565b606091505b5080516121a35760405162461bcd60e51b815260040161073690613440565b805181602001fd5b6001600160e01b031916630a85bd0160e11b1490506110a1565b506001949350505050565b6000806121dd83856135ae565b90508363ffffffff168163ffffffff16101561196c5761196c613548565b600061196c8284613411565b6122108161283b565b600081815260066020526040902080546122299061320b565b159050610ddc576000818152600660205260408120610ddc91612e40565b60608161226b5750506040805180820190915260018152600360fc1b602082015290565b8160005b8115612295578061227f816133ab565b915061228e9050600a836135cd565b915061226f565b60008167ffffffffffffffff8111156122b0576122b061309c565b6040519080825280601f01601f1916602001820160405280156122da576020820181803683370190505b5090505b84156110a1576122ef600183613411565b91506122fc600a86613512565b612307906030613428565b60f81b81838151811061231c5761231c61337f565b60200101906001600160f81b031916908160001a90535061233e600a866135cd565b94506122de565b6000808260ff16116123925760405162461bcd60e51b815260206004820152601660248201527505570706572206c696d69742073686f756c64203e20360541b6044820152606401610736565b6012546123a09060016120c6565b50601254604080514260208201524491810191909152606081019190915260ff8316906080016040516020818303038152906040528051906020012060001c6106369190613512565b600061196c82846135e1565b600061196c82846135cd565b6000808080848161241461271083613512565b9050612422612710836135cd565b91506000612431606484613512565b905061243e6064846135cd565b9250600061244d606485613512565b905061245a6064856135cd565b9350600061246a61271086613512565b9a919950919750919550909350505050565b600080600161248c8560026136e4565b6124969190613411565b905060006124a584600a6136e4565b905060006124b382896136f3565b905060006124c1838a613714565b905060006124cf848a6136f3565b905060006124dd858b613714565b905060006124ec8486896128d6565b905060006124fb83858a6128d6565b90506000612507612907565b15612530578160ff16888460ff1661251f9190613735565b612529919061375f565b905061254d565b61253d8860ff8416613735565b61254a9060ff851661375f565b90505b9d9c50505050505050505050505050565b60008061256f8161ffff85166120c6565b5061258a61257f85612710613735565b829061ffff166120c6565b506125ab61259f61ffff8716620f424061377c565b829062ffffff166120c6565b506125d66125c161ffff88166305f5e10061379e565b63ffffffff16826120c690919063ffffffff16565b5095945050505050565b60008060646125f161271085613512565b6125fb91906135cd565b90506000620186a0612610620f424086613512565b61261a91906135cd565b90506000629896806126306305f5e10087613512565b61263a91906135cd565b905060008261264a8560016134ca565b61265491906134ca565b61265f8360016134ca565b611c5691906137c1565b6126738383612945565b61268060008484846120d2565b61086c5760405162461bcd60e51b815260040161073690613440565b60008080836126ad612710826135cd565b905060006126bc606483613512565b905060006126cb600a83613714565b90506126d86064846135cd565b925060006126e7606485613512565b905060006126f6600a83613714565b90506127036064866135cd565b9450600061271361271087613512565b90506000612722606483613714565b9b929a50939850909650505050505050565b606061203061274288612247565b61280873__SwordSvgHelper________________________63dbd3d75b600b8960ff16815481106127755761277561337f565b9060005260206000200188600c8960ff16815481106127965761279661337f565b906000526020600020016040518463ffffffff1660e01b81526004016127be93929190613859565b600060405180830381865af41580156127db573d6000803e3d6000fd5b505050506040513d6000823e601f3d908101601f191682016040526128039190810190613887565b612a78565b612815898988888b612bde565b604051602001612827939291906138f5565b604051602081830303815290604052612a78565b600061284682610bc0565b90506128536000836111bb565b6001600160a01b038116600090815260036020526040812080546001929061287c908490613411565b909155505060008281526002602052604080822080546001600160a01b0319169055518391906001600160a01b038416907fddf252ad1be2c89b69c2b068fc378daa952ba7f163c4a11628f55a4df523b3ef908390a45050565b6000806128e1612c8c565b156128ed5750836128f0565b50825b6128f8612cf4565b156110a157611e388184612d3c565b600d546000906129189060016120c6565b50600060024244600d54604051602001611ea4939291909283526020830191909152604082015260600190565b6001600160a01b03821661299b5760405162461bcd60e51b815260206004820181905260248201527f4552433732313a206d696e7420746f20746865207a65726f20616464726573736044820152606401610736565b6129a48161119e565b156129f15760405162461bcd60e51b815260206004820152601c60248201527f4552433732313a20746f6b656e20616c7265616479206d696e746564000000006044820152606401610736565b6001600160a01b0382166000908152600360205260408120805460019290612a1a908490613428565b909155505060008181526002602052604080822080546001600160a01b0319166001600160a01b03861690811790915590518392907fddf252ad1be2c89b69c2b068fc378daa952ba7f163c4a11628f55a4df523b3ef908290a45050565b805160609080612a98575050604080516020810190915260008152919050565b60006003612aa7836002613428565b612ab191906135cd565b612abc9060046135e1565b90506000612acb826020613428565b67ffffffffffffffff811115612ae357612ae361309c565b6040519080825280601f01601f191660200182016040528015612b0d576020820181803683370190505b5090506000604051806060016040528060408152602001613c3a604091399050600181016020830160005b86811015612b99576003818a01810151603f601282901c8116860151600c83901c8216870151600684901c831688015192909316870151600891821b60ff94851601821b92841692909201901b91160160e01b835260049092019101612b38565b506003860660018114612bb35760028114612bc457612bd0565b613d3d60f01b600119830152612bd0565b603d60f81b6000198301525b505050918152949350505050565b60606000612bee8760ff16612247565b612bfd8763ffffffff16612247565b60098760ff1681548110612c1357612c1361337f565b90600052602060002001600a8760ff1681548110612c3357612c3361337f565b9060005260206000200160088760ff1681548110612c5357612c5361337f565b90600052602060002001604051602001612c71959493929190613ac3565b60408051808303601f19018152919052979650505050505050565b600d54600090612c9d9060016120c6565b50601054600d54604080514260208201524491810191909152606081019190915260ff909116906064906080015b6040516020818303038152906040528051906020012060001c612cee9190613512565b10905090565b600d54600090612d059060016120c6565b50601054600d5460408051426020820152449181019190915260608101919091526201000090910460ff1690606490608001612ccb565b60008160ff168360ff161415612d5457506000610636565b612d6260ff84166001612d69565b9050610636565b600080612d7683856134ca565b90508360ff168160ff16101561196c5761196c613548565b6040805160a08101825260008082526020820181905291810182905260608101829052608081019190915290565b828054612dc89061320b565b90600052602060002090601f016020900481019282612dea5760008555612e30565b82601f10612e0357805160ff1916838001178555612e30565b82800160010185558215612e30579182015b82811115612e30578251825591602001919060010190612e15565b50612e3c929150612e76565b5090565b508054612e4c9061320b565b6000825580601f10612e5c575050565b601f016020900490600052602060002090810190610ddc91905b5b80821115612e3c5760008155600101612e77565b6001600160e01b031981168114610ddc57600080fd5b600060208284031215612eb357600080fd5b813561196c81612e8b565b60005b83811015612ed9578181015183820152602001612ec1565b83811115610a2e5750506000910152565b60008151808452612f02816020860160208601612ebe565b601f01601f19169290920160200192915050565b60208152600061196c6020830184612eea565b600060208284031215612f3b57600080fd5b5035919050565b80356001600160a01b0381168114612f5957600080fd5b919050565b60008060408385031215612f7157600080fd5b612f7a83612f42565b946020939093013593505050565b600080600060608486031215612f9d57600080fd5b612fa684612f42565b9250612fb460208501612f42565b9150604084013590509250925092565b600060208284031215612fd657600080fd5b61196c82612f42565b602080825282518282018190526000919060409081850190868401855b82811015613053578151805185528681015160ff16878601528581015163ffffffff168686015260608082015161ffff90811691870191909152608091820151169085015260a09093019290850190600101612ffc565b5091979650505050505050565b6000806040838503121561307357600080fd5b61307c83612f42565b91506020830135801515811461309157600080fd5b809150509250929050565b634e487b7160e01b600052604160045260246000fd5b604051601f8201601f1916810167ffffffffffffffff811182821017156130db576130db61309c565b604052919050565b600067ffffffffffffffff8211156130fd576130fd61309c565b50601f01601f191660200190565b6000806000806080858703121561312157600080fd5b61312a85612f42565b935061313860208601612f42565b925060408501359150606085013567ffffffffffffffff81111561315b57600080fd5b8501601f8101871361316c57600080fd5b803561317f61317a826130e3565b6130b2565b81815288602083850101111561319457600080fd5b8160208401602083013760006020838301015280935050505092959194509250565b600080604083850312156131c957600080fd5b50508035926020909101359150565b600080604083850312156131eb57600080fd5b6131f483612f42565b915061320260208401612f42565b90509250929050565b600181811c9082168061321f57607f821691505b6020821081141561324057634e487b7160e01b600052602260045260246000fd5b50919050565b60208082526031908201527f4552433732313a207472616e736665722063616c6c6572206973206e6f74206f6040820152701ddb995c881b9bdc88185c1c1c9bdd9959607a1b606082015260800190565b60208082526019908201527f4f6e6c792073776f7264206f776e65722063616e2063616c6c00000000000000604082015260600190565b6020808252600e908201526d4e6f7420656e6f7567682066656560901b604082015260600190565b600060c08201905082511515825260ff602084015116602083015260ff604084015116604083015260ff606084015116606083015260ff608084015116608083015260a0830151151560a083015292915050565b6020808252818101527f4f776e61626c653a2063616c6c6572206973206e6f7420746865206f776e6572604082015260600190565b634e487b7160e01b600052603260045260246000fd5b634e487b7160e01b600052601160045260246000fd5b60006000198214156133bf576133bf613395565b5060010190565b600081516133d8818560208601612ebe565b9290920192915050565b600083516133f4818460208801612ebe565b835190830190613408818360208801612ebe565b01949350505050565b60008282101561342357613423613395565b500390565b6000821982111561343b5761343b613395565b500190565b60208082526032908201527f4552433732313a207472616e7366657220746f206e6f6e20455243373231526560408201527131b2b4bb32b91034b6b83632b6b2b73a32b960711b606082015260800190565b634e487b7160e01b600052601260045260246000fd5b600060ff8316806134bb576134bb613492565b8060ff84160691505092915050565b600060ff821660ff84168060ff038211156134e7576134e7613395565b019392505050565b600060ff821660ff84168082101561350957613509613395565b90039392505050565b60008261352157613521613492565b500690565b600060ff83168061353957613539613492565b8060ff84160491505092915050565b634e487b7160e01b600052600160045260246000fd5b6001600160a01b0385811682528416602082015260408101839052608060608201819052600090611c5690830184612eea565b6000602082840312156135a357600080fd5b815161196c81612e8b565b600063ffffffff80831681851680830382111561340857613408613395565b6000826135dc576135dc613492565b500490565b60008160001904831182151516156135fb576135fb613395565b500290565b600181815b8085111561363b57816000190482111561362157613621613395565b8085161561362e57918102915b93841c9390800290613605565b509250929050565b60008261365257506001610636565b8161365f57506000610636565b8160018114613675576002811461367f5761369b565b6001915050610636565b60ff84111561369057613690613395565b50506001821b610636565b5060208310610133831016604e8410600b84101617156136be575081810a610636565b6136c88383613600565b80600019048211156136dc576136dc613395565b029392505050565b600061196c60ff841683613643565b600061ffff8084168061370857613708613492565b92169190910692915050565b600061ffff8084168061372957613729613492565b92169190910492915050565b600061ffff8083168185168183048111821515161561375657613756613395565b02949350505050565b600061ffff80831681851680830382111561340857613408613395565b600062ffffff8083168185168183048111821515161561375657613756613395565b600063ffffffff8083168185168183048111821515161561375657613756613395565b600060ff821660ff84168160ff04811182151516156136dc576136dc613395565b600081546137ef8161320b565b80855260206001838116801561380c57600181146138205761384e565b60ff1985168884015260408801955061384e565b866000528260002060005b858110156138465781548a820186015290830190840161382b565b890184019650505b505050505092915050565b60608152600061386c60608301866137e2565b60ff851660208401528281036040840152611c5681856137e2565b60006020828403121561389957600080fd5b815167ffffffffffffffff8111156138b057600080fd5b8201601f810184136138c157600080fd5b80516138cf61317a826130e3565b8181528560208385010111156138e457600080fd5b611e38826020830160208601612ebe565b607b60f81b81526f276e616d65273a202753776f7264202360801b60018201526000845161392a816011850160208901612ebe565b602760f81b601191840191820152600b60fa1b601282018190527f276465736372697074696f6e273a20275468697320697320616e204e4654207460138301527f686174206c6574732070656f706c6520706c617920696e207468652067616d6560338301526e204d657267652053776f726473212760881b605383015260628201527f27696d616765273a2027646174613a696d6167652f7376672b786d6c3b626173606382015263194d8d0b60e21b6083820152611c56613a09613a036139f660878501896133c6565b602760f81b815260010190565b866133c6565b607d60f81b815260010190565b7f7b202774726169745f74797065273a202747656e65726174696f6e272c20202081526b20202776616c756527203a2760a01b6020820152602c0190565b60008154613a618161320b565b60018281168015613a795760018114613a8a57613ab9565b60ff19841687528287019450613ab9565b8560005260208060002060005b85811015613ab05781548a820152908401908201613a97565b50505082870194505b5050505092915050565b6d013b0ba3a3934b13aba32b9939d160951b8152605b60f81b600e8201527f7b202774726169745f74797065273a202741747461636b20506f776572272c20600f8201526b20202776616c7565273a202760a01b602f82015260008651613b3181603b850160208b01612ebe565b808301905061277d60f01b80603b830152613b4e603d8301613a16565b91508751613b60818460208c01612ebe565b919091019081527f7b202774726169745f74797065273a202753776f72642054797065272c20202060028201526b20202776616c756527203a2760a01b6022820152613c2d613c20613bc3613c1a613c1582613c0f613bd182602e8a018f613a54565b61277d60f01b815260020190565b7f7b202774726169745f74797065273a202753776f7264204d6174657269616c2781526b2c202776616c756527203a2760a01b6020820152602c0190565b8b613a54565b613a16565b87613a54565b605d60f81b815260010190565b9897505050505050505056fe4142434445464748494a4b4c4d4e4f505152535455565758595a6162636465666768696a6b6c6d6e6f707172737475767778797a303132333435363738392b2fa264697066735822122046b32eac01e9a73023dac048c75d9146928de29c4f3727cab99ba1658f887cde64736f6c634300080a0033",
  "immutableReferences": {},
  "source": "// SPDX-License-Identifier: MIT\npragma solidity >=0.4.22 <0.9.0;\n\nimport \"@openzeppelin/contracts/utils/Counters.sol\";\nimport \"@openzeppelin/contracts/utils/math/SafeMath.sol\";\nimport \"@openzeppelin/contracts/token/ERC721/extensions/ERC721URIStorage.sol\";\nimport \"@openzeppelin/contracts/access/Ownable.sol\";\n\nimport \"./SwordAttack.sol\";\n\nimport \"./libraries/SafeMath32.sol\";\n\ncontract MergeSwordsToken is ERC721URIStorage, Ownable, SwordAttack {\n  constructor() ERC721(\"MERGESWORDS\", \"SWORD\") {}\n\n  uint256 private basicSwordFee = 0.1 ether;\n  uint256 private mergeFee = 0.05 ether;\n  uint256 private attackFee = 0.01 ether;\n\n  using Counters for Counters.Counter;\n  using SafeMath for uint256;\n  using SafeMath32 for uint32;\n\n  event NewSword(address indexed owner, uint256 id);\n  event BurnSword(address indexed owner, uint256 id);\n  event WonBattle(address indexed owner, AttackLog attackLog);\n  event LostBattle(address indexed owner, AttackLog attackLog);\n\n  Counters.Counter private _tokenIds;\n\n  // stored swords on blockhain\n  Sword[] public swords;\n\n  mapping(uint256 => address) public swordToOwner;\n  mapping(address => uint256) public ownerSwordCount;\n  mapping(uint256 => Sword) public idToSword;\n\n  modifier doesNotOwnSword() {\n    require(ownerSwordCount[msg.sender] == 0, \"Should not own any sword\");\n    _;\n  }\n\n  modifier onlySwordOwner(uint256 _swordId, address _callerAddress) {\n    require(ownerOf(_swordId) == _callerAddress, \"Only sword owner can call\");\n    _;\n  }\n\n  function updateBasicSwordFee(uint256 _fee) external onlyOwner {\n    basicSwordFee = _fee;\n  }\n\n  function updateMergeFee(uint256 _fee) external onlyOwner {\n    mergeFee = _fee;\n  }\n\n  function updateAttackFee(uint256 _fee) external onlyOwner {\n    attackFee = _fee;\n  }\n\n  function getBasicSword() public payable doesNotOwnSword {\n    require(msg.value == basicSwordFee, \"Not enough fee\");\n\n    Sword memory newSword = _createBasicSwordObject();\n\n    _mintSwordFromObject(newSword, msg.sender);\n  }\n\n  function _mintSwordFromObject(Sword memory _newSword, address _senderAddr) internal {\n    swords.push(_newSword);\n\n    _safeMint(_senderAddr, _tokenIds.current());\n\n    // set token uri\n    string memory finalTokenUri = _generateSwordUri(_tokenIds.current(), _newSword);\n    _setTokenURI(_tokenIds.current(), finalTokenUri);\n\n    swordToOwner[_tokenIds.current()] = _senderAddr;\n    ownerSwordCount[_senderAddr] = ownerSwordCount[_senderAddr].add(1);\n    idToSword[_tokenIds.current()] = _newSword;\n\n    emit NewSword(_senderAddr, _tokenIds.current());\n\n    _tokenIds.increment();\n  }\n\n  function mergeSwords(uint256 swordOneId, uint256 swordTwoId)\n    public\n    payable\n    onlySwordOwner(swordOneId, msg.sender)\n    onlySwordOwner(swordTwoId, msg.sender)\n  {\n    require(msg.value == mergeFee, \"Not enough fee\");\n\n    // create a new sword\n    Sword memory newSword = _createFromTwoSwords(\n      _getSwordDnaFromId(swordOneId),\n      _getSwordDnaFromId(swordTwoId),\n      _calcChildGeneration(swordOneId, swordTwoId)\n    );\n    _mintSwordFromObject(newSword, msg.sender);\n\n    // burn the given sword NFTs\n    _burnSwordNft(swordOneId, msg.sender);\n    _burnSwordNft(swordTwoId, msg.sender);\n  }\n\n  function _burnSwordNft(uint256 _swordId, address _senderAddr) internal {\n    swordToOwner[_swordId] = address(0);\n    ownerSwordCount[_senderAddr] = ownerSwordCount[_senderAddr].sub(1);\n\n    _burn(_swordId);\n\n    emit BurnSword(_senderAddr, _swordId);\n  }\n\n  function _getSwordDnaFromId(uint256 _swordId) internal view returns (uint256) {\n    Sword memory sword = idToSword[_swordId];\n    return sword.dna;\n  }\n\n  function _calcChildGeneration(uint256 _parentOneId, uint256 _parentTwoId) internal view returns (uint32) {\n    Sword memory parentOne = idToSword[_parentOneId];\n    Sword memory parentTwo = idToSword[_parentTwoId];\n\n    // select the oldest parent\n    if (parentOne.generation >= parentTwo.generation) {\n      return parentOne.generation.add(1);\n    } else {\n      return parentTwo.generation.add(1);\n    }\n  }\n\n  function battleMonster(uint256 _swordId) public payable onlySwordOwner(_swordId, msg.sender) {\n    require(msg.value == attackFee, \"Not enough fee\");\n    (AttackLog memory attackLog) = attackMonster(_getAttackPowerFromSwordId(_swordId));\n\n    if (attackLog.didUserWin) {\n      emit WonBattle(msg.sender, attackLog);\n\n      // give a new sword as a reward to user\n      Sword memory sword = _createSimilarSword(_getSwordDnaFromId(_swordId));\n      _mintSwordFromObject(sword, msg.sender);\n    } else {\n      emit LostBattle(msg.sender, attackLog);\n    }\n  }\n\n  function _getAttackPowerFromSwordId(uint256 _swordId) internal view returns (uint8) {\n    Sword memory sword = idToSword[_swordId];\n    return sword.attackPower;\n  }\n\n  // getters\n  function getUserSwordCount(address _user) public view returns(uint256) {\n    return ownerSwordCount[_user];\n  }\n\n  function getUserSwords(address _user) public view returns(Sword[] memory) {\n    Sword[] memory userSwords = new Sword[](ownerSwordCount[_user]);\n    uint256 counter;\n    for (uint256 i = 0; i <  swords.length; i++) {\n      if (swordToOwner[i] == _user) {\n        userSwords[counter] = swords[i];\n        counter++;\n      }\n    }\n    return userSwords; \n  }\n}\n",
  "sourcePath": "/home/gorkem/Web3/ETH/merge-swords/contracts/MergeSwordsToken.sol",
  "compiler": {
    "name": "solc",
    "version": "0.8.10+commit.fc410830.Emscripten.clang"
  },
  "schemaVersion": "3.4.3",
  "updatedAt": "2021-12-22T12:36:49.679Z",
  "devdoc": {
    "kind": "dev",
    "methods": {
      "approve(address,uint256)": {
        "details": "See {IERC721-approve}."
      },
      "balanceOf(address)": {
        "details": "See {IERC721-balanceOf}."
      },
      "getApproved(uint256)": {
        "details": "See {IERC721-getApproved}."
      },
      "isApprovedForAll(address,address)": {
        "details": "See {IERC721-isApprovedForAll}."
      },
      "name()": {
        "details": "See {IERC721Metadata-name}."
      },
      "owner()": {
        "details": "Returns the address of the current owner."
      },
      "ownerOf(uint256)": {
        "details": "See {IERC721-ownerOf}."
      },
      "renounceOwnership()": {
        "details": "Leaves the contract without owner. It will not be possible to call `onlyOwner` functions anymore. Can only be called by the current owner. NOTE: Renouncing ownership will leave the contract without an owner, thereby removing any functionality that is only available to the owner."
      },
      "safeTransferFrom(address,address,uint256)": {
        "details": "See {IERC721-safeTransferFrom}."
      },
      "safeTransferFrom(address,address,uint256,bytes)": {
        "details": "See {IERC721-safeTransferFrom}."
      },
      "setApprovalForAll(address,bool)": {
        "details": "See {IERC721-setApprovalForAll}."
      },
      "supportsInterface(bytes4)": {
        "details": "See {IERC165-supportsInterface}."
      },
      "symbol()": {
        "details": "See {IERC721Metadata-symbol}."
      },
      "tokenURI(uint256)": {
        "details": "See {IERC721Metadata-tokenURI}."
      },
      "transferFrom(address,address,uint256)": {
        "details": "See {IERC721-transferFrom}."
      },
      "transferOwnership(address)": {
        "details": "Transfers ownership of the contract to a new account (`newOwner`). Can only be called by the current owner."
      }
    },
    "version": 1
  },
  "userdoc": {
    "kind": "user",
    "methods": {},
    "version": 1
  }
}