{
  "contractName": "MergeSwordsToken",
  "abi": [
    {
      "inputs": [],
      "stateMutability": "nonpayable",
      "type": "constructor"
    },
    {
      "anonymous": false,
      "inputs": [
        {
          "indexed": true,
          "internalType": "address",
          "name": "owner",
          "type": "address"
        },
        {
          "indexed": true,
          "internalType": "address",
          "name": "approved",
          "type": "address"
        },
        {
          "indexed": true,
          "internalType": "uint256",
          "name": "tokenId",
          "type": "uint256"
        }
      ],
      "name": "Approval",
      "type": "event"
    },
    {
      "anonymous": false,
      "inputs": [
        {
          "indexed": true,
          "internalType": "address",
          "name": "owner",
          "type": "address"
        },
        {
          "indexed": true,
          "internalType": "address",
          "name": "operator",
          "type": "address"
        },
        {
          "indexed": false,
          "internalType": "bool",
          "name": "approved",
          "type": "bool"
        }
      ],
      "name": "ApprovalForAll",
      "type": "event"
    },
    {
      "anonymous": false,
      "inputs": [
        {
          "indexed": true,
          "internalType": "address",
          "name": "owner",
          "type": "address"
        },
        {
          "indexed": false,
          "internalType": "uint256",
          "name": "id",
          "type": "uint256"
        }
      ],
      "name": "BurnSword",
      "type": "event"
    },
    {
      "anonymous": false,
      "inputs": [
        {
          "indexed": true,
          "internalType": "address",
          "name": "owner",
          "type": "address"
        },
        {
          "components": [
            {
              "internalType": "bool",
              "name": "userStart",
              "type": "bool"
            },
            {
              "internalType": "uint256",
              "name": "userAttackPower",
              "type": "uint256"
            },
            {
              "internalType": "uint256",
              "name": "monsterAttackPower",
              "type": "uint256"
            },
            {
              "internalType": "uint256",
              "name": "userNormalizedAP",
              "type": "uint256"
            },
            {
              "internalType": "uint256",
              "name": "monsterNormalizedAP",
              "type": "uint256"
            },
            {
              "internalType": "bool",
              "name": "didUserWin",
              "type": "bool"
            }
          ],
          "indexed": false,
          "internalType": "struct SwordAttack.AttackLog",
          "name": "attackLog",
          "type": "tuple"
        }
      ],
      "name": "LostBattle",
      "type": "event"
    },
    {
      "anonymous": false,
      "inputs": [
        {
          "indexed": true,
          "internalType": "uint256",
          "name": "itemId",
          "type": "uint256"
        },
        {
          "indexed": true,
          "internalType": "address",
          "name": "nftContract",
          "type": "address"
        },
        {
          "indexed": true,
          "internalType": "uint256",
          "name": "tokenId",
          "type": "uint256"
        },
        {
          "indexed": false,
          "internalType": "address",
          "name": "seller",
          "type": "address"
        },
        {
          "indexed": false,
          "internalType": "address",
          "name": "owner",
          "type": "address"
        },
        {
          "indexed": false,
          "internalType": "uint256",
          "name": "price",
          "type": "uint256"
        },
        {
          "indexed": false,
          "internalType": "bool",
          "name": "sold",
          "type": "bool"
        }
      ],
      "name": "MarketItemCreated",
      "type": "event"
    },
    {
      "anonymous": false,
      "inputs": [
        {
          "indexed": true,
          "internalType": "address",
          "name": "owner",
          "type": "address"
        },
        {
          "indexed": false,
          "internalType": "uint256",
          "name": "id",
          "type": "uint256"
        }
      ],
      "name": "NewSword",
      "type": "event"
    },
    {
      "anonymous": false,
      "inputs": [
        {
          "indexed": true,
          "internalType": "address",
          "name": "previousOwner",
          "type": "address"
        },
        {
          "indexed": true,
          "internalType": "address",
          "name": "newOwner",
          "type": "address"
        }
      ],
      "name": "OwnershipTransferred",
      "type": "event"
    },
    {
      "anonymous": false,
      "inputs": [
        {
          "indexed": true,
          "internalType": "address",
          "name": "from",
          "type": "address"
        },
        {
          "indexed": true,
          "internalType": "address",
          "name": "to",
          "type": "address"
        },
        {
          "indexed": true,
          "internalType": "uint256",
          "name": "tokenId",
          "type": "uint256"
        }
      ],
      "name": "Transfer",
      "type": "event"
    },
    {
      "anonymous": false,
      "inputs": [
        {
          "indexed": true,
          "internalType": "address",
          "name": "owner",
          "type": "address"
        },
        {
          "components": [
            {
              "internalType": "bool",
              "name": "userStart",
              "type": "bool"
            },
            {
              "internalType": "uint256",
              "name": "userAttackPower",
              "type": "uint256"
            },
            {
              "internalType": "uint256",
              "name": "monsterAttackPower",
              "type": "uint256"
            },
            {
              "internalType": "uint256",
              "name": "userNormalizedAP",
              "type": "uint256"
            },
            {
              "internalType": "uint256",
              "name": "monsterNormalizedAP",
              "type": "uint256"
            },
            {
              "internalType": "bool",
              "name": "didUserWin",
              "type": "bool"
            }
          ],
          "indexed": false,
          "internalType": "struct SwordAttack.AttackLog",
          "name": "attackLog",
          "type": "tuple"
        }
      ],
      "name": "WonBattle",
      "type": "event"
    },
    {
      "inputs": [
        {
          "internalType": "address",
          "name": "to",
          "type": "address"
        },
        {
          "internalType": "uint256",
          "name": "tokenId",
          "type": "uint256"
        }
      ],
      "name": "approve",
      "outputs": [],
      "stateMutability": "nonpayable",
      "type": "function"
    },
    {
      "inputs": [
        {
          "internalType": "address",
          "name": "owner",
          "type": "address"
        }
      ],
      "name": "balanceOf",
      "outputs": [
        {
          "internalType": "uint256",
          "name": "",
          "type": "uint256"
        }
      ],
      "stateMutability": "view",
      "type": "function",
      "constant": true
    },
    {
      "inputs": [
        {
          "internalType": "address",
          "name": "nftContract",
          "type": "address"
        },
        {
          "internalType": "uint256",
          "name": "tokenId",
          "type": "uint256"
        },
        {
          "internalType": "uint256",
          "name": "dna",
          "type": "uint256"
        },
        {
          "internalType": "uint256",
          "name": "price",
          "type": "uint256"
        },
        {
          "internalType": "address",
          "name": "sender",
          "type": "address"
        }
      ],
      "name": "createMarketItem",
      "outputs": [],
      "stateMutability": "payable",
      "type": "function",
      "payable": true
    },
    {
      "inputs": [
        {
          "internalType": "address",
          "name": "nftContract",
          "type": "address"
        },
        {
          "internalType": "uint256",
          "name": "itemId",
          "type": "uint256"
        },
        {
          "internalType": "uint256",
          "name": "value",
          "type": "uint256"
        },
        {
          "internalType": "address",
          "name": "sender",
          "type": "address"
        }
      ],
      "name": "createMarketSale",
      "outputs": [],
      "stateMutability": "payable",
      "type": "function",
      "payable": true
    },
    {
      "inputs": [
        {
          "internalType": "address",
          "name": "_user",
          "type": "address"
        }
      ],
      "name": "fetchItemsCreated",
      "outputs": [
        {
          "components": [
            {
              "internalType": "uint256",
              "name": "itemId",
              "type": "uint256"
            },
            {
              "internalType": "address",
              "name": "nftContract",
              "type": "address"
            },
            {
              "internalType": "uint256",
              "name": "tokenId",
              "type": "uint256"
            },
            {
              "internalType": "uint256",
              "name": "dna",
              "type": "uint256"
            },
            {
              "internalType": "address payable",
              "name": "seller",
              "type": "address"
            },
            {
              "internalType": "address payable",
              "name": "owner",
              "type": "address"
            },
            {
              "internalType": "uint256",
              "name": "price",
              "type": "uint256"
            },
            {
              "internalType": "bool",
              "name": "sold",
              "type": "bool"
            }
          ],
          "internalType": "struct NFTMarketplace.MarketItem[]",
          "name": "",
          "type": "tuple[]"
        }
      ],
      "stateMutability": "view",
      "type": "function",
      "constant": true
    },
    {
      "inputs": [],
      "name": "fetchMarketItems",
      "outputs": [
        {
          "components": [
            {
              "internalType": "uint256",
              "name": "itemId",
              "type": "uint256"
            },
            {
              "internalType": "address",
              "name": "nftContract",
              "type": "address"
            },
            {
              "internalType": "uint256",
              "name": "tokenId",
              "type": "uint256"
            },
            {
              "internalType": "uint256",
              "name": "dna",
              "type": "uint256"
            },
            {
              "internalType": "address payable",
              "name": "seller",
              "type": "address"
            },
            {
              "internalType": "address payable",
              "name": "owner",
              "type": "address"
            },
            {
              "internalType": "uint256",
              "name": "price",
              "type": "uint256"
            },
            {
              "internalType": "bool",
              "name": "sold",
              "type": "bool"
            }
          ],
          "internalType": "struct NFTMarketplace.MarketItem[]",
          "name": "",
          "type": "tuple[]"
        }
      ],
      "stateMutability": "view",
      "type": "function",
      "constant": true
    },
    {
      "inputs": [
        {
          "internalType": "address",
          "name": "_user",
          "type": "address"
        }
      ],
      "name": "fetchMyNFTs",
      "outputs": [
        {
          "components": [
            {
              "internalType": "uint256",
              "name": "itemId",
              "type": "uint256"
            },
            {
              "internalType": "address",
              "name": "nftContract",
              "type": "address"
            },
            {
              "internalType": "uint256",
              "name": "tokenId",
              "type": "uint256"
            },
            {
              "internalType": "uint256",
              "name": "dna",
              "type": "uint256"
            },
            {
              "internalType": "address payable",
              "name": "seller",
              "type": "address"
            },
            {
              "internalType": "address payable",
              "name": "owner",
              "type": "address"
            },
            {
              "internalType": "uint256",
              "name": "price",
              "type": "uint256"
            },
            {
              "internalType": "bool",
              "name": "sold",
              "type": "bool"
            }
          ],
          "internalType": "struct NFTMarketplace.MarketItem[]",
          "name": "",
          "type": "tuple[]"
        }
      ],
      "stateMutability": "view",
      "type": "function",
      "constant": true
    },
    {
      "inputs": [
        {
          "internalType": "uint256",
          "name": "tokenId",
          "type": "uint256"
        }
      ],
      "name": "getApproved",
      "outputs": [
        {
          "internalType": "address",
          "name": "",
          "type": "address"
        }
      ],
      "stateMutability": "view",
      "type": "function",
      "constant": true
    },
    {
      "inputs": [
        {
          "internalType": "uint256",
          "name": "",
          "type": "uint256"
        }
      ],
      "name": "idToSword",
      "outputs": [
        {
          "internalType": "uint256",
          "name": "id",
          "type": "uint256"
        },
        {
          "internalType": "uint256",
          "name": "dna",
          "type": "uint256"
        },
        {
          "internalType": "uint256",
          "name": "attackPower",
          "type": "uint256"
        },
        {
          "internalType": "uint32",
          "name": "generation",
          "type": "uint32"
        },
        {
          "internalType": "uint16",
          "name": "winCount",
          "type": "uint16"
        },
        {
          "internalType": "uint16",
          "name": "lossCount",
          "type": "uint16"
        }
      ],
      "stateMutability": "view",
      "type": "function",
      "constant": true
    },
    {
      "inputs": [
        {
          "internalType": "address",
          "name": "owner",
          "type": "address"
        },
        {
          "internalType": "address",
          "name": "operator",
          "type": "address"
        }
      ],
      "name": "isApprovedForAll",
      "outputs": [
        {
          "internalType": "bool",
          "name": "",
          "type": "bool"
        }
      ],
      "stateMutability": "view",
      "type": "function",
      "constant": true
    },
    {
      "inputs": [],
      "name": "name",
      "outputs": [
        {
          "internalType": "string",
          "name": "",
          "type": "string"
        }
      ],
      "stateMutability": "view",
      "type": "function",
      "constant": true
    },
    {
      "inputs": [],
      "name": "owner",
      "outputs": [
        {
          "internalType": "address",
          "name": "",
          "type": "address"
        }
      ],
      "stateMutability": "view",
      "type": "function",
      "constant": true
    },
    {
      "inputs": [
        {
          "internalType": "uint256",
          "name": "tokenId",
          "type": "uint256"
        }
      ],
      "name": "ownerOf",
      "outputs": [
        {
          "internalType": "address",
          "name": "",
          "type": "address"
        }
      ],
      "stateMutability": "view",
      "type": "function",
      "constant": true
    },
    {
      "inputs": [
        {
          "internalType": "address",
          "name": "",
          "type": "address"
        }
      ],
      "name": "ownerSwordCount",
      "outputs": [
        {
          "internalType": "uint256",
          "name": "",
          "type": "uint256"
        }
      ],
      "stateMutability": "view",
      "type": "function",
      "constant": true
    },
    {
      "inputs": [],
      "name": "renounceOwnership",
      "outputs": [],
      "stateMutability": "nonpayable",
      "type": "function"
    },
    {
      "inputs": [
        {
          "internalType": "address",
          "name": "from",
          "type": "address"
        },
        {
          "internalType": "address",
          "name": "to",
          "type": "address"
        },
        {
          "internalType": "uint256",
          "name": "tokenId",
          "type": "uint256"
        }
      ],
      "name": "safeTransferFrom",
      "outputs": [],
      "stateMutability": "nonpayable",
      "type": "function"
    },
    {
      "inputs": [
        {
          "internalType": "address",
          "name": "from",
          "type": "address"
        },
        {
          "internalType": "address",
          "name": "to",
          "type": "address"
        },
        {
          "internalType": "uint256",
          "name": "tokenId",
          "type": "uint256"
        },
        {
          "internalType": "bytes",
          "name": "_data",
          "type": "bytes"
        }
      ],
      "name": "safeTransferFrom",
      "outputs": [],
      "stateMutability": "nonpayable",
      "type": "function"
    },
    {
      "inputs": [
        {
          "internalType": "address",
          "name": "operator",
          "type": "address"
        },
        {
          "internalType": "bool",
          "name": "approved",
          "type": "bool"
        }
      ],
      "name": "setApprovalForAll",
      "outputs": [],
      "stateMutability": "nonpayable",
      "type": "function"
    },
    {
      "inputs": [
        {
          "internalType": "bytes4",
          "name": "interfaceId",
          "type": "bytes4"
        }
      ],
      "name": "supportsInterface",
      "outputs": [
        {
          "internalType": "bool",
          "name": "",
          "type": "bool"
        }
      ],
      "stateMutability": "view",
      "type": "function",
      "constant": true
    },
    {
      "inputs": [
        {
          "internalType": "uint256",
          "name": "",
          "type": "uint256"
        }
      ],
      "name": "swordToOwner",
      "outputs": [
        {
          "internalType": "address",
          "name": "",
          "type": "address"
        }
      ],
      "stateMutability": "view",
      "type": "function",
      "constant": true
    },
    {
      "inputs": [
        {
          "internalType": "uint256",
          "name": "",
          "type": "uint256"
        }
      ],
      "name": "swords",
      "outputs": [
        {
          "internalType": "uint256",
          "name": "id",
          "type": "uint256"
        },
        {
          "internalType": "uint256",
          "name": "dna",
          "type": "uint256"
        },
        {
          "internalType": "uint256",
          "name": "attackPower",
          "type": "uint256"
        },
        {
          "internalType": "uint32",
          "name": "generation",
          "type": "uint32"
        },
        {
          "internalType": "uint16",
          "name": "winCount",
          "type": "uint16"
        },
        {
          "internalType": "uint16",
          "name": "lossCount",
          "type": "uint16"
        }
      ],
      "stateMutability": "view",
      "type": "function",
      "constant": true
    },
    {
      "inputs": [],
      "name": "symbol",
      "outputs": [
        {
          "internalType": "string",
          "name": "",
          "type": "string"
        }
      ],
      "stateMutability": "view",
      "type": "function",
      "constant": true
    },
    {
      "inputs": [
        {
          "internalType": "uint256",
          "name": "tokenId",
          "type": "uint256"
        }
      ],
      "name": "tokenURI",
      "outputs": [
        {
          "internalType": "string",
          "name": "",
          "type": "string"
        }
      ],
      "stateMutability": "view",
      "type": "function",
      "constant": true
    },
    {
      "inputs": [
        {
          "internalType": "address",
          "name": "from",
          "type": "address"
        },
        {
          "internalType": "address",
          "name": "to",
          "type": "address"
        },
        {
          "internalType": "uint256",
          "name": "tokenId",
          "type": "uint256"
        }
      ],
      "name": "transferFrom",
      "outputs": [],
      "stateMutability": "nonpayable",
      "type": "function"
    },
    {
      "inputs": [
        {
          "internalType": "address",
          "name": "newOwner",
          "type": "address"
        }
      ],
      "name": "transferOwnership",
      "outputs": [],
      "stateMutability": "nonpayable",
      "type": "function"
    },
    {
      "inputs": [
        {
          "internalType": "address",
          "name": "nftContract",
          "type": "address"
        },
        {
          "internalType": "uint256",
          "name": "itemId",
          "type": "uint256"
        },
        {
          "internalType": "address",
          "name": "sender",
          "type": "address"
        }
      ],
      "name": "withdrawMarketItem",
      "outputs": [],
      "stateMutability": "nonpayable",
      "type": "function"
    },
    {
      "inputs": [
        {
          "internalType": "uint256",
          "name": "_fee",
          "type": "uint256"
        }
      ],
      "name": "updateBasicSwordFee",
      "outputs": [],
      "stateMutability": "nonpayable",
      "type": "function"
    },
    {
      "inputs": [
        {
          "internalType": "uint256",
          "name": "_fee",
          "type": "uint256"
        }
      ],
      "name": "updateMergeFee",
      "outputs": [],
      "stateMutability": "nonpayable",
      "type": "function"
    },
    {
      "inputs": [
        {
          "internalType": "uint256",
          "name": "_fee",
          "type": "uint256"
        }
      ],
      "name": "updateAttackFee",
      "outputs": [],
      "stateMutability": "nonpayable",
      "type": "function"
    },
    {
      "inputs": [],
      "name": "getBasicSword",
      "outputs": [],
      "stateMutability": "payable",
      "type": "function",
      "payable": true
    },
    {
      "inputs": [
        {
          "internalType": "uint256",
          "name": "swordOneId",
          "type": "uint256"
        },
        {
          "internalType": "uint256",
          "name": "swordTwoId",
          "type": "uint256"
        }
      ],
      "name": "mergeSwords",
      "outputs": [],
      "stateMutability": "payable",
      "type": "function",
      "payable": true
    },
    {
      "inputs": [
        {
          "internalType": "uint256",
          "name": "_swordId",
          "type": "uint256"
        }
      ],
      "name": "battleMonster",
      "outputs": [],
      "stateMutability": "payable",
      "type": "function",
      "payable": true
    },
    {
      "inputs": [
        {
          "internalType": "uint256",
          "name": "_swordId",
          "type": "uint256"
        }
      ],
      "name": "sendSwordToTrash",
      "outputs": [],
      "stateMutability": "nonpayable",
      "type": "function"
    },
    {
      "inputs": [
        {
          "internalType": "uint256",
          "name": "_swordId",
          "type": "uint256"
        },
        {
          "internalType": "address",
          "name": "_to",
          "type": "address"
        }
      ],
      "name": "transferToAdress",
      "outputs": [],
      "stateMutability": "nonpayable",
      "type": "function"
    },
    {
      "inputs": [
        {
          "internalType": "uint256",
          "name": "_swordId",
          "type": "uint256"
        }
      ],
      "name": "claimPrize",
      "outputs": [],
      "stateMutability": "nonpayable",
      "type": "function"
    },
    {
      "inputs": [
        {
          "internalType": "uint256",
          "name": "_swordId",
          "type": "uint256"
        },
        {
          "internalType": "uint256",
          "name": "_price",
          "type": "uint256"
        }
      ],
      "name": "addToMarketPlace",
      "outputs": [],
      "stateMutability": "nonpayable",
      "type": "function"
    },
    {
      "inputs": [
        {
          "internalType": "uint256",
          "name": "_swordId",
          "type": "uint256"
        },
        {
          "internalType": "uint256",
          "name": "_marketId",
          "type": "uint256"
        }
      ],
      "name": "withdrawFromMarketPlace",
      "outputs": [],
      "stateMutability": "nonpayable",
      "type": "function"
    },
    {
      "inputs": [
        {
          "internalType": "uint256",
          "name": "_swordId",
          "type": "uint256"
        },
        {
          "internalType": "uint256",
          "name": "_marketId",
          "type": "uint256"
        }
      ],
      "name": "buyFromMarketPlace",
      "outputs": [],
      "stateMutability": "payable",
      "type": "function",
      "payable": true
    },
    {
      "inputs": [
        {
          "internalType": "address",
          "name": "_user",
          "type": "address"
        }
      ],
      "name": "getUserSwordCount",
      "outputs": [
        {
          "internalType": "uint256",
          "name": "",
          "type": "uint256"
        }
      ],
      "stateMutability": "view",
      "type": "function",
      "constant": true
    },
    {
      "inputs": [
        {
          "internalType": "address",
          "name": "_user",
          "type": "address"
        }
      ],
      "name": "getUserSwords",
      "outputs": [
        {
          "components": [
            {
              "internalType": "uint256",
              "name": "id",
              "type": "uint256"
            },
            {
              "internalType": "uint256",
              "name": "dna",
              "type": "uint256"
            },
            {
              "internalType": "uint256",
              "name": "attackPower",
              "type": "uint256"
            },
            {
              "internalType": "uint32",
              "name": "generation",
              "type": "uint32"
            },
            {
              "internalType": "uint16",
              "name": "winCount",
              "type": "uint16"
            },
            {
              "internalType": "uint16",
              "name": "lossCount",
              "type": "uint16"
            }
          ],
          "internalType": "struct SwordFactory.Sword[]",
          "name": "",
          "type": "tuple[]"
        }
      ],
      "stateMutability": "view",
      "type": "function",
      "constant": true
    },
    {
      "inputs": [
        {
          "internalType": "uint256",
          "name": "_id",
          "type": "uint256"
        }
      ],
      "name": "getSwordFromId",
      "outputs": [
        {
          "components": [
            {
              "internalType": "uint256",
              "name": "id",
              "type": "uint256"
            },
            {
              "internalType": "uint256",
              "name": "dna",
              "type": "uint256"
            },
            {
              "internalType": "uint256",
              "name": "attackPower",
              "type": "uint256"
            },
            {
              "internalType": "uint32",
              "name": "generation",
              "type": "uint32"
            },
            {
              "internalType": "uint16",
              "name": "winCount",
              "type": "uint16"
            },
            {
              "internalType": "uint16",
              "name": "lossCount",
              "type": "uint16"
            }
          ],
          "internalType": "struct SwordFactory.Sword",
          "name": "",
          "type": "tuple"
        }
      ],
      "stateMutability": "view",
      "type": "function",
      "constant": true
    }
  ],
  "bytecode": "0x600561028081815264576869746560d81b6102a052608090815260066102c08181526559656c6c6f7760d01b6102e05260a052610300818152654f72616e676560d01b6103205260c05260036103409081526214995960ea1b6103605260e05261038090815265507572706c6560d01b6103a0526101005260096103c0818152684461726b20626c756560b81b6103e05261012052600461040081815263426c756560e01b6104205261014052600a610440818152694c6967687420626c756560b01b61046052610160526104808581526423b932b2b760d91b6104a052610180526104c0818152692230b9359023b932b2b760b11b6104e0526101a05261050085815264213937bbb760d91b610520526101c052600b6105409081526a2634b3b43a10213937bbb760a91b610560526101e052610580908152694c69676874204772657960b01b6105a052610200526105c0908152634772657960e01b6105e05261022052610600908152684461726b204772657960b81b610620526102405261068060405261064091825264426c61636b60d81b6106605261026091909152620001b090600c906010620007b7565b506040805160c08101825260076080820190815266476c616469757360c81b60a083015281528151808301835260058082526429b0b132b960d91b602083810191909152808401929092528351808501855260068152654b6174616e6160d01b818401528385015283518085019094528352644b6f6e646160d81b9083015260608101919091526200024790600d9060046200081b565b506040805161014081018252600461010082018181526315dbdbd960e21b61012084015282528251808401845260058082526453746f6e6560d81b6020838101919091528085019290925284518086018652600681526542726f6e7a6560d01b8184015284860152845180860186529081526414dd19595b60da1b818301526060840152835180850185529182526311dbdb1960e21b82820152608083019190915282518084018452600780825266115b595c985b1960ca1b8284015260a08401919091528351808501855290815266111a585b5bdb9960ca1b8183015260c08301528251808401909352600c83526b436172626f6e2d666962726560a01b9083015260e08101919091526200036290600e9060086200086d565b506040805161024081018252600761020082018181526611b3333333333360c91b6102208401528252825180840184528181526611b3333333181960c91b6020828101919091528084019190915283518085018552828152660236666363630360cc1b818301528385015283518085018552828152660236666303030360cc1b818301526060840152835180850185528281526611b3331818333360c91b81830152608084015283518085018552828152660233030303038360cc1b8183015260a084015283518085018552828152661198181818333360c91b8183015260c084015283518085018552828152661198183333333360c91b8183015260e084015283518085018552828152660233030666630360cc1b8183015261010084015283518085018552828152660233030383030360cc1b8183015261012084015283518085018552828152660233830333330360cc1b8183015261014084015283518085018552828152660236434353530360cc1b818301526101608401528351808501855282815266119c989b331b3360c91b8183015261018084015283518085018552828152662336633533353360c81b818301526101a084015283518085018552828152662334383337333760c81b818301526101c08401528351808501909452908352662332343163316360c81b908301526101e08101919091526200056f90600f906010620007b7565b50604080516101408101825260076101008201818152660233830333330360cc1b610120840152825282518084018452818152662361633933393360c81b6020828101919091528084019190915283518085018552828152660236666363630360cc1b818301528385015283518085018552828152662336633533353360c81b81830152606084015283518085018552828152660236666636330360cc1b81830152608084015283518085018552828152660233030383030360cc1b8183015260a084015283518085018552828152661198183333333360c91b8183015260c08401528351808501909452908352662332343163316360c81b9083015260e0810191909152620006849060109060086200086d565b506000601155600c60128190556200069e90600a62000b0b565b6013556014805462ffffff191662321e461790556000601555662386f26fc100006016556611c37937e0800060175566038d7ea4c68000601855348015620006e557600080fd5b50604080518082018252600b81526a4d4552474553574f52445360a81b60208083019182528351808501909452600584526414d5d3d49160da1b9084015281519192916200073691600091620008bf565b5080516200074c906001906020840190620008bf565b50506001600755506200075f3362000765565b62000b63565b600b80546001600160a01b038381166001600160a01b0319831681179093556040519116919082907f8be0079c531659141344cd1fd0a4f28419497f9722a3daafe3b4186f6b6457e090600090a35050565b82805482825590600052602060002090810192821562000809579160200282015b82811115620008095782518051620007f8918491602090910190620008bf565b5091602001919060010190620007d8565b50620008179291506200094a565b5090565b82805482825590600052602060002090810192821562000809579160200282015b828111156200080957825180516200085c918491602090910190620008bf565b50916020019190600101906200083c565b82805482825590600052602060002090810192821562000809579160200282015b82811115620008095782518051620008ae918491602090910190620008bf565b50916020019190600101906200088e565b828054620008cd9062000b32565b90600052602060002090601f016020900481019282620008f157600085556200093c565b82601f106200090c57805160ff19168380011785556200093c565b828001600101855582156200093c579182015b828111156200093c5782518255916020019190600101906200091f565b50620008179291506200096b565b808211156200081757600062000961828262000982565b506001016200094a565b5b808211156200081757600081556001016200096c565b508054620009909062000b32565b6000825580601f10620009a1575050565b601f016020900490600052602060002090810190620009c191906200096b565b50565b634e487b7160e01b600052601160045260246000fd5b80825b600185111562000a2057808604811115620009fc57620009fc620009c4565b600185161562000a0b57908102905b800262000a188560011c90565b9450620009dd565b94509492505050565b60008262000a3a5750600162000b04565b8162000a495750600062000b04565b816001811462000a62576002811462000a6d5762000aa1565b600191505062000b04565b60ff84111562000a815762000a81620009c4565b8360020a91508482111562000a9a5762000a9a620009c4565b5062000b04565b5060208310610133831016604e8410600b841016171562000ad9575081810a8381111562000ad35762000ad3620009c4565b62000b04565b62000ae88484846001620009da565b9250905081840481111562000b015762000b01620009c4565b81025b9392505050565b600062000b04600019848462000a29565b634e487b7160e01b600052602260045260246000fd5b60028104600182168062000b4757607f821691505b6020821081141562000b5d5762000b5d62000b1c565b50919050565b615e488062000b736000396000f3fe6080604052600436106102c65760003560e01c80637a86196f11610179578063bfefc294116100d6578063d130f37a1161008a578063e985e9c511610064578063e985e9c514610805578063f1afe65a1461084e578063f2fde38b1461086157600080fd5b8063d130f37a146107b2578063d7098154146107c5578063de162cf2146107e557600080fd5b8063c87b56dd116100bb578063c87b56dd14610752578063ca60f14e14610772578063cf373d881461079257600080fd5b8063bfefc2941461071f578063c83384561461073257600080fd5b80638da5cb5b1161012d578063a22cb46511610112578063a22cb465146106bf578063a2a5f24f146106df578063b88d4fde146106ff57600080fd5b80638da5cb5b1461068c57806395d89b41146106aa57600080fd5b80637eb4ca231161015e5780637eb4ca23146105f657806382d2e8571461061657806387b231091461067957600080fd5b80637a86196f146105a05780637a91fb58146105c057600080fd5b80634ed013c811610227578063685432e4116101db57806370a08231116101c057806370a0823114610563578063715018a614610583578063780efa841461059857600080fd5b8063685432e4146105095780636c73f1781461053657600080fd5b80636352211e1161020c5780636352211e1461047457806363ed87f2146104945780636653d0f5146104d757600080fd5b80634ed013c81461042757806350238bed1461044757600080fd5b80630f08efe01161027e57806323b872dd1161026357806323b872dd146103d457806342842e0e146103f45780634e319a1c1461041457600080fd5b80630f08efe01461039257806310afee1e146103b457600080fd5b8063081812fc116102af578063081812fc14610323578063095ea7b3146103505780630de872511461037257600080fd5b806301ffc9a7146102cb57806306fdde0314610301575b600080fd5b3480156102d757600080fd5b506102eb6102e63660046141b6565b610881565b6040516102f891906141e1565b60405180910390f35b34801561030d57600080fd5b50610316610966565b6040516102f8919061424d565b34801561032f57600080fd5b5061034361033e36600461426f565b6109f8565b6040516102f891906142aa565b34801561035c57600080fd5b5061037061036b3660046142cc565b610a51565b005b34801561037e57600080fd5b5061037061038d366004614309565b610af5565b34801561039e57600080fd5b506103a7610c31565b6040516102f8919061444f565b3480156103c057600080fd5b506103a76103cf366004614460565b610e36565b3480156103e057600080fd5b506103706103ef366004614481565b61105e565b34801561040057600080fd5b5061037061040f366004614481565b61108f565b61037061042236600461426f565b6110aa565b34801561043357600080fd5b5061037061044236600461426f565b61129d565b34801561045357600080fd5b50610467610462366004614460565b6112cc565b6040516102f89190614596565b34801561048057600080fd5b5061034361048f36600461426f565b61145b565b3480156104a057600080fd5b506104ca6104af366004614460565b6001600160a01b03166000908152601c602052604090205490565b6040516102f891906145a7565b3480156104e357600080fd5b506104f76104f236600461426f565b611490565b6040516102f8969594939291906145b5565b34801561051557600080fd5b5061052961052436600461426f565b6114eb565b6040516102f89190614604565b34801561054257600080fd5b506104ca610551366004614460565b601c6020526000908152604090205481565b34801561056f57600080fd5b506104ca61057e366004614460565b6115ad565b34801561058f57600080fd5b506103706115f1565b610370611627565b3480156105ac57600080fd5b506103706105bb366004614612565b611697565b3480156105cc57600080fd5b506103436105db36600461426f565b601b602052600090815260409020546001600160a01b031681565b34801561060257600080fd5b50610370610611366004614634565b61170c565b34801561062257600080fd5b506104f761063136600461426f565b601d6020526000908152604090208054600182015460028301546003909301549192909163ffffffff81169061ffff6401000000008204811691660100000000000090041686565b610370610687366004614667565b6117d9565b34801561069857600080fd5b50600b546001600160a01b0316610343565b3480156106b657600080fd5b506103166119dd565b3480156106cb57600080fd5b506103706106da3660046146f2565b6119ec565b3480156106eb57600080fd5b506103706106fa36600461426f565b6119fb565b34801561070b57600080fd5b5061037061071a366004614820565b611a2a565b61037061072d366004614612565b611a5c565b34801561073e57600080fd5b506103a761074d366004614460565b611c1f565b34801561075e57600080fd5b5061031661076d36600461426f565b611e3d565b34801561077e57600080fd5b5061037061078d36600461426f565b611f7a565b34801561079e57600080fd5b506103706107ad36600461426f565b611fa9565b6103706107c036600461489f565b611fe5565b3480156107d157600080fd5b506103706107e036600461426f565b61215b565b3480156107f157600080fd5b50610370610800366004614612565b612247565b34801561081157600080fd5b506102eb6108203660046148f7565b6001600160a01b03918216600090815260056020908152604080832093909416825291909152205460ff1690565b61037061085c366004614612565b61228b565b34801561086d57600080fd5b5061037061087c366004614460565b612297565b60007fffffffff0000000000000000000000000000000000000000000000000000000082167f80ac58cd00000000000000000000000000000000000000000000000000000000148061091457507fffffffff0000000000000000000000000000000000000000000000000000000082167f5b5e139f00000000000000000000000000000000000000000000000000000000145b8061096057507f01ffc9a7000000000000000000000000000000000000000000000000000000007fffffffff000000000000000000000000000000000000000000000000000000008316145b92915050565b6060600080546109759061492f565b80601f01602080910402602001604051908101604052809291908181526020018280546109a19061492f565b80156109ee5780601f106109c3576101008083540402835291602001916109ee565b820191906000526020600020905b8154815290600101906020018083116109d157829003601f168201915b5050505050905090565b6000818152600260205260408120546001600160a01b0316610a355760405162461bcd60e51b8152600401610a2c906149b6565b60405180910390fd5b506000908152600460205260409020546001600160a01b031690565b6000610a5c8261145b565b9050806001600160a01b0316836001600160a01b03161415610a905760405162461bcd60e51b8152600401610a2c90614a1e565b336001600160a01b0382161480610aca57506001600160a01b038116600090815260056020908152604080832033845290915290205460ff165b610ae65760405162461bcd60e51b8152600401610a2c90614a86565b610af083836122f0565b505050565b60026007541415610b185760405162461bcd60e51b8152600401610a2c90614ac8565b60026007556001600160a01b0383163014610b455760405162461bcd60e51b8152600401610a2c90614b0a565b6000828152600a60205260409020600401546001600160a01b03828116911614610b815760405162461bcd60e51b8152600401610a2c90614b4c565b6000828152600a60205260409081902060078101805460ff19166001179055600480820180546001600160a01b031916905560029091015491516323b872dd60e01b81526001600160a01b038616916323b872dd91610be69130918791879101614b5c565b600060405180830381600087803b158015610c0057600080fd5b505af1158015610c14573d6000803e3d6000fd5b50505050610c26600980546001019055565b505060016007555050565b60606000610c3e60085490565b90506000610c4b60095490565b600854610c589190614b9a565b90506000808267ffffffffffffffff811115610c7657610c76614725565b604051908082528060200260200182016040528015610ce557816020015b604080516101008101825260008082526020808301829052928201819052606082018190526080820181905260a0820181905260c0820181905260e08201528252600019909201910181610c945790505b50905060005b84811015610e2d576000600a81610d03846001614bb1565b81526020810191909152604001600020600501546001600160a01b0316148015610d5857506000600a81610d38846001614bb1565b81526020810191909152604001600020600401546001600160a01b031614155b15610e1b576000610d6a826001614bb1565b6000818152600a60209081526040918290208251610100810184528154815260018201546001600160a01b039081169382019390935260028201549381019390935260038101546060840152600481015482166080840152600581015490911660a0830152600681015460c0830152600781015460ff16151560e0830152855192935091859087908110610e0057610e00614bc9565b6020908102919091010152610e16600186614bb1565b945050505b80610e2581614bdf565b915050610ceb565b50949350505050565b60606000610e4360085490565b905060008060005b83811015610eaf576001600160a01b038616600a6000610e6c846001614bb1565b81526020810191909152604001600020600501546001600160a01b03161415610e9d57610e9a600184614bb1565b92505b80610ea781614bdf565b915050610e4b565b5060008267ffffffffffffffff811115610ecb57610ecb614725565b604051908082528060200260200182016040528015610f3a57816020015b604080516101008101825260008082526020808301829052928201819052606082018190526080820181905260a0820181905260c0820181905260e08201528252600019909201910181610ee95790505b50905060005b84811015611054576001600160a01b038716600a6000610f61846001614bb1565b81526020810191909152604001600020600501546001600160a01b03161415611042576000610f91826001614bb1565b6000818152600a60209081526040918290208251610100810184528154815260018201546001600160a01b039081169382019390935260028201549381019390935260038101546060840152600481015482166080840152600581015490911660a0830152600681015460c0830152600781015460ff16151560e083015285519293509185908790811061102757611027614bc9565b602090810291909101015261103d600186614bb1565b945050505b8061104c81614bdf565b915050610f40565b5095945050505050565b611068338261235e565b6110845760405162461bcd60e51b8152600401610a2c90614c52565b610af083838361240c565b610af083838360405180602001604052806000815250611a2a565b8033806110b68361145b565b6001600160a01b0316146110dc5760405162461bcd60e51b8152600401610a2c90614c94565b60185434146110fd5760405162461bcd60e51b8152600401610a2c90614cd6565b6000611177611172856000908152601d6020908152604091829020825160c0810184528154815260018201549281019290925260028101549282018390526003015463ffffffff8116606083015261ffff64010000000082048116608084015266010000000000009091041660a09091015290565b61252e565b90508060a001511561125557336001600160a01b03167fd84b9d4fcb92b3f863d788f33e175ec7d22eabc14cd2458f1f47523838f0dac4826040516111bc9190614d51565b60405180910390a260006112436111d260195490565b6000878152601d6020908152604091829020825160c0810184528154815260018201549281018390526002820154938101939093526003015463ffffffff8116606084015261ffff64010000000082048116608085015266010000000000009091041660a0909201919091526126c3565b905061124f8133612718565b50611297565b336001600160a01b03167fbf21d7bf10b21a389ac9d3cbc9de0db3a1f55cb3a0c7a831b13c4061d49530d78260405161128e9190614d51565b60405180910390a25b50505050565b600b546001600160a01b031633146112c75760405162461bcd60e51b8152600401610a2c90614d8f565b601755565b6001600160a01b0381166000908152601c60205260408120546060919067ffffffffffffffff81111561130157611301614725565b60405190808252806020026020018201604052801561136157816020015b6040805160c08101825260008082526020808301829052928201819052606082018190526080820181905260a0820152825260001990920191018161131f5790505b5090506000805b601a54811015611452576000818152601b60205260409020546001600160a01b038681169116141561144057601a81815481106113a7576113a7614bc9565b60009182526020918290206040805160c08101825260049093029091018054835260018101549383019390935260028301549082015260039091015463ffffffff8116606083015261ffff64010000000082048116608084015266010000000000009091041660a0820152835184908490811061142657611426614bc9565b6020026020010181905250818061143c90614bdf565b9250505b8061144a81614bdf565b915050611368565b50909392505050565b6000818152600260205260408120546001600160a01b0316806109605760405162461bcd60e51b8152600401610a2c90614df7565b601a81815481106114a057600080fd5b60009182526020909120600490910201805460018201546002830154600390930154919350919063ffffffff81169061ffff6401000000008204811691660100000000000090041686565b6040805160c081018252600080825260208201819052918101829052606081018290526080810182905260a0810191909152601954821061153e5760405162461bcd60e51b8152600401610a2c90614e39565b506000908152601d6020908152604091829020825160c0810184528154815260018201549281019290925260028101549282019290925260039091015463ffffffff8116606083015261ffff64010000000082048116608084015266010000000000009091041660a082015290565b60006001600160a01b0382166115d55760405162461bcd60e51b8152600401610a2c90614ea1565b506001600160a01b031660009081526003602052604090205490565b600b546001600160a01b0316331461161b5760405162461bcd60e51b8152600401610a2c90614d8f565b6116256000612987565b565b336000908152601c6020526040902054156116545760405162461bcd60e51b8152600401610a2c90614ee3565b60165434146116755760405162461bcd60e51b8152600401610a2c90614cd6565b600061168861168360195490565b6129d9565b90506116948133612718565b50565b6116a13083610a51565b6000828152601d60205260409020600101546116c2903090849084336117d9565b6000828152601b6020908152604080832080546001600160a01b0319169055338352601c9091529020546116f890600190614b9a565b336000908152601c60205260409020555050565b8133806117188361145b565b6001600160a01b03161461173e5760405162461bcd60e51b8152600401610a2c90614c94565b61174933848661105e565b6000848152601b6020908152604080832080546001600160a01b0319166001600160a01b038816179055338352601c90915290205461178a90600190614b9a565b336000908152601c6020526040808220929092556001600160a01b038516815220546117b7906001614bb1565b6001600160a01b039093166000908152601c6020526040902092909255505050565b600260075414156117fc5760405162461bcd60e51b8152600401610a2c90614ac8565b60026007558161181e5760405162461bcd60e51b8152600401610a2c90614f25565b6001600160a01b03851630146118465760405162461bcd60e51b8152600401610a2c90614b0a565b611854600880546001019055565b600061185f60085490565b60408051610100810182528281526001600160a01b0389811660208084018281528486018c8152606086018c81528a861660808801908152600060a0890181815260c08a018f815260e08b018381528d8452600a909852918b902099518a55945160018a0180546001600160a01b0319908116928b16929092179055935160028a01559151600389015551600480890180548516928916929092179091559251600588018054909316961695909517905592516006850155516007909301805460ff19169315159390931790925591516323b872dd60e01b8152929350916323b872dd9161195391869130918b9101614b5c565b600060405180830381600087803b15801561196d57600080fd5b505af1158015611981573d6000803e3d6000fd5b5050505084866001600160a01b0316827f045dfa01dcba2b36aba1d3dc4a874f4b0c5d2fbeb8d2c4b34a7d88c8d8f929d18560008860006040516119c89493929190614f35565b60405180910390a45050600160075550505050565b6060600180546109759061492f565b6119f7338383612a19565b5050565b600b546001600160a01b03163314611a255760405162461bcd60e51b8152600401610a2c90614d8f565b601855565b611a34338361235e565b611a505760405162461bcd60e51b8152600401610a2c90614c52565b61129784848484612abc565b813380611a688361145b565b6001600160a01b031614611a8e5760405162461bcd60e51b8152600401610a2c90614c94565b823380611a9a8361145b565b6001600160a01b031614611ac05760405162461bcd60e51b8152600401610a2c90614c94565b6017543414611ae15760405162461bcd60e51b8152600401610a2c90614cd6565b84861415611b015760405162461bcd60e51b8152600401610a2c90614f9c565b6000611bf6611b0f60195490565b6000898152601d6020908152604091829020825160c0810184528154815260018201549281018390526002820154938101939093526003015463ffffffff8116606084015261ffff64010000000082048116608085015266010000000000009091041660a0909201919091526000898152601d6020908152604091829020825160c0810184528154815260018201549281018390526002820154938101939093526003015463ffffffff8116606084015261ffff64010000000082048116608085015266010000000000009091041660a090920191909152611bf18b8b612aef565b612c80565b9050611c028133612718565b611c0c8733612cd6565b611c168633612cd6565b50505050505050565b60606000611c2c60085490565b905060008060005b83811015611c98576001600160a01b038616600a6000611c55846001614bb1565b81526020810191909152604001600020600401546001600160a01b03161415611c8657611c83600184614bb1565b92505b80611c9081614bdf565b915050611c34565b5060008267ffffffffffffffff811115611cb457611cb4614725565b604051908082528060200260200182016040528015611d2357816020015b604080516101008101825260008082526020808301829052928201819052606082018190526080820181905260a0820181905260c0820181905260e08201528252600019909201910181611cd25790505b50905060005b84811015611054576001600160a01b038716600a6000611d4a846001614bb1565b81526020810191909152604001600020600401546001600160a01b03161415611e2b576000611d7a826001614bb1565b6000818152600a60209081526040918290208251610100810184528154815260018201546001600160a01b039081169382019390935260028201549381019390935260038101546060840152600481015482166080840152600581015490911660a0830152600681015460c0830152600781015460ff16151560e0830152855192935091859087908110611e1057611e10614bc9565b6020908102919091010152611e26600186614bb1565b945050505b80611e3581614bdf565b915050611d29565b6000818152600260205260409020546060906001600160a01b0316611e745760405162461bcd60e51b8152600401610a2c90615004565b60008281526006602052604081208054611e8d9061492f565b80601f0160208091040260200160405190810160405280929190818152602001828054611eb99061492f565b8015611f065780601f10611edb57610100808354040283529160200191611f06565b820191906000526020600020905b815481529060010190602001808311611ee957829003601f168201915b505050505090506000611f2460408051602081019091526000815290565b9050805160001415611f37575092915050565b815115611f69578082604051602001611f51929190615036565b60405160208183030381529060405292505050919050565b611f7284612d7c565b949350505050565b600b546001600160a01b03163314611fa45760405162461bcd60e51b8152600401610a2c90614d8f565b601655565b803380611fb58361145b565b6001600160a01b031614611fdb5760405162461bcd60e51b8152600401610a2c90614c94565b610af08333612cd6565b600260075414156120085760405162461bcd60e51b8152600401610a2c90614ac8565b600260078190556000848152600a6020526040902060068101549101548382146120445760405162461bcd60e51b8152600401610a2c9061507e565b6001600160a01b038616301461206c5760405162461bcd60e51b8152600401610a2c90614b0a565b6000858152600a60205260408082206005810180546001600160a01b0319166001600160a01b038881169190911790915560078201805460ff1916600117905560049091015491519116916108fc871502918791818181858888f193505050501580156120dd573d6000803e3d6000fd5b506040516323b872dd60e01b81526001600160a01b038716906323b872dd9061210e90309087908690600401614b5c565b600060405180830381600087803b15801561212857600080fd5b505af115801561213c573d6000803e3d6000fd5b5050505061214e600980546001019055565b5050600160075550505050565b8033806121678361145b565b6001600160a01b03161461218d5760405162461bcd60e51b8152600401610a2c90614c94565b60006121ff846000908152601d6020908152604091829020825160c0810184528154815260018201549281019290925260028101549282018390526003015463ffffffff8116606083015261ffff64010000000082048116608084015266010000000000009091041660a09091015290565b905080605c1415611297576122148433612cd6565b60405133904780156108fc02916000818181858888f19350505050158015612240573d6000803e3d6000fd5b5050505050565b612252308233610af5565b6000828152601b6020908152604080832080546001600160a01b031916339081179091558352601c9091529020546116f8906001614bb1565b61225230823433611fe5565b600b546001600160a01b031633146122c15760405162461bcd60e51b8152600401610a2c90614d8f565b6001600160a01b0381166122e75760405162461bcd60e51b8152600401610a2c906150e6565b61169481612987565b600081815260046020526040902080546001600160a01b0319166001600160a01b03841690811790915581906123258261145b565b6001600160a01b03167f8c5be1e5ebec7d5bd14f71427d1e84f3dd0314c0f7b2291e5b200ac8c7c3b92560405160405180910390a45050565b6000818152600260205260408120546001600160a01b03166123925760405162461bcd60e51b8152600401610a2c9061514e565b600061239d8361145b565b9050806001600160a01b0316846001600160a01b031614806123d85750836001600160a01b03166123cd846109f8565b6001600160a01b0316145b80611f7257506001600160a01b0380821660009081526005602090815260408083209388168352929052205460ff16611f72565b826001600160a01b031661241f8261145b565b6001600160a01b0316146124455760405162461bcd60e51b8152600401610a2c906151b6565b6001600160a01b03821661246b5760405162461bcd60e51b8152600401610a2c9061521e565b6124766000826122f0565b6001600160a01b038316600090815260036020526040812080546001929061249f908490614b9a565b90915550506001600160a01b03821660009081526003602052604081208054600192906124cd908490614bb1565b909155505060008181526002602052604080822080546001600160a01b0319166001600160a01b0386811691821790925591518493918716917fddf252ad1be2c89b69c2b068fc378daa952ba7f163c4a11628f55a4df523b3ef91a4505050565b61256b6040518060c00160405280600015158152602001600081526020016000815260200160008152602001600081526020016000151581525090565b600061257683612e1c565b90506000806125858584612e8c565b915091506000612593612f08565b905060006125a2846064615244565b905060006125b1846064615244565b9050821561263e576125c4600183614b9a565b91508082116126075750506040805160c0810182526001808252602082019890985290810194909452506060830191909152608082015260a08101929092525090565b50506040805160c081018252600181526020810197909752860193909352606085019190915260808401525050600060a082015290565b612649600182614b9a565b905081811161268c5750506040805160c0810182526000808252602082019890985290810194909452506060830191909152608082015260a08101929092525090565b50506040805160c081018252600081526020810197909752860193909352606085019190915260808401525050600160a082015290565b6040805160c081018252600080825260208201819052918101829052606081018290526080810182905260a08101829052906126ff8380612f61565b9050600061270f85836000612ffc565b95945050505050565b601a805460018101825560009190915282517f057c384a7d1c54f3a1b2e5e67b2617b8224fdfd1ea7234eea573a6ff665ff63e60049092029182015560208301517f057c384a7d1c54f3a1b2e5e67b2617b8224fdfd1ea7234eea573a6ff665ff63f82015560408301517f057c384a7d1c54f3a1b2e5e67b2617b8224fdfd1ea7234eea573a6ff665ff64082015560608301517f057c384a7d1c54f3a1b2e5e67b2617b8224fdfd1ea7234eea573a6ff665ff6419091018054608085015160a086015163ffffffff90941665ffffffffffff199092169190911764010000000061ffff928316021767ffff00000000000019166601000000000000919093160291909117905560195461282c908290613077565b61284f61283860195490565b61284a61284460195490565b85613091565b6130f8565b80601b600061285d60195490565b81526020808201929092526040908101600090812080546001600160a01b0319166001600160a01b039586161790559284168352601c9091529020546128a4906001614bb1565b6001600160a01b0382166000818152601c6020908152604080832094909455601980548352601d82529184902086518155908601516001820155858401516002820155606086015160039091018054608088015160a089015163ffffffff90941665ffffffffffff199092169190911764010000000061ffff928316021767ffff00000000000019166601000000000000919093160291909117905554915190917fb9e9899b84f4affb2c40b3c644e3ac91ded134d040120e7fc42b68ca0c25c1e79161297191906145a7565b60405180910390a26119f7601980546001019055565b600b80546001600160a01b038381166001600160a01b0319831681179093556040519116919082907f8be0079c531659141344cd1fd0a4f28419497f9722a3daafe3b4186f6b6457e090600090a35050565b6040805160c081018252600080825260208201819052918101829052606081018290526080810182905260a08101829052906000611f7284836000612ffc565b816001600160a01b0316836001600160a01b03161415612a4b5760405162461bcd60e51b8152600401610a2c9061528a565b6001600160a01b0383811660008181526005602090815260408083209487168084529490915290819020805460ff1916851515179055517f17307eab39ab6107e8899845ad3d59bd9653f200f220920489ca2b5937696c3190612aaf9085906141e1565b60405180910390a3505050565b612ac784848461240c565b612ad38484848461314b565b6112975760405162461bcd60e51b8152600401610a2c906152f2565b600080601d60008581526020019081526020016000206040518060c00160405290816000820154815260200160018201548152602001600282015481526020016003820160009054906101000a900463ffffffff1663ffffffff1663ffffffff1681526020016003820160049054906101000a900461ffff1661ffff1661ffff1681526020016003820160069054906101000a900461ffff1661ffff1661ffff168152505090506000601d60008581526020019081526020016000206040518060c00160405290816000820154815260200160018201548152602001600282015481526020016003820160009054906101000a900463ffffffff1663ffffffff1663ffffffff1681526020016003820160049054906101000a900461ffff1661ffff1661ffff1681526020016003820160069054906101000a900461ffff1661ffff1661ffff16815250509050806060015163ffffffff16826060015163ffffffff1610612c70576060820151612c67906001615302565b92505050610960565b6060810151612c67906001615302565b6040805160c081018252600080825260208201819052918101829052606081018290526080810182905260a0810182905290612cbc8585612f61565b90506000612ccb878386612ffc565b979650505050505050565b6000828152601b6020908152604080832080546001600160a01b03191690556001600160a01b0384168352601c909152902054612d1590600190614b9a565b6001600160a01b0382166000908152601c6020526040902055612d3782613290565b806001600160a01b03167fc7b64cadc933e9668a02ac176a26f449d9d98b90181758d8bc600850d447d41383604051612d7091906145a7565b60405180910390a25050565b6000818152600260205260409020546060906001600160a01b0316612db35760405162461bcd60e51b8152600401610a2c90615384565b6000612dca60408051602081019091526000815290565b90506000815111612dea5760405180602001604052806000815250612e15565b80612df4846132d0565b604051602001612e05929190615036565b6040516020818303038152906040525b9392505050565b600080612e27612f08565b90506000612e356005613402565b9050612e42816003615394565b90508115612e6157612e5760ff821685615244565b611f729085614bb1565b6000612e7060ff831686615244565b9050848114612e835761270f8186614b9a565b50929392505050565b60008082841115612ecc576000612ea585612710615244565b9050612eb181856153b5565b9050612ebf6103e882615244565b600a93509150612f019050565b6000612eda84612710615244565b9050612ee681866153b5565b9050612ef46103e882615244565b9250600a9150612f019050565b9250929050565b60006015546001612f199190614bb1565b6015819055604051600091600291612f389142914491906020016153d4565b6040516020818303038152906040528051906020012060001c612f5b9190615402565b11905090565b6000806000806000612f7287613474565b9350935093509350600080600080612f898a613474565b93509350935093506000612fa18986600460026134ef565b90506000612fb38986600260016134ef565b90506000612fc58986600360016134ef565b90506000612fd78986600460026134ef565b90506000612fe7858585856135c3565b9d505050505050505050505050505092915050565b6040805160c081018252600080825260208201819052918101829052606081018290526080810182905260a081019190915260006040518060c001604052808681526020018581526020016130508661361b565b815263ffffffff851660208201526000604082018190526060909101529150509392505050565b6119f78282604051806020016040528060008152506136a4565b606060008060006130a585602001516136d7565b9250925092506130ee6040518060c0016040528088815260200187604001518152602001876060015163ffffffff1681526020018581526020018481526020018381525061376f565b9695505050505050565b6000828152600260205260409020546001600160a01b031661312c5760405162461bcd60e51b8152600401610a2c9061546e565b60008281526006602090815260409091208251610af0928401906140ad565b60006001600160a01b0384163b15613288576040517f150b7a020000000000000000000000000000000000000000000000000000000081526001600160a01b0385169063150b7a02906131a890339089908890889060040161547e565b6020604051808303816000875af19250505080156131e3575060408051601f3d908101601f191682019092526131e0918101906154c3565b60015b61323d573d808015613211576040519150601f19603f3d011682016040523d82523d6000602084013e613216565b606091505b5080516132355760405162461bcd60e51b8152600401610a2c906152f2565b805181602001fd5b7fffffffff00000000000000000000000000000000000000000000000000000000167f150b7a0200000000000000000000000000000000000000000000000000000000149050611f72565b506001611f72565b61329981613782565b600081815260066020526040902080546132b29061492f565b15905061169457600081815260066020526040812061169491614131565b60608161331057505060408051808201909152600181527f3000000000000000000000000000000000000000000000000000000000000000602082015290565b8160005b811561333a578061332481614bdf565b91506133339050600a83615244565b9150613314565b60008167ffffffffffffffff81111561335557613355614725565b6040519080825280601f01601f19166020018201604052801561337f576020820181803683370190505b5090505b8415611f7257613394600183614b9a565b91506133a1600a86615402565b6133ac906030614bb1565b60f81b8183815181106133c1576133c1614bc9565b60200101907effffffffffffffffffffffffffffffffffffffffffffffffffffffffffffff1916908160001a9053506133fb600a86615244565b9450613383565b6000808260ff16116134265760405162461bcd60e51b8152600401610a2c90615516565b601554613434906001614bb1565b601581905560405160ff84169161345191429144916020016153d4565b6040516020818303038152906040528051906020012060001c6109609190615402565b6000808080848161348761271083615402565b905061349561271083615244565b915060006134a4606484615402565b90506134b1606484615244565b925060006134c0606485615402565b90506134cd606485615244565b935060006134dd61271086615402565b9a919950919750919550909350505050565b60008060016134ff856002615634565b6135099190614b9a565b9050600061351884600a615634565b905060006135268289615402565b90506000613534838a615244565b90506000613542848a615402565b90506000613550858b615244565b9050600061355f84868961381d565b9050600061356e83858a61381d565b9050600061357a61384e565b1561359b578161358a89856153b5565b6135949190614bb1565b90506135b2565b6135a588836153b5565b6135af9084614bb1565b90505b9d9c50505050505050505050505050565b6000806135d08382614bb1565b90506135de846127106153b5565b6135e89082614bb1565b90506135f785620f42406153b5565b6136019082614bb1565b9050613611866305f5e1006153b5565b6130ee9082614bb1565b600080606461362c61271085615402565b6136369190615244565b90506000620186a061364b620f424086615402565b6136559190615244565b905060006298968061366b6305f5e10087615402565b6136759190615244565b9050600082613685856001614bb1565b61368f9190614bb1565b61369a836001614bb1565b6130ee91906153b5565b6136ae838361387e565b6136bb600084848461314b565b610af05760405162461bcd60e51b8152600401610a2c906152f2565b60008080836136e861271082615244565b905060006136f7606483615402565b90506000613706600a83615244565b9050613713606484615244565b92506000613722606485615402565b90506000613731600a83615244565b905061373e606486615244565b9450600061374e61271087615402565b9050600061375d606483615244565b9b929a50939850909650505050505050565b606061096061377d83613960565b6139cf565b600061378d8261145b565b905061379a6000836122f0565b6001600160a01b03811660009081526003602052604081208054600192906137c3908490614b9a565b909155505060008281526002602052604080822080546001600160a01b0319169055518391906001600160a01b038416907fddf252ad1be2c89b69c2b068fc378daa952ba7f163c4a11628f55a4df523b3ef908390a45050565b600080613828613db0565b15613834575083613837565b50825b61383f613e0f565b15611f725761270f8184613e4a565b6000601154600161385f9190614bb1565b6011819055604051600091600291612f389142914491906020016153d4565b6001600160a01b0382166138a45760405162461bcd60e51b8152600401610a2c90615673565b6000818152600260205260409020546001600160a01b0316156138d95760405162461bcd60e51b8152600401610a2c906156b5565b6001600160a01b0382166000908152600360205260408120805460019290613902908490614bb1565b909155505060008181526002602052604080822080546001600160a01b0319166001600160a01b03861690811790915590518392907fddf252ad1be2c89b69c2b068fc378daa952ba7f163c4a11628f55a4df523b3ef908290a45050565b606061396f82600001516132d0565b613986836060015184608001518560a00151613e6e565b6139a78460200151856040015186608001518760a001518860600151613ef0565b6040516020016139b993929190615741565b6040516020818303038152906040529050919050565b606060008290506000600382516139e69190615402565b9050600060036139f68382614b9a565b613a009190615402565b600384516002613a109190614bb1565b613a1a9190615244565b613a259060046153b5565b613a2f9190614b9a565b905060008167ffffffffffffffff811115613a4c57613a4c614725565b6040519080825280601f01601f191660200182016040528015613a76576020820181803683370190505b5090506000805b8551613a8a836003614bb1565b11613c3457613af9868381518110613aa457613aa4614bc9565b016020015160f81c87613ab8856001614bb1565b81518110613ac857613ac8614bc9565b016020015160f81c88613adc866002614bb1565b81518110613aec57613aec614bc9565b016020015160f81c613f92565b868581518110613b0b57613b0b614bc9565b0160200187613b1b876001614bb1565b81518110613b2b57613b2b614bc9565b0160200188613b3b886002614bb1565b81518110613b4b57613b4b614bc9565b0160200189613b5b896003614bb1565b81518110613b6b57613b6b614bc9565b7fff00000000000000000000000000000000000000000000000000000000000000861660001a9101602001537fff00000000000000000000000000000000000000000000000000000000000000851660001a90537fff00000000000000000000000000000000000000000000000000000000000000851660001a90537fff00000000000000000000000000000000000000000000000000000000000000851660001a905350505050600481613c209190614bb1565b9050613c2d600383614bb1565b9150613a7d565b8415613da457600086868851613c4a9190614b9a565b81518110613c5a57613c5a614bc9565b016020015160f81c905060006002871415613c99578760018951613c7e9190614b9a565b81518110613c8e57613c8e614bc9565b016020015160f81c90505b600080600080613cb18660ff168660ff166000613f92565b935093509350935083898881518110613ccc57613ccc614bc9565b60200101907effffffffffffffffffffffffffffffffffffffffffffffffffffffffffffff1916908160001a9053508289613d08896001614bb1565b81518110613d1857613d18614bc9565b60200101907effffffffffffffffffffffffffffffffffffffffffffffffffffffffffffff1916908160001a9053508a60021415613d9d578189613d5d896002614bb1565b81518110613d6d57613d6d614bc9565b60200101907effffffffffffffffffffffffffffffffffffffffffffffffffffffffffffff1916908160001a9053505b5050505050505b50909695505050505050565b60006011546001613dc19190614bb1565b601181905560145460405160ff90911691606491613de69142914491906020016153d4565b6040516020818303038152906040528051906020012060001c613e099190615402565b10905090565b60006011546001613e209190614bb1565b60118190556014546040516201000090910460ff1691606491613de69142914491906020016153d4565b600081831415613e5c57506000610960565b613e67836001614bb1565b9050610960565b6060611f72600f8581548110613e8657613e86614bc9565b9060005260206000200160108481548110613ea357613ea3614bc9565b90600052602060002001600d8681548110613ec057613ec0614bc9565b90600052602060002001604051602001613edc939291906158d6565b6040516020818303038152906040526139cf565b60606000613efd876132d0565b613f0c8763ffffffff166132d0565b600d8781548110613f1f57613f1f614bc9565b90600052602060002001600e8781548110613f3c57613f3c614bc9565b90600052602060002001600c8781548110613f5957613f59614bc9565b90600052602060002001604051602001613f77959493929190615cee565b60408051808303601f19018152919052979650505050505050565b60408051606081018252818152600091829182918291601089901b600889901b17871791603f601284901c811692600c85901c821692600686901c83169286169190615dd360208301398481518110613fed57613fed614bc9565b602001015160f81c60f81b9850604051806060016040528060408152602001615dd360409139838151811061402457614024614bc9565b602001015160f81c60f81b9750604051806060016040528060408152602001615dd360409139828151811061405b5761405b614bc9565b602001015160f81c60f81b9650604051806060016040528060408152602001615dd360409139818151811061409257614092614bc9565b602001015160f81c60f81b9550505050505093509350935093565b8280546140b99061492f565b90600052602060002090601f0160209004810192826140db5760008555614121565b82601f106140f457805160ff1916838001178555614121565b82800160010185558215614121579182015b82811115614121578251825591602001919060010190614106565b5061412d929150614167565b5090565b50805461413d9061492f565b6000825580601f1061414d575050565b601f01602090049060005260206000209081019061169491905b5b8082111561412d5760008155600101614168565b7fffffffff0000000000000000000000000000000000000000000000000000000081165b811461169457600080fd5b80356109608161417c565b6000602082840312156141cb576141cb600080fd5b6000611f7284846141ab565b8015155b82525050565b6020810161096082846141d7565b60005b8381101561420a5781810151838201526020016141f2565b838111156112975750506000910152565b6000614225825190565b80845260208401935061423c8185602086016141ef565b601f01601f19169290920192915050565b60208082528101612e15818461421b565b806141a0565b80356109608161425e565b60006020828403121561428457614284600080fd5b6000611f728484614264565b60006001600160a01b038216610960565b6141db81614290565b6020810161096082846142a1565b6141a081614290565b8035610960816142b8565b600080604083850312156142e2576142e2600080fd5b60006142ee85856142c1565b92505060206142ff85828601614264565b9150509250929050565b60008060006060848603121561432157614321600080fd5b600061432d86866142c1565b935050602061433e86828701614264565b925050604061434f868287016142c1565b9150509250925092565b806141db565b805161436b8382614359565b50602081015161437e60208401826142a1565b5060408101516143916040840182614359565b5060608101516143a46060840182614359565b5060808101516143b760808401826142a1565b5060a08101516143ca60a08401826142a1565b5060c08101516143dd60c0840182614359565b5060e0810151610af060e08401826141d7565b6143fa828261435f565b506101000190565b60200190565b6000614412825190565b808452602093840193830160005b8281101561444557815161443487826143f0565b965050602082019150600101614420565b5093949350505050565b60208082528101612e158184614408565b60006020828403121561447557614475600080fd5b6000611f7284846142c1565b60008060006060848603121561449957614499600080fd5b60006144a586866142c1565b93505060206144b6868287016142c1565b925050604061434f86828701614264565b63ffffffff81166141db565b61ffff81166141db565b80516144e98382614359565b5060208101516144fc6020840182614359565b50604081015161450f6040840182614359565b50606081015161452260608401826144c7565b50608081015161453560808401826144d3565b5060a0810151610af060a08401826144d3565b61455282826144dd565b5060c00190565b6000614563825190565b808452602093840193830160005b828110156144455781516145858782614548565b965050602082019150600101614571565b60208082528101612e158184614559565b602081016109608284614359565b60c081016145c38289614359565b6145d06020830188614359565b6145dd6040830187614359565b6145ea60608301866144c7565b6145f760808301856144d3565b612ccb60a08301846144d3565b60c0810161096082846144dd565b6000806040838503121561462857614628600080fd5b60006142ee8585614264565b6000806040838503121561464a5761464a600080fd5b60006146568585614264565b92505060206142ff858286016142c1565b600080600080600060a0868803121561468257614682600080fd5b600061468e88886142c1565b955050602061469f88828901614264565b94505060406146b088828901614264565b93505060606146c188828901614264565b92505060806146d2888289016142c1565b9150509295509295909350565b8015156141a0565b8035610960816146df565b6000806040838503121561470857614708600080fd5b600061471485856142c1565b92505060206142ff858286016146e7565b634e487b7160e01b600052604160045260246000fd5b601f19601f830116810181811067ffffffffffffffff8211171561476157614761614725565b6040525050565b600061477360405190565b905061477f828261473b565b919050565b600067ffffffffffffffff82111561479e5761479e614725565b601f19601f83011660200192915050565b82818337506000910152565b60006147ce6147c984614784565b614768565b9050828152602081018484840111156147e9576147e9600080fd5b6147f48482856147af565b509392505050565b600082601f83011261481057614810600080fd5b8135611f728482602086016147bb565b6000806000806080858703121561483957614839600080fd5b600061484587876142c1565b9450506020614856878288016142c1565b935050604061486787828801614264565b925050606085013567ffffffffffffffff81111561488757614887600080fd5b614893878288016147fc565b91505092959194509250565b600080600080608085870312156148b8576148b8600080fd5b60006148c487876142c1565b94505060206148d587828801614264565b93505060406148e687828801614264565b9250506060614893878288016142c1565b6000806040838503121561490d5761490d600080fd5b600061465685856142c1565b634e487b7160e01b600052602260045260246000fd5b60028104600182168061494357607f821691505b6020821081141561495657614956614919565b50919050565b602c8152602081017f4552433732313a20617070726f76656420717565727920666f72206e6f6e657881527f697374656e7420746f6b656e0000000000000000000000000000000000000000602082015290505b60400190565b602080825281016109608161495c565b60218152602081017f4552433732313a20617070726f76616c20746f2063757272656e74206f776e6581527f7200000000000000000000000000000000000000000000000000000000000000602082015290506149b0565b60208082528101610960816149c6565b60388152602081017f4552433732313a20617070726f76652063616c6c6572206973206e6f74206f7781527f6e6572206e6f7220617070726f76656420666f7220616c6c0000000000000000602082015290506149b0565b6020808252810161096081614a2e565b601f8152602081017f5265656e7472616e637947756172643a207265656e7472616e742063616c6c0081529050614402565b6020808252810161096081614a96565b600f8152602081017f4f6e6c792067616d65206974656d73000000000000000000000000000000000081529050614402565b6020808252810161096081614ad8565b600a8152602081017f4f6e6c79206f776e65720000000000000000000000000000000000000000000081529050614402565b6020808252810161096081614b1a565b60608101614b6a82866142a1565b614b7760208301856142a1565b611f726040830184614359565b634e487b7160e01b600052601160045260246000fd5b600082821015614bac57614bac614b84565b500390565b60008219821115614bc457614bc4614b84565b500190565b634e487b7160e01b600052603260045260246000fd5b6000600019821415614bf357614bf3614b84565b5060010190565b60318152602081017f4552433732313a207472616e736665722063616c6c6572206973206e6f74206f81527f776e6572206e6f7220617070726f766564000000000000000000000000000000602082015290506149b0565b6020808252810161096081614bfa565b60198152602081017f4f6e6c792073776f7264206f776e65722063616e2063616c6c0000000000000081529050614402565b6020808252810161096081614c62565b600e8152602081017f4e6f7420656e6f7567682066656500000000000000000000000000000000000081529050614402565b6020808252810161096081614ca4565b8051614cf283826141d7565b506020810151614d056020840182614359565b506040810151614d186040840182614359565b506060810151614d2b6060840182614359565b506080810151614d3e6080840182614359565b5060a0810151610af060a08401826141d7565b60c081016109608284614ce6565b60208082527f4f776e61626c653a2063616c6c6572206973206e6f7420746865206f776e65729101908152614402565b6020808252810161096081614d5f565b60298152602081017f4552433732313a206f776e657220717565727920666f72206e6f6e657869737481527f656e7420746f6b656e0000000000000000000000000000000000000000000000602082015290506149b0565b6020808252810161096081614d9f565b60148152602081017f53776f726420646f6573206e6f7420657869737400000000000000000000000081529050614402565b6020808252810161096081614e07565b602a8152602081017f4552433732313a2062616c616e636520717565727920666f7220746865207a6581527f726f206164647265737300000000000000000000000000000000000000000000602082015290506149b0565b6020808252810161096081614e49565b60188152602081017f53686f756c64206e6f74206f776e20616e792073776f7264000000000000000081529050614402565b6020808252810161096081614eb1565b601c8152602081017f5072696365206d757374206265206174206c656173742031207765690000000081529050614402565b6020808252810161096081614ef3565b60808101614f4382876142a1565b614f5060208301866142a1565b614f5d6040830185614359565b61270f60608301846141d7565b60188152602081017f53776f726473206d75737420626520646966666572656e74000000000000000081529050614402565b6020808252810161096081614f6a565b60318152602081017f45524337323155524953746f726167653a2055524920717565727920666f722081527f6e6f6e6578697374656e7420746f6b656e000000000000000000000000000000602082015290506149b0565b6020808252810161096081614fac565b600061501e825190565b61502c8185602086016141ef565b9290920192915050565b6150408184615014565b9050612e158183615014565b60198152602081017f41736b696e67207072696365206973206e6f7420657175616c0000000000000081529050614402565b602080825281016109608161504c565b60268152602081017f4f776e61626c653a206e6577206f776e657220697320746865207a65726f206181527f6464726573730000000000000000000000000000000000000000000000000000602082015290506149b0565b602080825281016109608161508e565b602c8152602081017f4552433732313a206f70657261746f7220717565727920666f72206e6f6e657881527f697374656e7420746f6b656e0000000000000000000000000000000000000000602082015290506149b0565b60208082528101610960816150f6565b60298152602081017f4552433732313a207472616e73666572206f6620746f6b656e2074686174206981527f73206e6f74206f776e0000000000000000000000000000000000000000000000602082015290506149b0565b602080825281016109608161515e565b60248152602081017f4552433732313a207472616e7366657220746f20746865207a65726f2061646481527f7265737300000000000000000000000000000000000000000000000000000000602082015290506149b0565b60208082528101610960816151c6565b634e487b7160e01b600052601260045260246000fd5b6000826152535761525361522e565b500490565b60198152602081017f4552433732313a20617070726f766520746f2063616c6c65720000000000000081529050614402565b6020808252810161096081615258565b60328152602081017f4552433732313a207472616e7366657220746f206e6f6e20455243373231526581527f63656976657220696d706c656d656e7465720000000000000000000000000000602082015290506149b0565b602080825281016109608161529a565b63ffffffff8116905063ffffffff8216915060008263ffffffff03821115614bc457614bc4614b84565b602f8152602081017f4552433732314d657461646174613a2055524920717565727920666f72206e6f81527f6e6578697374656e7420746f6b656e0000000000000000000000000000000000602082015290506149b0565b602080825281016109608161532c565b60ff8116905060ff8216915060008260ff03821115614bc457614bc4614b84565b60008160001904831182151516156153cf576153cf614b84565b500290565b6153de8185614359565b6020016153eb8184614359565b6020016153f88183614359565b6020019392505050565b6000826154115761541161522e565b500690565b602e8152602081017f45524337323155524953746f726167653a2055524920736574206f66206e6f6e81527f6578697374656e7420746f6b656e000000000000000000000000000000000000602082015290506149b0565b6020808252810161096081615416565b6080810161548c82876142a1565b61549960208301866142a1565b6154a66040830185614359565b81810360608301526130ee818461421b565b80516109608161417c565b6000602082840312156154d8576154d8600080fd5b6000611f7284846154b8565b60168152602081017f5570706572206c696d69742073686f756c64203e20300000000000000000000081529050614402565b60208082528101610960816154e4565b80825b60018511156155655780860481111561554457615544614b84565b600185161561555257908102905b800261555e8560011c90565b9450615529565b94509492505050565b60008261557d57506001612e15565b8161558a57506000612e15565b81600181146155a057600281146155aa576155d7565b6001915050612e15565b60ff8411156155bb576155bb614b84565b8360020a9150848211156155d1576155d1614b84565b50612e15565b5060208310610133831016604e8410600b841016171561560a575081810a8381111561560557615605614b84565b612e15565b6156178484846001615526565b9250905081840481111561562d5761562d614b84565b0292915050565b6000612e15600019848461556e565b60208082527f4552433732313a206d696e7420746f20746865207a65726f20616464726573739101908152614402565b6020808252810161096081615643565b601c8152602081017f4552433732313a20746f6b656e20616c7265616479206d696e7465640000000081529050614402565b6020808252810161096081615683565b7f272c00000000000000000000000000000000000000000000000000000000000081525b60020190565b7f270000000000000000000000000000000000000000000000000000000000000081525b60010190565b7f7d000000000000000000000000000000000000000000000000000000000000008152615713565b7f7b276e616d65273a202753776f7264202300000000000000000000000000000081526011016157718185615014565b905061577c816156c5565b7f276465736372697074696f6e273a20275468697320697320616e204e4654207481527f686174206c6574732070656f706c6520706c617920696e207468652067616d6560208201527f204d657267652053776f72647321272c0000000000000000000000000000000060408201527f27696d616765273a2027646174613a696d6167652f7376672b786d6c3b62617360508201527f6536342c00000000000000000000000000000000000000000000000000000000607082015260740190506158468184615014565b9050615851816156ef565b905061585d8183615014565b9050611f7281615719565b600081546158758161492f565b60018216801561588c576001811461589d576158cd565b60ff198316865281860193506158cd565b60008581526020902060005b838110156158c5578154888201526001909101906020016158a9565b505081860193505b50505092915050565b7f3c73766720786d6c6e733d27687474703a2f2f7777772e77332e6f72672f323081527f30302f73766727207072657365727665417370656374526174696f3d27784d6960208201527f6e594d696e206d656574272076696577426f783d27302030203335302033353060408201527f273e3c7374796c653e2e626173657b66696c6c3a00000000000000000000000060608201526074016159788185615868565b7f3b666f6e742d66616d696c793a73657269663b666f6e742d73697a653a32347081527f783b7061696e742d6f726465723a7374726f6b653b7374726f6b653a2366666660208201527f6666663b7374726f6b652d77696474683a312e3570783b7d3c2f7374796c653e60408201527f3c726563742077696474683d273130302527206865696768743d27313030252760608201527f2066696c6c3d270000000000000000000000000000000000000000000000000060808201526087019050615a428184615868565b7f27202f3e3c7465787420783d273530252720793d273530252720636c6173733d81527f27626173652720646f6d696e616e742d626173656c696e653d276d6964646c6560208201527f2720746578742d616e63686f723d276d6964646c65273e00000000000000000060408201526057019050615ac08183615868565b7f3c2f746578743e3c2f7376673e0000000000000000000000000000000000000081529050600d8101611f72565b7f5b000000000000000000000000000000000000000000000000000000000000008152615713565b7f7b202774726169745f74797065273a202741747461636b20506f776572272c2081527f20202776616c7565273a2027000000000000000000000000000000000000000060208201525b602c0190565b7f277d00000000000000000000000000000000000000000000000000000000000081526156e9565b7f7b202774726169745f74797065273a202747656e65726174696f6e272c20202081527f20202776616c756527203a2700000000000000000000000000000000000000006020820152615b60565b7f7b202774726169745f74797065273a202753776f72642054797065272c20202081527f20202776616c756527203a2700000000000000000000000000000000000000006020820152615b60565b7f7b202774726169745f74797065273a202753776f7264204d6174657269616c2781527f2c202776616c756527203a2700000000000000000000000000000000000000006020820152615b60565b7f7b202774726169745f74797065273a202748696c7420436f6c6f72272c20202081527f20202776616c756527203a2700000000000000000000000000000000000000006020820152615b60565b7f5d000000000000000000000000000000000000000000000000000000000000008152615713565b7f2761747472696275746573273a200000000000000000000000000000000000008152600e01615d1d81615aee565b9050615d2881615b16565b9050615d348187615014565b9050615d3f81615b66565b9050615d4a81615b8e565b9050615d568186615014565b9050615d6181615b66565b9050615d6c81615bdc565b9050615d788185615868565b9050615d8381615b66565b9050615d8e81615c2a565b9050615d9a8184615868565b9050615da581615b66565b9050615db081615c78565b9050615dbc8183615868565b9050615dc781615b66565b90506130ee81615cc656fe4142434445464748494a4b4c4d4e4f505152535455565758595a6162636465666768696a6b6c6d6e6f707172737475767778797a303132333435363738392d5fa26469706673582212205039a37ca7b12c2d2b5c059b5126e6fa89f256b7b96548c7211fa8f3c37b971264736f6c634300080a0033",
  "immutableReferences": {},
  "source": "// SPDX-License-Identifier: MIT\npragma solidity >=0.4.22 <0.9.0;\n\nimport \"@openzeppelin/contracts/utils/Counters.sol\";\nimport \"@openzeppelin/contracts/token/ERC721/extensions/ERC721URIStorage.sol\";\nimport \"@openzeppelin/contracts/access/Ownable.sol\";\n\nimport \"./SwordAttack.sol\";\nimport \"./NFTMarketplace.sol\";\n\ncontract MergeSwordsToken is ERC721URIStorage, NFTMarketplace, Ownable, SwordAttack {\n  constructor() ERC721(\"MERGESWORDS\", \"SWORD\") {}\n\n  using Counters for Counters.Counter;\n\n  uint256 private basicSwordFee = 0.01 ether;\n  uint256 private mergeFee = 0.005 ether;\n  uint256 private attackFee = 0.001 ether;\n\n  event NewSword(address indexed owner, uint256 id);\n  event BurnSword(address indexed owner, uint256 id);\n  event WonBattle(address indexed owner, AttackLog attackLog);\n  event LostBattle(address indexed owner, AttackLog attackLog);\n\n  Counters.Counter private _tokenIds;\n\n  // stored swords on blockhain\n  Sword[] public swords;\n\n  mapping(uint256 => address) public swordToOwner;\n  mapping(address => uint256) public ownerSwordCount;\n  mapping(uint256 => Sword) public idToSword;\n\n  modifier doesNotOwnSword() {\n    require(ownerSwordCount[msg.sender] == 0, \"Should not own any sword\");\n    _;\n  }\n\n  modifier onlySwordOwner(uint256 _swordId, address _callerAddress) {\n    require(ownerOf(_swordId) == _callerAddress, \"Only sword owner can call\");\n    _;\n  }\n\n  function updateBasicSwordFee(uint256 _fee) external onlyOwner {\n    basicSwordFee = _fee;\n  }\n\n  function updateMergeFee(uint256 _fee) external onlyOwner {\n    mergeFee = _fee;\n  }\n\n  function updateAttackFee(uint256 _fee) external onlyOwner {\n    attackFee = _fee;\n  }\n\n  function getBasicSword() public payable doesNotOwnSword {\n    require(msg.value == basicSwordFee, \"Not enough fee\");\n\n    Sword memory newSword = _createBasicSwordObject(_tokenIds.current());\n\n    _mintSwordFromObject(newSword, msg.sender);\n  }\n\n  function _mintSwordFromObject(Sword memory _newSword, address _senderAddr) internal {\n    swords.push(_newSword);\n\n    _safeMint(_senderAddr, _tokenIds.current());\n\n    // set token uri\n    _setTokenURI(_tokenIds.current(), _generateSwordUri(_tokenIds.current(), _newSword));\n\n    swordToOwner[_tokenIds.current()] = _senderAddr;\n    ownerSwordCount[_senderAddr] = ownerSwordCount[_senderAddr] + 1;\n    idToSword[_tokenIds.current()] = _newSword;\n\n    emit NewSword(_senderAddr, _tokenIds.current());\n\n    _tokenIds.increment();\n  }\n\n  function mergeSwords(uint256 swordOneId, uint256 swordTwoId)\n    public\n    payable\n    onlySwordOwner(swordOneId, msg.sender)\n    onlySwordOwner(swordTwoId, msg.sender)\n  {\n    require(msg.value == mergeFee, \"Not enough fee\");\n    require(swordOneId != swordTwoId, \"Swords must be different\");\n\n    // create a new sword\n    Sword memory newSword = _createFromTwoSwords(\n      _tokenIds.current(),\n      _getSwordDnaFromId(swordOneId),\n      _getSwordDnaFromId(swordTwoId),\n      _calcChildGeneration(swordOneId, swordTwoId)\n    );\n    _mintSwordFromObject(newSword, msg.sender);\n\n    // burn the given sword NFTs\n    _burnSwordNft(swordOneId, msg.sender);\n    _burnSwordNft(swordTwoId, msg.sender);\n  }\n\n  function _burnSwordNft(uint256 _swordId, address _senderAddr) internal {\n    swordToOwner[_swordId] = address(0);\n    ownerSwordCount[_senderAddr] = ownerSwordCount[_senderAddr] - 1;\n\n    _burn(_swordId);\n\n    emit BurnSword(_senderAddr, _swordId);\n  }\n\n  function _getSwordDnaFromId(uint256 _swordId) internal view returns (uint256) {\n    Sword memory sword = idToSword[_swordId];\n    return sword.dna;\n  }\n\n  function _calcChildGeneration(uint256 _parentOneId, uint256 _parentTwoId) internal view returns (uint32) {\n    Sword memory parentOne = idToSword[_parentOneId];\n    Sword memory parentTwo = idToSword[_parentTwoId];\n\n    // select the oldest parent\n    if (parentOne.generation >= parentTwo.generation) {\n      return (parentOne.generation + 1);\n    } else {\n      return (parentTwo.generation + 1);\n    }\n  }\n\n  function battleMonster(uint256 _swordId) public payable onlySwordOwner(_swordId, msg.sender) {\n    require(msg.value == attackFee, \"Not enough fee\");\n    AttackLog memory attackLog = attackMonster(_getAttackPowerFromSwordId(_swordId));\n\n    if (attackLog.didUserWin) {\n      emit WonBattle(msg.sender, attackLog);\n\n      // give a new sword as a reward to user\n      Sword memory sword = _createSimilarSword(_tokenIds.current(), _getSwordDnaFromId(_swordId));\n      _mintSwordFromObject(sword, msg.sender);\n    } else {\n      emit LostBattle(msg.sender, attackLog);\n    }\n  }\n\n  // for deleting unneccessary items\n  function sendSwordToTrash(uint256 _swordId) public onlySwordOwner(_swordId, msg.sender) {\n    _burnSwordNft(_swordId, msg.sender);\n  }\n\n  // direct item transfer between parts\n  function transferToAdress(uint256 _swordId, address _to) public onlySwordOwner(_swordId, msg.sender) {\n    transferFrom(msg.sender, _to, _swordId);\n    swordToOwner[_swordId] = _to;\n    ownerSwordCount[msg.sender] = ownerSwordCount[msg.sender] - 1;\n    ownerSwordCount[_to] = ownerSwordCount[_to] + 1;\n  }\n\n  // the one finishes the game can claim prize\n  function claimPrize(uint256 _swordId) public onlySwordOwner(_swordId, msg.sender) {\n    uint256 attackPower = _getAttackPowerFromSwordId(_swordId);\n    // check if reached max level\n    if (attackPower == 92) {\n      _burnSwordNft(_swordId, msg.sender);\n      payable(msg.sender).transfer(address(this).balance);\n    }\n  }\n\n  function addToMarketPlace(uint256 _swordId, uint256 _price) public {\n    // owner should approve for contract to transfer his NFTs\n    approve(address(this), _swordId);\n    createMarketItem(address(this), _swordId, idToSword[_swordId].dna, _price, msg.sender);\n    swordToOwner[_swordId] = payable(address(0)); // remove from owner\n    ownerSwordCount[msg.sender] = ownerSwordCount[msg.sender] - 1; // decrease sword count\n  }\n\n  function withdrawFromMarketPlace(uint256 _swordId, uint256 _marketId) public {\n    withdrawMarketItem(address(this), _marketId, msg.sender);\n    swordToOwner[_swordId] = payable(msg.sender); // add back to owner\n    ownerSwordCount[msg.sender] = ownerSwordCount[msg.sender] + 1; // increase sword count\n  }\n\n  function buyFromMarketPlace(uint256 _swordId, uint256 _marketId) public payable {\n    createMarketSale(address(this), _marketId, msg.value, msg.sender);\n    swordToOwner[_swordId] = payable(msg.sender); // add to new owner\n    ownerSwordCount[msg.sender] = ownerSwordCount[msg.sender] + 1; // increase sword count\n  }\n\n  function _getAttackPowerFromSwordId(uint256 _swordId) internal view returns (uint256) {\n    Sword memory sword = idToSword[_swordId];\n    return sword.attackPower;\n  }\n\n  // getters\n  function getUserSwordCount(address _user) public view returns (uint256) {\n    return ownerSwordCount[_user];\n  }\n\n  function getUserSwords(address _user) public view returns (Sword[] memory) {\n    Sword[] memory userSwords = new Sword[](ownerSwordCount[_user]);\n    uint256 counter;\n    for (uint256 i = 0; i < swords.length; i++) {\n      if (swordToOwner[i] == _user) {\n        userSwords[counter] = swords[i];\n        counter++;\n      }\n    }\n    return userSwords;\n  }\n\n  function getSwordFromId(uint256 _id) public view returns (Sword memory) {\n    require(_id < _tokenIds.current(), \"Sword does not exist\");\n    return idToSword[_id];\n  }\n}\n",
  "sourcePath": "/home/gorkem/Web3/ETH/merge-swords/contracts/MergeSwordsToken.sol",
  "compiler": {
    "name": "solc",
    "version": "0.8.10+commit.fc410830.Emscripten.clang"
  },
  "schemaVersion": "3.4.3",
  "updatedAt": "2022-02-08T12:47:09.110Z",
  "networkType": "ethereum",
  "devdoc": {
    "kind": "dev",
    "methods": {
      "approve(address,uint256)": {
        "details": "See {IERC721-approve}."
      },
      "balanceOf(address)": {
        "details": "See {IERC721-balanceOf}."
      },
      "getApproved(uint256)": {
        "details": "See {IERC721-getApproved}."
      },
      "isApprovedForAll(address,address)": {
        "details": "See {IERC721-isApprovedForAll}."
      },
      "name()": {
        "details": "See {IERC721Metadata-name}."
      },
      "owner()": {
        "details": "Returns the address of the current owner."
      },
      "ownerOf(uint256)": {
        "details": "See {IERC721-ownerOf}."
      },
      "renounceOwnership()": {
        "details": "Leaves the contract without owner. It will not be possible to call `onlyOwner` functions anymore. Can only be called by the current owner. NOTE: Renouncing ownership will leave the contract without an owner, thereby removing any functionality that is only available to the owner."
      },
      "safeTransferFrom(address,address,uint256)": {
        "details": "See {IERC721-safeTransferFrom}."
      },
      "safeTransferFrom(address,address,uint256,bytes)": {
        "details": "See {IERC721-safeTransferFrom}."
      },
      "setApprovalForAll(address,bool)": {
        "details": "See {IERC721-setApprovalForAll}."
      },
      "supportsInterface(bytes4)": {
        "details": "See {IERC165-supportsInterface}."
      },
      "symbol()": {
        "details": "See {IERC721Metadata-symbol}."
      },
      "tokenURI(uint256)": {
        "details": "See {IERC721Metadata-tokenURI}."
      },
      "transferFrom(address,address,uint256)": {
        "details": "See {IERC721-transferFrom}."
      },
      "transferOwnership(address)": {
        "details": "Transfers ownership of the contract to a new account (`newOwner`). Can only be called by the current owner."
      }
    },
    "version": 1
  },
  "userdoc": {
    "kind": "user",
    "methods": {},
    "version": 1
  }
}