{
  "contractName": "MergeSwordsToken",
  "abi": [
    {
      "inputs": [],
      "stateMutability": "nonpayable",
      "type": "constructor"
    },
    {
      "anonymous": false,
      "inputs": [
        {
          "indexed": true,
          "internalType": "address",
          "name": "owner",
          "type": "address"
        },
        {
          "indexed": true,
          "internalType": "address",
          "name": "approved",
          "type": "address"
        },
        {
          "indexed": true,
          "internalType": "uint256",
          "name": "tokenId",
          "type": "uint256"
        }
      ],
      "name": "Approval",
      "type": "event"
    },
    {
      "anonymous": false,
      "inputs": [
        {
          "indexed": true,
          "internalType": "address",
          "name": "owner",
          "type": "address"
        },
        {
          "indexed": true,
          "internalType": "address",
          "name": "operator",
          "type": "address"
        },
        {
          "indexed": false,
          "internalType": "bool",
          "name": "approved",
          "type": "bool"
        }
      ],
      "name": "ApprovalForAll",
      "type": "event"
    },
    {
      "anonymous": false,
      "inputs": [
        {
          "indexed": true,
          "internalType": "address",
          "name": "owner",
          "type": "address"
        },
        {
          "indexed": false,
          "internalType": "uint256",
          "name": "id",
          "type": "uint256"
        }
      ],
      "name": "BurnSword",
      "type": "event"
    },
    {
      "anonymous": false,
      "inputs": [
        {
          "indexed": true,
          "internalType": "address",
          "name": "owner",
          "type": "address"
        },
        {
          "components": [
            {
              "internalType": "uint8",
              "name": "attacker",
              "type": "uint8"
            },
            {
              "internalType": "uint8",
              "name": "dealtDamage",
              "type": "uint8"
            },
            {
              "internalType": "uint8",
              "name": "remainingUserHealth",
              "type": "uint8"
            },
            {
              "internalType": "uint8",
              "name": "remainingMonsterHealth",
              "type": "uint8"
            }
          ],
          "indexed": false,
          "internalType": "struct SwordAttack.AttackLog[]",
          "name": "attackLog",
          "type": "tuple[]"
        }
      ],
      "name": "LostBattle",
      "type": "event"
    },
    {
      "anonymous": false,
      "inputs": [
        {
          "indexed": true,
          "internalType": "address",
          "name": "owner",
          "type": "address"
        },
        {
          "indexed": false,
          "internalType": "uint256",
          "name": "id",
          "type": "uint256"
        }
      ],
      "name": "NewSword",
      "type": "event"
    },
    {
      "anonymous": false,
      "inputs": [
        {
          "indexed": true,
          "internalType": "address",
          "name": "previousOwner",
          "type": "address"
        },
        {
          "indexed": true,
          "internalType": "address",
          "name": "newOwner",
          "type": "address"
        }
      ],
      "name": "OwnershipTransferred",
      "type": "event"
    },
    {
      "anonymous": false,
      "inputs": [
        {
          "indexed": true,
          "internalType": "address",
          "name": "from",
          "type": "address"
        },
        {
          "indexed": true,
          "internalType": "address",
          "name": "to",
          "type": "address"
        },
        {
          "indexed": true,
          "internalType": "uint256",
          "name": "tokenId",
          "type": "uint256"
        }
      ],
      "name": "Transfer",
      "type": "event"
    },
    {
      "anonymous": false,
      "inputs": [
        {
          "indexed": true,
          "internalType": "address",
          "name": "owner",
          "type": "address"
        },
        {
          "components": [
            {
              "internalType": "uint8",
              "name": "attacker",
              "type": "uint8"
            },
            {
              "internalType": "uint8",
              "name": "dealtDamage",
              "type": "uint8"
            },
            {
              "internalType": "uint8",
              "name": "remainingUserHealth",
              "type": "uint8"
            },
            {
              "internalType": "uint8",
              "name": "remainingMonsterHealth",
              "type": "uint8"
            }
          ],
          "indexed": false,
          "internalType": "struct SwordAttack.AttackLog[]",
          "name": "attackLog",
          "type": "tuple[]"
        }
      ],
      "name": "WonBattle",
      "type": "event"
    },
    {
      "inputs": [
        {
          "internalType": "address",
          "name": "to",
          "type": "address"
        },
        {
          "internalType": "uint256",
          "name": "tokenId",
          "type": "uint256"
        }
      ],
      "name": "approve",
      "outputs": [],
      "stateMutability": "nonpayable",
      "type": "function"
    },
    {
      "inputs": [
        {
          "internalType": "uint256",
          "name": "",
          "type": "uint256"
        }
      ],
      "name": "attackLogs",
      "outputs": [
        {
          "internalType": "uint8",
          "name": "attacker",
          "type": "uint8"
        },
        {
          "internalType": "uint8",
          "name": "dealtDamage",
          "type": "uint8"
        },
        {
          "internalType": "uint8",
          "name": "remainingUserHealth",
          "type": "uint8"
        },
        {
          "internalType": "uint8",
          "name": "remainingMonsterHealth",
          "type": "uint8"
        }
      ],
      "stateMutability": "view",
      "type": "function",
      "constant": true
    },
    {
      "inputs": [
        {
          "internalType": "address",
          "name": "owner",
          "type": "address"
        }
      ],
      "name": "balanceOf",
      "outputs": [
        {
          "internalType": "uint256",
          "name": "",
          "type": "uint256"
        }
      ],
      "stateMutability": "view",
      "type": "function",
      "constant": true
    },
    {
      "inputs": [
        {
          "internalType": "uint256",
          "name": "tokenId",
          "type": "uint256"
        }
      ],
      "name": "getApproved",
      "outputs": [
        {
          "internalType": "address",
          "name": "",
          "type": "address"
        }
      ],
      "stateMutability": "view",
      "type": "function",
      "constant": true
    },
    {
      "inputs": [
        {
          "internalType": "uint256",
          "name": "",
          "type": "uint256"
        }
      ],
      "name": "idToSword",
      "outputs": [
        {
          "internalType": "uint256",
          "name": "dna",
          "type": "uint256"
        },
        {
          "internalType": "uint8",
          "name": "attackPower",
          "type": "uint8"
        },
        {
          "internalType": "uint32",
          "name": "generation",
          "type": "uint32"
        },
        {
          "internalType": "uint16",
          "name": "winCount",
          "type": "uint16"
        },
        {
          "internalType": "uint16",
          "name": "lossCount",
          "type": "uint16"
        }
      ],
      "stateMutability": "view",
      "type": "function",
      "constant": true
    },
    {
      "inputs": [
        {
          "internalType": "address",
          "name": "owner",
          "type": "address"
        },
        {
          "internalType": "address",
          "name": "operator",
          "type": "address"
        }
      ],
      "name": "isApprovedForAll",
      "outputs": [
        {
          "internalType": "bool",
          "name": "",
          "type": "bool"
        }
      ],
      "stateMutability": "view",
      "type": "function",
      "constant": true
    },
    {
      "inputs": [],
      "name": "name",
      "outputs": [
        {
          "internalType": "string",
          "name": "",
          "type": "string"
        }
      ],
      "stateMutability": "view",
      "type": "function",
      "constant": true
    },
    {
      "inputs": [],
      "name": "owner",
      "outputs": [
        {
          "internalType": "address",
          "name": "",
          "type": "address"
        }
      ],
      "stateMutability": "view",
      "type": "function",
      "constant": true
    },
    {
      "inputs": [
        {
          "internalType": "uint256",
          "name": "tokenId",
          "type": "uint256"
        }
      ],
      "name": "ownerOf",
      "outputs": [
        {
          "internalType": "address",
          "name": "",
          "type": "address"
        }
      ],
      "stateMutability": "view",
      "type": "function",
      "constant": true
    },
    {
      "inputs": [
        {
          "internalType": "address",
          "name": "",
          "type": "address"
        }
      ],
      "name": "ownerSwordCount",
      "outputs": [
        {
          "internalType": "uint256",
          "name": "",
          "type": "uint256"
        }
      ],
      "stateMutability": "view",
      "type": "function",
      "constant": true
    },
    {
      "inputs": [],
      "name": "renounceOwnership",
      "outputs": [],
      "stateMutability": "nonpayable",
      "type": "function"
    },
    {
      "inputs": [
        {
          "internalType": "address",
          "name": "from",
          "type": "address"
        },
        {
          "internalType": "address",
          "name": "to",
          "type": "address"
        },
        {
          "internalType": "uint256",
          "name": "tokenId",
          "type": "uint256"
        }
      ],
      "name": "safeTransferFrom",
      "outputs": [],
      "stateMutability": "nonpayable",
      "type": "function"
    },
    {
      "inputs": [
        {
          "internalType": "address",
          "name": "from",
          "type": "address"
        },
        {
          "internalType": "address",
          "name": "to",
          "type": "address"
        },
        {
          "internalType": "uint256",
          "name": "tokenId",
          "type": "uint256"
        },
        {
          "internalType": "bytes",
          "name": "_data",
          "type": "bytes"
        }
      ],
      "name": "safeTransferFrom",
      "outputs": [],
      "stateMutability": "nonpayable",
      "type": "function"
    },
    {
      "inputs": [
        {
          "internalType": "address",
          "name": "operator",
          "type": "address"
        },
        {
          "internalType": "bool",
          "name": "approved",
          "type": "bool"
        }
      ],
      "name": "setApprovalForAll",
      "outputs": [],
      "stateMutability": "nonpayable",
      "type": "function"
    },
    {
      "inputs": [
        {
          "internalType": "bytes4",
          "name": "interfaceId",
          "type": "bytes4"
        }
      ],
      "name": "supportsInterface",
      "outputs": [
        {
          "internalType": "bool",
          "name": "",
          "type": "bool"
        }
      ],
      "stateMutability": "view",
      "type": "function",
      "constant": true
    },
    {
      "inputs": [
        {
          "internalType": "uint256",
          "name": "",
          "type": "uint256"
        }
      ],
      "name": "swordToOwner",
      "outputs": [
        {
          "internalType": "address",
          "name": "",
          "type": "address"
        }
      ],
      "stateMutability": "view",
      "type": "function",
      "constant": true
    },
    {
      "inputs": [
        {
          "internalType": "uint256",
          "name": "",
          "type": "uint256"
        }
      ],
      "name": "swords",
      "outputs": [
        {
          "internalType": "uint256",
          "name": "dna",
          "type": "uint256"
        },
        {
          "internalType": "uint8",
          "name": "attackPower",
          "type": "uint8"
        },
        {
          "internalType": "uint32",
          "name": "generation",
          "type": "uint32"
        },
        {
          "internalType": "uint16",
          "name": "winCount",
          "type": "uint16"
        },
        {
          "internalType": "uint16",
          "name": "lossCount",
          "type": "uint16"
        }
      ],
      "stateMutability": "view",
      "type": "function",
      "constant": true
    },
    {
      "inputs": [],
      "name": "symbol",
      "outputs": [
        {
          "internalType": "string",
          "name": "",
          "type": "string"
        }
      ],
      "stateMutability": "view",
      "type": "function",
      "constant": true
    },
    {
      "inputs": [
        {
          "internalType": "uint256",
          "name": "tokenId",
          "type": "uint256"
        }
      ],
      "name": "tokenURI",
      "outputs": [
        {
          "internalType": "string",
          "name": "",
          "type": "string"
        }
      ],
      "stateMutability": "view",
      "type": "function",
      "constant": true
    },
    {
      "inputs": [
        {
          "internalType": "address",
          "name": "from",
          "type": "address"
        },
        {
          "internalType": "address",
          "name": "to",
          "type": "address"
        },
        {
          "internalType": "uint256",
          "name": "tokenId",
          "type": "uint256"
        }
      ],
      "name": "transferFrom",
      "outputs": [],
      "stateMutability": "nonpayable",
      "type": "function"
    },
    {
      "inputs": [
        {
          "internalType": "address",
          "name": "newOwner",
          "type": "address"
        }
      ],
      "name": "transferOwnership",
      "outputs": [],
      "stateMutability": "nonpayable",
      "type": "function"
    },
    {
      "inputs": [
        {
          "internalType": "uint256",
          "name": "_fee",
          "type": "uint256"
        }
      ],
      "name": "updateBasicSwordFee",
      "outputs": [],
      "stateMutability": "nonpayable",
      "type": "function"
    },
    {
      "inputs": [
        {
          "internalType": "uint256",
          "name": "_fee",
          "type": "uint256"
        }
      ],
      "name": "updateMergeFee",
      "outputs": [],
      "stateMutability": "nonpayable",
      "type": "function"
    },
    {
      "inputs": [
        {
          "internalType": "uint256",
          "name": "_fee",
          "type": "uint256"
        }
      ],
      "name": "updateAttackFee",
      "outputs": [],
      "stateMutability": "nonpayable",
      "type": "function"
    },
    {
      "inputs": [],
      "name": "getBasicSword",
      "outputs": [],
      "stateMutability": "payable",
      "type": "function",
      "payable": true
    },
    {
      "inputs": [
        {
          "internalType": "uint256",
          "name": "swordOneId",
          "type": "uint256"
        },
        {
          "internalType": "uint256",
          "name": "swordTwoId",
          "type": "uint256"
        }
      ],
      "name": "mergeSwords",
      "outputs": [],
      "stateMutability": "payable",
      "type": "function",
      "payable": true
    },
    {
      "inputs": [
        {
          "internalType": "uint256",
          "name": "_swordId",
          "type": "uint256"
        }
      ],
      "name": "battleMonster",
      "outputs": [],
      "stateMutability": "payable",
      "type": "function",
      "payable": true
    }
  ],
  "bytecode": "0x600561028081815264776869746560d81b6102a052608090815260066102c08181526579656c6c6f7760d01b6102e05260a052610300818152656f72616e676560d01b6103205260c0526003610340908152621c995960ea1b6103605260e05261038090815265707572706c6560d01b6103a0526101005260096103c0818152686461726b20626c756560b81b6103e05261012052600461040081815263626c756560e01b6104205261014052600a610440818152696c6967687420626c756560b01b61046052610160526104808581526433b932b2b760d91b6104a052610180526104c0818152693230b9359033b932b2b760b11b6104e0526101a05261050085815264313937bbb760d91b610520526101c052600b6105409081526a3634b3b43a10313937bbb760a91b610560526101e052610580908152696c69676874206772657960b01b6105a052610200526105c0908152636772657960e01b6105e05261022052610600908152686461726b206772657960b81b610620526102405261068060405261064091825264626c61636b60d81b6106605261026091909152620001b0906008906010620007cd565b506040805160c08101825260076080820190815266676c616469757360c81b60a083015281528151808301835260058082526439b0b132b960d91b602083810191909152808401929092528351808501855260068152656b6174616e6160d01b818401528385015283518085019094528352646b6f6e646160d81b9083015260608101919091526200024790600990600462000831565b50604080516101408101825260046101008201818152631ddbdbd960e21b61012084015282528251808401845260058082526473746f6e6560d81b6020838101919091528085019290925284518086018652600681526562726f6e7a6560d01b818401528486015284518086018652908152641cdd19595b60da1b818301526060840152835180850185529182526319dbdb1960e21b82820152608083019190915282518084018452600780825266195b595c985b1960ca1b8284015260a08401919091528351808501855290815266191a585b5bdb9960ca1b8183015260c08301528251808401909352600c83526b636172626f6e2d666962726560a01b9083015260e08101919091526200036290600a90600862000883565b506040805161024081018252600761020082018181526611b3333333333360c91b6102208401528252825180840184528181526611b3333333181960c91b6020828101919091528084019190915283518085018552828152660236666363630360cc1b818301528385015283518085018552828152660236666303030360cc1b818301526060840152835180850185528281526611b3331818333360c91b81830152608084015283518085018552828152660233030303038360cc1b8183015260a084015283518085018552828152661198181818333360c91b8183015260c084015283518085018552828152661198183333333360c91b8183015260e084015283518085018552828152660233030666630360cc1b8183015261010084015283518085018552828152660233030383030360cc1b8183015261012084015283518085018552828152660233830333330360cc1b8183015261014084015283518085018552828152660236434353530360cc1b818301526101608401528351808501855282815266119c989b331b3360c91b8183015261018084015283518085018552828152662336633533353360c81b818301526101a084015283518085018552828152662334383337333760c81b818301526101c08401528351808501909452908352662332343163316360c81b908301526101e08101919091526200056f90600b906010620007cd565b50604080516101408101825260076101008201818152660233830333330360cc1b610120840152825282518084018452818152662361633933393360c81b6020828101919091528084019190915283518085018552828152660236666363630360cc1b818301528385015283518085018552828152662336633533353360c81b81830152606084015283518085018552828152660236666636330360cc1b81830152608084015283518085018552828152660233030383030360cc1b8183015260a084015283518085018552828152661198183333333360c91b8183015260c08401528351808501909452908352662332343163316360c81b9083015260e08101919091526200068490600c90600862000883565b506000600d55600c600e8190556200069e90600a62000aef565b600f556010805462ffffff1916620a1e4617905562015180601155600060125567016345785d8a000060155566b1a2bc2ec50000601655662386f26fc10000601755348015620006ed57600080fd5b50604080518082018252600b81526a4d4552474553574f52445360a81b60208083019182528351808501909452600584526414d5d3d49160da1b9084015281519192916200073e91600091620008d5565b50805162000754906001906020840190620008d5565b505050620007716200076b6200077760201b60201c565b6200077b565b62000b41565b3390565b600780546001600160a01b038381166001600160a01b0319831681179093556040519116919082907f8be0079c531659141344cd1fd0a4f28419497f9722a3daafe3b4186f6b6457e090600090a35050565b8280548282559060005260206000209081019282156200081f579160200282015b828111156200081f57825180516200080e918491602090910190620008d5565b5091602001919060010190620007ee565b506200082d92915062000960565b5090565b8280548282559060005260206000209081019282156200081f579160200282015b828111156200081f578251805162000872918491602090910190620008d5565b509160200191906001019062000852565b8280548282559060005260206000209081019282156200081f579160200282015b828111156200081f5782518051620008c4918491602090910190620008d5565b5091602001919060010190620008a4565b828054620008e39062000b04565b90600052602060002090601f01602090048101928262000907576000855562000952565b82601f106200092257805160ff191683800117855562000952565b8280016001018555821562000952579182015b828111156200095257825182559160200191906001019062000935565b506200082d92915062000981565b808211156200082d57600062000977828262000998565b5060010162000960565b5b808211156200082d576000815560010162000982565b508054620009a69062000b04565b6000825580601f10620009b7575050565b601f016020900490600052602060002090810190620009d7919062000981565b50565b634e487b7160e01b600052601160045260246000fd5b600181815b8085111562000a3157816000190482111562000a155762000a15620009da565b8085161562000a2357918102915b93841c9390800290620009f5565b509250929050565b60008262000a4a5750600162000ae9565b8162000a595750600062000ae9565b816001811462000a72576002811462000a7d5762000a9d565b600191505062000ae9565b60ff84111562000a915762000a91620009da565b50506001821b62000ae9565b5060208310610133831016604e8410600b841016171562000ac2575081810a62000ae9565b62000ace8383620009f0565b806000190482111562000ae55762000ae5620009da565b0290505b92915050565b600062000afd838362000a39565b9392505050565b600181811c9082168062000b1957607f821691505b6020821081141562000b3b57634e487b7160e01b600052602260045260246000fd5b50919050565b613c6e8062000b516000396000f3fe60806040526004361061019c5760003560e01c8063780efa84116100ec578063a2a5f24f1161008a578063c87b56dd11610064578063c87b56dd14610539578063ca60f14e14610559578063e985e9c514610579578063f2fde38b1461059957600080fd5b8063a2a5f24f146104e6578063b88d4fde14610506578063bfefc2941461052657600080fd5b80638da5cb5b116100c65780638da5cb5b1461044657806395d89b4114610464578063a202beee14610479578063a22cb465146104c657600080fd5b8063780efa84146103ae5780637a91fb58146103b657806382d2e857146103ec57600080fd5b80634e319a1c116101595780636653d0f5116101335780636653d0f5146102e55780636c73f1781461033e57806370a0823114610379578063715018a61461039957600080fd5b80634e319a1c146102925780634ed013c8146102a55780636352211e146102c557600080fd5b806301ffc9a7146101a157806306fdde03146101d6578063081812fc146101f8578063095ea7b31461023057806323b872dd1461025257806342842e0e14610272575b600080fd5b3480156101ad57600080fd5b506101c16101bc366004612ee9565b6105b9565b60405190151581526020015b60405180910390f35b3480156101e257600080fd5b506101eb61060b565b6040516101cd9190612f5e565b34801561020457600080fd5b50610218610213366004612f71565b61069d565b6040516001600160a01b0390911681526020016101cd565b34801561023c57600080fd5b5061025061024b366004612fa6565b61072a565b005b34801561025e57600080fd5b5061025061026d366004612fd0565b610840565b34801561027e57600080fd5b5061025061028d366004612fd0565b610871565b6102506102a0366004612f71565b61088c565b3480156102b157600080fd5b506102506102c0366004612f71565b610a04565b3480156102d157600080fd5b506102186102e0366004612f71565b610a33565b3480156102f157600080fd5b50610305610300366004612f71565b610aaa565b6040805195865260ff909416602086015263ffffffff9092169284019290925261ffff918216606084015216608082015260a0016101cd565b34801561034a57600080fd5b5061036b61035936600461300c565b601b6020526000908152604090205481565b6040519081526020016101cd565b34801561038557600080fd5b5061036b61039436600461300c565b610afe565b3480156103a557600080fd5b50610250610b85565b610250610bbb565b3480156103c257600080fd5b506102186103d1366004612f71565b601a602052600090815260409020546001600160a01b031681565b3480156103f857600080fd5b50610305610407366004612f71565b601c602052600090815260409020805460019091015460ff81169063ffffffff6101008204169061ffff600160281b8204811691600160381b90041685565b34801561045257600080fd5b506007546001600160a01b0316610218565b34801561047057600080fd5b506101eb610c52565b34801561048557600080fd5b50610499610494366004612f71565b610c61565b6040805160ff958616815293851660208501529184169183019190915290911660608201526080016101cd565b3480156104d257600080fd5b506102506104e1366004613027565b610ca1565b3480156104f257600080fd5b50610250610501366004612f71565b610cb0565b34801561051257600080fd5b506102506105213660046130d2565b610cdf565b61025061053436600461317d565b610d17565b34801561054557600080fd5b506101eb610554366004612f71565b610deb565b34801561056557600080fd5b50610250610574366004612f71565b610f62565b34801561058557600080fd5b506101c161059436600461319f565b610f91565b3480156105a557600080fd5b506102506105b436600461300c565b610fbf565b60006001600160e01b031982166380ac58cd60e01b14806105ea57506001600160e01b03198216635b5e139f60e01b145b8061060557506301ffc9a760e01b6001600160e01b03198316145b92915050565b60606000805461061a906131d2565b80601f0160208091040260200160405190810160405280929190818152602001828054610646906131d2565b80156106935780601f1061066857610100808354040283529160200191610693565b820191906000526020600020905b81548152906001019060200180831161067657829003601f168201915b5050505050905090565b60006106a882611057565b61070e5760405162461bcd60e51b815260206004820152602c60248201527f4552433732313a20617070726f76656420717565727920666f72206e6f6e657860448201526b34b9ba32b73a103a37b5b2b760a11b60648201526084015b60405180910390fd5b506000908152600460205260409020546001600160a01b031690565b600061073582610a33565b9050806001600160a01b0316836001600160a01b031614156107a35760405162461bcd60e51b815260206004820152602160248201527f4552433732313a20617070726f76616c20746f2063757272656e74206f776e656044820152603960f91b6064820152608401610705565b336001600160a01b03821614806107bf57506107bf8133610f91565b6108315760405162461bcd60e51b815260206004820152603860248201527f4552433732313a20617070726f76652063616c6c6572206973206e6f74206f7760448201527f6e6572206e6f7220617070726f76656420666f7220616c6c00000000000000006064820152608401610705565b61083b8383611074565b505050565b61084a33826110e2565b6108665760405162461bcd60e51b81526004016107059061320d565b61083b8383836111a4565b61083b83838360405180602001604052806000815250610cdf565b80338061089883610a33565b6001600160a01b0316146108be5760405162461bcd60e51b81526004016107059061325e565b60175434146108df5760405162461bcd60e51b815260040161070590613295565b6000838152601c60209081526040808320815160a0810183528154815260019091015460ff811693820184905263ffffffff6101008204169282019290925261ffff600160281b830481166060830152600160381b909204909116608090910152819061094b90611344565b9150915080156109bb57336001600160a01b03167fd940590aa6de74f6c7f9bbe72866dc1f933fe5e3236c01df95e5756a3ad67e378360405161098e91906132bd565b60405180910390a260006109a96109a4876114ce565b611538565b90506109b5813361155b565b506109fd565b336001600160a01b03167fd50af1657d9a2597d27d7616ec28ad2943661e12cfdb6499fefe946aa109e893836040516109f491906132bd565b60405180910390a25b5050505050565b6007546001600160a01b03163314610a2e5760405162461bcd60e51b81526004016107059061332b565b601655565b6000818152600260205260408120546001600160a01b0316806106055760405162461bcd60e51b815260206004820152602960248201527f4552433732313a206f776e657220717565727920666f72206e6f6e657869737460448201526832b73a103a37b5b2b760b91b6064820152608401610705565b60198181548110610aba57600080fd5b60009182526020909120600290910201805460019091015490915060ff81169063ffffffff6101008204169061ffff600160281b8204811691600160381b90041685565b60006001600160a01b038216610b695760405162461bcd60e51b815260206004820152602a60248201527f4552433732313a2062616c616e636520717565727920666f7220746865207a65604482015269726f206164647265737360b01b6064820152608401610705565b506001600160a01b031660009081526003602052604090205490565b6007546001600160a01b03163314610baf5760405162461bcd60e51b81526004016107059061332b565b610bb96000611792565b565b336000908152601b602052604090205415610c185760405162461bcd60e51b815260206004820152601860248201527f53686f756c64206e6f74206f776e20616e792073776f726400000000000000006044820152606401610705565b6015543414610c395760405162461bcd60e51b815260040161070590613295565b6000610c436117e4565b9050610c4f813361155b565b50565b60606001805461061a906131d2565b60138181548110610c7157600080fd5b60009182526020909120015460ff8082169250610100820481169162010000810482169163010000009091041684565b610cac338383611801565b5050565b6007546001600160a01b03163314610cda5760405162461bcd60e51b81526004016107059061332b565b601755565b610ce933836110e2565b610d055760405162461bcd60e51b81526004016107059061320d565b610d11848484846118d0565b50505050565b813380610d2383610a33565b6001600160a01b031614610d495760405162461bcd60e51b81526004016107059061325e565b823380610d5583610a33565b6001600160a01b031614610d7b5760405162461bcd60e51b81526004016107059061325e565b6016543414610d9c5760405162461bcd60e51b815260040161070590613295565b6000610dc2610daa886114ce565b610db3886114ce565b610dbd8a8a611903565b611ac2565b9050610dce813361155b565b610dd88733611aee565b610de28633611aee565b50505050505050565b6060610df682611057565b610e5c5760405162461bcd60e51b815260206004820152603160248201527f45524337323155524953746f726167653a2055524920717565727920666f72206044820152703737b732bc34b9ba32b73a103a37b5b2b760791b6064820152608401610705565b60008281526006602052604081208054610e75906131d2565b80601f0160208091040260200160405190810160405280929190818152602001828054610ea1906131d2565b8015610eee5780601f10610ec357610100808354040283529160200191610eee565b820191906000526020600020905b815481529060010190602001808311610ed157829003601f168201915b505050505090506000610f0c60408051602081019091526000815290565b9050805160001415610f1f575092915050565b815115610f51578082604051602001610f3992919061337c565b60405160208183030381529060405292505050919050565b610f5a84611b95565b949350505050565b6007546001600160a01b03163314610f8c5760405162461bcd60e51b81526004016107059061332b565b601555565b6001600160a01b03918216600090815260056020908152604080832093909416825291909152205460ff1690565b6007546001600160a01b03163314610fe95760405162461bcd60e51b81526004016107059061332b565b6001600160a01b03811661104e5760405162461bcd60e51b815260206004820152602660248201527f4f776e61626c653a206e6577206f776e657220697320746865207a65726f206160448201526564647265737360d01b6064820152608401610705565b610c4f81611792565b6000908152600260205260409020546001600160a01b0316151590565b600081815260046020526040902080546001600160a01b0319166001600160a01b03841690811790915581906110a982610a33565b6001600160a01b03167f8c5be1e5ebec7d5bd14f71427d1e84f3dd0314c0f7b2291e5b200ac8c7c3b92560405160405180910390a45050565b60006110ed82611057565b61114e5760405162461bcd60e51b815260206004820152602c60248201527f4552433732313a206f70657261746f7220717565727920666f72206e6f6e657860448201526b34b9ba32b73a103a37b5b2b760a11b6064820152608401610705565b600061115983610a33565b9050806001600160a01b0316846001600160a01b031614806111945750836001600160a01b03166111898461069d565b6001600160a01b0316145b80610f5a5750610f5a8185610f91565b826001600160a01b03166111b782610a33565b6001600160a01b03161461121f5760405162461bcd60e51b815260206004820152602960248201527f4552433732313a207472616e73666572206f6620746f6b656e2074686174206960448201526839903737ba1037bbb760b91b6064820152608401610705565b6001600160a01b0382166112815760405162461bcd60e51b8152602060048201526024808201527f4552433732313a207472616e7366657220746f20746865207a65726f206164646044820152637265737360e01b6064820152608401610705565b61128c600082611074565b6001600160a01b03831660009081526003602052604081208054600192906112b59084906133c1565b90915550506001600160a01b03821660009081526003602052604081208054600192906112e39084906133d8565b909155505060008181526002602052604080822080546001600160a01b0319166001600160a01b0386811691821790925591518493918716917fddf252ad1be2c89b69c2b068fc378daa952ba7f163c4a11628f55a4df523b3ef91a4505050565b606060008061135260145490565b9050600061135f60145490565b9050606480600061136f88611c6c565b9050600061137d8983611cb5565b9050600061138c8260646133f0565b9050600061139a8b85611cd1565b905060006113a8858d611cd1565b905060006113b4611ce4565b905060005b60008860ff161180156113cf575060008960ff16115b156114ad5760006113e06064611d4b565b9050821561144b578660ff168160ff16111561143e578960ff168560ff161061141057600099506001915061141d565b61141a858b6133f0565b99505b61142a6000868b8d611def565b6114358b6001611eb2565b509115916114a7565b61142a6000808b8d611def565b8560ff168160ff161115611489578860ff168460ff161061146f576000985061147c565b611479848a6133f0565b98505b61142a6001858b8d611def565b611497600160008b8d611def565b6114a28b6001611eb2565b509115915b506113b9565b60006114b98c8c611ebe565b9f919e50909c50505050505050505050505050565b6000908152601c6020908152604091829020825160a081018452815480825260019092015460ff81169382019390935263ffffffff6101008404169381019390935261ffff600160281b830481166060850152600160381b90920490911660809092019190915290565b611540612dd6565b600061154c8384611feb565b90506000610f5a826000612086565b6019805460018101825560009190915282517f944998273e477b495144fb8794c914197f3ccb46be2900f4698fd0ef743c969560029092029182015560208301517f944998273e477b495144fb8794c914197f3ccb46be2900f4698fd0ef743c9696909101805460408501516060860151608087015160ff90951664ffffffffff199093169290921761010063ffffffff909216919091021768ffffffff00000000001916600160281b61ffff9283160261ffff60381b191617600160381b91909316029190911790556018546116339082906120d3565b600061164761164160185490565b846120ed565b905061165b61165560185490565b8261212a565b81601a600061166960185490565b81526020808201929092526040908101600090812080546001600160a01b0319166001600160a01b039586161790559285168352601b9091529020546116b0906001611eb2565b6001600160a01b0383166000818152601b6020908152604080832094909455601880548352601c8252918490208751815587820151600190910180548987015160608b015160808c015160ff90951664ffffffffff199093169290921761010063ffffffff909216919091021768ffffffff00000000001916600160281b61ffff9283160261ffff60381b191617600160381b919093160291909117905590548351908152925191927fb9e9899b84f4affb2c40b3c644e3ac91ded134d040120e7fc42b68ca0c25c1e7929081900390910190a261083b601880546001019055565b600780546001600160a01b038381166001600160a01b0319831681179093556040519116919082907f8be0079c531659141344cd1fd0a4f28419497f9722a3daafe3b4186f6b6457e090600090a35050565b6117ec612dd6565b6000806117fa826000612086565b9392505050565b816001600160a01b0316836001600160a01b031614156118635760405162461bcd60e51b815260206004820152601960248201527f4552433732313a20617070726f766520746f2063616c6c6572000000000000006044820152606401610705565b6001600160a01b03838116600081815260056020908152604080832094871680845294825291829020805460ff191686151590811790915591519182527f17307eab39ab6107e8899845ad3d59bd9653f200f220920489ca2b5937696c31910160405180910390a3505050565b6118db8484846111a4565b6118e7848484846121b5565b610d115760405162461bcd60e51b815260040161070590613413565b600080601c60008581526020019081526020016000206040518060a0016040529081600082015481526020016001820160009054906101000a900460ff1660ff1660ff1681526020016001820160019054906101000a900463ffffffff1663ffffffff1663ffffffff1681526020016001820160059054906101000a900461ffff1661ffff1661ffff1681526020016001820160079054906101000a900461ffff1661ffff1661ffff168152505090506000601c60008581526020019081526020016000206040518060a0016040529081600082015481526020016001820160009054906101000a900460ff1660ff1660ff1681526020016001820160019054906101000a900463ffffffff1663ffffffff1663ffffffff1681526020016001820160059054906101000a900461ffff1661ffff1661ffff1681526020016001820160079054906101000a900461ffff1661ffff1661ffff16815250509050806040015163ffffffff16826040015163ffffffff1610611aa457611a9b6001836040015163ffffffff166122b390919063ffffffff16565b92505050610605565b611a9b6001826040015163ffffffff166122b390919063ffffffff16565b611aca612dd6565b6000611ad68585611feb565b90506000611ae48285612086565b9695505050505050565b6000828152601a6020908152604080832080546001600160a01b03191690556001600160a01b0384168352601b909152902054611b2c9060016122de565b6001600160a01b0382166000908152601b6020526040902055611b4e826122ea565b806001600160a01b03167fc7b64cadc933e9668a02ac176a26f449d9d98b90181758d8bc600850d447d41383604051611b8991815260200190565b60405180910390a25050565b6060611ba082611057565b611c045760405162461bcd60e51b815260206004820152602f60248201527f4552433732314d657461646174613a2055524920717565727920666f72206e6f60448201526e3732bc34b9ba32b73a103a37b5b2b760891b6064820152608401610705565b6000611c1b60408051602081019091526000815290565b90506000815111611c3b57604051806020016040528060008152506117fa565b80611c458461232a565b604051602001611c5692919061337c565b6040516020818303038152906040529392505050565b600080611c77611ce4565b90506000611c856006611d4b565b90508115611ca157611c97818561347b565b610f5a908561349d565b611cab818561347b565b610f5a90856133f0565b60006117fa611cc88460ff166064612428565b8360ff16612434565b60006117fa611cc88460ff16600a612428565b601254600090611cf5906001611eb2565b50600060024244601254604051602001611d22939291909283526020830191909152604082015260600190565b6040516020818303038152906040528051906020012060001c611d4591906134c2565b11905090565b6000808260ff1611611d985760405162461bcd60e51b815260206004820152601660248201527505570706572206c696d69742073686f756c64203e20360541b6044820152606401610705565b601254611da6906001611eb2565b50601254604080514260208201524491810191909152606081019190915260ff8316906080016040516020818303038152906040528051906020012060001c61060591906134c2565b6040805160808101825260ff808716825285811660208301908152858216938301938452848216606084019081526013805460018101825560009190915284517f66de8ffda797e3de9c05e8fc57b3bf0ec28a930d40b0d285d93c06501cf6a0909091018054935196519251851663010000000263ff0000001993861662010000029390931663ffff0000199786166101000261ffff199095169290951691909117929092179490941691909117929092179091556109fd601480546001019055565b60006117fa82846133d8565b60606000611ecc83856122de565b905060008167ffffffffffffffff811115611ee957611ee9613063565b604051908082528060200260200182016040528015611f3b57816020015b604080516080810182526000808252602080830182905292820181905260608201528252600019909201910181611f075790505b50905060005b82811015611fe2576013611f558783611eb2565b81548110611f6557611f656134d6565b600091825260209182902060408051608081018252929091015460ff808216845261010082048116948401949094526201000081048416918301919091526301000000900490911660608201528251839083908110611fc657611fc66134d6565b6020908102919091010152611fdc816001611eb2565b50611f41565b50949350505050565b6000806000806000611ffc87612440565b93509350935093506000806000806120138a612440565b9350935093509350600061202b8986600460026124bb565b9050600061203d8986600260016124bb565b9050600061204f8986600360016124bb565b905060006120618986600460026124bb565b905060006120718585858561259d565b9d505050505050505050505050505092915050565b61208e612dd6565b60006040518060a001604052808581526020016120aa8661261f565b60ff16815263ffffffff8516602082015260006040820181905260609091015291505092915050565b610cac8282604051806020016040528060008152506126a8565b6060600080600061210185600001516126db565b925092509250600061211f8787602001518860400151878787612773565b979650505050505050565b61213382611057565b6121965760405162461bcd60e51b815260206004820152602e60248201527f45524337323155524953746f726167653a2055524920736574206f66206e6f6e60448201526d32bc34b9ba32b73a103a37b5b2b760911b6064820152608401610705565b6000828152600660209081526040909120825161083b92840190612e04565b60006001600160a01b0384163b156122a857604051630a85bd0160e11b81526001600160a01b0385169063150b7a02906121f99033908990889088906004016134ec565b6020604051808303816000875af1925050508015612234575060408051601f3d908101601f191682019092526122319181019061351f565b60015b61228e573d808015612262576040519150601f19603f3d011682016040523d82523d6000602084013e612267565b606091505b5080516122865760405162461bcd60e51b815260040161070590613413565b805181602001fd5b6001600160e01b031916630a85bd0160e11b149050610f5a565b506001949350505050565b6000806122c0838561353c565b90508363ffffffff168163ffffffff1610156117fa576117fa61355b565b60006117fa82846133c1565b6122f38161287a565b6000818152600660205260409020805461230c906131d2565b159050610c4f576000818152600660205260408120610c4f91612e88565b60608161234e5750506040805180820190915260018152600360fc1b602082015290565b8160005b8115612378578061236281613571565b91506123719050600a8361358c565b9150612352565b60008167ffffffffffffffff81111561239357612393613063565b6040519080825280601f01601f1916602001820160405280156123bd576020820181803683370190505b5090505b8415610f5a576123d26001836133c1565b91506123df600a866134c2565b6123ea9060306133d8565b60f81b8183815181106123ff576123ff6134d6565b60200101906001600160f81b031916908160001a905350612421600a8661358c565b94506123c1565b60006117fa82846135a0565b60006117fa828461358c565b60008080808481612453612710836134c2565b90506124616127108361358c565b915060006124706064846134c2565b905061247d60648461358c565b9250600061248c6064856134c2565b905061249960648561358c565b935060006124a9612710866134c2565b9a919950919750919550909350505050565b60008060016124cb8560026136a3565b6124d591906133c1565b905060006124e484600a6136a3565b905060006124f282896136b2565b90506000612500838a6136d3565b9050600061250e848a6136b2565b9050600061251c858b6136d3565b9050600061252b848689612915565b9050600061253a83858a612915565b9050600061254661294f565b1561256f578160ff16888460ff1661255e91906136f4565b612568919061371e565b905061258c565b61257c8860ff84166136f4565b6125899060ff851661371e565b90505b9d9c50505050505050505050505050565b6000806125ae8161ffff8516611eb2565b506125c96125be856127106136f4565b829061ffff16611eb2565b506125ea6125de61ffff8716620f424061373b565b829062ffffff16611eb2565b5061261561260061ffff88166305f5e10061375d565b63ffffffff1682611eb290919063ffffffff16565b5095945050505050565b6000806064612630612710856134c2565b61263a919061358c565b90506000620186a061264f620f4240866134c2565b612659919061358c565b905060006298968061266f6305f5e100876134c2565b612679919061358c565b905060008261268985600161349d565b612693919061349d565b61269e83600161349d565b611ae49190613780565b6126b2838361298d565b6126bf60008484846121b5565b61083b5760405162461bcd60e51b815260040161070590613413565b60008080836126ec6127108261358c565b905060006126fb6064836134c2565b9050600061270a600a836136d3565b905061271760648461358c565b925060006127266064856134c2565b90506000612735600a836136d3565b905061274260648661358c565b94506000612752612710876134c2565b905060006127616064836136d3565b9b929a50939850909650505050505050565b606061211f6127818861232a565b61284773__SwordSvgHelper________________________63dbd3d75b600b8960ff16815481106127b4576127b46134d6565b9060005260206000200188600c8960ff16815481106127d5576127d56134d6565b906000526020600020016040518463ffffffff1660e01b81526004016127fd93929190613818565b600060405180830381865af415801561281a573d6000803e3d6000fd5b505050506040513d6000823e601f3d908101601f191682016040526128429190810190613846565b612ac0565b612854898988888b612c26565b604051602001612866939291906138b4565b604051602081830303815290604052612ac0565b600061288582610a33565b9050612892600083611074565b6001600160a01b03811660009081526003602052604081208054600192906128bb9084906133c1565b909155505060008281526002602052604080822080546001600160a01b0319169055518391906001600160a01b038416907fddf252ad1be2c89b69c2b068fc378daa952ba7f163c4a11628f55a4df523b3ef908390a45050565b600080612920612cd4565b1561292c57508361292f565b50825b612937612d3c565b15610f5a576129468184612d84565b95945050505050565b600d54600090612960906001611eb2565b50600060024244600d54604051602001611d22939291909283526020830191909152604082015260600190565b6001600160a01b0382166129e35760405162461bcd60e51b815260206004820181905260248201527f4552433732313a206d696e7420746f20746865207a65726f20616464726573736044820152606401610705565b6129ec81611057565b15612a395760405162461bcd60e51b815260206004820152601c60248201527f4552433732313a20746f6b656e20616c7265616479206d696e746564000000006044820152606401610705565b6001600160a01b0382166000908152600360205260408120805460019290612a629084906133d8565b909155505060008181526002602052604080822080546001600160a01b0319166001600160a01b03861690811790915590518392907fddf252ad1be2c89b69c2b068fc378daa952ba7f163c4a11628f55a4df523b3ef908290a45050565b805160609080612ae0575050604080516020810190915260008152919050565b60006003612aef8360026133d8565b612af9919061358c565b612b049060046135a0565b90506000612b138260206133d8565b67ffffffffffffffff811115612b2b57612b2b613063565b6040519080825280601f01601f191660200182016040528015612b55576020820181803683370190505b5090506000604051806060016040528060408152602001613bf9604091399050600181016020830160005b86811015612be1576003818a01810151603f601282901c8116860151600c83901c8216870151600684901c831688015192909316870151600891821b60ff94851601821b92841692909201901b91160160e01b835260049092019101612b80565b506003860660018114612bfb5760028114612c0c57612c18565b613d3d60f01b600119830152612c18565b603d60f81b6000198301525b505050918152949350505050565b60606000612c368760ff1661232a565b612c458763ffffffff1661232a565b60098760ff1681548110612c5b57612c5b6134d6565b90600052602060002001600a8760ff1681548110612c7b57612c7b6134d6565b9060005260206000200160088760ff1681548110612c9b57612c9b6134d6565b90600052602060002001604051602001612cb9959493929190613a82565b60408051808303601f19018152919052979650505050505050565b600d54600090612ce5906001611eb2565b50601054600d54604080514260208201524491810191909152606081019190915260ff909116906064906080015b6040516020818303038152906040528051906020012060001c612d3691906134c2565b10905090565b600d54600090612d4d906001611eb2565b50601054600d5460408051426020820152449181019190915260608101919091526201000090910460ff1690606490608001612d13565b60008160ff168360ff161415612d9c57506000610605565b612daa60ff84166001612db1565b9050610605565b600080612dbe838561349d565b90508360ff168160ff1610156117fa576117fa61355b565b6040805160a08101825260008082526020820181905291810182905260608101829052608081019190915290565b828054612e10906131d2565b90600052602060002090601f016020900481019282612e325760008555612e78565b82601f10612e4b57805160ff1916838001178555612e78565b82800160010185558215612e78579182015b82811115612e78578251825591602001919060010190612e5d565b50612e84929150612ebe565b5090565b508054612e94906131d2565b6000825580601f10612ea4575050565b601f016020900490600052602060002090810190610c4f91905b5b80821115612e845760008155600101612ebf565b6001600160e01b031981168114610c4f57600080fd5b600060208284031215612efb57600080fd5b81356117fa81612ed3565b60005b83811015612f21578181015183820152602001612f09565b83811115610d115750506000910152565b60008151808452612f4a816020860160208601612f06565b601f01601f19169290920160200192915050565b6020815260006117fa6020830184612f32565b600060208284031215612f8357600080fd5b5035919050565b80356001600160a01b0381168114612fa157600080fd5b919050565b60008060408385031215612fb957600080fd5b612fc283612f8a565b946020939093013593505050565b600080600060608486031215612fe557600080fd5b612fee84612f8a565b9250612ffc60208501612f8a565b9150604084013590509250925092565b60006020828403121561301e57600080fd5b6117fa82612f8a565b6000806040838503121561303a57600080fd5b61304383612f8a565b91506020830135801515811461305857600080fd5b809150509250929050565b634e487b7160e01b600052604160045260246000fd5b604051601f8201601f1916810167ffffffffffffffff811182821017156130a2576130a2613063565b604052919050565b600067ffffffffffffffff8211156130c4576130c4613063565b50601f01601f191660200190565b600080600080608085870312156130e857600080fd5b6130f185612f8a565b93506130ff60208601612f8a565b925060408501359150606085013567ffffffffffffffff81111561312257600080fd5b8501601f8101871361313357600080fd5b8035613146613141826130aa565b613079565b81815288602083850101111561315b57600080fd5b8160208401602083013760006020838301015280935050505092959194509250565b6000806040838503121561319057600080fd5b50508035926020909101359150565b600080604083850312156131b257600080fd5b6131bb83612f8a565b91506131c960208401612f8a565b90509250929050565b600181811c908216806131e657607f821691505b6020821081141561320757634e487b7160e01b600052602260045260246000fd5b50919050565b60208082526031908201527f4552433732313a207472616e736665722063616c6c6572206973206e6f74206f6040820152701ddb995c881b9bdc88185c1c1c9bdd9959607a1b606082015260800190565b60208082526019908201527f4f6e6c792073776f7264206f776e65722063616e2063616c6c00000000000000604082015260600190565b6020808252600e908201526d4e6f7420656e6f7567682066656560901b604082015260600190565b602080825282518282018190526000919060409081850190868401855b8281101561331e578151805160ff908116865287820151811688870152868201518116878701526060918201511690850152608090930192908501906001016132da565b5091979650505050505050565b6020808252818101527f4f776e61626c653a2063616c6c6572206973206e6f7420746865206f776e6572604082015260600190565b60008151613372818560208601612f06565b9290920192915050565b6000835161338e818460208801612f06565b8351908301906133a2818360208801612f06565b01949350505050565b634e487b7160e01b600052601160045260246000fd5b6000828210156133d3576133d36133ab565b500390565b600082198211156133eb576133eb6133ab565b500190565b600060ff821660ff84168082101561340a5761340a6133ab565b90039392505050565b60208082526032908201527f4552433732313a207472616e7366657220746f206e6f6e20455243373231526560408201527131b2b4bb32b91034b6b83632b6b2b73a32b960711b606082015260800190565b634e487b7160e01b600052601260045260246000fd5b600060ff83168061348e5761348e613465565b8060ff84160691505092915050565b600060ff821660ff84168060ff038211156134ba576134ba6133ab565b019392505050565b6000826134d1576134d1613465565b500690565b634e487b7160e01b600052603260045260246000fd5b6001600160a01b0385811682528416602082015260408101839052608060608201819052600090611ae490830184612f32565b60006020828403121561353157600080fd5b81516117fa81612ed3565b600063ffffffff8083168185168083038211156133a2576133a26133ab565b634e487b7160e01b600052600160045260246000fd5b6000600019821415613585576135856133ab565b5060010190565b60008261359b5761359b613465565b500490565b60008160001904831182151516156135ba576135ba6133ab565b500290565b600181815b808511156135fa5781600019048211156135e0576135e06133ab565b808516156135ed57918102915b93841c93908002906135c4565b509250929050565b60008261361157506001610605565b8161361e57506000610605565b8160018114613634576002811461363e5761365a565b6001915050610605565b60ff84111561364f5761364f6133ab565b50506001821b610605565b5060208310610133831016604e8410600b841016171561367d575081810a610605565b61368783836135bf565b806000190482111561369b5761369b6133ab565b029392505050565b60006117fa60ff841683613602565b600061ffff808416806136c7576136c7613465565b92169190910692915050565b600061ffff808416806136e8576136e8613465565b92169190910492915050565b600061ffff80831681851681830481118215151615613715576137156133ab565b02949350505050565b600061ffff8083168185168083038211156133a2576133a26133ab565b600062ffffff80831681851681830481118215151615613715576137156133ab565b600063ffffffff80831681851681830481118215151615613715576137156133ab565b600060ff821660ff84168160ff048111821515161561369b5761369b6133ab565b600081546137ae816131d2565b8085526020600183811680156137cb57600181146137df5761380d565b60ff1985168884015260408801955061380d565b866000528260002060005b858110156138055781548a82018601529083019084016137ea565b890184019650505b505050505092915050565b60608152600061382b60608301866137a1565b60ff851660208401528281036040840152611ae481856137a1565b60006020828403121561385857600080fd5b815167ffffffffffffffff81111561386f57600080fd5b8201601f8101841361388057600080fd5b805161388e613141826130aa565b8181528560208385010111156138a357600080fd5b612946826020830160208601612f06565b607b60f81b81526f276e616d65273a202753776f7264202360801b6001820152600084516138e9816011850160208901612f06565b602760f81b601191840191820152600b60fa1b601282018190527f276465736372697074696f6e273a20275468697320697320616e204e4654207460138301527f686174206c6574732070656f706c6520706c617920696e207468652067616d6560338301526e204d657267652053776f726473212760881b605383015260628201527f27696d616765273a2027646174613a696d6167652f7376672b786d6c3b626173606382015263194d8d0b60e21b6083820152611ae46139c86139c26139b56087850189613360565b602760f81b815260010190565b86613360565b607d60f81b815260010190565b7f7b202774726169745f74797065273a202747656e65726174696f6e272c20202081526b20202776616c756527203a2760a01b6020820152602c0190565b60008154613a20816131d2565b60018281168015613a385760018114613a4957613a78565b60ff19841687528287019450613a78565b8560005260208060002060005b85811015613a6f5781548a820152908401908201613a56565b50505082870194505b5050505092915050565b6d013b0ba3a3934b13aba32b9939d160951b8152605b60f81b600e8201527f7b202774726169745f74797065273a202741747461636b20506f776572272c20600f8201526b20202776616c7565273a202760a01b602f82015260008651613af081603b850160208b01612f06565b808301905061277d60f01b80603b830152613b0d603d83016139d5565b91508751613b1f818460208c01612f06565b919091019081527f7b202774726169745f74797065273a202753776f72642054797065272c20202060028201526b20202776616c756527203a2760a01b6022820152613bec613bdf613b82613bd9613bd482613bce613b9082602e8a018f613a13565b61277d60f01b815260020190565b7f7b202774726169745f74797065273a202753776f7264204d6174657269616c2781526b2c202776616c756527203a2760a01b6020820152602c0190565b8b613a13565b6139d5565b87613a13565b605d60f81b815260010190565b9897505050505050505056fe4142434445464748494a4b4c4d4e4f505152535455565758595a6162636465666768696a6b6c6d6e6f707172737475767778797a303132333435363738392b2fa26469706673582212201f3dc0786e4b362a06bb356317c811bad566b4fa1cc2bcc151cc9ac86c00e90d64736f6c634300080a0033",
  "immutableReferences": {},
  "source": "// SPDX-License-Identifier: MIT\npragma solidity >=0.4.22 <0.9.0;\n\nimport \"@openzeppelin/contracts/utils/Counters.sol\";\nimport \"@openzeppelin/contracts/utils/math/SafeMath.sol\";\nimport \"@openzeppelin/contracts/token/ERC721/extensions/ERC721URIStorage.sol\";\nimport \"@openzeppelin/contracts/access/Ownable.sol\";\n\nimport \"./SwordAttack.sol\";\n\nimport \"./libraries/SafeMath32.sol\";\n\ncontract MergeSwordsToken is ERC721URIStorage, Ownable, SwordAttack {\n  constructor() ERC721(\"MERGESWORDS\", \"SWORD\") {}\n\n  uint256 private basicSwordFee = 0.1 ether;\n  uint256 private mergeFee = 0.05 ether;\n  uint256 private attackFee = 0.01 ether;\n\n  using Counters for Counters.Counter;\n  using SafeMath for uint256;\n  using SafeMath32 for uint32;\n\n  event NewSword(address indexed owner, uint256 id);\n  event BurnSword(address indexed owner, uint256 id);\n  event WonBattle(address indexed owner, AttackLog[] attackLog);\n  event LostBattle(address indexed owner, AttackLog[] attackLog);\n\n  Counters.Counter private _tokenIds;\n\n  // stored swords on blockhain\n  Sword[] public swords;\n\n  mapping(uint256 => address) public swordToOwner;\n  mapping(address => uint256) public ownerSwordCount;\n  mapping(uint256 => Sword) public idToSword;\n\n  modifier doesNotOwnSword() {\n    require(ownerSwordCount[msg.sender] == 0, \"Should not own any sword\");\n    _;\n  }\n\n  modifier onlySwordOwner(uint256 _swordId, address _callerAddress) {\n    require(ownerOf(_swordId) == _callerAddress, \"Only sword owner can call\");\n    _;\n  }\n\n  function updateBasicSwordFee(uint256 _fee) external onlyOwner {\n    basicSwordFee = _fee;\n  }\n\n  function updateMergeFee(uint256 _fee) external onlyOwner {\n    mergeFee = _fee;\n  }\n\n  function updateAttackFee(uint256 _fee) external onlyOwner {\n    attackFee = _fee;\n  }\n\n  function getBasicSword() public payable doesNotOwnSword {\n    require(msg.value == basicSwordFee, \"Not enough fee\");\n\n    Sword memory newSword = _createBasicSwordObject();\n\n    _mintSwordFromObject(newSword, msg.sender);\n  }\n\n  function _mintSwordFromObject(Sword memory _newSword, address _senderAddr) internal {\n    swords.push(_newSword);\n\n    _safeMint(_senderAddr, _tokenIds.current());\n\n    // set token uri\n    string memory finalTokenUri = _generateSwordUri(_tokenIds.current(), _newSword);\n    _setTokenURI(_tokenIds.current(), finalTokenUri);\n\n    swordToOwner[_tokenIds.current()] = _senderAddr;\n    ownerSwordCount[_senderAddr] = ownerSwordCount[_senderAddr].add(1);\n    idToSword[_tokenIds.current()] = _newSword;\n\n    emit NewSword(_senderAddr, _tokenIds.current());\n\n    _tokenIds.increment();\n  }\n\n  function mergeSwords(uint256 swordOneId, uint256 swordTwoId)\n    public\n    payable\n    onlySwordOwner(swordOneId, msg.sender)\n    onlySwordOwner(swordTwoId, msg.sender)\n  {\n    require(msg.value == mergeFee, \"Not enough fee\");\n\n    // create a new sword\n    Sword memory newSword = _createFromTwoSwords(\n      _getSwordDnaFromId(swordOneId),\n      _getSwordDnaFromId(swordTwoId),\n      _calcChildGeneration(swordOneId, swordTwoId)\n    );\n    _mintSwordFromObject(newSword, msg.sender);\n\n    // burn the given sword NFTs\n    _burnSwordNft(swordOneId, msg.sender);\n    _burnSwordNft(swordTwoId, msg.sender);\n  }\n\n  function _burnSwordNft(uint256 _swordId, address _senderAddr) internal {\n    swordToOwner[_swordId] = address(0);\n    ownerSwordCount[_senderAddr] = ownerSwordCount[_senderAddr].sub(1);\n\n    _burn(_swordId);\n\n    emit BurnSword(_senderAddr, _swordId);\n  }\n\n  function _getSwordDnaFromId(uint256 _swordId) internal view returns (uint256) {\n    Sword memory sword = idToSword[_swordId];\n    return sword.dna;\n  }\n\n  function _calcChildGeneration(uint256 _parentOneId, uint256 _parentTwoId) internal view returns (uint32) {\n    Sword memory parentOne = idToSword[_parentOneId];\n    Sword memory parentTwo = idToSword[_parentTwoId];\n\n    // select the oldest parent\n    if (parentOne.generation >= parentTwo.generation) {\n      return parentOne.generation.add(1);\n    } else {\n      return parentTwo.generation.add(1);\n    }\n  }\n\n  function battleMonster(uint256 _swordId) public payable onlySwordOwner(_swordId, msg.sender) {\n    require(msg.value == attackFee, \"Not enough fee\");\n    (AttackLog[] memory attackLog, bool didUserWon) = attackMonster(_getAttackPowerFromSwordId(_swordId));\n\n    if (didUserWon) {\n      emit WonBattle(msg.sender, attackLog);\n\n      // give a new sword as a reward to user\n      Sword memory sword = _createSimilarSword(_getSwordDnaFromId(_swordId));\n      _mintSwordFromObject(sword, msg.sender);\n    } else {\n      emit LostBattle(msg.sender, attackLog);\n    }\n  }\n\n  function _getAttackPowerFromSwordId(uint256 _swordId) internal view returns (uint8) {\n    Sword memory sword = idToSword[_swordId];\n    return sword.attackPower;\n  }\n}\n",
  "sourcePath": "/home/gorkem/Web3/ETH/merge-swords/contracts/MergeSwordsToken.sol",
  "compiler": {
    "name": "solc",
    "version": "0.8.10+commit.fc410830.Emscripten.clang"
  },
  "schemaVersion": "3.4.3",
  "updatedAt": "2021-12-20T14:05:33.527Z",
  "networkType": "ethereum",
  "devdoc": {
    "kind": "dev",
    "methods": {
      "approve(address,uint256)": {
        "details": "See {IERC721-approve}."
      },
      "balanceOf(address)": {
        "details": "See {IERC721-balanceOf}."
      },
      "getApproved(uint256)": {
        "details": "See {IERC721-getApproved}."
      },
      "isApprovedForAll(address,address)": {
        "details": "See {IERC721-isApprovedForAll}."
      },
      "name()": {
        "details": "See {IERC721Metadata-name}."
      },
      "owner()": {
        "details": "Returns the address of the current owner."
      },
      "ownerOf(uint256)": {
        "details": "See {IERC721-ownerOf}."
      },
      "renounceOwnership()": {
        "details": "Leaves the contract without owner. It will not be possible to call `onlyOwner` functions anymore. Can only be called by the current owner. NOTE: Renouncing ownership will leave the contract without an owner, thereby removing any functionality that is only available to the owner."
      },
      "safeTransferFrom(address,address,uint256)": {
        "details": "See {IERC721-safeTransferFrom}."
      },
      "safeTransferFrom(address,address,uint256,bytes)": {
        "details": "See {IERC721-safeTransferFrom}."
      },
      "setApprovalForAll(address,bool)": {
        "details": "See {IERC721-setApprovalForAll}."
      },
      "supportsInterface(bytes4)": {
        "details": "See {IERC165-supportsInterface}."
      },
      "symbol()": {
        "details": "See {IERC721Metadata-symbol}."
      },
      "tokenURI(uint256)": {
        "details": "See {IERC721Metadata-tokenURI}."
      },
      "transferFrom(address,address,uint256)": {
        "details": "See {IERC721-transferFrom}."
      },
      "transferOwnership(address)": {
        "details": "Transfers ownership of the contract to a new account (`newOwner`). Can only be called by the current owner."
      }
    },
    "version": 1
  },
  "userdoc": {
    "kind": "user",
    "methods": {},
    "version": 1
  }
}