{
  "contractName": "NFTMarketplace",
  "abi": [
    {
      "anonymous": false,
      "inputs": [
        {
          "indexed": true,
          "internalType": "uint256",
          "name": "itemId",
          "type": "uint256"
        },
        {
          "indexed": true,
          "internalType": "address",
          "name": "nftContract",
          "type": "address"
        },
        {
          "indexed": true,
          "internalType": "uint256",
          "name": "tokenId",
          "type": "uint256"
        },
        {
          "indexed": false,
          "internalType": "address",
          "name": "seller",
          "type": "address"
        },
        {
          "indexed": false,
          "internalType": "address",
          "name": "owner",
          "type": "address"
        },
        {
          "indexed": false,
          "internalType": "uint256",
          "name": "price",
          "type": "uint256"
        },
        {
          "indexed": false,
          "internalType": "bool",
          "name": "sold",
          "type": "bool"
        }
      ],
      "name": "MarketItemCreated",
      "type": "event"
    },
    {
      "inputs": [
        {
          "internalType": "address",
          "name": "nftContract",
          "type": "address"
        },
        {
          "internalType": "uint256",
          "name": "tokenId",
          "type": "uint256"
        },
        {
          "internalType": "uint256",
          "name": "price",
          "type": "uint256"
        },
        {
          "internalType": "address",
          "name": "sender",
          "type": "address"
        }
      ],
      "name": "createMarketItem",
      "outputs": [],
      "stateMutability": "payable",
      "type": "function"
    },
    {
      "inputs": [
        {
          "internalType": "address",
          "name": "nftContract",
          "type": "address"
        },
        {
          "internalType": "uint256",
          "name": "itemId",
          "type": "uint256"
        },
        {
          "internalType": "address",
          "name": "sender",
          "type": "address"
        }
      ],
      "name": "withdrawMarketItem",
      "outputs": [],
      "stateMutability": "nonpayable",
      "type": "function"
    },
    {
      "inputs": [
        {
          "internalType": "address",
          "name": "nftContract",
          "type": "address"
        },
        {
          "internalType": "uint256",
          "name": "itemId",
          "type": "uint256"
        },
        {
          "internalType": "uint256",
          "name": "value",
          "type": "uint256"
        },
        {
          "internalType": "address",
          "name": "sender",
          "type": "address"
        }
      ],
      "name": "createMarketSale",
      "outputs": [],
      "stateMutability": "payable",
      "type": "function"
    },
    {
      "inputs": [],
      "name": "fetchMarketItems",
      "outputs": [
        {
          "components": [
            {
              "internalType": "uint256",
              "name": "itemId",
              "type": "uint256"
            },
            {
              "internalType": "address",
              "name": "nftContract",
              "type": "address"
            },
            {
              "internalType": "uint256",
              "name": "tokenId",
              "type": "uint256"
            },
            {
              "internalType": "address payable",
              "name": "seller",
              "type": "address"
            },
            {
              "internalType": "address payable",
              "name": "owner",
              "type": "address"
            },
            {
              "internalType": "uint256",
              "name": "price",
              "type": "uint256"
            },
            {
              "internalType": "bool",
              "name": "sold",
              "type": "bool"
            }
          ],
          "internalType": "struct NFTMarketplace.MarketItem[]",
          "name": "",
          "type": "tuple[]"
        }
      ],
      "stateMutability": "view",
      "type": "function"
    },
    {
      "inputs": [],
      "name": "fetchMyNFTs",
      "outputs": [
        {
          "components": [
            {
              "internalType": "uint256",
              "name": "itemId",
              "type": "uint256"
            },
            {
              "internalType": "address",
              "name": "nftContract",
              "type": "address"
            },
            {
              "internalType": "uint256",
              "name": "tokenId",
              "type": "uint256"
            },
            {
              "internalType": "address payable",
              "name": "seller",
              "type": "address"
            },
            {
              "internalType": "address payable",
              "name": "owner",
              "type": "address"
            },
            {
              "internalType": "uint256",
              "name": "price",
              "type": "uint256"
            },
            {
              "internalType": "bool",
              "name": "sold",
              "type": "bool"
            }
          ],
          "internalType": "struct NFTMarketplace.MarketItem[]",
          "name": "",
          "type": "tuple[]"
        }
      ],
      "stateMutability": "view",
      "type": "function"
    },
    {
      "inputs": [],
      "name": "fetchItemsCreated",
      "outputs": [
        {
          "components": [
            {
              "internalType": "uint256",
              "name": "itemId",
              "type": "uint256"
            },
            {
              "internalType": "address",
              "name": "nftContract",
              "type": "address"
            },
            {
              "internalType": "uint256",
              "name": "tokenId",
              "type": "uint256"
            },
            {
              "internalType": "address payable",
              "name": "seller",
              "type": "address"
            },
            {
              "internalType": "address payable",
              "name": "owner",
              "type": "address"
            },
            {
              "internalType": "uint256",
              "name": "price",
              "type": "uint256"
            },
            {
              "internalType": "bool",
              "name": "sold",
              "type": "bool"
            }
          ],
          "internalType": "struct NFTMarketplace.MarketItem[]",
          "name": "",
          "type": "tuple[]"
        }
      ],
      "stateMutability": "view",
      "type": "function"
    }
  ],
  "bytecode": "0x608060405234801561001057600080fd5b506001600055611003806100256000396000f3fe6080604052600436106100655760003560e01c8063b37654a711610043578063b37654a7146100cc578063d130f37a146100df578063f064c32e146100f257600080fd5b80630de872511461006a5780630f08efe01461008c578063202e3740146100b7575b600080fd5b34801561007657600080fd5b5061008a610085366004610bc3565b610107565b005b34801561009857600080fd5b506100a161025a565b6040516100ae9190610d0d565b60405180910390f35b3480156100c357600080fd5b506100a1610412565b61008a6100da366004610d25565b610608565b61008a6100ed366004610d25565b610807565b3480156100fe57600080fd5b506100a1610987565b600260005414156101335760405162461bcd60e51b815260040161012a90610dbb565b60405180910390fd5b60026000556001600160a01b03831630146101605760405162461bcd60e51b815260040161012a90610dfd565b600082815260036020819052604090912001546001600160a01b0382811691161461019d5760405162461bcd60e51b815260040161012a90610e3f565b60008281526003602081905260409182902060068101805460ff19166001179055908101805473ffffffffffffffffffffffffffffffffffffffff191690556002015490516323b872dd60e01b81526001600160a01b038516906323b872dd9061020f90309086908690600401610e4f565b600060405180830381600087803b15801561022957600080fd5b505af115801561023d573d6000803e3d6000fd5b5050505061024f600280546001019055565b505060016000555050565b6060600061026760015490565b9050600061027460025490565b6001546102819190610e95565b90506000808267ffffffffffffffff81111561029f5761029f610eac565b60405190808252806020026020018201604052801561030657816020015b6040805160e08101825260008082526020808301829052928201819052606082018190526080820181905260a0820181905260c082015282526000199092019101816102bd5790505b50905060005b84811015610409576000600381610324846001610ec2565b81526020810191909152604001600020600401546001600160a01b031614156103f7576000610354826001610ec2565b600081815260036020818152604092839020835160e0810185528154815260018201546001600160a01b039081169382019390935260028201549481019490945291820154811660608401526004820154166080830152600581015460a0830152600681015460ff16151560c08301528551929350918590879081106103dc576103dc610eda565b60209081029190910101526103f2600186610ec2565b945050505b8061040181610ef0565b91505061030c565b50949350505050565b6060600061041f60015490565b905060008060005b8381101561048257336003600061043f846001610ec2565b81526020810191909152604001600020600401546001600160a01b031614156104705761046d600184610ec2565b92505b8061047a81610ef0565b915050610427565b5060008267ffffffffffffffff81111561049e5761049e610eac565b60405190808252806020026020018201604052801561050557816020015b6040805160e08101825260008082526020808301829052928201819052606082018190526080820181905260a0820181905260c082015282526000199092019101816104bc5790505b50905060005b84811015610409573360036000610523846001610ec2565b81526020810191909152604001600020600401546001600160a01b031614156105f6576000610553826001610ec2565b600081815260036020818152604092839020835160e0810185528154815260018201546001600160a01b039081169382019390935260028201549481019490945291820154811660608401526004820154166080830152600581015460a0830152600681015460ff16151560c08301528551929350918590879081106105db576105db610eda565b60209081029190910101526105f1600186610ec2565b945050505b8061060081610ef0565b91505061050b565b6002600054141561062b5760405162461bcd60e51b815260040161012a90610dbb565b60026000558161064d5760405162461bcd60e51b815260040161012a90610f3d565b6001600160a01b03841630146106755760405162461bcd60e51b815260040161012a90610dfd565b610683600180546001019055565b600061068e60015490565b6040805160e0810182528281526001600160a01b0388811660208084018281528486018b81528985166060870190815260006080880181815260a089018e815260c08a018381528c8452600397889052928b902099518a55945160018a01805473ffffffffffffffffffffffffffffffffffffffff19908116928b16929092179055935160028a015591519488018054841695881695909517909455516004808801805490931691909616179055516005850155516006909301805460ff19169315159390931790925591516323b872dd60e01b8152929350916323b872dd9161077e91869130918a9101610e4f565b600060405180830381600087803b15801561079857600080fd5b505af11580156107ac573d6000803e3d6000fd5b5050505083856001600160a01b0316827f045dfa01dcba2b36aba1d3dc4a874f4b0c5d2fbeb8d2c4b34a7d88c8d8f929d18560008860006040516107f39493929190610f4d565b60405180910390a450506001600055505050565b6002600054141561082a5760405162461bcd60e51b815260040161012a90610dbb565b6002600081815584815260036020526040902060058101549101548382146108645760405162461bcd60e51b815260040161012a90610fbd565b6001600160a01b038616301461088c5760405162461bcd60e51b815260040161012a90610dfd565b600085815260036020819052604080832060048101805473ffffffffffffffffffffffffffffffffffffffff19166001600160a01b038981169190911790915560068201805460ff1916600117905592015490519116916108fc871502918791818181858888f19350505050158015610909573d6000803e3d6000fd5b506040516323b872dd60e01b81526001600160a01b038716906323b872dd9061093a90309087908690600401610e4f565b600060405180830381600087803b15801561095457600080fd5b505af1158015610968573d6000803e3d6000fd5b5050505061097a600280546001019055565b5050600160005550505050565b6060600061099460015490565b905060008060005b838110156109f75733600360006109b4846001610ec2565b81526020810191909152604001600020600301546001600160a01b031614156109e5576109e2600184610ec2565b92505b806109ef81610ef0565b91505061099c565b5060008267ffffffffffffffff811115610a1357610a13610eac565b604051908082528060200260200182016040528015610a7a57816020015b6040805160e08101825260008082526020808301829052928201819052606082018190526080820181905260a0820181905260c08201528252600019909201910181610a315790505b50905060005b84811015610409573360036000610a98846001610ec2565b81526020810191909152604001600020600301546001600160a01b03161415610b6b576000610ac8826001610ec2565b600081815260036020818152604092839020835160e0810185528154815260018201546001600160a01b039081169382019390935260028201549481019490945291820154811660608401526004820154166080830152600581015460a0830152600681015460ff16151560c0830152855192935091859087908110610b5057610b50610eda565b6020908102919091010152610b66600186610ec2565b945050505b80610b7581610ef0565b915050610a80565b60006001600160a01b0382165b92915050565b610b9981610b7d565b8114610ba457600080fd5b50565b8035610b8a81610b90565b80610b99565b8035610b8a81610bb2565b600080600060608486031215610bdb57610bdb600080fd5b6000610be78686610ba7565b9350506020610bf886828701610bb8565b9250506040610c0986828701610ba7565b9150509250925092565b805b82525050565b610c1581610b7d565b801515610c15565b8051610c388382610c13565b506020810151610c4b6020840182610c1b565b506040810151610c5e6040840182610c13565b506060810151610c716060840182610c1b565b506080810151610c846080840182610c1b565b5060a0810151610c9760a0840182610c13565b5060c0810151610caa60c0840182610c24565b505050565b610cb98282610c2c565b5060e00190565b60200190565b6000610cd0825190565b808452602093840193830160005b82811015610d03578151610cf28782610caf565b965050602082019150600101610cde565b5093949350505050565b60208082528101610d1e8184610cc6565b9392505050565b60008060008060808587031215610d3e57610d3e600080fd5b6000610d4a8787610ba7565b9450506020610d5b87828801610bb8565b9350506040610d6c87828801610bb8565b9250506060610d7d87828801610ba7565b91505092959194509250565b601f8152602081017f5265656e7472616e637947756172643a207265656e7472616e742063616c6c0081529050610cc0565b60208082528101610b8a81610d89565b600f8152602081017f4f6e6c792067616d65206974656d73000000000000000000000000000000000081529050610cc0565b60208082528101610b8a81610dcb565b600a8152602081017f4f6e6c79206f776e65720000000000000000000000000000000000000000000081529050610cc0565b60208082528101610b8a81610e0d565b60608101610e5d8286610c1b565b610e6a6020830185610c1b565b610e776040830184610c13565b949350505050565b634e487b7160e01b600052601160045260246000fd5b600082821015610ea757610ea7610e7f565b500390565b634e487b7160e01b600052604160045260246000fd5b60008219821115610ed557610ed5610e7f565b500190565b634e487b7160e01b600052603260045260246000fd5b6000600019821415610f0457610f04610e7f565b5060010190565b601c8152602081017f5072696365206d757374206265206174206c656173742031207765690000000081529050610cc0565b60208082528101610b8a81610f0b565b60808101610f5b8287610c1b565b610f686020830186610c1b565b610f756040830185610c13565b610f826060830184610c24565b95945050505050565b60198152602081017f41736b696e67207072696365206973206e6f7420657175616c0000000000000081529050610cc0565b60208082528101610b8a81610f8b56fea2646970667358221220f27edf21e1e2e6ac34b6b8cc4a6e99d9a8c70b1066da2add6b09424920558a0464736f6c634300080a0033",
  "immutableReferences": {},
  "source": "// SPDX-License-Identifier: MIT\npragma solidity >=0.4.22 <0.9.0;\n\nimport \"@openzeppelin/contracts/utils/Counters.sol\";\nimport \"@openzeppelin/contracts/security/ReentrancyGuard.sol\";\nimport \"@openzeppelin/contracts/token/ERC721/ERC721.sol\";\n\ncontract NFTMarketplace is ReentrancyGuard {\n  using Counters for Counters.Counter;\n  Counters.Counter private _itemIds;\n  Counters.Counter private _itemsSold;\n\n  mapping(uint256 => MarketItem) private idToMarketItem;\n\n  struct MarketItem {\n    uint256 itemId;\n    address nftContract;\n    uint256 tokenId;\n    address payable seller;\n    address payable owner;\n    uint256 price;\n    bool sold;\n  }\n\n  event MarketItemCreated(\n    uint256 indexed itemId,\n    address indexed nftContract,\n    uint256 indexed tokenId,\n    address seller,\n    address owner,\n    uint256 price,\n    bool sold\n  );\n\n  // Places an item for sale on the marketplace\n  function createMarketItem(\n    address nftContract,\n    uint256 tokenId,\n    uint256 price,\n    address sender\n  ) public payable nonReentrant {\n    require(price > 0, \"Price must be at least 1 wei\");\n    require(nftContract == address(this), \"Only game items\");\n\n    _itemIds.increment();\n    uint256 itemId = _itemIds.current();\n\n    idToMarketItem[itemId] = MarketItem(\n      itemId,\n      nftContract,\n      tokenId,\n      payable(sender),\n      payable(address(0)),\n      price,\n      false\n    );\n\n    IERC721(nftContract).transferFrom(sender, address(this), tokenId);\n\n    emit MarketItemCreated(itemId, nftContract, tokenId, sender, address(0), price, false);\n  }\n\n  function withdrawMarketItem(\n    address nftContract,\n    uint256 itemId,\n    address sender\n  ) public nonReentrant {\n    require(nftContract == address(this), \"Only game items\");\n    require(sender == idToMarketItem[itemId].seller, \"Only owner\");\n\n    // make it like sold for free back\n    idToMarketItem[itemId].sold = true;\n    idToMarketItem[itemId].seller = payable(address(0)); // remove from sold items\n    uint256 tokenId = idToMarketItem[itemId].tokenId;\n    IERC721(nftContract).transferFrom(address(this), sender, tokenId);\n    _itemsSold.increment();\n  }\n\n  // Creates the sale of a marketplace item\n  // Transfers ownership of the item, as well as funds between parties\n  function createMarketSale(\n    address nftContract,\n    uint256 itemId,\n    uint256 value,\n    address sender\n  ) public payable nonReentrant {\n    uint256 price = idToMarketItem[itemId].price;\n    uint256 tokenId = idToMarketItem[itemId].tokenId;\n    require(value == price, \"Asking price is not equal\");\n    require(nftContract == address(this), \"Only game items\");\n\n    idToMarketItem[itemId].owner = payable(sender);\n    idToMarketItem[itemId].sold = true;\n    idToMarketItem[itemId].seller.transfer(value);\n    IERC721(nftContract).transferFrom(address(this), sender, tokenId);\n\n    _itemsSold.increment();\n  }\n\n  // Returns all unsold market items\n  function fetchMarketItems() public view returns (MarketItem[] memory) {\n    uint256 itemCount = _itemIds.current();\n    uint256 unsoldItemCount = _itemIds.current() - _itemsSold.current();\n    uint256 currentIndex = 0;\n\n    MarketItem[] memory items = new MarketItem[](unsoldItemCount);\n    for (uint256 i = 0; i < itemCount; i++) {\n      if (idToMarketItem[i + 1].owner == address(0)) {\n        uint256 currentId = i + 1;\n        MarketItem storage currentItem = idToMarketItem[currentId];\n        items[currentIndex] = currentItem;\n        currentIndex += 1;\n      }\n    }\n    return items;\n  }\n\n  // Returns only items that a user has purchased\n  function fetchMyNFTs() public view returns (MarketItem[] memory) {\n    uint256 totalItemCount = _itemIds.current();\n    uint256 itemCount = 0;\n    uint256 currentIndex = 0;\n\n    for (uint256 i = 0; i < totalItemCount; i++) {\n      if (idToMarketItem[i + 1].owner == msg.sender) {\n        itemCount += 1;\n      }\n    }\n\n    MarketItem[] memory items = new MarketItem[](itemCount);\n    for (uint256 i = 0; i < totalItemCount; i++) {\n      if (idToMarketItem[i + 1].owner == msg.sender) {\n        uint256 currentId = i + 1;\n        MarketItem storage currentItem = idToMarketItem[currentId];\n        items[currentIndex] = currentItem;\n        currentIndex += 1;\n      }\n    }\n    return items;\n  }\n\n  // Returns only items a user has created\n  function fetchItemsCreated() public view returns (MarketItem[] memory) {\n    uint256 totalItemCount = _itemIds.current();\n    uint256 itemCount = 0;\n    uint256 currentIndex = 0;\n\n    for (uint256 i = 0; i < totalItemCount; i++) {\n      if (idToMarketItem[i + 1].seller == msg.sender) {\n        itemCount += 1;\n      }\n    }\n\n    MarketItem[] memory items = new MarketItem[](itemCount);\n    for (uint256 i = 0; i < totalItemCount; i++) {\n      if (idToMarketItem[i + 1].seller == msg.sender) {\n        uint256 currentId = i + 1;\n        MarketItem storage currentItem = idToMarketItem[currentId];\n        items[currentIndex] = currentItem;\n        currentIndex += 1;\n      }\n    }\n    return items;\n  }\n}\n",
  "sourcePath": "/home/gorkem/Web3/ETH/merge-swords/contracts/NFTMarketplace.sol",
  "compiler": {
    "name": "solc",
    "version": "0.8.10+commit.fc410830.Emscripten.clang"
  },
  "schemaVersion": "3.4.3",
  "updatedAt": "2022-01-25T14:52:15.538Z",
  "devdoc": {
    "kind": "dev",
    "methods": {},
    "version": 1
  },
  "userdoc": {
    "kind": "user",
    "methods": {},
    "version": 1
  }
}