{
  "contractName": "NFTMarketplace",
  "abi": [
    {
      "anonymous": false,
      "inputs": [
        {
          "indexed": true,
          "internalType": "uint256",
          "name": "itemId",
          "type": "uint256"
        },
        {
          "indexed": true,
          "internalType": "address",
          "name": "nftContract",
          "type": "address"
        },
        {
          "indexed": true,
          "internalType": "uint256",
          "name": "tokenId",
          "type": "uint256"
        },
        {
          "indexed": false,
          "internalType": "address",
          "name": "seller",
          "type": "address"
        },
        {
          "indexed": false,
          "internalType": "address",
          "name": "owner",
          "type": "address"
        },
        {
          "indexed": false,
          "internalType": "uint256",
          "name": "price",
          "type": "uint256"
        },
        {
          "indexed": false,
          "internalType": "bool",
          "name": "sold",
          "type": "bool"
        }
      ],
      "name": "MarketItemCreated",
      "type": "event"
    },
    {
      "inputs": [
        {
          "internalType": "address",
          "name": "nftContract",
          "type": "address"
        },
        {
          "internalType": "uint256",
          "name": "tokenId",
          "type": "uint256"
        },
        {
          "internalType": "uint256",
          "name": "dna",
          "type": "uint256"
        },
        {
          "internalType": "uint256",
          "name": "price",
          "type": "uint256"
        },
        {
          "internalType": "address",
          "name": "sender",
          "type": "address"
        }
      ],
      "name": "createMarketItem",
      "outputs": [],
      "stateMutability": "payable",
      "type": "function"
    },
    {
      "inputs": [
        {
          "internalType": "address",
          "name": "nftContract",
          "type": "address"
        },
        {
          "internalType": "uint256",
          "name": "itemId",
          "type": "uint256"
        },
        {
          "internalType": "address",
          "name": "sender",
          "type": "address"
        }
      ],
      "name": "withdrawMarketItem",
      "outputs": [],
      "stateMutability": "nonpayable",
      "type": "function"
    },
    {
      "inputs": [
        {
          "internalType": "address",
          "name": "nftContract",
          "type": "address"
        },
        {
          "internalType": "uint256",
          "name": "itemId",
          "type": "uint256"
        },
        {
          "internalType": "uint256",
          "name": "value",
          "type": "uint256"
        },
        {
          "internalType": "address",
          "name": "sender",
          "type": "address"
        }
      ],
      "name": "createMarketSale",
      "outputs": [],
      "stateMutability": "payable",
      "type": "function"
    },
    {
      "inputs": [],
      "name": "fetchMarketItems",
      "outputs": [
        {
          "components": [
            {
              "internalType": "uint256",
              "name": "itemId",
              "type": "uint256"
            },
            {
              "internalType": "address",
              "name": "nftContract",
              "type": "address"
            },
            {
              "internalType": "uint256",
              "name": "tokenId",
              "type": "uint256"
            },
            {
              "internalType": "uint256",
              "name": "dna",
              "type": "uint256"
            },
            {
              "internalType": "address payable",
              "name": "seller",
              "type": "address"
            },
            {
              "internalType": "address payable",
              "name": "owner",
              "type": "address"
            },
            {
              "internalType": "uint256",
              "name": "price",
              "type": "uint256"
            },
            {
              "internalType": "bool",
              "name": "sold",
              "type": "bool"
            }
          ],
          "internalType": "struct NFTMarketplace.MarketItem[]",
          "name": "",
          "type": "tuple[]"
        }
      ],
      "stateMutability": "view",
      "type": "function"
    },
    {
      "inputs": [
        {
          "internalType": "address",
          "name": "_user",
          "type": "address"
        }
      ],
      "name": "fetchMyNFTs",
      "outputs": [
        {
          "components": [
            {
              "internalType": "uint256",
              "name": "itemId",
              "type": "uint256"
            },
            {
              "internalType": "address",
              "name": "nftContract",
              "type": "address"
            },
            {
              "internalType": "uint256",
              "name": "tokenId",
              "type": "uint256"
            },
            {
              "internalType": "uint256",
              "name": "dna",
              "type": "uint256"
            },
            {
              "internalType": "address payable",
              "name": "seller",
              "type": "address"
            },
            {
              "internalType": "address payable",
              "name": "owner",
              "type": "address"
            },
            {
              "internalType": "uint256",
              "name": "price",
              "type": "uint256"
            },
            {
              "internalType": "bool",
              "name": "sold",
              "type": "bool"
            }
          ],
          "internalType": "struct NFTMarketplace.MarketItem[]",
          "name": "",
          "type": "tuple[]"
        }
      ],
      "stateMutability": "view",
      "type": "function"
    },
    {
      "inputs": [
        {
          "internalType": "address",
          "name": "_user",
          "type": "address"
        }
      ],
      "name": "fetchItemsCreated",
      "outputs": [
        {
          "components": [
            {
              "internalType": "uint256",
              "name": "itemId",
              "type": "uint256"
            },
            {
              "internalType": "address",
              "name": "nftContract",
              "type": "address"
            },
            {
              "internalType": "uint256",
              "name": "tokenId",
              "type": "uint256"
            },
            {
              "internalType": "uint256",
              "name": "dna",
              "type": "uint256"
            },
            {
              "internalType": "address payable",
              "name": "seller",
              "type": "address"
            },
            {
              "internalType": "address payable",
              "name": "owner",
              "type": "address"
            },
            {
              "internalType": "uint256",
              "name": "price",
              "type": "uint256"
            },
            {
              "internalType": "bool",
              "name": "sold",
              "type": "bool"
            }
          ],
          "internalType": "struct NFTMarketplace.MarketItem[]",
          "name": "",
          "type": "tuple[]"
        }
      ],
      "stateMutability": "view",
      "type": "function"
    }
  ],
  "bytecode": "0x608060405234801561001057600080fd5b506001600055611178806100256000396000f3fe6080604052600436106100655760003560e01c806387b231091161004357806387b23109146100d7578063c8338456146100ea578063d130f37a1461010a57600080fd5b80630de872511461006a5780630f08efe01461008c57806310afee1e146100b7575b600080fd5b34801561007657600080fd5b5061008a610085366004610c8b565b61011d565b005b34801561009857600080fd5b506100a161026f565b6040516100ae9190610de9565b60405180910390f35b3480156100c357600080fd5b506100a16100d2366004610e01565b610471565b61008a6100e5366004610e2a565b610696565b3480156100f657600080fd5b506100a1610105366004610e01565b6108a9565b61008a610118366004610ea2565b610ac4565b600260005414156101495760405162461bcd60e51b815260040161014090610f38565b60405180910390fd5b60026000556001600160a01b03831630146101765760405162461bcd60e51b815260040161014090610f7a565b6000828152600360205260409020600401546001600160a01b038281169116146101b25760405162461bcd60e51b815260040161014090610fbc565b6000828152600360205260409081902060078101805460ff191660011790556004808201805473ffffffffffffffffffffffffffffffffffffffff1916905560029091015491516323b872dd60e01b81526001600160a01b038616916323b872dd916102249130918791879101610fcc565b600060405180830381600087803b15801561023e57600080fd5b505af1158015610252573d6000803e3d6000fd5b50505050610264600280546001019055565b505060016000555050565b6060600061027c60015490565b9050600061028960025490565b600154610296919061100a565b90506000808267ffffffffffffffff8111156102b4576102b4611021565b60405190808252806020026020018201604052801561032357816020015b604080516101008101825260008082526020808301829052928201819052606082018190526080820181905260a0820181905260c0820181905260e082015282526000199092019101816102d25790505b50905060005b84811015610468576000600381610341846001611037565b81526020810191909152604001600020600501546001600160a01b031614801561039657506000600381610376846001611037565b81526020810191909152604001600020600401546001600160a01b031614155b156104565760006103a8826001611037565b6000818152600360208181526040928390208351610100810185528154815260018201546001600160a01b039081169382019390935260028201549481019490945291820154606084015260048201548116608084015260058201541660a0830152600681015460c0830152600781015460ff16151560e083015285519293509185908790811061043b5761043b61104f565b6020908102919091010152610451600186611037565b945050505b8061046081611065565b915050610329565b50949350505050565b6060600061047e60015490565b905060008060005b838110156104ea576001600160a01b038616600360006104a7846001611037565b81526020810191909152604001600020600501546001600160a01b031614156104d8576104d5600184611037565b92505b806104e281611065565b915050610486565b5060008267ffffffffffffffff81111561050657610506611021565b60405190808252806020026020018201604052801561057557816020015b604080516101008101825260008082526020808301829052928201819052606082018190526080820181905260a0820181905260c0820181905260e082015282526000199092019101816105245790505b50905060005b8481101561068c576001600160a01b0387166003600061059c846001611037565b81526020810191909152604001600020600501546001600160a01b0316141561067a5760006105cc826001611037565b6000818152600360208181526040928390208351610100810185528154815260018201546001600160a01b039081169382019390935260028201549481019490945291820154606084015260048201548116608084015260058201541660a0830152600681015460c0830152600781015460ff16151560e083015285519293509185908790811061065f5761065f61104f565b6020908102919091010152610675600186611037565b945050505b8061068481611065565b91505061057b565b5095945050505050565b600260005414156106b95760405162461bcd60e51b815260040161014090610f38565b6002600055816106db5760405162461bcd60e51b8152600401610140906110b2565b6001600160a01b03851630146107035760405162461bcd60e51b815260040161014090610f7a565b610711600180546001019055565b600061071c60015490565b60408051610100810182528281526001600160a01b0389811660208084018281528486018c8152606086018c81528a861660808801908152600060a0890181815260c08a018f815260e08b018381528d8452600398899052928c90209a518b55955160018b01805473ffffffffffffffffffffffffffffffffffffffff19908116928c16929092179055945160028b0155925195890195909555516004808901805485169289169290921790915590516005880180549093169616959095179055516006850155516007909301805460ff19169315159390931790925591516323b872dd60e01b8152929350916323b872dd9161081f91869130918b9101610fcc565b600060405180830381600087803b15801561083957600080fd5b505af115801561084d573d6000803e3d6000fd5b5050505084866001600160a01b0316827f045dfa01dcba2b36aba1d3dc4a874f4b0c5d2fbeb8d2c4b34a7d88c8d8f929d185600088600060405161089494939291906110c2565b60405180910390a45050600160005550505050565b606060006108b660015490565b905060008060005b83811015610922576001600160a01b038616600360006108df846001611037565b81526020810191909152604001600020600401546001600160a01b031614156109105761090d600184611037565b92505b8061091a81611065565b9150506108be565b5060008267ffffffffffffffff81111561093e5761093e611021565b6040519080825280602002602001820160405280156109ad57816020015b604080516101008101825260008082526020808301829052928201819052606082018190526080820181905260a0820181905260c0820181905260e0820152825260001990920191018161095c5790505b50905060005b8481101561068c576001600160a01b038716600360006109d4846001611037565b81526020810191909152604001600020600401546001600160a01b03161415610ab2576000610a04826001611037565b6000818152600360208181526040928390208351610100810185528154815260018201546001600160a01b039081169382019390935260028201549481019490945291820154606084015260048201548116608084015260058201541660a0830152600681015460c0830152600781015460ff16151560e0830152855192935091859087908110610a9757610a9761104f565b6020908102919091010152610aad600186611037565b945050505b80610abc81611065565b9150506109b3565b60026000541415610ae75760405162461bcd60e51b815260040161014090610f38565b600260008181558481526003602052604090206006810154910154838214610b215760405162461bcd60e51b815260040161014090611132565b6001600160a01b0386163014610b495760405162461bcd60e51b815260040161014090610f7a565b60008581526003602052604080822060058101805473ffffffffffffffffffffffffffffffffffffffff19166001600160a01b038881169190911790915560078201805460ff1916600117905560049091015491519116916108fc871502918791818181858888f19350505050158015610bc7573d6000803e3d6000fd5b506040516323b872dd60e01b81526001600160a01b038716906323b872dd90610bf890309087908690600401610fcc565b600060405180830381600087803b158015610c1257600080fd5b505af1158015610c26573d6000803e3d6000fd5b50505050610c38600280546001019055565b5050600160005550505050565b60006001600160a01b0382165b92915050565b610c6181610c45565b8114610c6c57600080fd5b50565b8035610c5281610c58565b80610c61565b8035610c5281610c7a565b600080600060608486031215610ca357610ca3600080fd5b6000610caf8686610c6f565b9350506020610cc086828701610c80565b9250506040610cd186828701610c6f565b9150509250925092565b805b82525050565b610cdd81610c45565b801515610cdd565b8051610d008382610cdb565b506020810151610d136020840182610ce3565b506040810151610d266040840182610cdb565b506060810151610d396060840182610cdb565b506080810151610d4c6080840182610ce3565b5060a0810151610d5f60a0840182610ce3565b5060c0810151610d7260c0840182610cdb565b5060e0810151610d8560e0840182610cec565b505050565b610d948282610cf4565b506101000190565b60200190565b6000610dac825190565b808452602093840193830160005b82811015610ddf578151610dce8782610d8a565b965050602082019150600101610dba565b5093949350505050565b60208082528101610dfa8184610da2565b9392505050565b600060208284031215610e1657610e16600080fd5b6000610e228484610c6f565b949350505050565b600080600080600060a08688031215610e4557610e45600080fd5b6000610e518888610c6f565b9550506020610e6288828901610c80565b9450506040610e7388828901610c80565b9350506060610e8488828901610c80565b9250506080610e9588828901610c6f565b9150509295509295909350565b60008060008060808587031215610ebb57610ebb600080fd5b6000610ec78787610c6f565b9450506020610ed887828801610c80565b9350506040610ee987828801610c80565b9250506060610efa87828801610c6f565b91505092959194509250565b601f8152602081017f5265656e7472616e637947756172643a207265656e7472616e742063616c6c0081529050610d9c565b60208082528101610c5281610f06565b600f8152602081017f4f6e6c792067616d65206974656d73000000000000000000000000000000000081529050610d9c565b60208082528101610c5281610f48565b600a8152602081017f4f6e6c79206f776e65720000000000000000000000000000000000000000000081529050610d9c565b60208082528101610c5281610f8a565b60608101610fda8286610ce3565b610fe76020830185610ce3565b610e226040830184610cdb565b634e487b7160e01b600052601160045260246000fd5b60008282101561101c5761101c610ff4565b500390565b634e487b7160e01b600052604160045260246000fd5b6000821982111561104a5761104a610ff4565b500190565b634e487b7160e01b600052603260045260246000fd5b600060001982141561107957611079610ff4565b5060010190565b601c8152602081017f5072696365206d757374206265206174206c656173742031207765690000000081529050610d9c565b60208082528101610c5281611080565b608081016110d08287610ce3565b6110dd6020830186610ce3565b6110ea6040830185610cdb565b6110f76060830184610cec565b95945050505050565b60198152602081017f41736b696e67207072696365206973206e6f7420657175616c0000000000000081529050610d9c565b60208082528101610c528161110056fea2646970667358221220a6bc11fe383d57e60402bafd32ccc08c274529fcb482b16744a755ee9c75d4c964736f6c634300080a0033",
  "immutableReferences": {},
  "source": "// SPDX-License-Identifier: MIT\npragma solidity >=0.4.22 <0.9.0;\n\nimport \"@openzeppelin/contracts/utils/Counters.sol\";\nimport \"@openzeppelin/contracts/security/ReentrancyGuard.sol\";\nimport \"@openzeppelin/contracts/token/ERC721/ERC721.sol\";\n\ncontract NFTMarketplace is ReentrancyGuard {\n  using Counters for Counters.Counter;\n  Counters.Counter private _itemIds;\n  Counters.Counter private _itemsSold;\n\n  mapping(uint256 => MarketItem) private idToMarketItem;\n\n  struct MarketItem {\n    uint256 itemId;\n    address nftContract;\n    uint256 tokenId;\n    uint256 dna;\n    address payable seller;\n    address payable owner;\n    uint256 price;\n    bool sold;\n  }\n\n  event MarketItemCreated(\n    uint256 indexed itemId,\n    address indexed nftContract,\n    uint256 indexed tokenId,\n    address seller,\n    address owner,\n    uint256 price,\n    bool sold\n  );\n\n  // Places an item for sale on the marketplace\n  function createMarketItem(\n    address nftContract,\n    uint256 tokenId,\n    uint256 dna,\n    uint256 price,\n    address sender\n  ) public payable nonReentrant {\n    require(price > 0, \"Price must be at least 1 wei\");\n    require(nftContract == address(this), \"Only game items\");\n\n    _itemIds.increment();\n    uint256 itemId = _itemIds.current();\n\n    idToMarketItem[itemId] = MarketItem(\n      itemId,\n      nftContract,\n      tokenId,\n      dna,\n      payable(sender),\n      payable(address(0)),\n      price,\n      false\n    );\n\n    IERC721(nftContract).transferFrom(sender, address(this), tokenId);\n\n    emit MarketItemCreated(itemId, nftContract, tokenId, sender, address(0), price, false);\n  }\n\n  function withdrawMarketItem(\n    address nftContract,\n    uint256 itemId,\n    address sender\n  ) public nonReentrant {\n    require(nftContract == address(this), \"Only game items\");\n    require(sender == idToMarketItem[itemId].seller, \"Only owner\");\n\n    // make it like sold for free back\n    idToMarketItem[itemId].sold = true;\n    idToMarketItem[itemId].seller = payable(address(0)); // remove from sold items\n    uint256 tokenId = idToMarketItem[itemId].tokenId;\n    IERC721(nftContract).transferFrom(address(this), sender, tokenId);\n    _itemsSold.increment();\n  }\n\n  // Creates the sale of a marketplace item\n  // Transfers ownership of the item, as well as funds between parties\n  function createMarketSale(\n    address nftContract,\n    uint256 itemId,\n    uint256 value,\n    address sender\n  ) public payable nonReentrant {\n    uint256 price = idToMarketItem[itemId].price;\n    uint256 tokenId = idToMarketItem[itemId].tokenId;\n    require(value == price, \"Asking price is not equal\");\n    require(nftContract == address(this), \"Only game items\");\n\n    idToMarketItem[itemId].owner = payable(sender);\n    idToMarketItem[itemId].sold = true;\n    idToMarketItem[itemId].seller.transfer(value);\n    IERC721(nftContract).transferFrom(address(this), sender, tokenId);\n\n    _itemsSold.increment();\n  }\n\n  // Returns all unsold market items\n  function fetchMarketItems() public view returns (MarketItem[] memory) {\n    uint256 itemCount = _itemIds.current();\n    uint256 unsoldItemCount = _itemIds.current() - _itemsSold.current();\n    uint256 currentIndex = 0;\n\n    MarketItem[] memory items = new MarketItem[](unsoldItemCount);\n    for (uint256 i = 0; i < itemCount; i++) {\n      // discard the withdrawn items\n      if (idToMarketItem[i + 1].owner == address(0) && idToMarketItem[i + 1].seller != address(0)) {\n        uint256 currentId = i + 1;\n        MarketItem storage currentItem = idToMarketItem[currentId];\n        items[currentIndex] = currentItem;\n        currentIndex += 1;\n      }\n    }\n    return items;\n  }\n\n  // Returns only items that a user has purchased\n  function fetchMyNFTs(address _user) public view returns (MarketItem[] memory) {\n    uint256 totalItemCount = _itemIds.current();\n    uint256 itemCount = 0;\n    uint256 currentIndex = 0;\n\n    for (uint256 i = 0; i < totalItemCount; i++) {\n      if (idToMarketItem[i + 1].owner == _user) {\n        itemCount += 1;\n      }\n    }\n\n    MarketItem[] memory items = new MarketItem[](itemCount);\n    for (uint256 i = 0; i < totalItemCount; i++) {\n      if (idToMarketItem[i + 1].owner == _user) {\n        uint256 currentId = i + 1;\n        MarketItem storage currentItem = idToMarketItem[currentId];\n        items[currentIndex] = currentItem;\n        currentIndex += 1;\n      }\n    }\n    return items;\n  }\n\n  // Returns only items a user has created\n  function fetchItemsCreated(address _user) public view returns (MarketItem[] memory) {\n    uint256 totalItemCount = _itemIds.current();\n    uint256 itemCount = 0;\n    uint256 currentIndex = 0;\n\n    for (uint256 i = 0; i < totalItemCount; i++) {\n      if (idToMarketItem[i + 1].seller == _user) {\n        itemCount += 1;\n      }\n    }\n\n    MarketItem[] memory items = new MarketItem[](itemCount);\n    for (uint256 i = 0; i < totalItemCount; i++) {\n      if (idToMarketItem[i + 1].seller == _user) {\n        uint256 currentId = i + 1;\n        MarketItem storage currentItem = idToMarketItem[currentId];\n        items[currentIndex] = currentItem;\n        currentIndex += 1;\n      }\n    }\n    return items;\n  }\n}\n",
  "sourcePath": "/home/gorkem/Web3/ETH/merge-swords/contracts/NFTMarketplace.sol",
  "compiler": {
    "name": "solc",
    "version": "0.8.10+commit.fc410830.Emscripten.clang"
  },
  "schemaVersion": "3.4.3",
  "updatedAt": "2022-02-07T08:01:57.185Z",
  "devdoc": {
    "kind": "dev",
    "methods": {},
    "version": 1
  },
  "userdoc": {
    "kind": "user",
    "methods": {},
    "version": 1
  }
}