{
  "contractName": "SaberSvgHelper",
  "abi": [
    {
      "inputs": [
        {
          "internalType": "string",
          "name": "_swordMaterial",
          "type": "string"
        }
      ],
      "name": "makeSaber",
      "outputs": [
        {
          "internalType": "string",
          "name": "",
          "type": "string"
        }
      ],
      "stateMutability": "pure",
      "type": "function"
    }
  ],
  "bytecode": "0x611b2961003a600b82828239805160001a60731461002d57634e487b7160e01b600052600060045260246000fd5b30600052607381538281f3fe73000000000000000000000000000000000000000030146080604052600436106100355760003560e01c8063e6a83c1f1461003a575b600080fd5b61004d6100483660046100a2565b610063565b60405161005a9190610183565b60405180910390f35b60608160405160200161007691906101d2565b6040516020818303038152906040529050919050565b634e487b7160e01b600052604160045260246000fd5b6000602082840312156100b457600080fd5b813567ffffffffffffffff808211156100cc57600080fd5b818401915084601f8301126100e057600080fd5b8135818111156100f2576100f261008c565b604051601f8201601f19908116603f0116810190838211818310171561011a5761011a61008c565b8160405282815287602084870101111561013357600080fd5b826020860160208301376000928101602001929092525095945050505050565b60005b8381101561016e578181015183820152602001610156565b8381111561017d576000848401525b50505050565b60208152600082518060208401526101a2816040850160208701610153565b601f01601f19169190910160400192915050565b600081516101c8818560208601610153565b9290920192915050565b7f3c7376672076696577426f783d273020302035322e3931363636362035322e39815266189b1b1b1c139f60c91b60208201527f3c67207374796c653d27646973706c61793a696e6c696e65273e000000000000602782015264078e0c2e8d60db1b60418201527f7374796c653d277374726f6b652d77696474683a302e3236343538332700000060468201527f643d276d2034322e3333333333362c332e3936383735206820312e333232393160638201527f36207620312e333232393138332068202d312e333232393136207a206d202d3160838201527f2e3332323931382c312e333232393137206820312e333232393136207620312e60a38201527f333232393138332068202d312e333232393136207a206d20302c2d312e33323260c38201527f393137206820312e333232393136207620312e333232393138332068202d312e60e38201527f333232393136207a206d202d372e393337352c312e333232393137206820312e61010382015260007f333232393136207620312e333232393138332068202d312e333232393136207a806101238401527f206d202d312e3332323931362c30206820312e333232393136207620312e33326101438401527f32393138332068202d312e333232393136207a206d202d312e3332323931362c6101638401527f312e333232393137206820312e333232393136207620312e33323239313833206101838401527f68202d312e333232393136207a206d202d312e3332323931382c30206820312e6101a3840152806101c3840152507f206d20372e393337352c2d322e363435383334206820312e33323239313620566101e38301527f20352e3239313636383320482033372e303431363638205a204d2033352e37316102038301527f3837352c352e323931363637206820312e333232393136205620362e363134356102238301527f38353320482033352e3731383735205a204d2033382e3336343538362c332e396102438301527f36383735206820312e333232393136207620312e333232393138332068202d316102638301527f2e333232393136207a206d20312e3332323931342c30206820312e33323239316102838301527f36205620352e3239313636383320482033392e36383735205a206d20302c322e6102a38301527f363435383334206820312e333232393136205620372e393337353032332048206102c38301527f33392e36383735205a206d202d312e3332323931342c312e33323239313720686102e38301527f20312e333232393136207620312e333232393138322068202d312e33323239316103038301527f36207a206d202d312e3332323931382c312e333232393136206820312e3332326103238301527f393136207620312e3332323931382068202d312e333232393136207a206d202d6103438301527f312e3332323931382c30206820312e333232393136207620312e3332323931386103638301527f20482033352e3731383735205a206d202d312e3332323931342c312e333232396103838301527f3137206820312e333232393136207620312e3332323931382068202d312e3332806103a38401527f32393136207a206d202d322e3634353833342c322e363435383333206820312e6103c38401527f333232393136207620312e3332323931382068202d312e333232393136207a20806103e38501527f6d20312e3332323931362c2d312e333232393136206820312e333232393136206104038501527f7620312e3332323931382068202d312e333232393136207a206d202d322e36346104238501527f353833322c322e363435383333206820312e333232393136207620312e3332326104438501527f3931382068202d312e333232393136207a206d202d312e3332323931382c312e6104638501527f333232393137206820312e333232393136207620312e3332323931382068202d6104838501527f312e333232393136207a206d202d312e3332323931362c30206820312e3332326104a38501527f393136207620312e3332323931382068202d312e333232393136207a206d2030806104c38601527f2c312e333232393137206820312e333232393136207620312e33323239313820806104e38701527f68202d312e333232393136207a206d202d312e3332323931362c322e363435386105038701527f3332206820312e333232393136207620312e3332323931382068202d312e33326105238701527f32393136207a206d20302c2d312e333232393136206820312e333232393136206105438701527f7620312e3332323931382068202d312e333232393136207a206d202d312e33326105638701527f323931382c322e363435383334206820312e333232393136207620312e3332326105838701527f3931382068202d312e333232393136207a206d20302c312e33323239313620686105a38701527f20312e333232393136207620312e33323239313820482032352e3133353431386105c38701527f205a204d2032332e3831323530322c32332e38313235206820312e33323239316105e38701527f36207620312e3332323931382068202d312e333232393136207a206d20302c31806106038801527f2e333232393138206820312e333232393136207620312e3332323931382068206106238801527f2d312e333232393136207a206d202d312e3332323931362c312e3332323931366106438801527f206820312e333232393136207620312e3332323931382068202d312e333232396106638801527f3136207a206d20302c312e333232393136206820312e333232393136207620316106838801527f2e3332323931382068202d312e333232393136207a206d202d312e33323239316106a38801527f382c312e333232393138206820312e333232393136207620312e3332323931386106c38801527f2068202d312e333232393136207a206d20302c312e333232393136206820312e6106e38801527f333232393136207620312e33323239313820482032312e313636363638205a206107038801527f4d2031392e3834333735322c33312e3735206820312e333232393136207620316107238801527f2e3332323931382068202d312e333232393136207a206d20302c312e333232396107438801527f3138206820312e333232393136207620312e3332323931382068202d312e33326107638801527f32393136207a206d202d312e3332323931382c312e333232393138206820312e610783880152836107a38801527f6d20302c312e333232393134206820312e333232393136207620312e333232396107c38801527f31382068202d312e333232393136207a206d202d312e3332323931362c312e336107e38801527f3232393138206820312e333232393136207620312e3332323931382068202d316108038801527f2e333232393136207a206d20302c312e333232393138206820312e33323239316108238801527f36207620312e33323239313820482031372e313937393138205a204d2031352e6108438801527f3837352c33392e36383735206820312e333232393136207620312e33323239316108638801527f3820482031352e383735205a204d2033342e3339353833362c352e32393136366108838801527f37206820312e333232393136205620362e3631343538353320482033342e33396108a38801527f35383336205a204d2032372e3738313235322c372e39333735206820312e33326108c38801527f32393136207620312e333232393138332068202d312e333232393136207a206d6108e38801527f202d312e3332323931382c312e333232393137206820312e33323239313620766109038801527f20312e3332323931382068202d312e333232393136207a206d202d312e3332329350836109238801527f3931362c30206820312e333232393136207620312e3332323931382068202d316109438801527f2e333232393136207a206d202d312e3332323931362c312e33323239313720686109638801527f20312e333232393136207620312e3332323931382068202d312e3332323931366109838801527f207a206d202d312e3332323931382c3020482032332e38313235207620312e336109a38801527f32323931382068202d312e333232393136207a206d20302c312e3332323931366109c38801527f20482032332e38313235207620312e3332323931382068202d312e33323239316109e38801527f36207a206d202d312e3332323931362c312e333232393137206820312e333232610a0388015282610a2388015281610a438801527f68202d312e333232393136207a206d202d312e3332323931362c312e33323239610a6388015284610a838801527f32393136207a206d20302c312e333232393135206820312e3332323931362076610aa388015283610ac38801527f3931382c312e333232393138206820312e333232393136207620312e33323239610ae38801527f31382068202d312e333232393136207a206d20302c312e333232393136206820610b038801527f312e333232393136207620312e3332323931382068202d312e33323239313620610b238801527f7a206d202d312e3332323931362c312e333232393136206820312e3332323931610b4388015280610b6388015250505050507f2e333232393138206820312e333232393136207620312e333232393138204820610b838301527f31372e313937393138205a204d2031352e3837352c32332e3831323520682031610ba38301527f2e333232393136207620312e33323239313820482031352e383735205a206d20610bc38301527f302c312e333232393136206820312e333232393136207620312e333232393138610be38301527f20482031352e383735205a206d202d312e3332323931362c312e333232393138610c038301527f20482031352e383735207620312e3332323931382068202d312e333232393136610c238301527f207a206d20302c312e33323239313620482031352e383735207620312e333232610c438301527f3931382068202d312e333232393136207a206d202d312e3332323931372c312e610c638301527f333232393138206820312e333232393136207620312e3332323931382068202d610c838301527f312e333232393136207a206d20302c312e333232393136206820312e33323239610ca38301527f3136207620312e33323239313820482031332e323239313637205a204d203131610cc38301527f2e39303632352c33312e3735206820312e333232393136207620312e33323239610ce38301527f313820482031312e3930363235205a206d20302c312e33323239313820682031610d038301527f2e333232393136207620312e33323239313820482031312e3930363235205a20610d238301527f6d202d312e3332323931362c312e333232393138206820312e33323239313620610d438301527f7620312e33323239313820482031302e353833333334205a204d2031352e3837610d638301527f352c34312e303130343138206820312e333232393136207620312e3332323931610d838301527f3820482031352e383735205a204d2031302e3538333333342c33352e37313837610da38301527f35206820312e333232393136207620312e3332323931382068202d312e333232610dc38301527f393136207a206d20332e39363837352c362e36313435383620482031352e3837610de38301527f35207620312e3332323931382068202d312e333232393136207a206d20302c31610e038301527f2e33323239313420482031352e383735207620312e3332323931382068202d31610e238301527f2e333232393136207a206d20302c3020482031352e383735207620312e333232610e438301527f3931382068202d312e333232393136207a206d20302c3020482031352e383735610e638301527f207620312e3332323931382068202d312e333232393136207a206d20302c3020610e838301527f482031352e383735207620312e33323239313820482031342e35353230383420610ea38301527f5a204d20392e3236303431372c33372e303431363638206820312e3332323931610ec38301527f36207620312e333232393138204820392e323630343137205a27202f3e000000610ee3830152611aec611ada611aca611aa16113d36113aa6113a461138c610f008a0164078e0c2e8d60db1b815260050190565b6b39ba3cb6329e93b334b6361d60a11b8152600c0190565b896101b6565b7f3b7374726f6b652d77696474683a302e32393930323827000000000000000000815260170190565b7f643d276d2035302e3233363734342c3135372e32383838352076202d322e353481527f3137342068202d322e3534313734202d322e35343137342076202d322e33393260208201527f3232202d322e33393232332068202d322e3534313734202d322e35343137342060408201527f76202d342e3933333937202d342e3933333936206820322e353431373420322e60608201527f35343137342076202d342e3933333937202d342e3933333936206820322e353460808201527f31373420322e35343137342076202d352e3038333438202d352e30383334382060a08201527f6820322e33393232323620322e3339323232352076202d342e3933333937202d60c08201527f342e3933333937206820322e353431373420322e35343137342076202d352e3060e08201527f38333438202d352e3038333438206820322e353431373420322e3534313734206101008201527f76202d342e393333393631202d342e393333393636206820322e3534313734206101208201527f322e35343137342076202d342e393333393636202d342e3933333936362068206101408201527f322e33393232323620322e3339323232362076202d352e3038333438202d352e6101608201527f3038333438206820322e353431373420322e353431373420562036352e3138386101808201527f3135352036302e3235343139206820322e353431373420322e353431373420766101a08201527f202d352e3038333438202d352e3038333438206820322e33393232323620322e6101c08201527f3339323232362076202d322e3534313734202d322e3534313734206820322e356101e08201527f3431373420322e35343137342076202d322e333932323236202d322e333932326102008201527f3236206820352e30383334383120352e30383334382076202d322e35343137346102208201527f202d322e3534313734206820322e333932323220322e33393232332076202d326102408201527f2e3534313734202d322e3534313734206820352e303833343820352e303833346102608201527f382076202d322e333932323236202d322e33393232323620682031302e3031376102808201527f34352031302e30313734342076202d322e3534313734202d322e3534313734206102a08201527f6820372e333236313920372e33323632207620322e33393232323620322e33396102c08201527f323232362068202d322e3534313734202d322e3534313734207620322e3339326102e08201527f32323620322e3339323232352068202d322e3534313734202d322e35343137346103008201527f207620322e353431373420322e35343137342068202d342e3933333937202d346103208201527f2e3933333937207620322e353431373420322e3534313734312068202d322e356103408201527f34313734202d322e3534313734207620322e33393232323520322e33393232326103608201527f362068202d322e3339323232202d322e3339323233207620322e3534313734206103808201527f322e35343137342068202d322e3534313734202d322e3534313734207620322e6103a08201527f353431373420322e35343137342068202d322e3534313734202d322e353431376103c08201527f34207620322e353431373420322e35343137342068202d342e3933333936202d6103e08201527f342e3933333937207620342e39333339363620342e3933333936362068202d326104008201527f2e3534313734202d322e353431373339207620352e303833343820352e3038336104208201527f34382068202d322e3534313734202d322e3534313734207620342e39333339366104408201527f3620342e3933333936362068202d322e3534313734202d322e353431373420766104608201527f20342e39333339363620342e3933333936362068202d322e333932323236202d6104808201527f322e333932323236207620352e30383334383320352e30383334382068202d326104a08201527f2e3534313734202d322e3534313734207620342e393333393620342e393333396104c08201527f372068202d322e3534313734202d322e3534313734207620352e3038333438206104e08201527f352e30383334382068202d322e333932323236202d322e3339323232362076206105008201527f342e393333393620342e39333339372068202d322e3534313734202d322e35346105208201527f313734207620352e303833343820352e30383334382068202d322e35343137346105408201527f202d322e3534313734207620342e393333393720342e39333339362068202d34610560820152732e373834343532202d342e373834343531207a2760601b6105808201526105940190565b7f7472616e73666f726d3d277363616c6528302e32363435383333332927202f3e815260200190565b631e17b39f60e11b815260040190565b651e17b9bb339f60d11b815260060190565b939250505056fea264697066735822122074c8dc59ba3775eb6e790085a9c3ca891b40c715e36571087378d7d0ce7dff2264736f6c634300080a0033",
  "immutableReferences": {},
  "source": "// SPDX-License-Identifier: MIT\npragma solidity ^0.8.0;\n\n// prettier-ignore\nlibrary SaberSvgHelper {\n  function makeSaber(string memory _swordMaterial) public pure returns (string memory) {\n    return \n      string(\n        abi.encodePacked(\n          \"<svg viewBox='0 0 52.916666 52.916668'>\",\n          \"<g style='display:inline'>\",\n          \"<path\",\n          \"style='stroke-width:0.264583'\",\n          \"d='m 42.333336,3.96875 h 1.322916 v 1.3229183 h -1.322916 z m -1.322918,1.322917 h 1.322916 v 1.3229183 h -1.322916 z m 0,-1.322917 h 1.322916 v 1.3229183 h -1.322916 z m -7.9375,1.322917 h 1.322916 v 1.3229183 h -1.322916 z m -1.322916,0 h 1.322916 v 1.3229183 h -1.322916 z m -1.322916,1.322917 h 1.322916 v 1.3229183 h -1.322916 z m -1.322918,0 h 1.322916 v 1.3229183 h -1.322916 z m 7.9375,-2.645834 h 1.322916 V 5.2916683 H 37.041668 Z M 35.71875,5.291667 h 1.322916 V 6.6145853 H 35.71875 Z M 38.364586,3.96875 h 1.322916 v 1.3229183 h -1.322916 z m 1.322914,0 h 1.322916 V 5.2916683 H 39.6875 Z m 0,2.645834 h 1.322916 V 7.9375023 H 39.6875 Z m -1.322914,1.322917 h 1.322916 v 1.3229182 h -1.322916 z m -1.322918,1.322916 h 1.322916 v 1.322918 h -1.322916 z m -1.322918,0 h 1.322916 v 1.322918 H 35.71875 Z m -1.322914,1.322917 h 1.322916 v 1.322918 h -1.322916 z m -2.645834,2.645833 h 1.322916 v 1.322918 h -1.322916 z m 1.322916,-1.322916 h 1.322916 v 1.322918 h -1.322916 z m -2.645832,2.645833 h 1.322916 v 1.322918 h -1.322916 z m -1.322918,1.322917 h 1.322916 v 1.322918 h -1.322916 z m -1.322916,0 h 1.322916 v 1.322918 h -1.322916 z m 0,1.322917 h 1.322916 v 1.322918 h -1.322916 z m -1.322916,2.645832 h 1.322916 v 1.322918 h -1.322916 z m 0,-1.322916 h 1.322916 v 1.322918 h -1.322916 z m -1.322918,2.645834 h 1.322916 v 1.322918 h -1.322916 z m 0,1.322916 h 1.322916 v 1.322918 H 25.135418 Z M 23.812502,23.8125 h 1.322916 v 1.322918 h -1.322916 z m 0,1.322918 h 1.322916 v 1.322918 h -1.322916 z m -1.322916,1.322916 h 1.322916 v 1.322918 h -1.322916 z m 0,1.322916 h 1.322916 v 1.322918 h -1.322916 z m -1.322918,1.322918 h 1.322916 v 1.322918 h -1.322916 z m 0,1.322916 h 1.322916 v 1.322918 H 21.166668 Z M 19.843752,31.75 h 1.322916 v 1.322918 h -1.322916 z m 0,1.322918 h 1.322916 v 1.322918 h -1.322916 z m -1.322918,1.322918 h 1.322916 v 1.322918 h -1.322916 z m 0,1.322914 h 1.322916 v 1.322918 h -1.322916 z m -1.322916,1.322918 h 1.322916 v 1.322918 h -1.322916 z m 0,1.322918 h 1.322916 v 1.322918 H 17.197918 Z M 15.875,39.6875 h 1.322916 v 1.322918 H 15.875 Z M 34.395836,5.291667 h 1.322916 V 6.6145853 H 34.395836 Z M 27.781252,7.9375 h 1.322916 v 1.3229183 h -1.322916 z m -1.322918,1.322917 h 1.322916 v 1.322918 h -1.322916 z m -1.322916,0 h 1.322916 v 1.322918 h -1.322916 z m -1.322916,1.322917 h 1.322916 v 1.322918 h -1.322916 z m -1.322918,0 H 23.8125 v 1.322918 h -1.322916 z m 0,1.322916 H 23.8125 v 1.322918 h -1.322916 z m -1.322916,1.322917 h 1.322916 v 1.322918 h -1.322916 z m 0,1.322917 h 1.322916 v 1.322918 h -1.322916 z m -1.322916,1.322917 h 1.322916 v 1.322918 h -1.322916 z m 0,1.322915 h 1.322916 v 1.322918 h -1.322916 z m -1.322918,1.322918 h 1.322916 v 1.322918 h -1.322916 z m 0,1.322916 h 1.322916 v 1.322918 h -1.322916 z m -1.322916,1.322916 h 1.322916 v 1.322918 h -1.322916 z m 0,1.322918 h 1.322916 v 1.322918 H 17.197918 Z M 15.875,23.8125 h 1.322916 v 1.322918 H 15.875 Z m 0,1.322916 h 1.322916 v 1.322918 H 15.875 Z m -1.322916,1.322918 H 15.875 v 1.322918 h -1.322916 z m 0,1.322916 H 15.875 v 1.322918 h -1.322916 z m -1.322917,1.322918 h 1.322916 v 1.322918 h -1.322916 z m 0,1.322916 h 1.322916 v 1.322918 H 13.229167 Z M 11.90625,31.75 h 1.322916 v 1.322918 H 11.90625 Z m 0,1.322918 h 1.322916 v 1.322918 H 11.90625 Z m -1.322916,1.322918 h 1.322916 v 1.322918 H 10.583334 Z M 15.875,41.010418 h 1.322916 v 1.322918 H 15.875 Z M 10.583334,35.71875 h 1.322916 v 1.322918 h -1.322916 z m 3.96875,6.614586 H 15.875 v 1.322918 h -1.322916 z m 0,1.322914 H 15.875 v 1.322918 h -1.322916 z m 0,0 H 15.875 v 1.322918 h -1.322916 z m 0,0 H 15.875 v 1.322918 h -1.322916 z m 0,0 H 15.875 v 1.322918 H 14.552084 Z M 9.260417,37.041668 h 1.322916 v 1.322918 H 9.260417 Z' />\",\n          \"<path\",\n          \"style='fill:\",\n          _swordMaterial,\n          \";stroke-width:0.299028'\",\n          \"d='m 50.236744,157.28885 v -2.54174 h -2.54174 -2.54174 v -2.39222 -2.39223 h -2.54174 -2.54174 v -4.93397 -4.93396 h 2.54174 2.54174 v -4.93397 -4.93396 h 2.54174 2.54174 v -5.08348 -5.08348 h 2.392226 2.392225 v -4.93397 -4.93397 h 2.54174 2.54174 v -5.08348 -5.08348 h 2.54174 2.54174 v -4.933961 -4.933966 h 2.54174 2.54174 v -4.933966 -4.933966 h 2.392226 2.392226 v -5.08348 -5.08348 h 2.54174 2.54174 V 65.188155 60.25419 h 2.54174 2.54174 v -5.08348 -5.08348 h 2.392226 2.392226 v -2.54174 -2.54174 h 2.54174 2.54174 v -2.392226 -2.392226 h 5.083481 5.08348 v -2.54174 -2.54174 h 2.39222 2.39223 v -2.54174 -2.54174 h 5.08348 5.08348 v -2.392226 -2.392226 h 10.01745 10.01744 v -2.54174 -2.54174 h 7.32619 7.3262 v 2.392226 2.392226 h -2.54174 -2.54174 v 2.392226 2.392225 h -2.54174 -2.54174 v 2.54174 2.54174 h -4.93397 -4.93397 v 2.54174 2.541741 h -2.54174 -2.54174 v 2.392225 2.392226 h -2.39222 -2.39223 v 2.54174 2.54174 h -2.54174 -2.54174 v 2.54174 2.54174 h -2.54174 -2.54174 v 2.54174 2.54174 h -4.93396 -4.93397 v 4.933966 4.933966 h -2.54174 -2.541739 v 5.08348 5.08348 h -2.54174 -2.54174 v 4.933966 4.933966 h -2.54174 -2.54174 v 4.933966 4.933966 h -2.392226 -2.392226 v 5.083483 5.08348 h -2.54174 -2.54174 v 4.93396 4.93397 h -2.54174 -2.54174 v 5.08348 5.08348 h -2.392226 -2.392226 v 4.93396 4.93397 h -2.54174 -2.54174 v 5.08348 5.08348 h -2.54174 -2.54174 v 4.93397 4.93396 h -4.784452 -4.784451 z'\",\n          \"transform='scale(0.26458333)' />\",\n          \"</g>\",\n          \"</svg>\"\n        )\n      );\n  }\n}",
  "sourcePath": "/home/gorkem/Web3/ETH/merge-swords/contracts/libraries/SaberSvgHelper.sol",
  "compiler": {
    "name": "solc",
    "version": "0.8.10+commit.fc410830.Emscripten.clang"
  },
  "schemaVersion": "3.4.3",
  "updatedAt": "2021-12-22T12:36:49.762Z",
  "devdoc": {
    "kind": "dev",
    "methods": {},
    "version": 1
  },
  "userdoc": {
    "kind": "user",
    "methods": {},
    "version": 1
  }
}