{
  "contractName": "SwordAttack",
  "abi": [
    {
      "inputs": [
        {
          "internalType": "uint256",
          "name": "",
          "type": "uint256"
        }
      ],
      "name": "attackLogs",
      "outputs": [
        {
          "internalType": "uint8",
          "name": "attacker",
          "type": "uint8"
        },
        {
          "internalType": "uint8",
          "name": "dealtDamage",
          "type": "uint8"
        },
        {
          "internalType": "uint8",
          "name": "remainingUserHealth",
          "type": "uint8"
        },
        {
          "internalType": "uint8",
          "name": "remainingMonsterHealth",
          "type": "uint8"
        }
      ],
      "stateMutability": "view",
      "type": "function"
    }
  ],
  "bytecode": "0x600561028081815264776869746560d81b6102a052608090815260066102c08181526579656c6c6f7760d01b6102e05260a052610300818152656f72616e676560d01b6103205260c0526003610340908152621c995960ea1b6103605260e05261038090815265707572706c6560d01b6103a0526101005260096103c0818152686461726b20626c756560b81b6103e05261012052600461040081815263626c756560e01b6104205261014052600a610440818152696c6967687420626c756560b01b61046052610160526104808581526433b932b2b760d91b6104a052610180526104c0818152693230b9359033b932b2b760b11b6104e0526101a05261050085815264313937bbb760d91b610520526101c052600b6105409081526a3634b3b43a10313937bbb760a91b610560526101e052610580908152696c69676874206772657960b01b6105a052610200526105c0908152636772657960e01b6105e05261022052610600908152686461726b206772657960b81b610620526102405261068060405261064091825264626c61636b60d81b61066052610260919091526101ae9060009060106106c4565b506040805160c08101825260076080820190815266676c616469757360c81b60a083015281528151808301835260058082526439b0b132b960d91b602083810191909152808401929092528351808501855260068152656b6174616e6160d01b818401528385015283518085019094528352646b6f6e646160d81b908301526060810191909152610243906001906004610721565b50604080516101408101825260046101008201818152631ddbdbd960e21b61012084015282528251808401845260058082526473746f6e6560d81b6020838101919091528085019290925284518086018652600681526562726f6e7a6560d01b818401528486015284518086018652908152641cdd19595b60da1b818301526060840152835180850185529182526319dbdb1960e21b82820152608083019190915282518084018452600780825266195b595c985b1960ca1b8284015260a08401919091528351808501855290815266191a585b5bdb9960ca1b8183015260c08301528251808401909352600c83526b636172626f6e2d666962726560a01b9083015260e081019190915261035c90600290600861076e565b506040805161024081018252600761020082018181526611b3333333333360c91b6102208401528252825180840184528181526611b3333333181960c91b6020828101919091528084019190915283518085018552828152660236666363630360cc1b818301528385015283518085018552828152660236666303030360cc1b818301526060840152835180850185528281526611b3331818333360c91b81830152608084015283518085018552828152660233030303038360cc1b8183015260a084015283518085018552828152661198181818333360c91b8183015260c084015283518085018552828152661198183333333360c91b8183015260e084015283518085018552828152660233030666630360cc1b8183015261010084015283518085018552828152660233030383030360cc1b8183015261012084015283518085018552828152660233830333330360cc1b8183015261014084015283518085018552828152660236434353530360cc1b818301526101608401528351808501855282815266119c989b331b3360c91b8183015261018084015283518085018552828152662336633533353360c81b818301526101a084015283518085018552828152662334383337333760c81b818301526101c08401528351808501909452908352662332343163316360c81b908301526101e08101919091526105679060039060106106c4565b50604080516101408101825260076101008201818152660233830333330360cc1b610120840152825282518084018452818152662361633933393360c81b6020828101919091528084019190915283518085018552828152660236666363630360cc1b818301528385015283518085018552828152662336633533353360c81b81830152606084015283518085018552828152660236666636330360cc1b81830152608084015283518085018552828152660233030383030360cc1b8183015260a084015283518085018552828152661198183333333360c91b8183015260c08401528351808501909452908352662332343163316360c81b9083015260e081019190915261067a90600490600861076e565b506000600555600c600681905561069290600a6109a6565b6007556008805462ffffff1916620a1e46179055620151806009556000600a553480156106be57600080fd5b506109f4565b828054828255906000526020600020908101928215610711579160200282015b8281111561071157825180516107019184916020909101906107bb565b50916020019190600101906106e4565b5061071d92915061083b565b5090565b828054828255906000526020600020908101928215610711579160200282015b82811115610711578251805161075e9184916020909101906107bb565b5091602001919060010190610741565b828054828255906000526020600020908101928215610711579160200282015b8281111561071157825180516107ab9184916020909101906107bb565b509160200191906001019061078e565b8280546107c7906109b9565b90600052602060002090601f0160209004810192826107e9576000855561082f565b82601f1061080257805160ff191683800117855561082f565b8280016001018555821561082f579182015b8281111561082f578251825591602001919060010190610814565b5061071d929150610858565b8082111561071d57600061084f828261086d565b5060010161083b565b5b8082111561071d5760008155600101610859565b508054610879906109b9565b6000825580601f10610889575050565b601f0160209004906000526020600020908101906108a79190610858565b50565b634e487b7160e01b600052601160045260246000fd5b600181815b808511156108fb5781600019048211156108e1576108e16108aa565b808516156108ee57918102915b93841c93908002906108c5565b509250929050565b600082610912575060016109a0565b8161091f575060006109a0565b8160018114610935576002811461093f5761095b565b60019150506109a0565b60ff841115610950576109506108aa565b50506001821b6109a0565b5060208310610133831016604e8410600b841016171561097e575081810a6109a0565b61098883836108c0565b806000190482111561099c5761099c6108aa565b0290505b92915050565b60006109b28383610903565b9392505050565b600181811c908216806109cd57607f821691505b602082108114156109ee57634e487b7160e01b600052602260045260246000fd5b50919050565b60f780610a026000396000f3fe6080604052348015600f57600080fd5b506004361060285760003560e01c8063a202beee14602d575b600080fd5b603c603836600460a9565b606a565b6040805160ff9586168152938516602085015291841683830152909216606082015290519081900360800190f35b600b8181548110607957600080fd5b60009182526020909120015460ff8082169250610100820481169162010000810482169163010000009091041684565b60006020828403121560ba57600080fd5b503591905056fea26469706673582212201aac8e35a1b354171113b962eac20fb5e2108aeca1ce763f2a204a578b742b6a64736f6c634300080a0033",
  "immutableReferences": {},
  "source": "// SPDX-License-Identifier: MIT\npragma solidity >=0.4.22 <0.9.0;\n\nimport \"@openzeppelin/contracts/utils/Counters.sol\";\nimport \"@openzeppelin/contracts/utils/math/SafeMath.sol\";\n\nimport \"./SwordFactory.sol\";\n\ncontract SwordAttack is SwordFactory {\n  using SafeMath for uint256;\n  using Counters for Counters.Counter;\n\n  // nonce for random number\n  uint256 private randNonceSwordAttack = 0;\n\n  struct AttackLog {\n    uint8 attacker; // 0 for user, 1 for monster\n    uint8 dealtDamage; // if 0, miss\n    uint8 remainingUserHealth;\n    uint8 remainingMonsterHealth;\n  }\n\n  AttackLog[] public attackLogs;\n  Counters.Counter private _logIds;\n\n  // make fight mechanic idle, monster and user autofights until one is done\n  function attackMonster(uint8 _attackPower) internal returns (AttackLog[] memory, bool) {\n    uint256 startIndex = _logIds.current();\n    uint256 endIndex = _logIds.current();\n\n    // monster stats\n    uint8 monsterHealth = 100;\n    uint8 userHealth = 100;\n    uint8 monsterAttackPower = calculateMonsterAttackPower(_attackPower);\n    uint8 userHitRatio = calculateHitMissRatio(_attackPower, monsterAttackPower);\n    uint8 monsterHitRatio = 100 - userHitRatio;\n\n    // normalize their attack powers to not oneshot each other\n    uint8 userNormalizedAP = normalizeAttackPower(_attackPower, monsterAttackPower);\n    uint8 monsterNormalizedAP = normalizeAttackPower(monsterAttackPower, _attackPower);\n\n    // randomly select the first attacker\n    // 1 means user starts\n    bool headsOrTails = headsTails();\n\n    bool didUserWon = false;\n    while (userHealth > 0 && monsterHealth > 0) {\n      uint8 hitNumber = randomNumberUpTo(100);\n\n      if (headsOrTails) {\n        // user attacks\n        if (hitNumber > userHitRatio) {\n          // check if we make monsters health zero\n          if (userNormalizedAP >= monsterHealth) {\n            monsterHealth = 0;\n            didUserWon = true;\n          } else {\n            monsterHealth = monsterHealth - userNormalizedAP;\n          }\n\n          addToAttackLog(0, userNormalizedAP, userHealth, monsterHealth);\n          endIndex.add(1);\n\n          headsOrTails = !headsOrTails;\n        } else {\n          addToAttackLog(0, 0, userHealth, monsterHealth);\n          endIndex.add(1);\n\n          headsOrTails = !headsOrTails;\n        }\n      } else {\n        // monster attacks\n        if (hitNumber > monsterHitRatio) {\n          if (monsterNormalizedAP >= userHealth) {\n            userHealth = 0;\n          } else {\n            userHealth = userHealth - monsterNormalizedAP;\n          }\n\n          addToAttackLog(1, monsterNormalizedAP, userHealth, monsterHealth);\n          endIndex.add(1);\n\n          headsOrTails = !headsOrTails;\n        } else {\n          addToAttackLog(1, 0, userHealth, monsterHealth);\n          endIndex.add(1);\n\n          headsOrTails = !headsOrTails;\n        }\n      }\n    }\n\n    AttackLog[] memory attackLogArr = generateLocalAttackLog(startIndex, endIndex);\n\n    return (attackLogArr, didUserWon);\n  }\n\n  function generateLocalAttackLog(uint256 _start, uint256 _end) private view returns (AttackLog[] memory) {\n    // fill the attack log to be returned\n    uint256 attackLogArrSize = _end.sub(_start);\n    AttackLog[] memory attackLogArr = new AttackLog[](attackLogArrSize);\n    uint256 index = 0;\n    while (index < attackLogArrSize) {\n      attackLogArr[index] = attackLogs[_start.add(index)];\n      index.add(1);\n    }\n\n    return attackLogArr;\n  }\n\n  function addToAttackLog(\n    uint8 _attacker,\n    uint8 _dealtDamage,\n    uint8 _remainingUserHealth,\n    uint8 _remainingMonsterHealth\n  ) private {\n    AttackLog memory newAttackLog = AttackLog(_attacker, _dealtDamage, _remainingUserHealth, _remainingMonsterHealth);\n\n    attackLogs.push(newAttackLog);\n    _logIds.increment();\n  }\n\n  function normalizeAttackPower(uint8 _firstAP, uint8 _secondAP) private pure returns (uint8) {\n    return uint8(SafeMath.div(SafeMath.mul(_firstAP, 10), _secondAP));\n  }\n\n  function randomNumberUpTo(uint8 _upperLimit) private view returns (uint8) {\n    // between 0 and _upperLimit\n    require(_upperLimit > 0, \"Upper limit should > 0\");\n    randNonceSwordAttack.add(1);\n    return\n      uint8(\n        uint256(keccak256(abi.encodePacked(block.timestamp, block.difficulty, randNonceSwordAttack))) % _upperLimit\n      );\n  }\n\n  function headsTails() private view returns (bool) {\n    // 0 -> heads, 1 -> tails\n    randNonceSwordAttack.add(1);\n    return (uint256(keccak256(abi.encodePacked(block.timestamp, block.difficulty, randNonceSwordAttack))) % 2) > 0;\n  }\n\n  function calculateMonsterAttackPower(uint8 _attackPower) private view returns (uint8) {\n    bool posOrNegative = headsTails();\n    uint8 monsterModifierMod = randomNumberUpTo(6);\n\n    // monster attack power randomly bigger or smaller than user\n    if (posOrNegative) {\n      return _attackPower + (_attackPower % monsterModifierMod);\n    } else {\n      return _attackPower - (_attackPower % monsterModifierMod);\n    }\n  }\n\n  function calculateHitMissRatio(uint8 _userAP, uint8 _monsterAP) private pure returns (uint8) {\n    // returns hit or miss ratio for user for given monster\n    return uint8(SafeMath.div(SafeMath.mul(_userAP, 100), _monsterAP));\n  }\n}\n",
  "sourcePath": "/home/gorkem/Web3/ETH/merge-swords/contracts/SwordAttack.sol",
  "compiler": {
    "name": "solc",
    "version": "0.8.10+commit.fc410830.Emscripten.clang"
  },
  "schemaVersion": "3.4.3",
  "updatedAt": "2021-12-20T09:54:22.605Z",
  "devdoc": {
    "kind": "dev",
    "methods": {},
    "version": 1
  },
  "userdoc": {
    "kind": "user",
    "methods": {},
    "version": 1
  }
}