{
  "contractName": "SwordSvgHelper",
  "abi": [
    {
      "inputs": [
        {
          "internalType": "string",
          "name": "_hilt",
          "type": "string"
        },
        {
          "internalType": "uint8",
          "name": "_swordType",
          "type": "uint8"
        },
        {
          "internalType": "string",
          "name": "_swordMaterial",
          "type": "string"
        }
      ],
      "name": "_assembleSvg",
      "outputs": [
        {
          "internalType": "string",
          "name": "",
          "type": "string"
        }
      ],
      "stateMutability": "pure",
      "type": "function"
    },
    {
      "inputs": [
        {
          "internalType": "string",
          "name": "_hilt",
          "type": "string"
        }
      ],
      "name": "_makeHiltSvg",
      "outputs": [
        {
          "internalType": "string",
          "name": "",
          "type": "string"
        }
      ],
      "stateMutability": "pure",
      "type": "function"
    },
    {
      "inputs": [
        {
          "internalType": "uint8",
          "name": "_swordType",
          "type": "uint8"
        },
        {
          "internalType": "string",
          "name": "_swordMaterial",
          "type": "string"
        }
      ],
      "name": "_makeSwordSvg",
      "outputs": [
        {
          "internalType": "string",
          "name": "",
          "type": "string"
        }
      ],
      "stateMutability": "pure",
      "type": "function"
    }
  ],
  "bytecode": "0x6114c561003a600b82828239805160001a60731461002d57634e487b7160e01b600052600060045260246000fd5b30600052607381538281f3fe730000000000000000000000000000000000000000301460806040526004361061004b5760003560e01c806334515a4f1461005057806362db80db14610079578063dbd3d75b1461008c575b600080fd5b61006361005e36600461031f565b61009f565b604051610070919061038c565b60405180910390f35b6100636100873660046103d5565b6100c8565b61006361009a366004610423565b61021c565b6060816040516020016100b291906104b3565b6040516020818303038152906040529050919050565b60608260ff1660031415610159576040516368ff75af60e11b815273__KondaSvgHelper________________________9063d1feeb5e9061010d90859060040161038c565b600060405180830381865af415801561012a573d6000803e3d6000fd5b505050506040513d6000823e601f3d908101601f19168201604052610152919081019061137a565b9050610216565b8260ff166002141561019c57604051632c1bbc7160e21b815273__KatanaSvgHelper_______________________9063b06ef1c49061010d90859060040161038c565b8260ff16600114156101df5760405163e6a83c1f60e01b815273__SaberSvgHelper________________________9063e6a83c1f9061010d90859060040161038c565b604051631bb26c4d60e01b815273__GladiusSvgHelper______________________90631bb26c4d9061010d90859060040161038c565b92915050565b60606102278461009f565b61023184846100c8565b6040516020016102429291906113f1565b60405160208183030381529060405290509392505050565b634e487b7160e01b600052604160045260246000fd5b604051601f8201601f1916810167ffffffffffffffff811182821017156102995761029961025a565b604052919050565b600067ffffffffffffffff8211156102bb576102bb61025a565b50601f01601f191660200190565b600082601f8301126102da57600080fd5b81356102ed6102e8826102a1565b610270565b81815284602083860101111561030257600080fd5b816020850160208301376000918101602001919091529392505050565b60006020828403121561033157600080fd5b813567ffffffffffffffff81111561034857600080fd5b610354848285016102c9565b949350505050565b60005b8381101561037757818101518382015260200161035f565b83811115610386576000848401525b50505050565b60208152600082518060208401526103ab81604085016020870161035c565b601f01601f19169190910160400192915050565b803560ff811681146103d057600080fd5b919050565b600080604083850312156103e857600080fd5b6103f1836103bf565b9150602083013567ffffffffffffffff81111561040d57600080fd5b610419858286016102c9565b9150509250929050565b60008060006060848603121561043857600080fd5b833567ffffffffffffffff8082111561045057600080fd5b61045c878388016102c9565b945061046a602087016103bf565b9350604086013591508082111561048057600080fd5b5061048d868287016102c9565b9150509250925092565b600081516104a981856020860161035c565b9290920192915050565b7f3c7376672076696577426f783d273020302035322e3931363636362035322e39815266189b1b1b1c139f60c91b6020820152621e339f60e91b602782015264078e0c2e8d60db1b602a8201527f7374796c653d27646973706c61793a696e6c696e653b66696c6c3a2330303030602f8201527f30313b7374726f6b652d77696474683a302e3236343538332700000000000000604f8201527f643d276d2031372e3139373931362c34372e363235206820312e33323239313760688201527f207620312e3332323931372068202d312e333232393137207a206d20302c2d3160888201527f2e333232393138206820312e333232393137207620312e33323239313720482060a88201527f31372e313937393136205a204d20332e393638373439352c33342e333935383360c88201527f32206820312e33323239313637207620312e333232393137204820332e39363860e88201527f37343935205a204d2031352e3837352c34372e363235206820312e33323239316101088201527f37207620312e33323239313720482031352e383735205a206d202d312e3332326101288201527f3931372c3020482031352e383735207620312e33323239313720482031342e356101488201527f3532303833205a204d2031352e3837352c34342e393739313638206820312e336101688201527f3232393137207620312e33323239313720482031352e383735205a204d2031346101888201527f2e3535323038332c34332e363536323520482031352e383735207620312e33326101a88201527f323931372068202d312e333232393137207a206d202d312e3332323931362c2d6101c88201527f312e333232393138206820312e333232393137207620312e33323239313720486101e88201527f2031332e323239313637205a204d2031312e39303632352c34312e30313034316102088201527f38206820312e333232393137207620312e33323239313720482031312e3930366102288201527f3235205a204d2031302e3538333333332c33392e36383735206820312e3332326102488201527f393137207620312e33323239313720482031302e353833333333205a204d20396102688201527f2e3236303431362c33382e333634353832206820312e333232393137207620316102888201527f2e333232393137204820392e323630343136205a204d20372e393337343939356102a88201527f2c33372e303431363638206820312e33323239313637207620312e33323239316102c88201527f37204820372e39333734393935205a204d20362e3631343538332c33352e37316102e88201527f383735206820312e33323239313636207620312e333232393137204820362e366103088201527f3134353833205a204d20352e323931363636352c33342e3339353833322068206103288201527f312e33323239313636207620312e333232393137204820352e323931363636356103488201527f205a206d202d312e3332323931372c312e333232393138206820312e333232396103688201527f313637207620312e333232393137204820332e39363837343935205a206d20306103888201527f2c312e333232393138206820312e33323239313637207620312e3332323931376103a88201527f204820332e39363837343935205a206d20392e323630343137352c392e3236306103c88201527f343134206820312e333232393137207620312e33323239313720482031332e326103e88201527f3239313637205a204d2031312e39303632352c34342e393739313638206820316104088201527f2e333232393137207620312e33323239313720482031312e3930363235205a206104288201527f4d20352e323931363636352c33382e333634353832206820312e3332323931366104488201527f36207620312e333232393137204820352e32393136363635205a204d20362e366104688201527f31343538332c33392e36383735206820312e33323239313636207620312e33326104888201527f32393137204820362e363134353833205a206d20332e39363837352c332e39366104a88201527f383735206820312e333232393137207620312e33323239313720482031302e356104c88201527f3833333333205a204d20372e393337343939352c34312e3031303431382068206104e88201527f312e33323239313637207620312e333232393137204820372e393337343939356105088201527f205a206d202d312e3332323931362c312e333232393134206820312e333232396105288201527f313636207620312e333232393137204820362e36313435383335205a206d20326105488201527f2e363435383333352c322e363435383336206820312e333232393137207620316105688201527f2e333232393137204820392e323630343137205a204d20372e393337352c34366105888201527f2e333032303832206820312e33323239313636207620312e33323239313720486105a88201527f20372e39333735205a204d20362e363134353833352c34372e363235206820316105c88201527f2e33323239313636207620312e333232393137204820362e36313435383335206105e88201527f5a206d202d312e3332323931372c2d332e3936383735206820312e33323239316106088201527f3636207620312e333232393137204820352e32393136363635205a204d20332e6106288201527f39363837352c34342e393739313638206820312e33323239313636207620312e6106488201527f333232393137204820332e3936383735205a206d202d312e333232393136372c6106688201527f312e333232393134206820312e33323239313636207620312e333232393137206106888201527f4820322e36343538333333205a206d20322e363435383333322c322e363435386106a88201527f3336206820312e33323239313636207620312e333232393137204820352e32396106c88201527f3136363635205a206d202d312e333232393136352c30206820312e33323239316106e88201527f3636207620312e333232393137204820332e3936383735205a204d20322e36346107088201527f35383333332c34372e363235206820312e33323239313636207620312e3332326107288201527f393137204820322e36343538333333205a206d20302c312e33323239313820686107488201527f20312e33323239313636207620312e333232393137204820322e3634353833336107688201526619902d1390179f60c91b6107888201526000611373611361611351611328610e7e610e55610e4f610e3761078f8a0164078e0c2e8d60db1b815260050190565b6b39ba3cb6329e93b334b6361d60a11b8152600c0190565b89610497565b7f3b7374726f6b652d77696474683a302e31393736393627000000000000000000815260170190565b7f643d276d2031352e30323438382c3138302e30303230312076202d342e39343281527f3339206820322e35373030343520322e3537303034352076202d322e3437313260208201527f202d322e34373132206820322e34373131393720322e3437313139382076202d60408201527f322e3437313139202d322e34373132206820322e34373131393720322e34373160608201527f3139372076202d322e3537303035202d322e3537303034206820322e3537303060808201527f343520322e3537303034362076202d322e3537303035202d322e35373030342060a08201527f68202d322e353730303436202d322e3537303034352076202d322e343731322060c08201527f2d322e343731322068202d322e343731313937202d322e34373131393720762060e08201527f2d322e3537303034202d322e353730303520482032322e3633363136372032306101008201527f2e31363439372076202d342e3834333534202d342e3834333535206820322e336101208201527f373233343920322e3337323335207620322e3437313220322e343731313920686101408201527f20322e34373131393720322e343731313937207620322e3437313220322e34376101608201527f3132206820322e35373030343620322e353730303435207620322e35373030346101808201527f20322e3537303035206820322e34373131393720322e343731313937207620326101a08201527f2e3437313220322e3437313139206820322e34373131393820322e34373131396101c08201527f37207620322e3437313220322e34373132206820322e34373131393720322e346101e08201527f3731313938207620322e353730303420322e3537303035206820322e353730306102008201527f343520322e353730303435207620322e3437313220322e3437313139206820326102208201527f2e34373131393720322e343731313938207620322e3437313220322e343731326102408201527f206820322e34373131393720322e343731313937207620322e333732333520326102608201527f2e33373233352068202d342e383433353436202d342e3834333534372076202d6102808201527f322e34373132202d322e343731322068202d322e353730303435202d322e35376102a08201527f303034362076202d322e34373132202d322e34373131392068202d322e3437316102c08201527f313937202d322e3437313139372076202d322e34373132202d322e34373132206102e08201527f68202d322e353730303435202d322e353730303436207620322e3437313220326103008201527f2e343731322068202d322e343731313937202d322e343731313937207620322e6103208201527f343731313920322e343731322068202d322e353730303435202d322e353730306103408201527f3436207620322e343635313120322e3436353132206c202d322e3432313737336103608201527f2c302e30353535202d322e3432313737332c302e30353535202d302e303535336103808201527f332c322e3532303633202d302e30353533332c322e353230363220482031392e6103a0820152713936313336382031352e3032343838205a2760701b6103c08201526103d20190565b7f7472616e73666f726d3d277363616c6528302e32363435383333332927202f3e815260200190565b631e17b39f60e11b815260040190565b651e17b9bb339f60d11b815260060190565b9392505050565b60006020828403121561138c57600080fd5b815167ffffffffffffffff8111156113a357600080fd5b8201601f810184136113b457600080fd5b80516113c26102e8826102a1565b8181528560208385010111156113d757600080fd5b6113e882602083016020860161035c565b95945050505050565b7f3c73766720786d6c6e733d27687474703a2f2f7777772e77332e6f72672f323081527f30302f737667272077696474683d2732303027206865696768743d27323030276020820152601f60f91b60408201526000835161145981604185016020880161035c565b83519083019061147081604184016020880161035c565b651e17b9bb339f60d11b6041929091019182015260470194935050505056fea2646970667358221220ef38395a21fd36b3d74446875a61c6d638bb914ac6d428cbd11ef761bbb6249264736f6c634300080a0033",
  "immutableReferences": {},
  "source": "// SPDX-License-Identifier: MIT\npragma solidity ^0.8.0;\n\nimport \"./GladiusSvgHelper.sol\";\nimport \"./SaberSvgHelper.sol\";\nimport \"./KatanaSvgHelper.sol\";\nimport \"./KondaSvgHelper.sol\";\n\n// prettier-ignore\nlibrary SwordSvgHelper {\n  function _assembleSvg(\n    string memory _hilt,\n    uint8 _swordType,\n    string memory _swordMaterial\n  ) public pure returns (string memory) {\n    return \n      string(\n        abi.encodePacked(\n          \"<svg xmlns='http://www.w3.org/2000/svg' width='200' height='200'>\",\n          _makeHiltSvg(_hilt),\n          _makeSwordSvg(_swordType, _swordMaterial),\n          \"</svg>\"\n        )\n      );\n  }\n\n  function _makeHiltSvg(string memory _hilt) public pure returns (string memory) {\n    return \n      string(\n        abi.encodePacked(\n          \"<svg viewBox='0 0 52.916666 52.916668'>\",\n          \"<g>\",\n          \"<path\",\n          \"style='display:inline;fill:#000001;stroke-width:0.264583'\",\n          \"d='m 17.197916,47.625 h 1.322917 v 1.322917 h -1.322917 z m 0,-1.322918 h 1.322917 v 1.322917 H 17.197916 Z M 3.9687495,34.395832 h 1.3229167 v 1.322917 H 3.9687495 Z M 15.875,47.625 h 1.322917 v 1.322917 H 15.875 Z m -1.322917,0 H 15.875 v 1.322917 H 14.552083 Z M 15.875,44.979168 h 1.322917 v 1.322917 H 15.875 Z M 14.552083,43.65625 H 15.875 v 1.322917 h -1.322917 z m -1.322916,-1.322918 h 1.322917 v 1.322917 H 13.229167 Z M 11.90625,41.010418 h 1.322917 v 1.322917 H 11.90625 Z M 10.583333,39.6875 h 1.322917 v 1.322917 H 10.583333 Z M 9.260416,38.364582 h 1.322917 v 1.322917 H 9.260416 Z M 7.9374995,37.041668 h 1.3229167 v 1.322917 H 7.9374995 Z M 6.614583,35.71875 h 1.3229166 v 1.322917 H 6.614583 Z M 5.2916665,34.395832 h 1.3229166 v 1.322917 H 5.2916665 Z m -1.322917,1.322918 h 1.3229167 v 1.322917 H 3.9687495 Z m 0,1.322918 h 1.3229167 v 1.322917 H 3.9687495 Z m 9.2604175,9.260414 h 1.322917 v 1.322917 H 13.229167 Z M 11.90625,44.979168 h 1.322917 v 1.322917 H 11.90625 Z M 5.2916665,38.364582 h 1.3229166 v 1.322917 H 5.2916665 Z M 6.614583,39.6875 h 1.3229166 v 1.322917 H 6.614583 Z m 3.96875,3.96875 h 1.322917 v 1.322917 H 10.583333 Z M 7.9374995,41.010418 h 1.3229167 v 1.322917 H 7.9374995 Z m -1.322916,1.322914 h 1.3229166 v 1.322917 H 6.6145835 Z m 2.6458335,2.645836 h 1.322917 v 1.322917 H 9.260417 Z M 7.9375,46.302082 h 1.3229166 v 1.322917 H 7.9375 Z M 6.6145835,47.625 h 1.3229166 v 1.322917 H 6.6145835 Z m -1.322917,-3.96875 h 1.3229166 v 1.322917 H 5.2916665 Z M 3.96875,44.979168 h 1.3229166 v 1.322917 H 3.96875 Z m -1.3229167,1.322914 h 1.3229166 v 1.322917 H 2.6458333 Z m 2.6458332,2.645836 h 1.3229166 v 1.322917 H 5.2916665 Z m -1.3229165,0 h 1.3229166 v 1.322917 H 3.96875 Z M 2.6458333,47.625 h 1.3229166 v 1.322917 H 2.6458333 Z m 0,1.322918 h 1.3229166 v 1.322917 H 2.6458333 Z' />\",\n          \"<path\",\n          \"style='fill:\",\n          _hilt,\n          \";stroke-width:0.197696'\",\n          \"d='m 15.02488,180.00201 v -4.94239 h 2.570045 2.570045 v -2.4712 -2.4712 h 2.471197 2.471198 v -2.47119 -2.4712 h 2.471197 2.471197 v -2.57005 -2.57004 h 2.570045 2.570046 v -2.57005 -2.57004 h -2.570046 -2.570045 v -2.4712 -2.4712 h -2.471197 -2.471197 v -2.57004 -2.57005 H 22.636167 20.16497 v -4.84354 -4.84355 h 2.372349 2.37235 v 2.4712 2.47119 h 2.471197 2.471197 v 2.4712 2.4712 h 2.570046 2.570045 v 2.57004 2.57005 h 2.471197 2.471197 v 2.4712 2.47119 h 2.471198 2.471197 v 2.4712 2.4712 h 2.471197 2.471198 v 2.57004 2.57005 h 2.570045 2.570045 v 2.4712 2.47119 h 2.471197 2.471198 v 2.4712 2.4712 h 2.471197 2.471197 v 2.37235 2.37235 h -4.843546 -4.843547 v -2.4712 -2.4712 h -2.570045 -2.570046 v -2.4712 -2.47119 h -2.471197 -2.471197 v -2.4712 -2.4712 h -2.570045 -2.570046 v 2.4712 2.4712 h -2.471197 -2.471197 v 2.47119 2.4712 h -2.570045 -2.570046 v 2.46511 2.46512 l -2.421773,0.0555 -2.421773,0.0555 -0.05533,2.52063 -0.05533,2.52062 H 19.961368 15.02488 Z'\",\n          \"transform='scale(0.26458333)' />\",\n          \"</g>\",\n          \"</svg>\"\n        )\n      );\n  }\n\n  function _makeSwordSvg(uint8 _swordType, string memory _swordMaterial) public pure returns (string memory) {\n    if (_swordType == 3) {\n      return KondaSvgHelper.makeKonda(_swordMaterial);\n    } else if (_swordType == 2) {\n      return KatanaSvgHelper.makeKatana(_swordMaterial);\n    } else if (_swordType == 1) {\n      return SaberSvgHelper.makeSaber(_swordMaterial);     \n    } else {\n      return GladiusSvgHelper.makeGladius(_swordMaterial);\n    }\n  }\n}",
  "sourcePath": "/home/gorkem/Web3/ETH/merge-swords/contracts/libraries/SwordSvgHelper.sol",
  "compiler": {
    "name": "solc",
    "version": "0.8.10+commit.fc410830.Emscripten.clang"
  },
  "schemaVersion": "3.4.3",
  "updatedAt": "2021-12-20T09:54:22.655Z",
  "devdoc": {
    "kind": "dev",
    "methods": {},
    "version": 1
  },
  "userdoc": {
    "kind": "user",
    "methods": {},
    "version": 1
  }
}